Archive member included because of file (symbol)

c:/program files (x86)/atollic/truestudio for arm lite 4.3.1/armtools/bin/../lib/gcc/arm-atollic-eabi/4.7.3/../../../../arm-atollic-eabi/lib/armv7e-m/fpu\libc.a(lib_a-init.o)
                              src\startup_stm32f30x.o (__libc_init_array)
c:/program files (x86)/atollic/truestudio for arm lite 4.3.1/armtools/bin/../lib/gcc/arm-atollic-eabi/4.7.3/../../../../arm-atollic-eabi/lib/armv7e-m/fpu\libc.a(lib_a-strlen.o)
                              src\tiny_printf.o (strlen)
c:/program files (x86)/atollic/truestudio for arm lite 4.3.1/armtools/bin/../lib/gcc/arm-atollic-eabi/4.7.3/../../../../arm-atollic-eabi/lib/armv7e-m/fpu\libc.a(lib_a-syscalls.o)
                              src\tiny_printf.o (_write)
c:/program files (x86)/atollic/truestudio for arm lite 4.3.1/armtools/bin/../lib/gcc/arm-atollic-eabi/4.7.3/../../../../arm-atollic-eabi/lib/armv7e-m/fpu\libc.a(lib_a-reent.o)
                              c:/program files (x86)/atollic/truestudio for arm lite 4.3.1/armtools/bin/../lib/gcc/arm-atollic-eabi/4.7.3/../../../../arm-atollic-eabi/lib/armv7e-m/fpu\libc.a(lib_a-syscalls.o) (errno)
c:/program files (x86)/atollic/truestudio for arm lite 4.3.1/armtools/bin/../lib/gcc/arm-atollic-eabi/4.7.3/../../../../arm-atollic-eabi/lib/armv7e-m/fpu\libc.a(lib_a-freer.o)
                              c:/program files (x86)/atollic/truestudio for arm lite 4.3.1/armtools/bin/../lib/gcc/arm-atollic-eabi/4.7.3/../../../../arm-atollic-eabi/lib/armv7e-m/fpu\libc.a(lib_a-reent.o) (_free_r)
c:/program files (x86)/atollic/truestudio for arm lite 4.3.1/armtools/bin/../lib/gcc/arm-atollic-eabi/4.7.3/../../../../arm-atollic-eabi/lib/armv7e-m/fpu\libc.a(lib_a-impure.o)
                              c:/program files (x86)/atollic/truestudio for arm lite 4.3.1/armtools/bin/../lib/gcc/arm-atollic-eabi/4.7.3/../../../../arm-atollic-eabi/lib/armv7e-m/fpu\libc.a(lib_a-reent.o) (_impure_ptr)
c:/program files (x86)/atollic/truestudio for arm lite 4.3.1/armtools/bin/../lib/gcc/arm-atollic-eabi/4.7.3/../../../../arm-atollic-eabi/lib/armv7e-m/fpu\libc.a(lib_a-mallocr.o)
                              c:/program files (x86)/atollic/truestudio for arm lite 4.3.1/armtools/bin/../lib/gcc/arm-atollic-eabi/4.7.3/../../../../arm-atollic-eabi/lib/armv7e-m/fpu\libc.a(lib_a-freer.o) (__malloc_current_mallinfo)
c:/program files (x86)/atollic/truestudio for arm lite 4.3.1/armtools/bin/../lib/gcc/arm-atollic-eabi/4.7.3/../../../../arm-atollic-eabi/lib/armv7e-m/fpu\libc.a(lib_a-mlock.o)
                              c:/program files (x86)/atollic/truestudio for arm lite 4.3.1/armtools/bin/../lib/gcc/arm-atollic-eabi/4.7.3/../../../../arm-atollic-eabi/lib/armv7e-m/fpu\libc.a(lib_a-freer.o) (__malloc_lock)
c:/program files (x86)/atollic/truestudio for arm lite 4.3.1/armtools/bin/../lib/gcc/arm-atollic-eabi/4.7.3/../../../../arm-atollic-eabi/lib/armv7e-m/fpu\libc.a(lib_a-sbrkr.o)
                              c:/program files (x86)/atollic/truestudio for arm lite 4.3.1/armtools/bin/../lib/gcc/arm-atollic-eabi/4.7.3/../../../../arm-atollic-eabi/lib/armv7e-m/fpu\libc.a(lib_a-freer.o) (_sbrk_r)
c:/program files (x86)/atollic/truestudio for arm lite 4.3.1/armtools/bin/../lib/gcc/arm-atollic-eabi/4.7.3/armv7e-m/fpu\libgcc.a(_arm_addsubdf3.o)
                              src\main.o (__aeabi_i2d)
c:/program files (x86)/atollic/truestudio for arm lite 4.3.1/armtools/bin/../lib/gcc/arm-atollic-eabi/4.7.3/armv7e-m/fpu\libgcc.a(_arm_muldivdf3.o)
                              src\main.o (__aeabi_dmul)
c:/program files (x86)/atollic/truestudio for arm lite 4.3.1/armtools/bin/../lib/gcc/arm-atollic-eabi/4.7.3/armv7e-m/fpu\libgcc.a(_arm_truncdfsf2.o)
                              src\tiny_printf.o (__aeabi_d2f)

Allocating common symbols
Common symbol       size              file

tim                 0x4               src\main.o
Qei3                0x14              Libraries\STM32F30x_StdPeriph_Driver\src\incioenc.o
b                   0x4               Libraries\STM32F30x_StdPeriph_Driver\src\inciouart.o
side                0x4               src\main.o
char5data           0x1               Libraries\STM32F30x_StdPeriph_Driver\src\inciouart.o
TIM_TimeBaseStructure
                    0xc               src\main.o
list                0x4               Libraries\STM32F30x_StdPeriph_Driver\src\inciogpio.o
modd                0x4               src\common.o
errno               0x4               c:/program files (x86)/atollic/truestudio for arm lite 4.3.1/armtools/bin/../lib/gcc/arm-atollic-eabi/4.7.3/../../../../arm-atollic-eabi/lib/armv7e-m/fpu\libc.a(lib_a-reent.o)
BYTE                0x4               Libraries\STM32F30x_StdPeriph_Driver\src\inciogpio.o
char4data           0x1               Libraries\STM32F30x_StdPeriph_Driver\src\inciouart.o
BYTES               0x4               src\common.o
ang                 0x4               src\main.o
dir1                0x4               src\main.o
mod                 0x4               Libraries\STM32F30x_StdPeriph_Driver\src\inciogpio.o
Qei2                0x14              Libraries\STM32F30x_StdPeriph_Driver\src\incioenc.o
i                   0x4               Libraries\STM32F30x_StdPeriph_Driver\src\inciouart.o
switches            0x4               src\common.o
metre               0x4               src\common.o
QEIflag             0x4               Libraries\STM32F30x_StdPeriph_Driver\src\incioenc.o
dir0                0x4               src\main.o
dataregis           0x2               Libraries\STM32F30x_StdPeriph_Driver\src\inciobdc.o
TIM_OCInitStructure
                    0x14              src\main.o
delta               0x4               src\main.o
currentvalue        0x4               src\main.o
Qei4                0x14              Libraries\STM32F30x_StdPeriph_Driver\src\incioenc.o
GPIO_InitStructure  0x8               src\main.o
jiffies             0x4               src\common.o
USART_InitStructure
                    0x18              src\main.o
buf                 0x64              src\main.o
Qei1                0x14              Libraries\STM32F30x_StdPeriph_Driver\src\incioenc.o
NVIC_InitStructure  0x4               src\main.o
RCC_Clocks          0x3c              src\main.o
sfbits              0x4               Libraries\STM32F30x_StdPeriph_Driver\src\inciobdc.o

Discarded input sections

 .text          0x00000000        0x0 c:/program files (x86)/atollic/truestudio for arm lite 4.3.1/armtools/bin/../lib/gcc/arm-atollic-eabi/4.7.3/armv7e-m/fpu/crti.o
 .data          0x00000000        0x0 c:/program files (x86)/atollic/truestudio for arm lite 4.3.1/armtools/bin/../lib/gcc/arm-atollic-eabi/4.7.3/armv7e-m/fpu/crti.o
 .bss           0x00000000        0x0 c:/program files (x86)/atollic/truestudio for arm lite 4.3.1/armtools/bin/../lib/gcc/arm-atollic-eabi/4.7.3/armv7e-m/fpu/crti.o
 .data          0x00000000        0x4 c:/program files (x86)/atollic/truestudio for arm lite 4.3.1/armtools/bin/../lib/gcc/arm-atollic-eabi/4.7.3/armv7e-m/fpu/crtbegin.o
 .text          0x00000000        0x0 src\tiny_printf.o
 .data          0x00000000        0x0 src\tiny_printf.o
 .bss           0x00000000        0x0 src\tiny_printf.o
 .text.ts_formatlength
                0x00000000      0x158 src\tiny_printf.o
 .text.fiprintf
                0x00000000       0xb4 src\tiny_printf.o
 .text.iprintf  0x00000000       0xac src\tiny_printf.o
 .text.fputs    0x00000000       0x74 src\tiny_printf.o
 .text.puts     0x00000000       0x68 src\tiny_printf.o
 .text          0x00000000        0x0 src\system_stm32f30x.o
 .data          0x00000000        0x0 src\system_stm32f30x.o
 .bss           0x00000000        0x0 src\system_stm32f30x.o
 .data.SystemCoreClock
Memory Configuration

Name             Origin             Length             Attributes
FLASH            0x08000000         0x00040000         xr
RAM              0x20000000         0x0000a000         xrw
MEMORY_B1        0x60000000         0x00000000         xr
CCMRAM           0x10000000         0x00002000         rw
*default*        0x00000000         0xffffffff

Linker script and memory map

LOAD c:/program files (x86)/atollic/truestudio for arm lite 4.3.1/armtools/bin/../lib/gcc/arm-atollic-eabi/4.7.3/armv7e-m/fpu/crti.o
LOAD c:/program files (x86)/atollic/truestudio for arm lite 4.3.1/armtools/bin/../lib/gcc/arm-atollic-eabi/4.7.3/armv7e-m/fpu/crtbegin.o
LOAD src\tiny_printf.o
LOAD src\system_stm32f30x.o
LOAD src\stm32f30x_it.o
LOAD src\startup_stm32f30x.o
LOAD src\main.o
LOAD src\common.o
LOAD Utilities\STM32F3_Discovery\stm32f3_discovery_lsm303dlhc.o
LOAD Utilities\STM32F3_Discovery\stm32f3_discovery_l3gd20.o
LOAD Utilities\STM32F3_Discovery\stm32f3_discovery.o
LOAD Libraries\STM32F30x_StdPeriph_Driver\src\stm32f30x_wwdg.o
LOAD Libraries\STM32F30x_StdPeriph_Driver\src\stm32f30x_usart.o
LOAD Libraries\STM32F30x_StdPeriph_Driver\src\stm32f30x_tim.o
LOAD Libraries\STM32F30x_StdPeriph_Driver\src\stm32f30x_syscfg.o
LOAD Libraries\STM32F30x_StdPeriph_Driver\src\stm32f30x_spi.o
LOAD Libraries\STM32F30x_StdPeriph_Driver\src\stm32f30x_rtc.o
LOAD Libraries\STM32F30x_StdPeriph_Driver\src\stm32f30x_rcc.o
LOAD Libraries\STM32F30x_StdPeriph_Driver\src\stm32f30x_pwr.o
LOAD Libraries\STM32F30x_StdPeriph_Driver\src\stm32f30x_opamp.o
LOAD Libraries\STM32F30x_StdPeriph_Driver\src\stm32f30x_misc.o
LOAD Libraries\STM32F30x_StdPeriph_Driver\src\stm32f30x_iwdg.o
LOAD Libraries\STM32F30x_StdPeriph_Driver\src\stm32f30x_i2c.o
LOAD Libraries\STM32F30x_StdPeriph_Driver\src\stm32f30x_gpio.o
LOAD Libraries\STM32F30x_StdPeriph_Driver\src\stm32f30x_flash.o
LOAD Libraries\STM32F30x_StdPeriph_Driver\src\stm32f30x_exti.o
LOAD Libraries\STM32F30x_StdPeriph_Driver\src\stm32f30x_dma.o
LOAD Libraries\STM32F30x_StdPeriph_Driver\src\stm32f30x_dbgmcu.o
LOAD Libraries\STM32F30x_StdPeriph_Driver\src\stm32f30x_dac.o
LOAD Libraries\STM32F30x_StdPeriph_Driver\src\stm32f30x_crc.o
LOAD Libraries\STM32F30x_StdPeriph_Driver\src\stm32f30x_comp.o
LOAD Libraries\STM32F30x_StdPeriph_Driver\src\stm32f30x_can.o
LOAD Libraries\STM32F30x_StdPeriph_Driver\src\stm32f30x_adc.o
LOAD Libraries\STM32F30x_StdPeriph_Driver\src\inciouart.o
LOAD Libraries\STM32F30x_StdPeriph_Driver\src\inciotim.o
LOAD Libraries\STM32F30x_StdPeriph_Driver\src\inciopwm.o
LOAD Libraries\STM32F30x_StdPeriph_Driver\src\inciogpio.o
LOAD Libraries\STM32F30x_StdPeriph_Driver\src\incioenc.o
LOAD Libraries\STM32F30x_StdPeriph_Driver\src\inciobdc.o
START GROUP
LOAD c:/program files (x86)/atollic/truestudio for arm lite 4.3.1/armtools/bin/../lib/gcc/arm-atollic-eabi/4.7.3/../../../../arm-atollic-eabi/lib/armv7e-m/fpu\libc.a
LOAD c:/program files (x86)/atollic/truestudio for arm lite 4.3.1/armtools/bin/../lib/gcc/arm-atollic-eabi/4.7.3/../../../../arm-atollic-eabi/lib/armv7e-m/fpu\libm.a
END GROUP
                0x00001000                malloc_getpagesize_P = 0x1000
START GROUP
LOAD c:/program files (x86)/atollic/truestudio for arm lite 4.3.1/armtools/bin/../lib/gcc/arm-atollic-eabi/4.7.3/armv7e-m/fpu\libgcc.a
LOAD c:/program files (x86)/atollic/truestudio for arm lite 4.3.1/armtools/bin/../lib/gcc/arm-atollic-eabi/4.7.3/../../../../arm-atollic-eabi/lib/armv7e-m/fpu\libc.a
END GROUP
LOAD c:/program files (x86)/atollic/truestudio for arm lite 4.3.1/armtools/bin/../lib/gcc/arm-atollic-eabi/4.7.3/armv7e-m/fpu/crtend.o
LOAD c:/program files (x86)/atollic/truestudio for arm lite 4.3.1/armtools/bin/../lib/gcc/arm-atollic-eabi/4.7.3/armv7e-m/fpu/crtn.o
                0x2000a000                _estack = 0x2000a000
                0x00000000                _Min_Heap_Size = 0x0
                0x00000200                _Min_Stack_Size = 0x200

.isr_vector     0x08000000      0x188
                0x08000000                . = ALIGN (0x4)
 *(.isr_vector)
 .isr_vector    0x08000000      0x188 src\startup_stm32f30x.o
                0x08000000                g_pfnVectors
                0x08000188                . = ALIGN (0x4)

.text           0x08000188     0x55fc
                0x08000188                . = ALIGN (0x4)
 *(.text)
 .text          0x08000188       0x54 c:/program files (x86)/atollic/truestudio for arm lite 4.3.1/armtools/bin/../lib/gcc/arm-atollic-eabi/4.7.3/armv7e-m/fpu/crtbegin.o
 .text          0x080001dc      0x370 c:/program files (x86)/atollic/truestudio for arm lite 4.3.1/armtools/bin/../lib/gcc/arm-atollic-eabi/4.7.3/armv7e-m/fpu\libgcc.a(_arm_addsubdf3.o)
                0x080001dc                __aeabi_drsub
                0x080001e4                __aeabi_dsub
                0x080001e4                __subdf3
                0x080001e8                __aeabi_dadd
                0x080001e8                __adddf3
                0x08000460                __floatunsidf
                0x08000460                __aeabi_ui2d
                0x08000480                __floatsidf
                0x08000480                __aeabi_i2d
                0x080004a4                __aeabi_f2d
                0x080004a4                __extendsfdf2
                0x080004e0                __floatundidf
                0x080004e0                __aeabi_ul2d
                0x080004f0                __floatdidf
                0x080004f0                __aeabi_l2d
 .text          0x0800054c      0x424 c:/program files (x86)/atollic/truestudio for arm lite 4.3.1/armtools/bin/../lib/gcc/arm-atollic-eabi/4.7.3/armv7e-m/fpu\libgcc.a(_arm_muldivdf3.o)
                0x0800054c                __aeabi_dmul
                0x0800054c                __muldf3
                0x080007a0                __divdf3
                0x080007a0                __aeabi_ddiv
 .text          0x08000970       0xa0 c:/program files (x86)/atollic/truestudio for arm lite 4.3.1/armtools/bin/../lib/gcc/arm-atollic-eabi/4.7.3/armv7e-m/fpu\libgcc.a(_arm_truncdfsf2.o)
                0x08000970                __truncdfsf2
                0x08000970                __aeabi_d2f
 *(.text*)
 .text.ts_itoa  0x08000a10       0x9c src\tiny_printf.o
                0x08000a10                ts_itoa
 .text.ts_formatstring
                0x08000aac      0x3dc src\tiny_printf.o
                0x08000aac                ts_formatstring
 .text.siprintf
                0x08000e88       0x30 src\tiny_printf.o
                0x08000e88                siprintf
                0x08000e88                sprintf
 .text.SystemInit
                0x08000eb8       0xfc src\system_stm32f30x.o
                0x08000eb8                SystemInit
 .text.SetSysClock
                0x08000fb4      0x170 src\system_stm32f30x.o
 .text.NMI_Handler
                0x08001124        0xc src\stm32f30x_it.o
                0x08001124                NMI_Handler
 .text.HardFault_Handler
                0x08001130        0x8 src\stm32f30x_it.o
                0x08001130                HardFault_Handler
 .text.MemManage_Handler
                0x08001138        0x8 src\stm32f30x_it.o
                0x08001138                MemManage_Handler
 .text.BusFault_Handler
                0x08001140        0x8 src\stm32f30x_it.o
                0x08001140                BusFault_Handler
 .text.UsageFault_Handler
                0x08001148        0x8 src\stm32f30x_it.o
                0x08001148                UsageFault_Handler
 .text.SVC_Handler
                0x08001150        0xc src\stm32f30x_it.o
                0x08001150                SVC_Handler
 .text.DebugMon_Handler
                0x0800115c        0xc src\stm32f30x_it.o
                0x0800115c                DebugMon_Handler
 .text.PendSV_Handler
                0x08001168        0xc src\stm32f30x_it.o
                0x08001168                PendSV_Handler
 .text.Reset_Handler
                0x08001174       0x5c src\startup_stm32f30x.o
                0x08001174                Reset_Handler
 .text.Default_Handler
                0x080011d0        0x4 src\startup_stm32f30x.o
                0x080011d0                RTC_Alarm_IRQHandler
                0x080011d0                TIM8_TRG_COM_IRQHandler
                0x080011d0                TIM8_CC_IRQHandler
                0x080011d0                TIM1_CC_IRQHandler
                0x080011d0                USB_HP_IRQHandler
                0x080011d0                PVD_IRQHandler
                0x080011d0                EXTI3_IRQHandler
                0x080011d0                EXTI0_IRQHandler
                0x080011d0                I2C2_EV_IRQHandler
                0x080011d0                FPU_IRQHandler
                0x080011d0                EXTI2_TS_IRQHandler
                0x080011d0                ADC1_2_IRQHandler
                0x080011d0                SPI1_IRQHandler
                0x080011d0                DMA2_Channel2_IRQHandler
                0x080011d0                DMA1_Channel4_IRQHandler
                0x080011d0                USART3_IRQHandler
                0x080011d0                DMA1_Channel7_IRQHandler
                0x080011d0                CAN1_RX1_IRQHandler
                0x080011d0                ADC3_IRQHandler
                0x080011d0                DMA2_Channel1_IRQHandler
                0x080011d0                I2C1_EV_IRQHandler
                0x080011d0                DMA1_Channel6_IRQHandler
                0x080011d0                DMA2_Channel4_IRQHandler
                0x080011d0                TIM3_IRQHandler
                0x080011d0                RCC_IRQHandler
                0x080011d0                DMA1_Channel1_IRQHandler
                0x080011d0                Default_Handler
                0x080011d0                USBWakeUp_RMP_IRQHandler
                0x080011d0                EXTI15_10_IRQHandler
                0x080011d0                EXTI9_5_IRQHandler
                0x080011d0                TAMPER_STAMP_IRQHandler
                0x080011d0                RTC_WKUP_IRQHandler
                0x080011d0                SPI2_IRQHandler
                0x080011d0                DMA2_Channel5_IRQHandler
                0x080011d0                DMA1_Channel5_IRQHandler
                0x080011d0                USB_LP_IRQHandler
                0x080011d0                EXTI4_IRQHandler
                0x080011d0                USB_LP_CAN1_RX0_IRQHandler
                0x080011d0                TIM1_TRG_COM_TIM17_IRQHandler
                0x080011d0                USB_HP_CAN1_TX_IRQHandler
                0x080011d0                DMA1_Channel3_IRQHandler
                0x080011d0                ADC4_IRQHandler
                0x080011d0                WWDG_IRQHandler
                0x080011d0                TIM2_IRQHandler
                0x080011d0                COMP7_IRQHandler
                0x080011d0                COMP1_2_3_IRQHandler
                0x080011d0                EXTI1_IRQHandler
                0x080011d0                USART2_IRQHandler
                0x080011d0                COMP4_5_6_IRQHandler
                0x080011d0                I2C2_ER_IRQHandler
                0x080011d0                DMA1_Channel2_IRQHandler
                0x080011d0                TIM8_BRK_IRQHandler
                0x080011d0                CAN1_SCE_IRQHandler
                0x080011d0                FLASH_IRQHandler
                0x080011d0                USART1_IRQHandler
                0x080011d0                SPI3_IRQHandler
                0x080011d0                I2C1_ER_IRQHandler
                0x080011d0                USBWakeUp_IRQHandler
                0x080011d0                DMA2_Channel3_IRQHandler
                0x080011d0                TIM1_BRK_TIM15_IRQHandler
 .text.main     0x080011d4       0x6c src\main.o
                0x080011d4                main
 .text.TIM6_DAC_IRQHandler
                0x08001240       0x48 src\main.o
                0x08001240                TIM6_DAC_IRQHandler
 .text.TIM7_IRQHandler
                0x08001288       0x58 src\main.o
                0x08001288                TIM7_IRQHandler
 .text.Delayms  0x080012e0       0x7c src\main.o
                0x080012e0                Delayms
 .text.SysTick_Handler
                0x0800135c       0xb0 src\main.o
                0x0800135c                SysTick_Handler
 .text.SwapBDC  0x0800140c       0x3c src\main.o
                0x0800140c                SwapBDC
 .text.WriteBDC
                0x08001448       0xf4 src\main.o
                0x08001448                WriteBDC
 .text.StopBDC  0x0800153c       0x38 src\main.o
                0x0800153c                StopBDC
 .text.Execute  0x08001574      0x978 src\common.o
                0x08001574                Execute
 .text.SeeSaw   0x08001eec      0x130 src\common.o
                0x08001eec                SeeSaw
 .text.Junglegym
                0x0800201c      0x280 src\common.o
                0x0800201c                Junglegym
 .text.Polewalk
                0x0800229c      0x5ac src\common.o
                0x0800229c                Polewalk
 .text.Swing    0x08002848      0x158 src\common.o
                0x08002848                Swing
 .text.Init     0x080029a0       0x94 src\common.o
                0x080029a0                Init
 .text.ServoInit
                0x08002a34       0x9c src\common.o
                0x08002a34                ServoInit
 .text.Led_Mode_Indicator
                0x08002ad0       0xb8 src\common.o
                0x08002ad0                Led_Mode_Indicator
 .text.ModBits  0x08002b88       0xc4 src\common.o
                0x08002b88                ModBits
 .text.MotorTest
                0x08002c4c      0x2b0 src\common.o
                0x08002c4c                MotorTest
 .text.MotorTesting
                0x08002efc      0x118 src\common.o
                0x08002efc                MotorTesting
 .text.InitGPIO
                0x08003014       0x84 src\common.o
                0x08003014                InitGPIO
 .text.MotorInit
                0x08003098       0x70 src\common.o
                0x08003098                MotorInit
 .text.USART_SendData
                0x08003108       0x28 Libraries\STM32F30x_StdPeriph_Driver\src\stm32f30x_usart.o
                0x08003108                USART_SendData
 .text.USART_ReceiveData
                0x08003130       0x24 Libraries\STM32F30x_StdPeriph_Driver\src\stm32f30x_usart.o
                0x08003130                USART_ReceiveData
 .text.USART_GetFlagStatus
                0x08003154       0x38 Libraries\STM32F30x_StdPeriph_Driver\src\stm32f30x_usart.o
                0x08003154                USART_GetFlagStatus
 .text.TIM_TimeBaseInit
                0x0800318c      0x110 Libraries\STM32F30x_StdPeriph_Driver\src\stm32f30x_tim.o
                0x0800318c                TIM_TimeBaseInit
 .text.TIM_ARRPreloadConfig
                0x0800329c       0x40 Libraries\STM32F30x_StdPeriph_Driver\src\stm32f30x_tim.o
                0x0800329c                TIM_ARRPreloadConfig
 .text.TIM_Cmd  0x080032dc       0x40 Libraries\STM32F30x_StdPeriph_Driver\src\stm32f30x_tim.o
                0x080032dc                TIM_Cmd
 .text.TIM_OC1Init
                0x0800331c      0x128 Libraries\STM32F30x_StdPeriph_Driver\src\stm32f30x_tim.o
                0x0800331c                TIM_OC1Init
 .text.TIM_OC2Init
                0x08003444      0x118 Libraries\STM32F30x_StdPeriph_Driver\src\stm32f30x_tim.o
                0x08003444                TIM_OC2Init
 .text.TIM_OC3Init
                0x0800355c      0x110 Libraries\STM32F30x_StdPeriph_Driver\src\stm32f30x_tim.o
                0x0800355c                TIM_OC3Init
 .text.TIM_OC4Init
                0x0800366c       0xd4 Libraries\STM32F30x_StdPeriph_Driver\src\stm32f30x_tim.o
                0x0800366c                TIM_OC4Init
 .text.TIM_OCStructInit
                0x08003740       0x54 Libraries\STM32F30x_StdPeriph_Driver\src\stm32f30x_tim.o
                0x08003740                TIM_OCStructInit
 .text.TIM_CtrlPWMOutputs
                0x08003794       0x3c Libraries\STM32F30x_StdPeriph_Driver\src\stm32f30x_tim.o
                0x08003794                TIM_CtrlPWMOutputs
 .text.TIM_ITConfig
                0x080037d0       0x40 Libraries\STM32F30x_StdPeriph_Driver\src\stm32f30x_tim.o
                0x080037d0                TIM_ITConfig
 .text.TIM_ClearITPendingBit
                0x08003810       0x24 Libraries\STM32F30x_StdPeriph_Driver\src\stm32f30x_tim.o
                0x08003810                TIM_ClearITPendingBit
 .text.TIM_EncoderInterfaceConfig
                0x08003834       0x94 Libraries\STM32F30x_StdPeriph_Driver\src\stm32f30x_tim.o
                0x08003834                TIM_EncoderInterfaceConfig
 .text.RCC_GetClocksFreq
                0x080038c8      0x550 Libraries\STM32F30x_StdPeriph_Driver\src\stm32f30x_rcc.o
                0x080038c8                RCC_GetClocksFreq
 .text.RCC_AHBPeriphClockCmd
                0x08003e18       0x54 Libraries\STM32F30x_StdPeriph_Driver\src\stm32f30x_rcc.o
                0x08003e18                RCC_AHBPeriphClockCmd
 .text.RCC_APB2PeriphClockCmd
                0x08003e6c       0x54 Libraries\STM32F30x_StdPeriph_Driver\src\stm32f30x_rcc.o
                0x08003e6c                RCC_APB2PeriphClockCmd
 .text.RCC_APB1PeriphClockCmd
                0x08003ec0       0x54 Libraries\STM32F30x_StdPeriph_Driver\src\stm32f30x_rcc.o
                0x08003ec0                RCC_APB1PeriphClockCmd
 .text.RCC_APB2PeriphResetCmd
                0x08003f14       0x54 Libraries\STM32F30x_StdPeriph_Driver\src\stm32f30x_rcc.o
                0x08003f14                RCC_APB2PeriphResetCmd
 .text.RCC_APB1PeriphResetCmd
                0x08003f68       0x54 Libraries\STM32F30x_StdPeriph_Driver\src\stm32f30x_rcc.o
                0x08003f68                RCC_APB1PeriphResetCmd
 .text.NVIC_Init
                0x08003fbc       0xe8 Libraries\STM32F30x_StdPeriph_Driver\src\stm32f30x_misc.o
                0x08003fbc                NVIC_Init
 .text.GPIO_Init
                0x080040a4      0x150 Libraries\STM32F30x_StdPeriph_Driver\src\stm32f30x_gpio.o
                0x080040a4                GPIO_Init
 .text.GPIO_ReadInputDataBit
                0x080041f4       0x40 Libraries\STM32F30x_StdPeriph_Driver\src\stm32f30x_gpio.o
                0x080041f4                GPIO_ReadInputDataBit
 .text.GPIO_WriteBit
                0x08004234       0x30 Libraries\STM32F30x_StdPeriph_Driver\src\stm32f30x_gpio.o
                0x08004234                GPIO_WriteBit
 .text.GPIO_PinAFConfig
                0x08004264       0xa8 Libraries\STM32F30x_StdPeriph_Driver\src\stm32f30x_gpio.o
                0x08004264                GPIO_PinAFConfig
 .text.UART4_directputc
                0x0800430c       0x3c Libraries\STM32F30x_StdPeriph_Driver\src\inciouart.o
                0x0800430c                UART4_directputc
 .text.UART4_directprint
                0x08004348       0x40 Libraries\STM32F30x_StdPeriph_Driver\src\inciouart.o
                0x08004348                UART4_directprint
 .text.UART4_IRQHandler
                0x08004388       0x44 Libraries\STM32F30x_StdPeriph_Driver\src\inciouart.o
                0x08004388                UART4_IRQHandler
 .text.UART5_IRQHandler
                0x080043cc       0x44 Libraries\STM32F30x_StdPeriph_Driver\src\inciouart.o
                0x080043cc                UART5_IRQHandler
 .text.TimerInit
                0x08004410       0xf0 Libraries\STM32F30x_StdPeriph_Driver\src\inciotim.o
                0x08004410                TimerInit
 .text.PWMTiInit
                0x08004500      0x140 Libraries\STM32F30x_StdPeriph_Driver\src\inciopwm.o
                0x08004500                PWMTiInit
 .text.PWMInit  0x08004640      0x134 Libraries\STM32F30x_StdPeriph_Driver\src\inciopwm.o
                0x08004640                PWMInit
 .text.NVIC_SetPriority
                0x08004774       0x5c Libraries\STM32F30x_StdPeriph_Driver\src\inciogpio.o
 .text.SysTick_Config
                0x080047d0       0x64 Libraries\STM32F30x_StdPeriph_Driver\src\inciogpio.o
 .text.SYSInit  0x08004834      0x194 Libraries\STM32F30x_StdPeriph_Driver\src\inciogpio.o
                0x08004834                SYSInit
 .text.GPIOSET  0x080049c8      0x364 Libraries\STM32F30x_StdPeriph_Driver\src\inciogpio.o
                0x080049c8                GPIOSET
 .text.GPIOInit
                0x08004d2c      0x1c4 Libraries\STM32F30x_StdPeriph_Driver\src\inciogpio.o
                0x08004d2c                GPIOInit
 .text.QEIInit  0x08004ef0       0x60 Libraries\STM32F30x_StdPeriph_Driver\src\incioenc.o
                0x08004ef0                QEIInit
 .text.QEI1Init
                0x08004f50      0x168 Libraries\STM32F30x_StdPeriph_Driver\src\incioenc.o
                0x08004f50                QEI1Init
 .text.QEI2Init
                0x080050b8       0xf0 Libraries\STM32F30x_StdPeriph_Driver\src\incioenc.o
                0x080050b8                QEI2Init
 .text.QEI3Init
                0x080051a8      0x164 Libraries\STM32F30x_StdPeriph_Driver\src\incioenc.o
                0x080051a8                QEI3Init
 .text.QEI4Init
                0x0800530c      0x168 Libraries\STM32F30x_StdPeriph_Driver\src\incioenc.o
                0x0800530c                QEI4Init
 .text.SwapQei  0x08005474       0x2c Libraries\STM32F30x_StdPeriph_Driver\src\incioenc.o
                0x08005474                SwapQei
 .text.TIM4_IRQHandler
                0x080054a0       0x74 Libraries\STM32F30x_StdPeriph_Driver\src\incioenc.o
                0x080054a0                TIM4_IRQHandler
 .text.TIM1_UP_TIM16_IRQHandler
                0x08005514       0x7c Libraries\STM32F30x_StdPeriph_Driver\src\incioenc.o
                0x08005514                TIM1_UP_TIM16_IRQHandler
 .text.TIM8_UP_IRQHandler
                0x08005590       0x74 Libraries\STM32F30x_StdPeriph_Driver\src\incioenc.o
                0x08005590                TIM8_UP_IRQHandler
 .text.BDCInit  0x08005604       0x30 Libraries\STM32F30x_StdPeriph_Driver\src\inciobdc.o
                0x08005604                BDCInit
 .text.shiftregis
                0x08005634       0xdc Libraries\STM32F30x_StdPeriph_Driver\src\inciobdc.o
                0x08005634                shiftregis
 .text.__libc_init_array
                0x08005710       0x4c c:/program files (x86)/atollic/truestudio for arm lite 4.3.1/armtools/bin/../lib/gcc/arm-atollic-eabi/4.7.3/../../../../arm-atollic-eabi/lib/armv7e-m/fpu\libc.a(lib_a-init.o)
                0x08005710                __libc_init_array
 .text.strlen   0x0800575c       0x10 c:/program files (x86)/atollic/truestudio for arm lite 4.3.1/armtools/bin/../lib/gcc/arm-atollic-eabi/4.7.3/../../../../arm-atollic-eabi/lib/armv7e-m/fpu\libc.a(lib_a-strlen.o)
                0x0800575c                strlen
 *(.glue_7)
 .glue_7        0x00000000        0x0 linker stubs
 *(.glue_7t)
 .glue_7t       0x00000000        0x0 linker stubs
 *(.eh_frame)
 .eh_frame      0x0800576c        0x0 c:/program files (x86)/atollic/truestudio for arm lite 4.3.1/armtools/bin/../lib/gcc/arm-atollic-eabi/4.7.3/armv7e-m/fpu/crtbegin.o
 *(.init)
 .init          0x0800576c        0x4 c:/program files (x86)/atollic/truestudio for arm lite 4.3.1/armtools/bin/../lib/gcc/arm-atollic-eabi/4.7.3/armv7e-m/fpu/crti.o
                0x0800576c                _init
 .init          0x08005770        0x8 c:/program files (x86)/atollic/truestudio for arm lite 4.3.1/armtools/bin/../lib/gcc/arm-atollic-eabi/4.7.3/armv7e-m/fpu/crtn.o
 *(.fini)
 .fini          0x08005778        0x4 c:/program files (x86)/atollic/truestudio for arm lite 4.3.1/armtools/bin/../lib/gcc/arm-atollic-eabi/4.7.3/armv7e-m/fpu/crti.o
                0x08005778                _fini
 .fini          0x0800577c        0x8 c:/program files (x86)/atollic/truestudio for arm lite 4.3.1/armtools/bin/../lib/gcc/arm-atollic-eabi/4.7.3/armv7e-m/fpu/crtn.o
                0x08005784                . = ALIGN (0x4)
                0x08005784                _etext = .

.vfp11_veneer   0x08005784        0x0
 .vfp11_veneer  0x00000000        0x0 linker stubs

.v4_bx          0x08005784        0x0
 .v4_bx         0x00000000        0x0 linker stubs

.iplt           0x08005784        0x0
 .iplt          0x00000000        0x0 c:/program files (x86)/atollic/truestudio for arm lite 4.3.1/armtools/bin/../lib/gcc/arm-atollic-eabi/4.7.3/armv7e-m/fpu/crtbegin.o

.rodata         0x08005784       0x34
                0x08005784                . = ALIGN (0x4)
 *(.rodata)
 .rodata        0x08005784       0x20 src\tiny_printf.o
 .rodata        0x080057a4       0x14 src\main.o
 *(.rodata*)
                0x080057b8                . = ALIGN (0x4)

.rel.dyn        0x080057b8        0x0
 .rel.iplt      0x00000000        0x0 c:/program files (x86)/atollic/truestudio for arm lite 4.3.1/armtools/bin/../lib/gcc/arm-atollic-eabi/4.7.3/armv7e-m/fpu/crtbegin.o

.ARM.extab
 *(.ARM.extab* .gnu.linkonce.armextab.*)

.ARM            0x080057b8        0x0
                0x080057b8                __exidx_start = .
 *(.ARM.exidx*)
                0x080057b8                __exidx_end = .

.preinit_array  0x080057b8        0x0
                0x080057b8                PROVIDE (__preinit_array_start, .)
 *(.preinit_array*)
                0x080057b8                PROVIDE (__preinit_array_end, .)

.init_array     0x080057b8        0x4
                0x080057b8                PROVIDE (__init_array_start, .)
 *(SORT(.init_array.*))
 *(.init_array*)
 .init_array    0x080057b8        0x4 c:/program files (x86)/atollic/truestudio for arm lite 4.3.1/armtools/bin/../lib/gcc/arm-atollic-eabi/4.7.3/armv7e-m/fpu/crtbegin.o
                0x080057bc                PROVIDE (__init_array_end, .)

.fini_array     0x080057bc        0x4
                0x080057bc                PROVIDE (__fini_array_start, .)
 *(SORT(.fini_array.*))
 *(.fini_array*)
 .fini_array    0x080057bc        0x4 c:/program files (x86)/atollic/truestudio for arm lite 4.3.1/armtools/bin/../lib/gcc/arm-atollic-eabi/4.7.3/armv7e-m/fpu/crtbegin.o
                0x080057c0                PROVIDE (__fini_array_end, .)
                0x080057c0                _sidata = LOADADDR (.data)

.data           0x20000000       0x30 load address 0x080057c0
                0x20000000                . = ALIGN (0x4)
                0x20000000                _sdata = .
 *(.data)
 *(.data*)
 .data.uicount.8380
                0x20000000        0x4 src\main.o
 .data.APBAHBPrescTable
                0x20000004       0x10 Libraries\STM32F30x_StdPeriph_Driver\src\stm32f30x_rcc.o
 .data.ADCPrescTable
                0x20000014       0x1c Libraries\STM32F30x_StdPeriph_Driver\src\stm32f30x_rcc.o
                0x20000030                . = ALIGN (0x4)
                0x20000030                _edata = .
                0x080057f0                _siccmram = LOADADDR (.ccmram)

.jcr            0x20000030        0x0 load address 0x080057f0
 .jcr           0x20000030        0x0 c:/program files (x86)/atollic/truestudio for arm lite 4.3.1/armtools/bin/../lib/gcc/arm-atollic-eabi/4.7.3/armv7e-m/fpu/crtbegin.o

.igot.plt       0x20000030        0x0 load address 0x080057f0
 .igot.plt      0x00000000        0x0 c:/program files (x86)/atollic/truestudio for arm lite 4.3.1/armtools/bin/../lib/gcc/arm-atollic-eabi/4.7.3/armv7e-m/fpu/crtbegin.o

.ccmram         0x10000000        0x0 load address 0x080057f0
                0x10000000                . = ALIGN (0x4)
                0x10000000                _sccmram = .
 *(.ccmram)
 *(.ccmram*)
                0x10000000                . = ALIGN (0x4)
                0x10000000                _eccmram = .
                0x10000000                . = ALIGN (0x4)

.bss            0x20000030      0x1a8
                0x20000030                _sbss = .
                0x20000030                __bss_start__ = _sbss
 *(.bss)
 .bss           0x20000030       0x1c c:/program files (x86)/atollic/truestudio for arm lite 4.3.1/armtools/bin/../lib/gcc/arm-atollic-eabi/4.7.3/armv7e-m/fpu/crtbegin.o
 *(.bss*)
 .bss.Uart4Data
                0x2000004c        0x2 Libraries\STM32F30x_StdPeriph_Driver\src\inciouart.o
                0x2000004c                Uart4Data
 .bss.Uart5Data
                0x2000004e        0x2 Libraries\STM32F30x_StdPeriph_Driver\src\inciouart.o
                0x2000004e                Uart5Data
 *(COMMON)
 COMMON         0x20000050      0x100 src\main.o
                0x20000050                tim
                0x20000054                side
                0x20000058                TIM_TimeBaseStructure
                0x20000064                ang
                0x20000068                dir1
                0x2000006c                dir0
                0x20000070                TIM_OCInitStructure
                0x20000084                delta
                0x20000088                currentvalue
                0x2000008c                GPIO_InitStructure
                0x20000094                USART_InitStructure
                0x200000ac                buf
                0x20000110                NVIC_InitStructure
                0x20000114                RCC_Clocks
 COMMON         0x20000150       0x14 src\common.o
                0x20000150                modd
                0x20000154                BYTES
                0x20000158                switches
                0x2000015c                metre
                0x20000160                jiffies
 COMMON         0x20000164        0xc Libraries\STM32F30x_StdPeriph_Driver\src\inciouart.o
                0x20000164                b
                0x20000168                char5data
                0x20000169                char4data
                0x2000016c                i
 COMMON         0x20000170        0xc Libraries\STM32F30x_StdPeriph_Driver\src\inciogpio.o
                0x20000170                list
                0x20000174                BYTE
                0x20000178                mod
 COMMON         0x2000017c       0x54 Libraries\STM32F30x_StdPeriph_Driver\src\incioenc.o
                0x2000017c                Qei3
                0x20000190                Qei2
                0x200001a4                QEIflag
                0x200001a8                Qei4
                0x200001bc                Qei1
 COMMON         0x200001d0        0x8 Libraries\STM32F30x_StdPeriph_Driver\src\inciobdc.o
                0x200001d0                dataregis
                0x200001d4                sfbits
                0x200001d8                . = ALIGN (0x4)
                0x200001d8                _ebss = .
                0x200001d8                __bss_end__ = _ebss

._user_heap_stack
                0x200001d8      0x200
                0x200001d8                . = ALIGN (0x4)
                0x200001d8                PROVIDE (end, .)
                0x200001d8                PROVIDE (_end, .)
                0x200001d8                . = (. + _Min_Heap_Size)
                0x200003d8                . = (. + _Min_Stack_Size)
 *fill*         0x200001d8      0x200 00
                0x200003d8                . = ALIGN (0x4)

.memory_b1_text
 *(.mb1text)
 *(.mb1text*)
 *(.mb1rodata)
 *(.mb1rodata*)

/DISCARD/
 libc.a(*)
 libm.a(*)
 libgcc.a(*)

.ARM.attributes
                0x00000000       0x32
 *(.ARM.attributes)
 .ARM.attributes
                0x00000000       0x24 c:/program files (x86)/atollic/truestudio for arm lite 4.3.1/armtools/bin/../lib/gcc/arm-atollic-eabi/4.7.3/armv7e-m/fpu/crti.o
 .ARM.attributes
                0x00000024       0x36 c:/program files (x86)/atollic/truestudio for arm lite 4.3.1/armtools/bin/../lib/gcc/arm-atollic-eabi/4.7.3/armv7e-m/fpu/crtbegin.o
 .ARM.attributes
                0x0000005a       0x3b src\tiny_printf.o
 .ARM.attributes
                0x00000095       0x3b src\system_stm32f30x.o
 .ARM.attributes
                0x000000d0       0x3b src\stm32f30x_it.o
 .ARM.attributes
                0x0000010b       0x21 src\startup_stm32f30x.o
 .ARM.attributes
                0x0000012c       0x3b src\main.o
 .ARM.attributes
                0x00000167       0x3b src\common.o
 .ARM.attributes
                0x000001a2       0x3b Libraries\STM32F30x_StdPeriph_Driver\src\stm32f30x_usart.o
 .ARM.attributes
                0x000001dd       0x3b Libraries\STM32F30x_StdPeriph_Driver\src\stm32f30x_tim.o
 .ARM.attributes
                0x00000218       0x3b Libraries\STM32F30x_StdPeriph_Driver\src\stm32f30x_rcc.o
 .ARM.attributes
                0x00000253       0x3b Libraries\STM32F30x_StdPeriph_Driver\src\stm32f30x_misc.o
 .ARM.attributes
                0x0000028e       0x3b Libraries\STM32F30x_StdPeriph_Driver\src\stm32f30x_gpio.o
 .ARM.attributes
                0x000002c9       0x3b Libraries\STM32F30x_StdPeriph_Driver\src\inciouart.o
 .ARM.attributes
                0x00000304       0x3b Libraries\STM32F30x_StdPeriph_Driver\src\inciotim.o
 .ARM.attributes
                0x0000033f       0x3b Libraries\STM32F30x_StdPeriph_Driver\src\inciopwm.o
 .ARM.attributes
                0x0000037a       0x3b Libraries\STM32F30x_StdPeriph_Driver\src\inciogpio.o
 .ARM.attributes
                0x000003b5       0x3b Libraries\STM32F30x_StdPeriph_Driver\src\incioenc.o
 .ARM.attributes
                0x000003f0       0x3b Libraries\STM32F30x_StdPeriph_Driver\src\inciobdc.o
 .ARM.attributes
                0x0000042b       0x36 c:/program files (x86)/atollic/truestudio for arm lite 4.3.1/armtools/bin/../lib/gcc/arm-atollic-eabi/4.7.3/../../../../arm-atollic-eabi/lib/armv7e-m/fpu\libc.a(lib_a-init.o)
 .ARM.attributes
                0x00000461       0x36 c:/program files (x86)/atollic/truestudio for arm lite 4.3.1/armtools/bin/../lib/gcc/arm-atollic-eabi/4.7.3/../../../../arm-atollic-eabi/lib/armv7e-m/fpu\libc.a(lib_a-strlen.o)
 .ARM.attributes
                0x00000497       0x24 c:/program files (x86)/atollic/truestudio for arm lite 4.3.1/armtools/bin/../lib/gcc/arm-atollic-eabi/4.7.3/armv7e-m/fpu\libgcc.a(_arm_addsubdf3.o)
 .ARM.attributes
                0x000004bb       0x24 c:/program files (x86)/atollic/truestudio for arm lite 4.3.1/armtools/bin/../lib/gcc/arm-atollic-eabi/4.7.3/armv7e-m/fpu\libgcc.a(_arm_muldivdf3.o)
 .ARM.attributes
                0x000004df       0x24 c:/program files (x86)/atollic/truestudio for arm lite 4.3.1/armtools/bin/../lib/gcc/arm-atollic-eabi/4.7.3/armv7e-m/fpu\libgcc.a(_arm_truncdfsf2.o)
 .ARM.attributes
                0x00000503       0x24 c:/program files (x86)/atollic/truestudio for arm lite 4.3.1/armtools/bin/../lib/gcc/arm-atollic-eabi/4.7.3/armv7e-m/fpu/crtn.o
OUTPUT(RBC2014_CHILD_INDIA_GA_ARM_V4.elf elf32-littlearm)

.debug_info     0x00000000     0xb525
 .debug_info    0x00000000      0xcd5 src\tiny_printf.o
 .debug_info    0x00000cd5      0x4dd src\system_stm32f30x.o
 .debug_info    0x000011b2      0x145 src\stm32f30x_it.o
 .debug_info    0x000012f7       0x7b src\startup_stm32f30x.o
 .debug_info    0x00001372      0xc61 src\main.o
 .debug_info    0x00001fd3      0xd14 src\common.o
 .debug_info    0x00002ce7      0xfe1 Libraries\STM32F30x_StdPeriph_Driver\src\stm32f30x_usart.o
 .debug_info    0x00003cc8     0x2404 Libraries\STM32F30x_StdPeriph_Driver\src\stm32f30x_tim.o
 .debug_info    0x000060cc      0xb85 Libraries\STM32F30x_StdPeriph_Driver\src\stm32f30x_rcc.o
 .debug_info    0x00006c51      0x596 Libraries\STM32F30x_StdPeriph_Driver\src\stm32f30x_misc.o
 .debug_info    0x000071e7      0x63f Libraries\STM32F30x_StdPeriph_Driver\src\stm32f30x_gpio.o
 .debug_info    0x00007826      0xa8f Libraries\STM32F30x_StdPeriph_Driver\src\inciouart.o
 .debug_info    0x000082b5      0x901 Libraries\STM32F30x_StdPeriph_Driver\src\inciotim.o
 .debug_info    0x00008bb6      0x7ee Libraries\STM32F30x_StdPeriph_Driver\src\inciopwm.o
 .debug_info    0x000093a4      0xe01 Libraries\STM32F30x_StdPeriph_Driver\src\inciogpio.o
 .debug_info    0x0000a1a5      0xbd4 Libraries\STM32F30x_StdPeriph_Driver\src\incioenc.o
 .debug_info    0x0000ad79      0x7ac Libraries\STM32F30x_StdPeriph_Driver\src\inciobdc.o

.debug_abbrev   0x00000000     0x1907
 .debug_abbrev  0x00000000      0x250 src\tiny_printf.o
 .debug_abbrev  0x00000250      0x149 src\system_stm32f30x.o
 .debug_abbrev  0x00000399       0x69 src\stm32f30x_it.o
 .debug_abbrev  0x00000402       0x12 src\startup_stm32f30x.o
 .debug_abbrev  0x00000414      0x227 src\main.o
 .debug_abbrev  0x0000063b      0x1d0 src\common.o
 .debug_abbrev  0x0000080b      0x159 Libraries\STM32F30x_StdPeriph_Driver\src\stm32f30x_usart.o
 .debug_abbrev  0x00000964      0x18b Libraries\STM32F30x_StdPeriph_Driver\src\stm32f30x_tim.o
 .debug_abbrev  0x00000aef      0x1e7 Libraries\STM32F30x_StdPeriph_Driver\src\stm32f30x_rcc.o
 .debug_abbrev  0x00000cd6      0x12b Libraries\STM32F30x_StdPeriph_Driver\src\stm32f30x_misc.o
 .debug_abbrev  0x00000e01      0x198 Libraries\STM32F30x_StdPeriph_Driver\src\stm32f30x_gpio.o
 .debug_abbrev  0x00000f99      0x183 Libraries\STM32F30x_StdPeriph_Driver\src\inciouart.o
 .debug_abbrev  0x0000111c      0x11a Libraries\STM32F30x_StdPeriph_Driver\src\inciotim.o
 .debug_abbrev  0x00001236      0x133 Libraries\STM32F30x_StdPeriph_Driver\src\inciopwm.o
 .debug_abbrev  0x00001369      0x26c Libraries\STM32F30x_StdPeriph_Driver\src\inciogpio.o
 .debug_abbrev  0x000015d5      0x1ba Libraries\STM32F30x_StdPeriph_Driver\src\incioenc.o
 .debug_abbrev  0x0000178f      0x178 Libraries\STM32F30x_StdPeriph_Driver\src\inciobdc.o

.debug_loc      0x00000000     0x3f38
 .debug_loc     0x00000000      0x1ea src\tiny_printf.o
 .debug_loc     0x000001ea       0x9c src\system_stm32f30x.o
 .debug_loc     0x00000286      0x160 src\stm32f30x_it.o
 .debug_loc     0x000003e6      0x238 src\main.o
 .debug_loc     0x0000061e      0x2d8 src\common.o
 .debug_loc     0x000008f6      0xaba Libraries\STM32F30x_StdPeriph_Driver\src\stm32f30x_usart.o
 .debug_loc     0x000013b0     0x18f0 Libraries\STM32F30x_StdPeriph_Driver\src\stm32f30x_tim.o
 .debug_loc     0x00002ca0      0x864 Libraries\STM32F30x_StdPeriph_Driver\src\stm32f30x_rcc.o
 .debug_loc     0x00003504      0x118 Libraries\STM32F30x_StdPeriph_Driver\src\stm32f30x_misc.o
 .debug_loc     0x0000361c      0x2d8 Libraries\STM32F30x_StdPeriph_Driver\src\stm32f30x_gpio.o
 .debug_loc     0x000038f4      0x170 Libraries\STM32F30x_StdPeriph_Driver\src\inciouart.o
 .debug_loc     0x00003a64       0xa8 Libraries\STM32F30x_StdPeriph_Driver\src\inciotim.o
 .debug_loc     0x00003b0c       0x70 Libraries\STM32F30x_StdPeriph_Driver\src\inciopwm.o
 .debug_loc     0x00003b7c      0x144 Libraries\STM32F30x_StdPeriph_Driver\src\inciogpio.o
 .debug_loc     0x00003cc0      0x208 Libraries\STM32F30x_StdPeriph_Driver\src\incioenc.o
 .debug_loc     0x00003ec8       0x70 Libraries\STM32F30x_StdPeriph_Driver\src\inciobdc.o

.debug_aranges  0x00000000      0xaf0
 .debug_aranges
                0x00000000       0x58 src\tiny_printf.o
 .debug_aranges
                0x00000058       0x30 src\system_stm32f30x.o
 .debug_aranges
                0x00000088       0x58 src\stm32f30x_it.o
 .debug_aranges
                0x000000e0       0x28 src\startup_stm32f30x.o
 .debug_aranges
                0x00000108       0x70 src\main.o
 .debug_aranges
                0x00000178       0x98 src\common.o
 .debug_aranges
                0x00000210      0x1a0 Libraries\STM32F30x_StdPeriph_Driver\src\stm32f30x_usart.o
 .debug_aranges
                0x000003b0      0x3a8 Libraries\STM32F30x_StdPeriph_Driver\src\stm32f30x_tim.o
 .debug_aranges
                0x00000758      0x150 Libraries\STM32F30x_StdPeriph_Driver\src\stm32f30x_rcc.o
 .debug_aranges
                0x000008a8       0x40 Libraries\STM32F30x_StdPeriph_Driver\src\stm32f30x_misc.o
 .debug_aranges
                0x000008e8       0x80 Libraries\STM32F30x_StdPeriph_Driver\src\stm32f30x_gpio.o
 .debug_aranges
                0x00000968       0x50 Libraries\STM32F30x_StdPeriph_Driver\src\inciouart.o
 .debug_aranges
                0x000009b8       0x30 Libraries\STM32F30x_StdPeriph_Driver\src\inciotim.o
 .debug_aranges
                0x000009e8       0x28 Libraries\STM32F30x_StdPeriph_Driver\src\inciopwm.o
 .debug_aranges
                0x00000a10       0x48 Libraries\STM32F30x_StdPeriph_Driver\src\inciogpio.o
 .debug_aranges
                0x00000a58       0x70 Libraries\STM32F30x_StdPeriph_Driver\src\incioenc.o
 .debug_aranges
                0x00000ac8       0x28 Libraries\STM32F30x_StdPeriph_Driver\src\inciobdc.o

.debug_ranges   0x00000000      0x9e8
 .debug_ranges  0x00000000       0x48 src\tiny_printf.o
 .debug_ranges  0x00000048       0x20 src\system_stm32f30x.o
 .debug_ranges  0x00000068       0x48 src\stm32f30x_it.o
 .debug_ranges  0x000000b0       0x20 src\startup_stm32f30x.o
 .debug_ranges  0x000000d0       0x60 src\main.o
 .debug_ranges  0x00000130       0x88 src\common.o
 .debug_ranges  0x000001b8      0x190 Libraries\STM32F30x_StdPeriph_Driver\src\stm32f30x_usart.o
 .debug_ranges  0x00000348      0x398 Libraries\STM32F30x_StdPeriph_Driver\src\stm32f30x_tim.o
 .debug_ranges  0x000006e0      0x140 Libraries\STM32F30x_StdPeriph_Driver\src\stm32f30x_rcc.o
 .debug_ranges  0x00000820       0x30 Libraries\STM32F30x_StdPeriph_Driver\src\stm32f30x_misc.o
 .debug_ranges  0x00000850       0x70 Libraries\STM32F30x_StdPeriph_Driver\src\stm32f30x_gpio.o
 .debug_ranges  0x000008c0       0x40 Libraries\STM32F30x_StdPeriph_Driver\src\inciouart.o
 .debug_ranges  0x00000900       0x20 Libraries\STM32F30x_StdPeriph_Driver\src\inciotim.o
 .debug_ranges  0x00000920       0x18 Libraries\STM32F30x_StdPeriph_Driver\src\inciopwm.o
 .debug_ranges  0x00000938       0x38 Libraries\STM32F30x_StdPeriph_Driver\src\inciogpio.o
 .debug_ranges  0x00000970       0x60 Libraries\STM32F30x_StdPeriph_Driver\src\incioenc.o
 .debug_ranges  0x000009d0       0x18 Libraries\STM32F30x_StdPeriph_Driver\src\inciobdc.o

.debug_line     0x00000000     0x3f34
 .debug_line    0x00000000      0x35c src\tiny_printf.o
 .debug_line    0x0000035c      0x1be src\system_stm32f30x.o
 .debug_line    0x0000051a      0x193 src\stm32f30x_it.o
 .debug_line    0x000006ad       0x79 src\startup_stm32f30x.o
 .debug_line    0x00000726      0x2f1 src\main.o
 .debug_line    0x00000a17      0x8f0 src\common.o
 .debug_line    0x00001307      0x5cf Libraries\STM32F30x_StdPeriph_Driver\src\stm32f30x_usart.o
 .debug_line    0x000018d6      0xc08 Libraries\STM32F30x_StdPeriph_Driver\src\stm32f30x_tim.o
 .debug_line    0x000024de      0x545 Libraries\STM32F30x_StdPeriph_Driver\src\stm32f30x_rcc.o
 .debug_line    0x00002a23      0x20d Libraries\STM32F30x_StdPeriph_Driver\src\stm32f30x_misc.o
 .debug_line    0x00002c30      0x2d9 Libraries\STM32F30x_StdPeriph_Driver\src\stm32f30x_gpio.o
 .debug_line    0x00002f09      0x2af Libraries\STM32F30x_StdPeriph_Driver\src\inciouart.o
 .debug_line    0x000031b8      0x237 Libraries\STM32F30x_StdPeriph_Driver\src\inciotim.o
 .debug_line    0x000033ef      0x243 Libraries\STM32F30x_StdPeriph_Driver\src\inciopwm.o
 .debug_line    0x00003632      0x38b Libraries\STM32F30x_StdPeriph_Driver\src\inciogpio.o
 .debug_line    0x000039bd      0x337 Libraries\STM32F30x_StdPeriph_Driver\src\incioenc.o
 .debug_line    0x00003cf4      0x240 Libraries\STM32F30x_StdPeriph_Driver\src\inciobdc.o

.debug_str      0x00000000     0x30e5
 .debug_str     0x00000000      0x52f src\tiny_printf.o
                                0x59b (size before relaxing)
 .debug_str     0x0000052f      0x18c src\system_stm32f30x.o
                                0x2bf (size before relaxing)
 .debug_str     0x000006bb       0x96 src\stm32f30x_it.o
                                0x1bd (size before relaxing)
 .debug_str     0x00000751      0x6f7 src\main.o
                                0x86c (size before relaxing)
 .debug_str     0x00000e48      0x13c src\common.o
                                0x8a8 (size before relaxing)
 .debug_str     0x00000f84      0x6a3 Libraries\STM32F30x_StdPeriph_Driver\src\stm32f30x_usart.o
                                0x9db (size before relaxing)
 .debug_str     0x00001627      0xbe6 Libraries\STM32F30x_StdPeriph_Driver\src\stm32f30x_tim.o
                                0xf53 (size before relaxing)
 .debug_str     0x0000220d      0x462 Libraries\STM32F30x_StdPeriph_Driver\src\stm32f30x_rcc.o
                                0x7d0 (size before relaxing)
 .debug_str     0x0000266f      0x15e Libraries\STM32F30x_StdPeriph_Driver\src\stm32f30x_misc.o
                                0x3b5 (size before relaxing)
 .debug_str     0x000027cd      0x186 Libraries\STM32F30x_StdPeriph_Driver\src\stm32f30x_gpio.o
                                0x47b (size before relaxing)
 .debug_str     0x00002953      0x507 Libraries\STM32F30x_StdPeriph_Driver\src\inciouart.o
                                0xbcc (size before relaxing)
 .debug_str     0x00002e5a       0x63 Libraries\STM32F30x_StdPeriph_Driver\src\inciotim.o
                                0xb31 (size before relaxing)
 .debug_str     0x00002ebd       0x4f Libraries\STM32F30x_StdPeriph_Driver\src\inciopwm.o
                                0x757 (size before relaxing)
 .debug_str     0x00002f0c       0xb5 Libraries\STM32F30x_StdPeriph_Driver\src\inciogpio.o
                                0xcc9 (size before relaxing)
 .debug_str     0x00002fc1       0xd0 Libraries\STM32F30x_StdPeriph_Driver\src\incioenc.o
                                0xc35 (size before relaxing)
 .debug_str     0x00003091       0x54 Libraries\STM32F30x_StdPeriph_Driver\src\inciobdc.o
                                0x74a (size before relaxing)

.comment        0x00000000       0x83
 .comment       0x00000000       0x83 src\tiny_printf.o
                                 0x84 (size before relaxing)
 .comment       0x00000000       0x84 src\system_stm32f30x.o
 .comment       0x00000000       0x84 src\stm32f30x_it.o
 .comment       0x00000000       0x84 src\main.o
 .comment       0x00000000       0x84 src\common.o
 .comment       0x00000000       0x84 Libraries\STM32F30x_StdPeriph_Driver\src\stm32f30x_usart.o
 .comment       0x00000000       0x84 Libraries\STM32F30x_StdPeriph_Driver\src\stm32f30x_tim.o
 .comment       0x00000000       0x84 Libraries\STM32F30x_StdPeriph_Driver\src\stm32f30x_rcc.o
 .comment       0x00000000       0x84 Libraries\STM32F30x_StdPeriph_Driver\src\stm32f30x_misc.o
 .comment       0x00000000       0x84 Libraries\STM32F30x_StdPeriph_Driver\src\stm32f30x_gpio.o
 .comment       0x00000000       0x84 Libraries\STM32F30x_StdPeriph_Driver\src\inciouart.o
 .comment       0x00000000       0x84 Libraries\STM32F30x_StdPeriph_Driver\src\inciotim.o
 .comment       0x00000000       0x84 Libraries\STM32F30x_StdPeriph_Driver\src\inciopwm.o
 .comment       0x00000000       0x84 Libraries\STM32F30x_StdPeriph_Driver\src\inciogpio.o
 .comment       0x00000000       0x84 Libraries\STM32F30x_StdPeriph_Driver\src\incioenc.o
 .comment       0x00000000       0x84 Libraries\STM32F30x_StdPeriph_Driver\src\inciobdc.o

.debug_frame    0x00000000     0x2264
 .debug_frame   0x00000000      0x138 src\tiny_printf.o
 .debug_frame   0x00000138       0x64 src\system_stm32f30x.o
 .debug_frame   0x0000019c       0xd0 src\stm32f30x_it.o
 .debug_frame   0x0000026c      0x14c src\main.o
 .debug_frame   0x000003b8      0x1d8 src\common.o
 .debug_frame   0x00000590      0x574 Libraries\STM32F30x_StdPeriph_Driver\src\stm32f30x_usart.o
 .debug_frame   0x00000b04      0xca4 Libraries\STM32F30x_StdPeriph_Driver\src\stm32f30x_tim.o
 .debug_frame   0x000017a8      0x44c Libraries\STM32F30x_StdPeriph_Driver\src\stm32f30x_rcc.o
 .debug_frame   0x00001bf4       0x9c Libraries\STM32F30x_StdPeriph_Driver\src\stm32f30x_misc.o
 .debug_frame   0x00001c90      0x180 Libraries\STM32F30x_StdPeriph_Driver\src\stm32f30x_gpio.o
 .debug_frame   0x00001e10       0xe8 Libraries\STM32F30x_StdPeriph_Driver\src\inciouart.o
 .debug_frame   0x00001ef8       0x70 Libraries\STM32F30x_StdPeriph_Driver\src\inciotim.o
 .debug_frame   0x00001f68       0x50 Libraries\STM32F30x_StdPeriph_Driver\src\inciopwm.o
 .debug_frame   0x00001fb8       0xcc Libraries\STM32F30x_StdPeriph_Driver\src\inciogpio.o
 .debug_frame   0x00002084      0x144 Libraries\STM32F30x_StdPeriph_Driver\src\incioenc.o
 .debug_frame   0x000021c8       0x50 Libraries\STM32F30x_StdPeriph_Driver\src\inciobdc.o
 .debug_frame   0x00002218       0x2c c:/program files (x86)/atollic/truestudio for arm lite 4.3.1/armtools/bin/../lib/gcc/arm-atollic-eabi/4.7.3/../../../../arm-atollic-eabi/lib/armv7e-m/fpu\libc.a(lib_a-init.o)
 .debug_frame   0x00002244       0x20 c:/program files (x86)/atollic/truestudio for arm lite 4.3.1/armtools/bin/../lib/gcc/arm-atollic-eabi/4.7.3/../../../../arm-atollic-eabi/lib/armv7e-m/fpu\libc.a(lib_a-strlen.o)

Cross Reference Table

Symbol                                            File
ADC1_2_IRQHandler                                 src\startup_stm32f30x.o
ADC3_IRQHandler                                   src\startup_stm32f30x.o
ADC4_IRQHandler                                   src\startup_stm32f30x.o
ADC_AnalogWatchdog1SingleChannelConfig            Libraries\STM32F30x_StdPeriph_Driver\src\stm32f30x_adc.o
ADC_AnalogWatchdog1ThresholdsConfig               Libraries\STM32F30x_StdPeriph_Driver\src\stm32f30x_adc.o
ADC_AnalogWatchdog2SingleChannelConfig            Libraries\STM32F30x_StdPeriph_Driver\src\stm32f30x_adc.o
ADC_AnalogWatchdog2ThresholdsConfig               Libraries\STM32F30x_StdPeriph_Driver\src\stm32f30x_adc.o
ADC_AnalogWatchdog3SingleChannelConfig            Libraries\STM32F30x_StdPeriph_Driver\src\stm32f30x_adc.o
ADC_AnalogWatchdog3ThresholdsConfig               Libraries\STM32F30x_StdPeriph_Driver\src\stm32f30x_adc.o
ADC_AnalogWatchdogCmd                             Libraries\STM32F30x_StdPeriph_Driver\src\stm32f30x_adc.o
ADC_AutoDelayCmd                                  Libraries\STM32F30x_StdPeriph_Driver\src\stm32f30x_adc.o
ADC_AutoInjectedConvCmd                           Libraries\STM32F30x_StdPeriph_Driver\src\stm32f30x_adc.o
ADC_ChannelOffset1Cmd                             Libraries\STM32F30x_StdPeriph_Driver\src\stm32f30x_adc.o
ADC_ChannelOffset2Cmd                             Libraries\STM32F30x_StdPeriph_Driver\src\stm32f30x_adc.o
ADC_ChannelOffset3Cmd                             Libraries\STM32F30x_StdPeriph_Driver\src\stm32f30x_adc.o
ADC_ChannelOffset4Cmd                             Libraries\STM32F30x_StdPeriph_Driver\src\stm32f30x_adc.o
ADC_ClearCommonFlag                               Libraries\STM32F30x_StdPeriph_Driver\src\stm32f30x_adc.o
ADC_ClearFlag                                     Libraries\STM32F30x_StdPeriph_Driver\src\stm32f30x_adc.o
ADC_ClearITPendingBit                             Libraries\STM32F30x_StdPeriph_Driver\src\stm32f30x_adc.o
ADC_Cmd                                           Libraries\STM32F30x_StdPeriph_Driver\src\stm32f30x_adc.o
ADC_CommonInit                                    Libraries\STM32F30x_StdPeriph_Driver\src\stm32f30x_adc.o
ADC_CommonStructInit                              Libraries\STM32F30x_StdPeriph_Driver\src\stm32f30x_adc.o
ADC_DMACmd                                        Libraries\STM32F30x_StdPeriph_Driver\src\stm32f30x_adc.o
ADC_DMAConfig                                     Libraries\STM32F30x_StdPeriph_Driver\src\stm32f30x_adc.o
ADC_DeInit                                        Libraries\STM32F30x_StdPeriph_Driver\src\stm32f30x_adc.o
ADC_DisableCmd                                    Libraries\STM32F30x_StdPeriph_Driver\src\stm32f30x_adc.o
ADC_DiscModeChannelCountConfig                    Libraries\STM32F30x_StdPeriph_Driver\src\stm32f30x_adc.o
ADC_DiscModeCmd                                   Libraries\STM32F30x_StdPeriph_Driver\src\stm32f30x_adc.o
ADC_ExternalTriggerConfig                         Libraries\STM32F30x_StdPeriph_Driver\src\stm32f30x_adc.o
ADC_GetCalibrationStatus                          Libraries\STM32F30x_StdPeriph_Driver\src\stm32f30x_adc.o
ADC_GetCalibrationValue                           Libraries\STM32F30x_StdPeriph_Driver\src\stm32f30x_adc.o
ADC_GetCommonFlagStatus                           Libraries\STM32F30x_StdPeriph_Driver\src\stm32f30x_adc.o
ADC_GetConversionValue                            Libraries\STM32F30x_StdPeriph_Driver\src\stm32f30x_adc.o
ADC_GetDisableCmdStatus                           Libraries\STM32F30x_StdPeriph_Driver\src\stm32f30x_adc.o
ADC_GetDualModeConversionValue                    Libraries\STM32F30x_StdPeriph_Driver\src\stm32f30x_adc.o
ADC_GetFlagStatus                                 Libraries\STM32F30x_StdPeriph_Driver\src\stm32f30x_adc.o
ADC_GetITStatus                                   Libraries\STM32F30x_StdPeriph_Driver\src\stm32f30x_adc.o
ADC_GetInjectedConversionValue                    Libraries\STM32F30x_StdPeriph_Driver\src\stm32f30x_adc.o
ADC_GetStartConversionStatus                      Libraries\STM32F30x_StdPeriph_Driver\src\stm32f30x_adc.o
ADC_GetStartInjectedConversionStatus              Libraries\STM32F30x_StdPeriph_Driver\src\stm32f30x_adc.o
ADC_ITConfig                                      Libraries\STM32F30x_StdPeriph_Driver\src\stm32f30x_adc.o
ADC_Init                                          Libraries\STM32F30x_StdPeriph_Driver\src\stm32f30x_adc.o
ADC_InjectedChannelSampleTimeConfig               Libraries\STM32F30x_StdPeriph_Driver\src\stm32f30x_adc.o
ADC_InjectedDiscModeCmd                           Libraries\STM32F30x_StdPeriph_Driver\src\stm32f30x_adc.o
ADC_InjectedInit                                  Libraries\STM32F30x_StdPeriph_Driver\src\stm32f30x_adc.o
ADC_InjectedStructInit                            Libraries\STM32F30x_StdPeriph_Driver\src\stm32f30x_adc.o
ADC_RegularChannelConfig                          Libraries\STM32F30x_StdPeriph_Driver\src\stm32f30x_adc.o
ADC_RegularChannelSequencerLengthConfig           Libraries\STM32F30x_StdPeriph_Driver\src\stm32f30x_adc.o
ADC_SelectCalibrationMode                         Libraries\STM32F30x_StdPeriph_Driver\src\stm32f30x_adc.o
ADC_SelectDifferentialMode                        Libraries\STM32F30x_StdPeriph_Driver\src\stm32f30x_adc.o
ADC_SelectQueueOfContextMode                      Libraries\STM32F30x_StdPeriph_Driver\src\stm32f30x_adc.o
ADC_SetCalibrationValue                           Libraries\STM32F30x_StdPeriph_Driver\src\stm32f30x_adc.o
ADC_SetChannelOffset1                             Libraries\STM32F30x_StdPeriph_Driver\src\stm32f30x_adc.o
ADC_SetChannelOffset2                             Libraries\STM32F30x_StdPeriph_Driver\src\stm32f30x_adc.o
ADC_SetChannelOffset3                             Libraries\STM32F30x_StdPeriph_Driver\src\stm32f30x_adc.o
ADC_SetChannelOffset4                             Libraries\STM32F30x_StdPeriph_Driver\src\stm32f30x_adc.o
ADC_StartCalibration                              Libraries\STM32F30x_StdPeriph_Driver\src\stm32f30x_adc.o
ADC_StartConversion                               Libraries\STM32F30x_StdPeriph_Driver\src\stm32f30x_adc.o
ADC_StartInjectedConversion                       Libraries\STM32F30x_StdPeriph_Driver\src\stm32f30x_adc.o
ADC_StopConversion                                Libraries\STM32F30x_StdPeriph_Driver\src\stm32f30x_adc.o
ADC_StopInjectedConversion                        Libraries\STM32F30x_StdPeriph_Driver\src\stm32f30x_adc.o
ADC_StructInit                                    Libraries\STM32F30x_StdPeriph_Driver\src\stm32f30x_adc.o
ADC_TempSensorCmd                                 Libraries\STM32F30x_StdPeriph_Driver\src\stm32f30x_adc.o
ADC_VbatCmd                                       Libraries\STM32F30x_StdPeriph_Driver\src\stm32f30x_adc.o
ADC_VoltageRegulatorCmd                           Libraries\STM32F30x_StdPeriph_Driver\src\stm32f30x_adc.o
ADC_VrefintCmd                                    Libraries\STM32F30x_StdPeriph_Driver\src\stm32f30x_adc.o
AHBPrescTable                                     src\system_stm32f30x.o
BDCInit                                           Libraries\STM32F30x_StdPeriph_Driver\src\inciobdc.o
                                                  Libraries\STM32F30x_StdPeriph_Driver\src\inciogpio.o
BUTTON_CLK                                        Utilities\STM32F3_Discovery\stm32f3_discovery.o
BUTTON_EXTI_LINE                                  Utilities\STM32F3_Discovery\stm32f3_discovery.o
BUTTON_IRQn                                       Utilities\STM32F3_Discovery\stm32f3_discovery.o
BUTTON_PIN                                        Utilities\STM32F3_Discovery\stm32f3_discovery.o
BUTTON_PIN_SOURCE                                 Utilities\STM32F3_Discovery\stm32f3_discovery.o
BUTTON_PORT                                       Utilities\STM32F3_Discovery\stm32f3_discovery.o
BUTTON_PORT_SOURCE                                Utilities\STM32F3_Discovery\stm32f3_discovery.o
BYTE                                              Libraries\STM32F30x_StdPeriph_Driver\src\inciogpio.o
BYTES                                             src\common.o
                                                  src\main.o
BusFault_Handler                                  src\stm32f30x_it.o
CAN1_RX1_IRQHandler                               src\startup_stm32f30x.o
CAN1_SCE_IRQHandler                               src\startup_stm32f30x.o
CAN_CancelTransmit                                Libraries\STM32F30x_StdPeriph_Driver\src\stm32f30x_can.o
CAN_ClearFlag                                     Libraries\STM32F30x_StdPeriph_Driver\src\stm32f30x_can.o
CAN_ClearITPendingBit                             Libraries\STM32F30x_StdPeriph_Driver\src\stm32f30x_can.o
CAN_DBGFreeze                                     Libraries\STM32F30x_StdPeriph_Driver\src\stm32f30x_can.o
CAN_DeInit                                        Libraries\STM32F30x_StdPeriph_Driver\src\stm32f30x_can.o
CAN_FIFORelease                                   Libraries\STM32F30x_StdPeriph_Driver\src\stm32f30x_can.o
CAN_FilterInit                                    Libraries\STM32F30x_StdPeriph_Driver\src\stm32f30x_can.o
CAN_GetFlagStatus                                 Libraries\STM32F30x_StdPeriph_Driver\src\stm32f30x_can.o
CAN_GetITStatus                                   Libraries\STM32F30x_StdPeriph_Driver\src\stm32f30x_can.o
CAN_GetLSBTransmitErrorCounter                    Libraries\STM32F30x_StdPeriph_Driver\src\stm32f30x_can.o
CAN_GetLastErrorCode                              Libraries\STM32F30x_StdPeriph_Driver\src\stm32f30x_can.o
CAN_GetReceiveErrorCounter                        Libraries\STM32F30x_StdPeriph_Driver\src\stm32f30x_can.o
CAN_ITConfig                                      Libraries\STM32F30x_StdPeriph_Driver\src\stm32f30x_can.o
CAN_Init                                          Libraries\STM32F30x_StdPeriph_Driver\src\stm32f30x_can.o
CAN_MessagePending                                Libraries\STM32F30x_StdPeriph_Driver\src\stm32f30x_can.o
CAN_OperatingModeRequest                          Libraries\STM32F30x_StdPeriph_Driver\src\stm32f30x_can.o
CAN_Receive                                       Libraries\STM32F30x_StdPeriph_Driver\src\stm32f30x_can.o
CAN_SlaveStartBank                                Libraries\STM32F30x_StdPeriph_Driver\src\stm32f30x_can.o
CAN_Sleep                                         Libraries\STM32F30x_StdPeriph_Driver\src\stm32f30x_can.o
CAN_StructInit                                    Libraries\STM32F30x_StdPeriph_Driver\src\stm32f30x_can.o
CAN_TTComModeCmd                                  Libraries\STM32F30x_StdPeriph_Driver\src\stm32f30x_can.o
CAN_Transmit                                      Libraries\STM32F30x_StdPeriph_Driver\src\stm32f30x_can.o
CAN_TransmitStatus                                Libraries\STM32F30x_StdPeriph_Driver\src\stm32f30x_can.o
CAN_WakeUp                                        Libraries\STM32F30x_StdPeriph_Driver\src\stm32f30x_can.o
COMP1_2_3_IRQHandler                              src\startup_stm32f30x.o
COMP4_5_6_IRQHandler                              src\startup_stm32f30x.o
COMP7_IRQHandler                                  src\startup_stm32f30x.o
COMP_Cmd                                          Libraries\STM32F30x_StdPeriph_Driver\src\stm32f30x_comp.o
COMP_DeInit                                       Libraries\STM32F30x_StdPeriph_Driver\src\stm32f30x_comp.o
COMP_GetOutputLevel                               Libraries\STM32F30x_StdPeriph_Driver\src\stm32f30x_comp.o
COMP_Init                                         Libraries\STM32F30x_StdPeriph_Driver\src\stm32f30x_comp.o
COMP_LockConfig                                   Libraries\STM32F30x_StdPeriph_Driver\src\stm32f30x_comp.o
COMP_StructInit                                   Libraries\STM32F30x_StdPeriph_Driver\src\stm32f30x_comp.o
COMP_SwitchCmd                                    Libraries\STM32F30x_StdPeriph_Driver\src\stm32f30x_comp.o
COMP_WindowCmd                                    Libraries\STM32F30x_StdPeriph_Driver\src\stm32f30x_comp.o
CRC_CalcBlockCRC                                  Libraries\STM32F30x_StdPeriph_Driver\src\stm32f30x_crc.o
CRC_CalcCRC                                       Libraries\STM32F30x_StdPeriph_Driver\src\stm32f30x_crc.o
CRC_CalcCRC16bits                                 Libraries\STM32F30x_StdPeriph_Driver\src\stm32f30x_crc.o
CRC_CalcCRC8bits                                  Libraries\STM32F30x_StdPeriph_Driver\src\stm32f30x_crc.o
CRC_DeInit                                        Libraries\STM32F30x_StdPeriph_Driver\src\stm32f30x_crc.o
CRC_GetCRC                                        Libraries\STM32F30x_StdPeriph_Driver\src\stm32f30x_crc.o
CRC_GetIDRegister                                 Libraries\STM32F30x_StdPeriph_Driver\src\stm32f30x_crc.o
CRC_PolynomialSizeSelect                          Libraries\STM32F30x_StdPeriph_Driver\src\stm32f30x_crc.o
CRC_ResetDR                                       Libraries\STM32F30x_StdPeriph_Driver\src\stm32f30x_crc.o
CRC_ReverseInputDataSelect                        Libraries\STM32F30x_StdPeriph_Driver\src\stm32f30x_crc.o
CRC_ReverseOutputDataCmd                          Libraries\STM32F30x_StdPeriph_Driver\src\stm32f30x_crc.o
CRC_SetIDRegister                                 Libraries\STM32F30x_StdPeriph_Driver\src\stm32f30x_crc.o
CRC_SetInitRegister                               Libraries\STM32F30x_StdPeriph_Driver\src\stm32f30x_crc.o
CRC_SetPolynomial                                 Libraries\STM32F30x_StdPeriph_Driver\src\stm32f30x_crc.o
DAC_ClearFlag                                     Libraries\STM32F30x_StdPeriph_Driver\src\stm32f30x_dac.o
DAC_ClearITPendingBit                             Libraries\STM32F30x_StdPeriph_Driver\src\stm32f30x_dac.o
DAC_Cmd                                           Libraries\STM32F30x_StdPeriph_Driver\src\stm32f30x_dac.o
DAC_DMACmd                                        Libraries\STM32F30x_StdPeriph_Driver\src\stm32f30x_dac.o
DAC_DeInit                                        Libraries\STM32F30x_StdPeriph_Driver\src\stm32f30x_dac.o
DAC_DualSoftwareTriggerCmd                        Libraries\STM32F30x_StdPeriph_Driver\src\stm32f30x_dac.o
DAC_GetDataOutputValue                            Libraries\STM32F30x_StdPeriph_Driver\src\stm32f30x_dac.o
DAC_GetFlagStatus                                 Libraries\STM32F30x_StdPeriph_Driver\src\stm32f30x_dac.o
DAC_GetITStatus                                   Libraries\STM32F30x_StdPeriph_Driver\src\stm32f30x_dac.o
DAC_ITConfig                                      Libraries\STM32F30x_StdPeriph_Driver\src\stm32f30x_dac.o
DAC_Init                                          Libraries\STM32F30x_StdPeriph_Driver\src\stm32f30x_dac.o
DAC_SetChannel1Data                               Libraries\STM32F30x_StdPeriph_Driver\src\stm32f30x_dac.o
DAC_SetChannel2Data                               Libraries\STM32F30x_StdPeriph_Driver\src\stm32f30x_dac.o
DAC_SetDualChannelData                            Libraries\STM32F30x_StdPeriph_Driver\src\stm32f30x_dac.o
DAC_SoftwareTriggerCmd                            Libraries\STM32F30x_StdPeriph_Driver\src\stm32f30x_dac.o
DAC_StructInit                                    Libraries\STM32F30x_StdPeriph_Driver\src\stm32f30x_dac.o
DAC_WaveGenerationCmd                             Libraries\STM32F30x_StdPeriph_Driver\src\stm32f30x_dac.o
DBGMCU_APB1PeriphConfig                           Libraries\STM32F30x_StdPeriph_Driver\src\stm32f30x_dbgmcu.o
DBGMCU_APB2PeriphConfig                           Libraries\STM32F30x_StdPeriph_Driver\src\stm32f30x_dbgmcu.o
DBGMCU_Config                                     Libraries\STM32F30x_StdPeriph_Driver\src\stm32f30x_dbgmcu.o
DBGMCU_GetDEVID                                   Libraries\STM32F30x_StdPeriph_Driver\src\stm32f30x_dbgmcu.o
DBGMCU_GetREVID                                   Libraries\STM32F30x_StdPeriph_Driver\src\stm32f30x_dbgmcu.o
DMA1_Channel1_IRQHandler                          src\startup_stm32f30x.o
DMA1_Channel2_IRQHandler                          src\startup_stm32f30x.o
DMA1_Channel3_IRQHandler                          src\startup_stm32f30x.o
DMA1_Channel4_IRQHandler                          src\startup_stm32f30x.o
DMA1_Channel5_IRQHandler                          src\startup_stm32f30x.o
DMA1_Channel6_IRQHandler                          src\startup_stm32f30x.o
DMA1_Channel7_IRQHandler                          src\startup_stm32f30x.o
DMA2_Channel1_IRQHandler                          src\startup_stm32f30x.o
DMA2_Channel2_IRQHandler                          src\startup_stm32f30x.o
DMA2_Channel3_IRQHandler                          src\startup_stm32f30x.o
DMA2_Channel4_IRQHandler                          src\startup_stm32f30x.o
DMA2_Channel5_IRQHandler                          src\startup_stm32f30x.o
DMA_ClearFlag                                     Libraries\STM32F30x_StdPeriph_Driver\src\stm32f30x_dma.o
DMA_ClearITPendingBit                             Libraries\STM32F30x_StdPeriph_Driver\src\stm32f30x_dma.o
DMA_Cmd                                           Libraries\STM32F30x_StdPeriph_Driver\src\stm32f30x_dma.o
DMA_DeInit                                        Libraries\STM32F30x_StdPeriph_Driver\src\stm32f30x_dma.o
DMA_GetCurrDataCounter                            Libraries\STM32F30x_StdPeriph_Driver\src\stm32f30x_dma.o
DMA_GetFlagStatus                                 Libraries\STM32F30x_StdPeriph_Driver\src\stm32f30x_dma.o
DMA_GetITStatus                                   Libraries\STM32F30x_StdPeriph_Driver\src\stm32f30x_dma.o
DMA_ITConfig                                      Libraries\STM32F30x_StdPeriph_Driver\src\stm32f30x_dma.o
DMA_Init                                          Libraries\STM32F30x_StdPeriph_Driver\src\stm32f30x_dma.o
DMA_SetCurrDataCounter                            Libraries\STM32F30x_StdPeriph_Driver\src\stm32f30x_dma.o
DMA_StructInit                                    Libraries\STM32F30x_StdPeriph_Driver\src\stm32f30x_dma.o
DebugMon_Handler                                  src\stm32f30x_it.o
Default_Handler                                   src\startup_stm32f30x.o
Delayms                                           src\main.o
                                                  Libraries\STM32F30x_StdPeriph_Driver\src\incioenc.o
                                                  src\common.o
EVAL_AUDIO_TransferComplete_CallBack              src\main.o
EXTI0_IRQHandler                                  src\startup_stm32f30x.o
EXTI15_10_IRQHandler                              src\startup_stm32f30x.o
EXTI1_IRQHandler                                  src\startup_stm32f30x.o
EXTI2_TS_IRQHandler                               src\startup_stm32f30x.o
EXTI3_IRQHandler                                  src\startup_stm32f30x.o
EXTI4_IRQHandler                                  src\startup_stm32f30x.o
EXTI9_5_IRQHandler                                src\startup_stm32f30x.o
EXTI_ClearFlag                                    Libraries\STM32F30x_StdPeriph_Driver\src\stm32f30x_exti.o
EXTI_ClearITPendingBit                            Libraries\STM32F30x_StdPeriph_Driver\src\stm32f30x_exti.o
EXTI_DeInit                                       Libraries\STM32F30x_StdPeriph_Driver\src\stm32f30x_exti.o
EXTI_GenerateSWInterrupt                          Libraries\STM32F30x_StdPeriph_Driver\src\stm32f30x_exti.o
EXTI_GetFlagStatus                                Libraries\STM32F30x_StdPeriph_Driver\src\stm32f30x_exti.o
EXTI_GetITStatus                                  Libraries\STM32F30x_StdPeriph_Driver\src\stm32f30x_exti.o
EXTI_Init                                         Libraries\STM32F30x_StdPeriph_Driver\src\stm32f30x_exti.o
                                                  Utilities\STM32F3_Discovery\stm32f3_discovery.o
                                                  Utilities\STM32F3_Discovery\stm32f3_discovery_lsm303dlhc.o
EXTI_StructInit                                   Libraries\STM32F30x_StdPeriph_Driver\src\stm32f30x_exti.o
Execute                                           src\common.o
                                                  src\main.o
FLASH_ClearFlag                                   Libraries\STM32F30x_StdPeriph_Driver\src\stm32f30x_flash.o
FLASH_EraseAllPages                               Libraries\STM32F30x_StdPeriph_Driver\src\stm32f30x_flash.o
FLASH_ErasePage                                   Libraries\STM32F30x_StdPeriph_Driver\src\stm32f30x_flash.o
FLASH_GetFlagStatus                               Libraries\STM32F30x_StdPeriph_Driver\src\stm32f30x_flash.o
FLASH_GetStatus                                   Libraries\STM32F30x_StdPeriph_Driver\src\stm32f30x_flash.o
FLASH_HalfCycleAccessCmd                          Libraries\STM32F30x_StdPeriph_Driver\src\stm32f30x_flash.o
FLASH_IRQHandler                                  src\startup_stm32f30x.o
FLASH_ITConfig                                    Libraries\STM32F30x_StdPeriph_Driver\src\stm32f30x_flash.o
FLASH_Lock                                        Libraries\STM32F30x_StdPeriph_Driver\src\stm32f30x_flash.o
FLASH_OB_BOOTConfig                               Libraries\STM32F30x_StdPeriph_Driver\src\stm32f30x_flash.o
FLASH_OB_EnableWRP                                Libraries\STM32F30x_StdPeriph_Driver\src\stm32f30x_flash.o
FLASH_OB_Erase                                    Libraries\STM32F30x_StdPeriph_Driver\src\stm32f30x_flash.o
FLASH_OB_GetRDP                                   Libraries\STM32F30x_StdPeriph_Driver\src\stm32f30x_flash.o
FLASH_OB_GetUser                                  Libraries\STM32F30x_StdPeriph_Driver\src\stm32f30x_flash.o
FLASH_OB_GetWRP                                   Libraries\STM32F30x_StdPeriph_Driver\src\stm32f30x_flash.o
FLASH_OB_Launch                                   Libraries\STM32F30x_StdPeriph_Driver\src\stm32f30x_flash.o
FLASH_OB_Lock                                     Libraries\STM32F30x_StdPeriph_Driver\src\stm32f30x_flash.o
FLASH_OB_RDPConfig                                Libraries\STM32F30x_StdPeriph_Driver\src\stm32f30x_flash.o
FLASH_OB_SRAMParityConfig                         Libraries\STM32F30x_StdPeriph_Driver\src\stm32f30x_flash.o
FLASH_OB_Unlock                                   Libraries\STM32F30x_StdPeriph_Driver\src\stm32f30x_flash.o
FLASH_OB_UserConfig                               Libraries\STM32F30x_StdPeriph_Driver\src\stm32f30x_flash.o
FLASH_OB_VDDAConfig                               Libraries\STM32F30x_StdPeriph_Driver\src\stm32f30x_flash.o
FLASH_OB_WriteUser                                Libraries\STM32F30x_StdPeriph_Driver\src\stm32f30x_flash.o
FLASH_PrefetchBufferCmd                           Libraries\STM32F30x_StdPeriph_Driver\src\stm32f30x_flash.o
FLASH_ProgramHalfWord                             Libraries\STM32F30x_StdPeriph_Driver\src\stm32f30x_flash.o
FLASH_ProgramOptionByteData                       Libraries\STM32F30x_StdPeriph_Driver\src\stm32f30x_flash.o
FLASH_ProgramWord                                 Libraries\STM32F30x_StdPeriph_Driver\src\stm32f30x_flash.o
FLASH_SetLatency                                  Libraries\STM32F30x_StdPeriph_Driver\src\stm32f30x_flash.o
FLASH_Unlock                                      Libraries\STM32F30x_StdPeriph_Driver\src\stm32f30x_flash.o
FLASH_WaitForLastOperation                        Libraries\STM32F30x_StdPeriph_Driver\src\stm32f30x_flash.o
FPU_IRQHandler                                    src\startup_stm32f30x.o
GPIOInit                                          Libraries\STM32F30x_StdPeriph_Driver\src\inciogpio.o
GPIOSET                                           Libraries\STM32F30x_StdPeriph_Driver\src\inciogpio.o
                                                  Libraries\STM32F30x_StdPeriph_Driver\src\inciobdc.o
                                                  Libraries\STM32F30x_StdPeriph_Driver\src\inciopwm.o
                                                  Libraries\STM32F30x_StdPeriph_Driver\src\inciouart.o
                                                  src\common.o
GPIO_CLK                                          Utilities\STM32F3_Discovery\stm32f3_discovery.o
GPIO_DeInit                                       Libraries\STM32F30x_StdPeriph_Driver\src\stm32f30x_gpio.o
GPIO_Init                                         Libraries\STM32F30x_StdPeriph_Driver\src\stm32f30x_gpio.o
                                                  Libraries\STM32F30x_StdPeriph_Driver\src\incioenc.o
                                                  Libraries\STM32F30x_StdPeriph_Driver\src\inciogpio.o
                                                  Utilities\STM32F3_Discovery\stm32f3_discovery.o
                                                  Utilities\STM32F3_Discovery\stm32f3_discovery_l3gd20.o
                                                  Utilities\STM32F3_Discovery\stm32f3_discovery_lsm303dlhc.o
GPIO_InitStructure                                Libraries\STM32F30x_StdPeriph_Driver\src\inciobdc.o
                                                  Libraries\STM32F30x_StdPeriph_Driver\src\incioenc.o
                                                  Libraries\STM32F30x_StdPeriph_Driver\src\inciogpio.o
                                                  Libraries\STM32F30x_StdPeriph_Driver\src\inciopwm.o
                                                  Libraries\STM32F30x_StdPeriph_Driver\src\inciotim.o
                                                  Libraries\STM32F30x_StdPeriph_Driver\src\inciouart.o
                                                  src\common.o
                                                  src\main.o
GPIO_PIN                                          Utilities\STM32F3_Discovery\stm32f3_discovery.o
GPIO_PORT                                         Utilities\STM32F3_Discovery\stm32f3_discovery.o
GPIO_PinAFConfig                                  Libraries\STM32F30x_StdPeriph_Driver\src\stm32f30x_gpio.o
                                                  Libraries\STM32F30x_StdPeriph_Driver\src\incioenc.o
                                                  Libraries\STM32F30x_StdPeriph_Driver\src\inciopwm.o
                                                  Libraries\STM32F30x_StdPeriph_Driver\src\inciouart.o
                                                  Utilities\STM32F3_Discovery\stm32f3_discovery_l3gd20.o
                                                  Utilities\STM32F3_Discovery\stm32f3_discovery_lsm303dlhc.o
                                                  src\common.o
GPIO_PinLockConfig                                Libraries\STM32F30x_StdPeriph_Driver\src\stm32f30x_gpio.o
GPIO_ReadInputData                                Libraries\STM32F30x_StdPeriph_Driver\src\stm32f30x_gpio.o
GPIO_ReadInputDataBit                             Libraries\STM32F30x_StdPeriph_Driver\src\stm32f30x_gpio.o
                                                  Libraries\STM32F30x_StdPeriph_Driver\src\inciogpio.o
                                                  Utilities\STM32F3_Discovery\stm32f3_discovery.o
                                                  src\common.o
                                                  src\main.o
GPIO_ReadOutputData                               Libraries\STM32F30x_StdPeriph_Driver\src\stm32f30x_gpio.o
GPIO_ReadOutputDataBit                            Libraries\STM32F30x_StdPeriph_Driver\src\stm32f30x_gpio.o
GPIO_ResetBits                                    Libraries\STM32F30x_StdPeriph_Driver\src\stm32f30x_gpio.o
                                                  Utilities\STM32F3_Discovery\stm32f3_discovery_l3gd20.o
GPIO_SetBits                                      Libraries\STM32F30x_StdPeriph_Driver\src\stm32f30x_gpio.o
                                                  Utilities\STM32F3_Discovery\stm32f3_discovery_l3gd20.o
GPIO_StructInit                                   Libraries\STM32F30x_StdPeriph_Driver\src\stm32f30x_gpio.o
GPIO_Write                                        Libraries\STM32F30x_StdPeriph_Driver\src\stm32f30x_gpio.o
GPIO_WriteBit                                     Libraries\STM32F30x_StdPeriph_Driver\src\stm32f30x_gpio.o
                                                  Libraries\STM32F30x_StdPeriph_Driver\src\inciobdc.o
                                                  Libraries\STM32F30x_StdPeriph_Driver\src\inciogpio.o
                                                  src\common.o
                                                  src\main.o
HardFault_Handler                                 src\stm32f30x_it.o
I2C1_ER_IRQHandler                                src\startup_stm32f30x.o
I2C1_EV_IRQHandler                                src\startup_stm32f30x.o
I2C2_ER_IRQHandler                                src\startup_stm32f30x.o
I2C2_EV_IRQHandler                                src\startup_stm32f30x.o
I2C_10BitAddressHeaderCmd                         Libraries\STM32F30x_StdPeriph_Driver\src\stm32f30x_i2c.o
I2C_10BitAddressingModeCmd                        Libraries\STM32F30x_StdPeriph_Driver\src\stm32f30x_i2c.o
I2C_AcknowledgeConfig                             Libraries\STM32F30x_StdPeriph_Driver\src\stm32f30x_i2c.o
I2C_AutoEndCmd                                    Libraries\STM32F30x_StdPeriph_Driver\src\stm32f30x_i2c.o
I2C_CalculatePEC                                  Libraries\STM32F30x_StdPeriph_Driver\src\stm32f30x_i2c.o
I2C_ClearFlag                                     Libraries\STM32F30x_StdPeriph_Driver\src\stm32f30x_i2c.o
                                                  Utilities\STM32F3_Discovery\stm32f3_discovery_lsm303dlhc.o
I2C_ClearITPendingBit                             Libraries\STM32F30x_StdPeriph_Driver\src\stm32f30x_i2c.o
I2C_ClockTimeoutCmd                               Libraries\STM32F30x_StdPeriph_Driver\src\stm32f30x_i2c.o
I2C_Cmd                                           Libraries\STM32F30x_StdPeriph_Driver\src\stm32f30x_i2c.o
                                                  Utilities\STM32F3_Discovery\stm32f3_discovery_lsm303dlhc.o
I2C_DMACmd                                        Libraries\STM32F30x_StdPeriph_Driver\src\stm32f30x_i2c.o
I2C_DeInit                                        Libraries\STM32F30x_StdPeriph_Driver\src\stm32f30x_i2c.o
I2C_DualAddressCmd                                Libraries\STM32F30x_StdPeriph_Driver\src\stm32f30x_i2c.o
I2C_ExtendedClockTimeoutCmd                       Libraries\STM32F30x_StdPeriph_Driver\src\stm32f30x_i2c.o
I2C_GeneralCallCmd                                Libraries\STM32F30x_StdPeriph_Driver\src\stm32f30x_i2c.o
I2C_GenerateSTART                                 Libraries\STM32F30x_StdPeriph_Driver\src\stm32f30x_i2c.o
I2C_GenerateSTOP                                  Libraries\STM32F30x_StdPeriph_Driver\src\stm32f30x_i2c.o
I2C_GetAddressMatched                             Libraries\STM32F30x_StdPeriph_Driver\src\stm32f30x_i2c.o
I2C_GetFlagStatus                                 Libraries\STM32F30x_StdPeriph_Driver\src\stm32f30x_i2c.o
                                                  Utilities\STM32F3_Discovery\stm32f3_discovery_lsm303dlhc.o
I2C_GetITStatus                                   Libraries\STM32F30x_StdPeriph_Driver\src\stm32f30x_i2c.o
I2C_GetPEC                                        Libraries\STM32F30x_StdPeriph_Driver\src\stm32f30x_i2c.o
I2C_GetTransferDirection                          Libraries\STM32F30x_StdPeriph_Driver\src\stm32f30x_i2c.o
I2C_ITConfig                                      Libraries\STM32F30x_StdPeriph_Driver\src\stm32f30x_i2c.o
I2C_IdleClockTimeoutCmd                           Libraries\STM32F30x_StdPeriph_Driver\src\stm32f30x_i2c.o
I2C_Init                                          Libraries\STM32F30x_StdPeriph_Driver\src\stm32f30x_i2c.o
                                                  Utilities\STM32F3_Discovery\stm32f3_discovery_lsm303dlhc.o
I2C_MasterRequestConfig                           Libraries\STM32F30x_StdPeriph_Driver\src\stm32f30x_i2c.o
I2C_NumberOfBytesConfig                           Libraries\STM32F30x_StdPeriph_Driver\src\stm32f30x_i2c.o
I2C_OwnAddress2Config                             Libraries\STM32F30x_StdPeriph_Driver\src\stm32f30x_i2c.o
I2C_PECRequestCmd                                 Libraries\STM32F30x_StdPeriph_Driver\src\stm32f30x_i2c.o
I2C_ReadRegister                                  Libraries\STM32F30x_StdPeriph_Driver\src\stm32f30x_i2c.o
I2C_ReceiveData                                   Libraries\STM32F30x_StdPeriph_Driver\src\stm32f30x_i2c.o
                                                  Utilities\STM32F3_Discovery\stm32f3_discovery_lsm303dlhc.o
I2C_ReloadCmd                                     Libraries\STM32F30x_StdPeriph_Driver\src\stm32f30x_i2c.o
I2C_SMBusAlertCmd                                 Libraries\STM32F30x_StdPeriph_Driver\src\stm32f30x_i2c.o
I2C_SendData                                      Libraries\STM32F30x_StdPeriph_Driver\src\stm32f30x_i2c.o
                                                  Utilities\STM32F3_Discovery\stm32f3_discovery_lsm303dlhc.o
I2C_SlaveAddressConfig                            Libraries\STM32F30x_StdPeriph_Driver\src\stm32f30x_i2c.o
I2C_SlaveByteControlCmd                           Libraries\STM32F30x_StdPeriph_Driver\src\stm32f30x_i2c.o
I2C_SoftwareResetCmd                              Libraries\STM32F30x_StdPeriph_Driver\src\stm32f30x_i2c.o
I2C_StopModeCmd                                   Libraries\STM32F30x_StdPeriph_Driver\src\stm32f30x_i2c.o
I2C_StretchClockCmd                               Libraries\STM32F30x_StdPeriph_Driver\src\stm32f30x_i2c.o
I2C_StructInit                                    Libraries\STM32F30x_StdPeriph_Driver\src\stm32f30x_i2c.o
I2C_TimeoutAConfig                                Libraries\STM32F30x_StdPeriph_Driver\src\stm32f30x_i2c.o
I2C_TimeoutBConfig                                Libraries\STM32F30x_StdPeriph_Driver\src\stm32f30x_i2c.o
I2C_TransferHandling                              Libraries\STM32F30x_StdPeriph_Driver\src\stm32f30x_i2c.o
                                                  Utilities\STM32F3_Discovery\stm32f3_discovery_lsm303dlhc.o
I2S_Cmd                                           Libraries\STM32F30x_StdPeriph_Driver\src\stm32f30x_spi.o
I2S_FullDuplexConfig                              Libraries\STM32F30x_StdPeriph_Driver\src\stm32f30x_spi.o
I2S_Init                                          Libraries\STM32F30x_StdPeriph_Driver\src\stm32f30x_spi.o
I2S_StructInit                                    Libraries\STM32F30x_StdPeriph_Driver\src\stm32f30x_spi.o
IOTest                                            src\common.o
IOTest2                                           src\common.o
IWDG_Enable                                       Libraries\STM32F30x_StdPeriph_Driver\src\stm32f30x_iwdg.o
IWDG_GetFlagStatus                                Libraries\STM32F30x_StdPeriph_Driver\src\stm32f30x_iwdg.o
IWDG_ReloadCounter                                Libraries\STM32F30x_StdPeriph_Driver\src\stm32f30x_iwdg.o
IWDG_SetPrescaler                                 Libraries\STM32F30x_StdPeriph_Driver\src\stm32f30x_iwdg.o
IWDG_SetReload                                    Libraries\STM32F30x_StdPeriph_Driver\src\stm32f30x_iwdg.o
IWDG_SetWindowValue                               Libraries\STM32F30x_StdPeriph_Driver\src\stm32f30x_iwdg.o
IWDG_WriteAccessCmd                               Libraries\STM32F30x_StdPeriph_Driver\src\stm32f30x_iwdg.o
Init                                              src\common.o
                                                  src\main.o
InitGPIO                                          src\common.o
Junglegym                                         src\common.o
L3GD20Timeout                                     Utilities\STM32F3_Discovery\stm32f3_discovery_l3gd20.o
L3GD20_FilterCmd                                  Utilities\STM32F3_Discovery\stm32f3_discovery_l3gd20.o
L3GD20_FilterConfig                               Utilities\STM32F3_Discovery\stm32f3_discovery_l3gd20.o
L3GD20_GetDataStatus                              Utilities\STM32F3_Discovery\stm32f3_discovery_l3gd20.o
L3GD20_INT1InterruptCmd                           Utilities\STM32F3_Discovery\stm32f3_discovery_l3gd20.o
L3GD20_INT1InterruptConfig                        Utilities\STM32F3_Discovery\stm32f3_discovery_l3gd20.o
L3GD20_INT2InterruptCmd                           Utilities\STM32F3_Discovery\stm32f3_discovery_l3gd20.o
L3GD20_Init                                       Utilities\STM32F3_Discovery\stm32f3_discovery_l3gd20.o
L3GD20_Read                                       Utilities\STM32F3_Discovery\stm32f3_discovery_l3gd20.o
L3GD20_RebootCmd                                  Utilities\STM32F3_Discovery\stm32f3_discovery_l3gd20.o
L3GD20_TIMEOUT_UserCallback                       Utilities\STM32F3_Discovery\stm32f3_discovery_l3gd20.o
L3GD20_Write                                      Utilities\STM32F3_Discovery\stm32f3_discovery_l3gd20.o
LSM303DLHC_AccClickITConfig                       Utilities\STM32F3_Discovery\stm32f3_discovery_lsm303dlhc.o
LSM303DLHC_AccFilterClickCmd                      Utilities\STM32F3_Discovery\stm32f3_discovery_lsm303dlhc.o
LSM303DLHC_AccFilterCmd                           Utilities\STM32F3_Discovery\stm32f3_discovery_lsm303dlhc.o
LSM303DLHC_AccFilterConfig                        Utilities\STM32F3_Discovery\stm32f3_discovery_lsm303dlhc.o
LSM303DLHC_AccGetDataStatus                       Utilities\STM32F3_Discovery\stm32f3_discovery_lsm303dlhc.o
LSM303DLHC_AccINT1InterruptConfig                 Utilities\STM32F3_Discovery\stm32f3_discovery_lsm303dlhc.o
LSM303DLHC_AccINT2InterruptConfig                 Utilities\STM32F3_Discovery\stm32f3_discovery_lsm303dlhc.o
LSM303DLHC_AccIT1Config                           Utilities\STM32F3_Discovery\stm32f3_discovery_lsm303dlhc.o
LSM303DLHC_AccIT2Config                           Utilities\STM32F3_Discovery\stm32f3_discovery_lsm303dlhc.o
LSM303DLHC_AccInit                                Utilities\STM32F3_Discovery\stm32f3_discovery_lsm303dlhc.o
LSM303DLHC_AccRebootCmd                           Utilities\STM32F3_Discovery\stm32f3_discovery_lsm303dlhc.o
LSM303DLHC_MagGetDataStatus                       Utilities\STM32F3_Discovery\stm32f3_discovery_lsm303dlhc.o
LSM303DLHC_MagInit                                Utilities\STM32F3_Discovery\stm32f3_discovery_lsm303dlhc.o
LSM303DLHC_Read                                   Utilities\STM32F3_Discovery\stm32f3_discovery_lsm303dlhc.o
LSM303DLHC_TIMEOUT_UserCallback                   Utilities\STM32F3_Discovery\stm32f3_discovery_lsm303dlhc.o
LSM303DLHC_Timeout                                Utilities\STM32F3_Discovery\stm32f3_discovery_lsm303dlhc.o
LSM303DLHC_Write                                  Utilities\STM32F3_Discovery\stm32f3_discovery_lsm303dlhc.o
Led_Mode_Indicator                                src\common.o
MemManage_Handler                                 src\stm32f30x_it.o
ModBits                                           src\common.o
                                                  src\main.o
MotorInit                                         src\common.o
                                                  src\main.o
MotorTest                                         src\common.o
MotorTesting                                      src\common.o
NMI_Handler                                       src\stm32f30x_it.o
NVIC_Init                                         Libraries\STM32F30x_StdPeriph_Driver\src\stm32f30x_misc.o
                                                  Libraries\STM32F30x_StdPeriph_Driver\src\incioenc.o
                                                  Libraries\STM32F30x_StdPeriph_Driver\src\inciotim.o
                                                  Libraries\STM32F30x_StdPeriph_Driver\src\inciouart.o
                                                  Utilities\STM32F3_Discovery\stm32f3_discovery.o
NVIC_InitStructure                                Libraries\STM32F30x_StdPeriph_Driver\src\inciobdc.o
                                                  Libraries\STM32F30x_StdPeriph_Driver\src\incioenc.o
                                                  Libraries\STM32F30x_StdPeriph_Driver\src\inciogpio.o
                                                  Libraries\STM32F30x_StdPeriph_Driver\src\inciopwm.o
                                                  Libraries\STM32F30x_StdPeriph_Driver\src\inciotim.o
                                                  Libraries\STM32F30x_StdPeriph_Driver\src\inciouart.o
                                                  src\common.o
                                                  src\main.o
NVIC_PriorityGroupConfig                          Libraries\STM32F30x_StdPeriph_Driver\src\stm32f30x_misc.o
NVIC_SetVectorTable                               Libraries\STM32F30x_StdPeriph_Driver\src\stm32f30x_misc.o
NVIC_SystemLPConfig                               Libraries\STM32F30x_StdPeriph_Driver\src\stm32f30x_misc.o
OFFTimer                                          Libraries\STM32F30x_StdPeriph_Driver\src\inciotim.o
ONTimer                                           Libraries\STM32F30x_StdPeriph_Driver\src\inciotim.o
OPAMP_Cmd                                         Libraries\STM32F30x_StdPeriph_Driver\src\stm32f30x_opamp.o
OPAMP_DeInit                                      Libraries\STM32F30x_StdPeriph_Driver\src\stm32f30x_opamp.o
OPAMP_GetOutputLevel                              Libraries\STM32F30x_StdPeriph_Driver\src\stm32f30x_opamp.o
OPAMP_Init                                        Libraries\STM32F30x_StdPeriph_Driver\src\stm32f30x_opamp.o
OPAMP_LockConfig                                  Libraries\STM32F30x_StdPeriph_Driver\src\stm32f30x_opamp.o
OPAMP_OffsetTrimConfig                            Libraries\STM32F30x_StdPeriph_Driver\src\stm32f30x_opamp.o
OPAMP_OffsetTrimModeSelect                        Libraries\STM32F30x_StdPeriph_Driver\src\stm32f30x_opamp.o
OPAMP_PGAConfig                                   Libraries\STM32F30x_StdPeriph_Driver\src\stm32f30x_opamp.o
OPAMP_StartCalibration                            Libraries\STM32F30x_StdPeriph_Driver\src\stm32f30x_opamp.o
OPAMP_StructInit                                  Libraries\STM32F30x_StdPeriph_Driver\src\stm32f30x_opamp.o
OPAMP_TimerControlledMuxCmd                       Libraries\STM32F30x_StdPeriph_Driver\src\stm32f30x_opamp.o
OPAMP_TimerControlledMuxConfig                    Libraries\STM32F30x_StdPeriph_Driver\src\stm32f30x_opamp.o
OPAMP_VrefConfig                                  Libraries\STM32F30x_StdPeriph_Driver\src\stm32f30x_opamp.o
OPAMP_VrefConnectADCCmd                           Libraries\STM32F30x_StdPeriph_Driver\src\stm32f30x_opamp.o
OPAMP_VrefConnectNonInvertingInput                Libraries\STM32F30x_StdPeriph_Driver\src\stm32f30x_opamp.o
PVD_IRQHandler                                    src\startup_stm32f30x.o
PWMInit                                           Libraries\STM32F30x_StdPeriph_Driver\src\inciopwm.o
                                                  Libraries\STM32F30x_StdPeriph_Driver\src\inciogpio.o
PWMTiInit                                         Libraries\STM32F30x_StdPeriph_Driver\src\inciopwm.o
PWR_BackupAccessCmd                               Libraries\STM32F30x_StdPeriph_Driver\src\stm32f30x_pwr.o
PWR_ClearFlag                                     Libraries\STM32F30x_StdPeriph_Driver\src\stm32f30x_pwr.o
PWR_DeInit                                        Libraries\STM32F30x_StdPeriph_Driver\src\stm32f30x_pwr.o
PWR_EnterSTANDBYMode                              Libraries\STM32F30x_StdPeriph_Driver\src\stm32f30x_pwr.o
PWR_EnterSTOPMode                                 Libraries\STM32F30x_StdPeriph_Driver\src\stm32f30x_pwr.o
PWR_EnterSleepMode                                Libraries\STM32F30x_StdPeriph_Driver\src\stm32f30x_pwr.o
PWR_GetFlagStatus                                 Libraries\STM32F30x_StdPeriph_Driver\src\stm32f30x_pwr.o
PWR_PVDCmd                                        Libraries\STM32F30x_StdPeriph_Driver\src\stm32f30x_pwr.o
PWR_PVDLevelConfig                                Libraries\STM32F30x_StdPeriph_Driver\src\stm32f30x_pwr.o
PWR_WakeUpPinCmd                                  Libraries\STM32F30x_StdPeriph_Driver\src\stm32f30x_pwr.o
PendSV_Handler                                    src\stm32f30x_it.o
Polewalk                                          src\common.o
QEI1Init                                          Libraries\STM32F30x_StdPeriph_Driver\src\incioenc.o
QEI2Init                                          Libraries\STM32F30x_StdPeriph_Driver\src\incioenc.o
QEI3Init                                          Libraries\STM32F30x_StdPeriph_Driver\src\incioenc.o
QEI4Init                                          Libraries\STM32F30x_StdPeriph_Driver\src\incioenc.o
QEIInit                                           Libraries\STM32F30x_StdPeriph_Driver\src\incioenc.o
                                                  Libraries\STM32F30x_StdPeriph_Driver\src\inciogpio.o
QEIflag                                           Libraries\STM32F30x_StdPeriph_Driver\src\incioenc.o
Qei1                                              Libraries\STM32F30x_StdPeriph_Driver\src\incioenc.o
Qei2                                              Libraries\STM32F30x_StdPeriph_Driver\src\incioenc.o
                                                  src\common.o
                                                  src\main.o
Qei3                                              Libraries\STM32F30x_StdPeriph_Driver\src\incioenc.o
Qei4                                              Libraries\STM32F30x_StdPeriph_Driver\src\incioenc.o
RCC_ADCCLKConfig                                  Libraries\STM32F30x_StdPeriph_Driver\src\stm32f30x_rcc.o
RCC_AHBPeriphClockCmd                             Libraries\STM32F30x_StdPeriph_Driver\src\stm32f30x_rcc.o
                                                  Libraries\STM32F30x_StdPeriph_Driver\src\inciogpio.o
                                                  Utilities\STM32F3_Discovery\stm32f3_discovery.o
                                                  Utilities\STM32F3_Discovery\stm32f3_discovery_l3gd20.o
                                                  Utilities\STM32F3_Discovery\stm32f3_discovery_lsm303dlhc.o
RCC_AHBPeriphResetCmd                             Libraries\STM32F30x_StdPeriph_Driver\src\stm32f30x_rcc.o
                                                  Libraries\STM32F30x_StdPeriph_Driver\src\stm32f30x_adc.o
                                                  Libraries\STM32F30x_StdPeriph_Driver\src\stm32f30x_gpio.o
RCC_APB1PeriphClockCmd                            Libraries\STM32F30x_StdPeriph_Driver\src\stm32f30x_rcc.o
                                                  Libraries\STM32F30x_StdPeriph_Driver\src\inciogpio.o
                                                  Utilities\STM32F3_Discovery\stm32f3_discovery_lsm303dlhc.o
RCC_APB1PeriphResetCmd                            Libraries\STM32F30x_StdPeriph_Driver\src\stm32f30x_rcc.o
                                                  Libraries\STM32F30x_StdPeriph_Driver\src\inciogpio.o
                                                  Libraries\STM32F30x_StdPeriph_Driver\src\stm32f30x_can.o
                                                  Libraries\STM32F30x_StdPeriph_Driver\src\stm32f30x_dac.o
                                                  Libraries\STM32F30x_StdPeriph_Driver\src\stm32f30x_i2c.o
                                                  Libraries\STM32F30x_StdPeriph_Driver\src\stm32f30x_pwr.o
                                                  Libraries\STM32F30x_StdPeriph_Driver\src\stm32f30x_spi.o
                                                  Libraries\STM32F30x_StdPeriph_Driver\src\stm32f30x_tim.o
                                                  Libraries\STM32F30x_StdPeriph_Driver\src\stm32f30x_usart.o
                                                  Libraries\STM32F30x_StdPeriph_Driver\src\stm32f30x_wwdg.o
RCC_APB2PeriphClockCmd                            Libraries\STM32F30x_StdPeriph_Driver\src\stm32f30x_rcc.o
                                                  Libraries\STM32F30x_StdPeriph_Driver\src\inciogpio.o
                                                  Utilities\STM32F3_Discovery\stm32f3_discovery.o
                                                  Utilities\STM32F3_Discovery\stm32f3_discovery_l3gd20.o
RCC_APB2PeriphResetCmd                            Libraries\STM32F30x_StdPeriph_Driver\src\stm32f30x_rcc.o
                                                  Libraries\STM32F30x_StdPeriph_Driver\src\inciogpio.o
                                                  Libraries\STM32F30x_StdPeriph_Driver\src\stm32f30x_spi.o
                                                  Libraries\STM32F30x_StdPeriph_Driver\src\stm32f30x_tim.o
                                                  Libraries\STM32F30x_StdPeriph_Driver\src\stm32f30x_usart.o
RCC_AdjustHSICalibrationValue                     Libraries\STM32F30x_StdPeriph_Driver\src\stm32f30x_rcc.o
RCC_BackupResetCmd                                Libraries\STM32F30x_StdPeriph_Driver\src\stm32f30x_rcc.o
RCC_ClearFlag                                     Libraries\STM32F30x_StdPeriph_Driver\src\stm32f30x_rcc.o
RCC_ClearITPendingBit                             Libraries\STM32F30x_StdPeriph_Driver\src\stm32f30x_rcc.o
RCC_ClockSecuritySystemCmd                        Libraries\STM32F30x_StdPeriph_Driver\src\stm32f30x_rcc.o
RCC_Clocks                                        Libraries\STM32F30x_StdPeriph_Driver\src\inciobdc.o
                                                  Libraries\STM32F30x_StdPeriph_Driver\src\incioenc.o
                                                  Libraries\STM32F30x_StdPeriph_Driver\src\inciogpio.o
                                                  Libraries\STM32F30x_StdPeriph_Driver\src\inciopwm.o
                                                  Libraries\STM32F30x_StdPeriph_Driver\src\inciotim.o
                                                  Libraries\STM32F30x_StdPeriph_Driver\src\inciouart.o
                                                  src\common.o
                                                  src\main.o
RCC_DeInit                                        Libraries\STM32F30x_StdPeriph_Driver\src\stm32f30x_rcc.o
RCC_GetClocksFreq                                 Libraries\STM32F30x_StdPeriph_Driver\src\stm32f30x_rcc.o
                                                  Libraries\STM32F30x_StdPeriph_Driver\src\inciogpio.o
                                                  Libraries\STM32F30x_StdPeriph_Driver\src\stm32f30x_spi.o
                                                  Libraries\STM32F30x_StdPeriph_Driver\src\stm32f30x_usart.o
RCC_GetFlagStatus                                 Libraries\STM32F30x_StdPeriph_Driver\src\stm32f30x_rcc.o
RCC_GetITStatus                                   Libraries\STM32F30x_StdPeriph_Driver\src\stm32f30x_rcc.o
RCC_GetSYSCLKSource                               Libraries\STM32F30x_StdPeriph_Driver\src\stm32f30x_rcc.o
RCC_HCLKConfig                                    Libraries\STM32F30x_StdPeriph_Driver\src\stm32f30x_rcc.o
RCC_HSEConfig                                     Libraries\STM32F30x_StdPeriph_Driver\src\stm32f30x_rcc.o
RCC_HSICmd                                        Libraries\STM32F30x_StdPeriph_Driver\src\stm32f30x_rcc.o
RCC_I2CCLKConfig                                  Libraries\STM32F30x_StdPeriph_Driver\src\stm32f30x_rcc.o
RCC_I2SCLKConfig                                  Libraries\STM32F30x_StdPeriph_Driver\src\stm32f30x_rcc.o
RCC_IRQHandler                                    src\startup_stm32f30x.o
RCC_ITConfig                                      Libraries\STM32F30x_StdPeriph_Driver\src\stm32f30x_rcc.o
RCC_LSEConfig                                     Libraries\STM32F30x_StdPeriph_Driver\src\stm32f30x_rcc.o
RCC_LSEDriveConfig                                Libraries\STM32F30x_StdPeriph_Driver\src\stm32f30x_rcc.o
RCC_LSICmd                                        Libraries\STM32F30x_StdPeriph_Driver\src\stm32f30x_rcc.o
RCC_MCOConfig                                     Libraries\STM32F30x_StdPeriph_Driver\src\stm32f30x_rcc.o
RCC_PCLK1Config                                   Libraries\STM32F30x_StdPeriph_Driver\src\stm32f30x_rcc.o
RCC_PCLK2Config                                   Libraries\STM32F30x_StdPeriph_Driver\src\stm32f30x_rcc.o
RCC_PLLCmd                                        Libraries\STM32F30x_StdPeriph_Driver\src\stm32f30x_rcc.o
RCC_PLLConfig                                     Libraries\STM32F30x_StdPeriph_Driver\src\stm32f30x_rcc.o
RCC_PREDIV1Config                                 Libraries\STM32F30x_StdPeriph_Driver\src\stm32f30x_rcc.o
RCC_RTCCLKCmd                                     Libraries\STM32F30x_StdPeriph_Driver\src\stm32f30x_rcc.o
RCC_RTCCLKConfig                                  Libraries\STM32F30x_StdPeriph_Driver\src\stm32f30x_rcc.o
RCC_SYSCLKConfig                                  Libraries\STM32F30x_StdPeriph_Driver\src\stm32f30x_rcc.o
RCC_TIMCLKConfig                                  Libraries\STM32F30x_StdPeriph_Driver\src\stm32f30x_rcc.o
RCC_USARTCLKConfig                                Libraries\STM32F30x_StdPeriph_Driver\src\stm32f30x_rcc.o
RCC_USBCLKConfig                                  Libraries\STM32F30x_StdPeriph_Driver\src\stm32f30x_rcc.o
RCC_WaitForHSEStartUp                             Libraries\STM32F30x_StdPeriph_Driver\src\stm32f30x_rcc.o
RTC_AlarmCmd                                      Libraries\STM32F30x_StdPeriph_Driver\src\stm32f30x_rtc.o
RTC_AlarmStructInit                               Libraries\STM32F30x_StdPeriph_Driver\src\stm32f30x_rtc.o
RTC_AlarmSubSecondConfig                          Libraries\STM32F30x_StdPeriph_Driver\src\stm32f30x_rtc.o
RTC_Alarm_IRQHandler                              src\startup_stm32f30x.o
RTC_BypassShadowCmd                               Libraries\STM32F30x_StdPeriph_Driver\src\stm32f30x_rtc.o
RTC_CalibOutputCmd                                Libraries\STM32F30x_StdPeriph_Driver\src\stm32f30x_rtc.o
RTC_CalibOutputConfig                             Libraries\STM32F30x_StdPeriph_Driver\src\stm32f30x_rtc.o
RTC_ClearFlag                                     Libraries\STM32F30x_StdPeriph_Driver\src\stm32f30x_rtc.o
RTC_ClearITPendingBit                             Libraries\STM32F30x_StdPeriph_Driver\src\stm32f30x_rtc.o
RTC_DateStructInit                                Libraries\STM32F30x_StdPeriph_Driver\src\stm32f30x_rtc.o
RTC_DayLightSavingConfig                          Libraries\STM32F30x_StdPeriph_Driver\src\stm32f30x_rtc.o
RTC_DeInit                                        Libraries\STM32F30x_StdPeriph_Driver\src\stm32f30x_rtc.o
RTC_EnterInitMode                                 Libraries\STM32F30x_StdPeriph_Driver\src\stm32f30x_rtc.o
RTC_ExitInitMode                                  Libraries\STM32F30x_StdPeriph_Driver\src\stm32f30x_rtc.o
RTC_GetAlarm                                      Libraries\STM32F30x_StdPeriph_Driver\src\stm32f30x_rtc.o
RTC_GetAlarmSubSecond                             Libraries\STM32F30x_StdPeriph_Driver\src\stm32f30x_rtc.o
RTC_GetDate                                       Libraries\STM32F30x_StdPeriph_Driver\src\stm32f30x_rtc.o
RTC_GetFlagStatus                                 Libraries\STM32F30x_StdPeriph_Driver\src\stm32f30x_rtc.o
RTC_GetITStatus                                   Libraries\STM32F30x_StdPeriph_Driver\src\stm32f30x_rtc.o
RTC_GetStoreOperation                             Libraries\STM32F30x_StdPeriph_Driver\src\stm32f30x_rtc.o
RTC_GetSubSecond                                  Libraries\STM32F30x_StdPeriph_Driver\src\stm32f30x_rtc.o
RTC_GetTime                                       Libraries\STM32F30x_StdPeriph_Driver\src\stm32f30x_rtc.o
RTC_GetTimeStamp                                  Libraries\STM32F30x_StdPeriph_Driver\src\stm32f30x_rtc.o
RTC_GetTimeStampSubSecond                         Libraries\STM32F30x_StdPeriph_Driver\src\stm32f30x_rtc.o
RTC_GetWakeUpCounter                              Libraries\STM32F30x_StdPeriph_Driver\src\stm32f30x_rtc.o
RTC_ITConfig                                      Libraries\STM32F30x_StdPeriph_Driver\src\stm32f30x_rtc.o
RTC_Init                                          Libraries\STM32F30x_StdPeriph_Driver\src\stm32f30x_rtc.o
RTC_OutputConfig                                  Libraries\STM32F30x_StdPeriph_Driver\src\stm32f30x_rtc.o
RTC_OutputTypeConfig                              Libraries\STM32F30x_StdPeriph_Driver\src\stm32f30x_rtc.o
RTC_ReadBackupRegister                            Libraries\STM32F30x_StdPeriph_Driver\src\stm32f30x_rtc.o
RTC_RefClockCmd                                   Libraries\STM32F30x_StdPeriph_Driver\src\stm32f30x_rtc.o
RTC_SetAlarm                                      Libraries\STM32F30x_StdPeriph_Driver\src\stm32f30x_rtc.o
RTC_SetDate                                       Libraries\STM32F30x_StdPeriph_Driver\src\stm32f30x_rtc.o
RTC_SetTime                                       Libraries\STM32F30x_StdPeriph_Driver\src\stm32f30x_rtc.o
RTC_SetWakeUpCounter                              Libraries\STM32F30x_StdPeriph_Driver\src\stm32f30x_rtc.o
RTC_SmoothCalibConfig                             Libraries\STM32F30x_StdPeriph_Driver\src\stm32f30x_rtc.o
RTC_StructInit                                    Libraries\STM32F30x_StdPeriph_Driver\src\stm32f30x_rtc.o
RTC_SynchroShiftConfig                            Libraries\STM32F30x_StdPeriph_Driver\src\stm32f30x_rtc.o
RTC_TamperCmd                                     Libraries\STM32F30x_StdPeriph_Driver\src\stm32f30x_rtc.o
RTC_TamperFilterConfig                            Libraries\STM32F30x_StdPeriph_Driver\src\stm32f30x_rtc.o
RTC_TamperPinsPrechargeDuration                   Libraries\STM32F30x_StdPeriph_Driver\src\stm32f30x_rtc.o
RTC_TamperPullUpCmd                               Libraries\STM32F30x_StdPeriph_Driver\src\stm32f30x_rtc.o
RTC_TamperSamplingFreqConfig                      Libraries\STM32F30x_StdPeriph_Driver\src\stm32f30x_rtc.o
RTC_TamperTriggerConfig                           Libraries\STM32F30x_StdPeriph_Driver\src\stm32f30x_rtc.o
RTC_TimeStampCmd                                  Libraries\STM32F30x_StdPeriph_Driver\src\stm32f30x_rtc.o
RTC_TimeStampOnTamperDetectionCmd                 Libraries\STM32F30x_StdPeriph_Driver\src\stm32f30x_rtc.o
RTC_TimeStructInit                                Libraries\STM32F30x_StdPeriph_Driver\src\stm32f30x_rtc.o
RTC_WKUP_IRQHandler                               src\startup_stm32f30x.o
RTC_WaitForSynchro                                Libraries\STM32F30x_StdPeriph_Driver\src\stm32f30x_rtc.o
RTC_WakeUpClockConfig                             Libraries\STM32F30x_StdPeriph_Driver\src\stm32f30x_rtc.o
RTC_WakeUpCmd                                     Libraries\STM32F30x_StdPeriph_Driver\src\stm32f30x_rtc.o
RTC_WriteBackupRegister                           Libraries\STM32F30x_StdPeriph_Driver\src\stm32f30x_rtc.o
RTC_WriteProtectionCmd                            Libraries\STM32F30x_StdPeriph_Driver\src\stm32f30x_rtc.o
ResetQei                                          Libraries\STM32F30x_StdPeriph_Driver\src\incioenc.o
Reset_Handler                                     src\startup_stm32f30x.o
SPI1_IRQHandler                                   src\startup_stm32f30x.o
SPI2_IRQHandler                                   src\startup_stm32f30x.o
SPI3_IRQHandler                                   src\startup_stm32f30x.o
SPI_BiDirectionalLineConfig                       Libraries\STM32F30x_StdPeriph_Driver\src\stm32f30x_spi.o
SPI_CRCLengthConfig                               Libraries\STM32F30x_StdPeriph_Driver\src\stm32f30x_spi.o
SPI_CalculateCRC                                  Libraries\STM32F30x_StdPeriph_Driver\src\stm32f30x_spi.o
SPI_Cmd                                           Libraries\STM32F30x_StdPeriph_Driver\src\stm32f30x_spi.o
                                                  Utilities\STM32F3_Discovery\stm32f3_discovery_l3gd20.o
SPI_DataSizeConfig                                Libraries\STM32F30x_StdPeriph_Driver\src\stm32f30x_spi.o
SPI_GetCRC                                        Libraries\STM32F30x_StdPeriph_Driver\src\stm32f30x_spi.o
SPI_GetCRCPolynomial                              Libraries\STM32F30x_StdPeriph_Driver\src\stm32f30x_spi.o
SPI_GetReceptionFIFOStatus                        Libraries\STM32F30x_StdPeriph_Driver\src\stm32f30x_spi.o
SPI_GetTransmissionFIFOStatus                     Libraries\STM32F30x_StdPeriph_Driver\src\stm32f30x_spi.o
SPI_I2S_ClearFlag                                 Libraries\STM32F30x_StdPeriph_Driver\src\stm32f30x_spi.o
SPI_I2S_DMACmd                                    Libraries\STM32F30x_StdPeriph_Driver\src\stm32f30x_spi.o
SPI_I2S_DeInit                                    Libraries\STM32F30x_StdPeriph_Driver\src\stm32f30x_spi.o
                                                  Utilities\STM32F3_Discovery\stm32f3_discovery_l3gd20.o
SPI_I2S_GetFlagStatus                             Libraries\STM32F30x_StdPeriph_Driver\src\stm32f30x_spi.o
                                                  Utilities\STM32F3_Discovery\stm32f3_discovery_l3gd20.o
SPI_I2S_GetITStatus                               Libraries\STM32F30x_StdPeriph_Driver\src\stm32f30x_spi.o
SPI_I2S_ITConfig                                  Libraries\STM32F30x_StdPeriph_Driver\src\stm32f30x_spi.o
SPI_I2S_ReceiveData16                             Libraries\STM32F30x_StdPeriph_Driver\src\stm32f30x_spi.o
SPI_I2S_SendData16                                Libraries\STM32F30x_StdPeriph_Driver\src\stm32f30x_spi.o
SPI_Init                                          Libraries\STM32F30x_StdPeriph_Driver\src\stm32f30x_spi.o
                                                  Utilities\STM32F3_Discovery\stm32f3_discovery_l3gd20.o
SPI_LastDMATransferCmd                            Libraries\STM32F30x_StdPeriph_Driver\src\stm32f30x_spi.o
SPI_NSSInternalSoftwareConfig                     Libraries\STM32F30x_StdPeriph_Driver\src\stm32f30x_spi.o
SPI_NSSPulseModeCmd                               Libraries\STM32F30x_StdPeriph_Driver\src\stm32f30x_spi.o
SPI_ReceiveData8                                  Libraries\STM32F30x_StdPeriph_Driver\src\stm32f30x_spi.o
                                                  Utilities\STM32F3_Discovery\stm32f3_discovery_l3gd20.o
SPI_RxFIFOThresholdConfig                         Libraries\STM32F30x_StdPeriph_Driver\src\stm32f30x_spi.o
                                                  Utilities\STM32F3_Discovery\stm32f3_discovery_l3gd20.o
SPI_SSOutputCmd                                   Libraries\STM32F30x_StdPeriph_Driver\src\stm32f30x_spi.o
SPI_SendData8                                     Libraries\STM32F30x_StdPeriph_Driver\src\stm32f30x_spi.o
                                                  Utilities\STM32F3_Discovery\stm32f3_discovery_l3gd20.o
SPI_StructInit                                    Libraries\STM32F30x_StdPeriph_Driver\src\stm32f30x_spi.o
SPI_TIModeCmd                                     Libraries\STM32F30x_StdPeriph_Driver\src\stm32f30x_spi.o
SPI_TransmitCRC                                   Libraries\STM32F30x_StdPeriph_Driver\src\stm32f30x_spi.o
STM_EVAL_LEDInit                                  Utilities\STM32F3_Discovery\stm32f3_discovery.o
STM_EVAL_LEDOff                                   Utilities\STM32F3_Discovery\stm32f3_discovery.o
STM_EVAL_LEDOn                                    Utilities\STM32F3_Discovery\stm32f3_discovery.o
STM_EVAL_LEDToggle                                Utilities\STM32F3_Discovery\stm32f3_discovery.o
STM_EVAL_PBGetState                               Utilities\STM32F3_Discovery\stm32f3_discovery.o
STM_EVAL_PBInit                                   Utilities\STM32F3_Discovery\stm32f3_discovery.o
SVC_Handler                                       src\stm32f30x_it.o
SYSCFG_BreakConfig                                Libraries\STM32F30x_StdPeriph_Driver\src\stm32f30x_syscfg.o
SYSCFG_BypassParityCheckDisable                   Libraries\STM32F30x_StdPeriph_Driver\src\stm32f30x_syscfg.o
SYSCFG_ClearFlag                                  Libraries\STM32F30x_StdPeriph_Driver\src\stm32f30x_syscfg.o
SYSCFG_DMAChannelRemapConfig                      Libraries\STM32F30x_StdPeriph_Driver\src\stm32f30x_syscfg.o
SYSCFG_DeInit                                     Libraries\STM32F30x_StdPeriph_Driver\src\stm32f30x_syscfg.o
SYSCFG_EXTILineConfig                             Libraries\STM32F30x_StdPeriph_Driver\src\stm32f30x_syscfg.o
                                                  Utilities\STM32F3_Discovery\stm32f3_discovery.o
                                                  Utilities\STM32F3_Discovery\stm32f3_discovery_lsm303dlhc.o
SYSCFG_EncoderRemapConfig                         Libraries\STM32F30x_StdPeriph_Driver\src\stm32f30x_syscfg.o
SYSCFG_GetFlagStatus                              Libraries\STM32F30x_StdPeriph_Driver\src\stm32f30x_syscfg.o
SYSCFG_I2CFastModePlusConfig                      Libraries\STM32F30x_StdPeriph_Driver\src\stm32f30x_syscfg.o
SYSCFG_ITConfig                                   Libraries\STM32F30x_StdPeriph_Driver\src\stm32f30x_syscfg.o
SYSCFG_MemoryRemapConfig                          Libraries\STM32F30x_StdPeriph_Driver\src\stm32f30x_syscfg.o
SYSCFG_SRAMWRPEnable                              Libraries\STM32F30x_StdPeriph_Driver\src\stm32f30x_syscfg.o
SYSCFG_TriggerRemapConfig                         Libraries\STM32F30x_StdPeriph_Driver\src\stm32f30x_syscfg.o
SYSCFG_USBInterruptLineRemapCmd                   Libraries\STM32F30x_StdPeriph_Driver\src\stm32f30x_syscfg.o
SYSInit                                           Libraries\STM32F30x_StdPeriph_Driver\src\inciogpio.o
                                                  src\main.o
SeeSaw                                            src\common.o
ServoInit                                         src\common.o
StopBDC                                           src\main.o
                                                  src\common.o
SwapBDC                                           src\main.o
                                                  src\common.o
SwapQei                                           Libraries\STM32F30x_StdPeriph_Driver\src\incioenc.o
                                                  src\common.o
Swing                                             src\common.o
SwitchTest                                        src\common.o
SysTick_CLKSourceConfig                           Libraries\STM32F30x_StdPeriph_Driver\src\stm32f30x_misc.o
SysTick_Handler                                   src\main.o
                                                  src\startup_stm32f30x.o
SystemCoreClock                                   src\system_stm32f30x.o
SystemCoreClockUpdate                             src\system_stm32f30x.o
SystemInit                                        src\system_stm32f30x.o
                                                  src\startup_stm32f30x.o
TAMPER_STAMP_IRQHandler                           src\startup_stm32f30x.o
TIM1_BRK_TIM15_IRQHandler                         src\startup_stm32f30x.o
TIM1_CC_IRQHandler                                src\startup_stm32f30x.o
TIM1_TRG_COM_TIM17_IRQHandler                     src\startup_stm32f30x.o
TIM1_UP_TIM16_IRQHandler                          Libraries\STM32F30x_StdPeriph_Driver\src\incioenc.o
                                                  src\startup_stm32f30x.o
TIM2_IRQHandler                                   src\startup_stm32f30x.o
TIM3_IRQHandler                                   src\startup_stm32f30x.o
TIM4_IRQHandler                                   Libraries\STM32F30x_StdPeriph_Driver\src\incioenc.o
                                                  src\startup_stm32f30x.o
TIM6_DAC_IRQHandler                               src\main.o
                                                  src\startup_stm32f30x.o
TIM7_IRQHandler                                   src\main.o
                                                  src\startup_stm32f30x.o
TIM8_BRK_IRQHandler                               src\startup_stm32f30x.o
TIM8_CC_IRQHandler                                src\startup_stm32f30x.o
TIM8_TRG_COM_IRQHandler                           src\startup_stm32f30x.o
TIM8_UP_IRQHandler                                Libraries\STM32F30x_StdPeriph_Driver\src\incioenc.o
                                                  src\startup_stm32f30x.o
TIM_ARRPreloadConfig                              Libraries\STM32F30x_StdPeriph_Driver\src\stm32f30x_tim.o
                                                  Libraries\STM32F30x_StdPeriph_Driver\src\incioenc.o
TIM_BDTRConfig                                    Libraries\STM32F30x_StdPeriph_Driver\src\stm32f30x_tim.o
TIM_BDTRStructInit                                Libraries\STM32F30x_StdPeriph_Driver\src\stm32f30x_tim.o
TIM_Break1Cmd                                     Libraries\STM32F30x_StdPeriph_Driver\src\stm32f30x_tim.o
TIM_Break1Config                                  Libraries\STM32F30x_StdPeriph_Driver\src\stm32f30x_tim.o
TIM_Break2Cmd                                     Libraries\STM32F30x_StdPeriph_Driver\src\stm32f30x_tim.o
TIM_Break2Config                                  Libraries\STM32F30x_StdPeriph_Driver\src\stm32f30x_tim.o
TIM_CCPreloadControl                              Libraries\STM32F30x_StdPeriph_Driver\src\stm32f30x_tim.o
TIM_CCxCmd                                        Libraries\STM32F30x_StdPeriph_Driver\src\stm32f30x_tim.o
TIM_CCxNCmd                                       Libraries\STM32F30x_StdPeriph_Driver\src\stm32f30x_tim.o
TIM_ClearFlag                                     Libraries\STM32F30x_StdPeriph_Driver\src\stm32f30x_tim.o
TIM_ClearITPendingBit                             Libraries\STM32F30x_StdPeriph_Driver\src\stm32f30x_tim.o
                                                  Libraries\STM32F30x_StdPeriph_Driver\src\incioenc.o
                                                  Libraries\STM32F30x_StdPeriph_Driver\src\inciotim.o
TIM_ClearOC1Ref                                   Libraries\STM32F30x_StdPeriph_Driver\src\stm32f30x_tim.o
TIM_ClearOC2Ref                                   Libraries\STM32F30x_StdPeriph_Driver\src\stm32f30x_tim.o
TIM_ClearOC3Ref                                   Libraries\STM32F30x_StdPeriph_Driver\src\stm32f30x_tim.o
TIM_ClearOC4Ref                                   Libraries\STM32F30x_StdPeriph_Driver\src\stm32f30x_tim.o
TIM_ClearOC5Ref                                   Libraries\STM32F30x_StdPeriph_Driver\src\stm32f30x_tim.o
TIM_ClearOC6Ref                                   Libraries\STM32F30x_StdPeriph_Driver\src\stm32f30x_tim.o
TIM_Cmd                                           Libraries\STM32F30x_StdPeriph_Driver\src\stm32f30x_tim.o
                                                  Libraries\STM32F30x_StdPeriph_Driver\src\incioenc.o
                                                  Libraries\STM32F30x_StdPeriph_Driver\src\inciopwm.o
                                                  Libraries\STM32F30x_StdPeriph_Driver\src\inciotim.o
                                                  src\common.o
TIM_CounterModeConfig                             Libraries\STM32F30x_StdPeriph_Driver\src\stm32f30x_tim.o
TIM_CtrlPWMOutputs                                Libraries\STM32F30x_StdPeriph_Driver\src\stm32f30x_tim.o
                                                  Libraries\STM32F30x_StdPeriph_Driver\src\inciopwm.o
                                                  src\common.o
TIM_DMACmd                                        Libraries\STM32F30x_StdPeriph_Driver\src\stm32f30x_tim.o
TIM_DMAConfig                                     Libraries\STM32F30x_StdPeriph_Driver\src\stm32f30x_tim.o
TIM_DeInit                                        Libraries\STM32F30x_StdPeriph_Driver\src\stm32f30x_tim.o
TIM_ETRClockMode1Config                           Libraries\STM32F30x_StdPeriph_Driver\src\stm32f30x_tim.o
TIM_ETRClockMode2Config                           Libraries\STM32F30x_StdPeriph_Driver\src\stm32f30x_tim.o
TIM_ETRConfig                                     Libraries\STM32F30x_StdPeriph_Driver\src\stm32f30x_tim.o
TIM_EncoderInterfaceConfig                        Libraries\STM32F30x_StdPeriph_Driver\src\stm32f30x_tim.o
                                                  Libraries\STM32F30x_StdPeriph_Driver\src\incioenc.o
TIM_ForcedOC1Config                               Libraries\STM32F30x_StdPeriph_Driver\src\stm32f30x_tim.o
TIM_ForcedOC2Config                               Libraries\STM32F30x_StdPeriph_Driver\src\stm32f30x_tim.o
TIM_ForcedOC3Config                               Libraries\STM32F30x_StdPeriph_Driver\src\stm32f30x_tim.o
TIM_ForcedOC4Config                               Libraries\STM32F30x_StdPeriph_Driver\src\stm32f30x_tim.o
TIM_ForcedOC5Config                               Libraries\STM32F30x_StdPeriph_Driver\src\stm32f30x_tim.o
TIM_ForcedOC6Config                               Libraries\STM32F30x_StdPeriph_Driver\src\stm32f30x_tim.o
TIM_GenerateEvent                                 Libraries\STM32F30x_StdPeriph_Driver\src\stm32f30x_tim.o
TIM_GetCapture1                                   Libraries\STM32F30x_StdPeriph_Driver\src\stm32f30x_tim.o
TIM_GetCapture2                                   Libraries\STM32F30x_StdPeriph_Driver\src\stm32f30x_tim.o
TIM_GetCapture3                                   Libraries\STM32F30x_StdPeriph_Driver\src\stm32f30x_tim.o
TIM_GetCapture4                                   Libraries\STM32F30x_StdPeriph_Driver\src\stm32f30x_tim.o
TIM_GetCounter                                    Libraries\STM32F30x_StdPeriph_Driver\src\stm32f30x_tim.o
TIM_GetFlagStatus                                 Libraries\STM32F30x_StdPeriph_Driver\src\stm32f30x_tim.o
TIM_GetITStatus                                   Libraries\STM32F30x_StdPeriph_Driver\src\stm32f30x_tim.o
TIM_GetPrescaler                                  Libraries\STM32F30x_StdPeriph_Driver\src\stm32f30x_tim.o
TIM_ICInit                                        Libraries\STM32F30x_StdPeriph_Driver\src\stm32f30x_tim.o
TIM_ICStructInit                                  Libraries\STM32F30x_StdPeriph_Driver\src\stm32f30x_tim.o
TIM_ITConfig                                      Libraries\STM32F30x_StdPeriph_Driver\src\stm32f30x_tim.o
                                                  Libraries\STM32F30x_StdPeriph_Driver\src\incioenc.o
                                                  Libraries\STM32F30x_StdPeriph_Driver\src\inciotim.o
TIM_ITRxExternalClockConfig                       Libraries\STM32F30x_StdPeriph_Driver\src\stm32f30x_tim.o
TIM_InternalClockConfig                           Libraries\STM32F30x_StdPeriph_Driver\src\stm32f30x_tim.o
TIM_OC1FastConfig                                 Libraries\STM32F30x_StdPeriph_Driver\src\stm32f30x_tim.o
TIM_OC1Init                                       Libraries\STM32F30x_StdPeriph_Driver\src\stm32f30x_tim.o
                                                  Libraries\STM32F30x_StdPeriph_Driver\src\inciopwm.o
                                                  src\common.o
TIM_OC1NPolarityConfig                            Libraries\STM32F30x_StdPeriph_Driver\src\stm32f30x_tim.o
TIM_OC1PolarityConfig                             Libraries\STM32F30x_StdPeriph_Driver\src\stm32f30x_tim.o
TIM_OC1PreloadConfig                              Libraries\STM32F30x_StdPeriph_Driver\src\stm32f30x_tim.o
TIM_OC2FastConfig                                 Libraries\STM32F30x_StdPeriph_Driver\src\stm32f30x_tim.o
TIM_OC2Init                                       Libraries\STM32F30x_StdPeriph_Driver\src\stm32f30x_tim.o
                                                  Libraries\STM32F30x_StdPeriph_Driver\src\inciopwm.o
TIM_OC2NPolarityConfig                            Libraries\STM32F30x_StdPeriph_Driver\src\stm32f30x_tim.o
TIM_OC2PolarityConfig                             Libraries\STM32F30x_StdPeriph_Driver\src\stm32f30x_tim.o
TIM_OC2PreloadConfig                              Libraries\STM32F30x_StdPeriph_Driver\src\stm32f30x_tim.o
TIM_OC3FastConfig                                 Libraries\STM32F30x_StdPeriph_Driver\src\stm32f30x_tim.o
TIM_OC3Init                                       Libraries\STM32F30x_StdPeriph_Driver\src\stm32f30x_tim.o
                                                  Libraries\STM32F30x_StdPeriph_Driver\src\inciopwm.o
TIM_OC3NPolarityConfig                            Libraries\STM32F30x_StdPeriph_Driver\src\stm32f30x_tim.o
TIM_OC3PolarityConfig                             Libraries\STM32F30x_StdPeriph_Driver\src\stm32f30x_tim.o
TIM_OC3PreloadConfig                              Libraries\STM32F30x_StdPeriph_Driver\src\stm32f30x_tim.o
TIM_OC4FastConfig                                 Libraries\STM32F30x_StdPeriph_Driver\src\stm32f30x_tim.o
TIM_OC4Init                                       Libraries\STM32F30x_StdPeriph_Driver\src\stm32f30x_tim.o
                                                  Libraries\STM32F30x_StdPeriph_Driver\src\inciopwm.o
TIM_OC4PolarityConfig                             Libraries\STM32F30x_StdPeriph_Driver\src\stm32f30x_tim.o
TIM_OC4PreloadConfig                              Libraries\STM32F30x_StdPeriph_Driver\src\stm32f30x_tim.o
TIM_OC5Init                                       Libraries\STM32F30x_StdPeriph_Driver\src\stm32f30x_tim.o
TIM_OC5PolarityConfig                             Libraries\STM32F30x_StdPeriph_Driver\src\stm32f30x_tim.o
TIM_OC5PreloadConfig                              Libraries\STM32F30x_StdPeriph_Driver\src\stm32f30x_tim.o
TIM_OC6Init                                       Libraries\STM32F30x_StdPeriph_Driver\src\stm32f30x_tim.o
TIM_OC6PolarityConfig                             Libraries\STM32F30x_StdPeriph_Driver\src\stm32f30x_tim.o
TIM_OC6PreloadConfig                              Libraries\STM32F30x_StdPeriph_Driver\src\stm32f30x_tim.o
TIM_OCInitStructure                               Libraries\STM32F30x_StdPeriph_Driver\src\inciobdc.o
                                                  Libraries\STM32F30x_StdPeriph_Driver\src\incioenc.o
                                                  Libraries\STM32F30x_StdPeriph_Driver\src\inciogpio.o
                                                  Libraries\STM32F30x_StdPeriph_Driver\src\inciopwm.o
                                                  Libraries\STM32F30x_StdPeriph_Driver\src\inciotim.o
                                                  Libraries\STM32F30x_StdPeriph_Driver\src\inciouart.o
                                                  src\common.o
                                                  src\main.o
TIM_OCStructInit                                  Libraries\STM32F30x_StdPeriph_Driver\src\stm32f30x_tim.o
                                                  Libraries\STM32F30x_StdPeriph_Driver\src\inciopwm.o
TIM_PWMIConfig                                    Libraries\STM32F30x_StdPeriph_Driver\src\stm32f30x_tim.o
TIM_PrescalerConfig                               Libraries\STM32F30x_StdPeriph_Driver\src\stm32f30x_tim.o
TIM_RemapConfig                                   Libraries\STM32F30x_StdPeriph_Driver\src\stm32f30x_tim.o
TIM_SelectCCDMA                                   Libraries\STM32F30x_StdPeriph_Driver\src\stm32f30x_tim.o
TIM_SelectCOM                                     Libraries\STM32F30x_StdPeriph_Driver\src\stm32f30x_tim.o
TIM_SelectGC5C1                                   Libraries\STM32F30x_StdPeriph_Driver\src\stm32f30x_tim.o
TIM_SelectGC5C2                                   Libraries\STM32F30x_StdPeriph_Driver\src\stm32f30x_tim.o
TIM_SelectGC5C3                                   Libraries\STM32F30x_StdPeriph_Driver\src\stm32f30x_tim.o
TIM_SelectHallSensor                              Libraries\STM32F30x_StdPeriph_Driver\src\stm32f30x_tim.o
TIM_SelectInputTrigger                            Libraries\STM32F30x_StdPeriph_Driver\src\stm32f30x_tim.o
TIM_SelectMasterSlaveMode                         Libraries\STM32F30x_StdPeriph_Driver\src\stm32f30x_tim.o
TIM_SelectOCREFClear                              Libraries\STM32F30x_StdPeriph_Driver\src\stm32f30x_tim.o
TIM_SelectOCxM                                    Libraries\STM32F30x_StdPeriph_Driver\src\stm32f30x_tim.o
TIM_SelectOnePulseMode                            Libraries\STM32F30x_StdPeriph_Driver\src\stm32f30x_tim.o
TIM_SelectOutputTrigger                           Libraries\STM32F30x_StdPeriph_Driver\src\stm32f30x_tim.o
TIM_SelectOutputTrigger2                          Libraries\STM32F30x_StdPeriph_Driver\src\stm32f30x_tim.o
TIM_SelectSlaveMode                               Libraries\STM32F30x_StdPeriph_Driver\src\stm32f30x_tim.o
TIM_SetAutoreload                                 Libraries\STM32F30x_StdPeriph_Driver\src\stm32f30x_tim.o
TIM_SetClockDivision                              Libraries\STM32F30x_StdPeriph_Driver\src\stm32f30x_tim.o
TIM_SetCompare1                                   Libraries\STM32F30x_StdPeriph_Driver\src\stm32f30x_tim.o
TIM_SetCompare2                                   Libraries\STM32F30x_StdPeriph_Driver\src\stm32f30x_tim.o
TIM_SetCompare3                                   Libraries\STM32F30x_StdPeriph_Driver\src\stm32f30x_tim.o
TIM_SetCompare4                                   Libraries\STM32F30x_StdPeriph_Driver\src\stm32f30x_tim.o
TIM_SetCompare5                                   Libraries\STM32F30x_StdPeriph_Driver\src\stm32f30x_tim.o
TIM_SetCompare6                                   Libraries\STM32F30x_StdPeriph_Driver\src\stm32f30x_tim.o
TIM_SetCounter                                    Libraries\STM32F30x_StdPeriph_Driver\src\stm32f30x_tim.o
TIM_SetIC1Prescaler                               Libraries\STM32F30x_StdPeriph_Driver\src\stm32f30x_tim.o
TIM_SetIC2Prescaler                               Libraries\STM32F30x_StdPeriph_Driver\src\stm32f30x_tim.o
TIM_SetIC3Prescaler                               Libraries\STM32F30x_StdPeriph_Driver\src\stm32f30x_tim.o
TIM_SetIC4Prescaler                               Libraries\STM32F30x_StdPeriph_Driver\src\stm32f30x_tim.o
TIM_TIxExternalClockConfig                        Libraries\STM32F30x_StdPeriph_Driver\src\stm32f30x_tim.o
TIM_TimeBaseInit                                  Libraries\STM32F30x_StdPeriph_Driver\src\stm32f30x_tim.o
                                                  Libraries\STM32F30x_StdPeriph_Driver\src\incioenc.o
                                                  Libraries\STM32F30x_StdPeriph_Driver\src\inciopwm.o
                                                  Libraries\STM32F30x_StdPeriph_Driver\src\inciotim.o
TIM_TimeBaseStructInit                            Libraries\STM32F30x_StdPeriph_Driver\src\stm32f30x_tim.o
TIM_TimeBaseStructure                             Libraries\STM32F30x_StdPeriph_Driver\src\inciobdc.o
                                                  Libraries\STM32F30x_StdPeriph_Driver\src\incioenc.o
                                                  Libraries\STM32F30x_StdPeriph_Driver\src\inciogpio.o
                                                  Libraries\STM32F30x_StdPeriph_Driver\src\inciopwm.o
                                                  Libraries\STM32F30x_StdPeriph_Driver\src\inciotim.o
                                                  Libraries\STM32F30x_StdPeriph_Driver\src\inciouart.o
                                                  src\common.o
                                                  src\main.o
TIM_UIFRemap                                      Libraries\STM32F30x_StdPeriph_Driver\src\stm32f30x_tim.o
TIM_UpdateDisableConfig                           Libraries\STM32F30x_StdPeriph_Driver\src\stm32f30x_tim.o
TIM_UpdateRequestConfig                           Libraries\STM32F30x_StdPeriph_Driver\src\stm32f30x_tim.o
TimerInit                                         Libraries\STM32F30x_StdPeriph_Driver\src\inciotim.o
                                                  src\common.o
TimingDelay                                       Libraries\STM32F30x_StdPeriph_Driver\src\inciogpio.o
UART4_IRQHandler                                  Libraries\STM32F30x_StdPeriph_Driver\src\inciouart.o
                                                  src\startup_stm32f30x.o
UART4_directprint                                 Libraries\STM32F30x_StdPeriph_Driver\src\inciouart.o
                                                  src\common.o
                                                  src\main.o
UART4_directputc                                  Libraries\STM32F30x_StdPeriph_Driver\src\inciouart.o
UART5_IRQHandler                                  Libraries\STM32F30x_StdPeriph_Driver\src\inciouart.o
                                                  src\startup_stm32f30x.o
UART5_directprint                                 Libraries\STM32F30x_StdPeriph_Driver\src\inciouart.o
                                                  src\common.o
UART5_directputc                                  Libraries\STM32F30x_StdPeriph_Driver\src\inciouart.o
UARTInit                                          Libraries\STM32F30x_StdPeriph_Driver\src\inciouart.o
USART1_IRQHandler                                 src\startup_stm32f30x.o
USART2_IRQHandler                                 src\startup_stm32f30x.o
USART3_IRQHandler                                 src\startup_stm32f30x.o
USART_AddressDetectionConfig                      Libraries\STM32F30x_StdPeriph_Driver\src\stm32f30x_usart.o
USART_AutoBaudRateCmd                             Libraries\STM32F30x_StdPeriph_Driver\src\stm32f30x_usart.o
USART_AutoBaudRateConfig                          Libraries\STM32F30x_StdPeriph_Driver\src\stm32f30x_usart.o
USART_ClearFlag                                   Libraries\STM32F30x_StdPeriph_Driver\src\stm32f30x_usart.o
USART_ClearITPendingBit                           Libraries\STM32F30x_StdPeriph_Driver\src\stm32f30x_usart.o
USART_ClockInit                                   Libraries\STM32F30x_StdPeriph_Driver\src\stm32f30x_usart.o
USART_ClockStructInit                             Libraries\STM32F30x_StdPeriph_Driver\src\stm32f30x_usart.o
USART_Cmd                                         Libraries\STM32F30x_StdPeriph_Driver\src\stm32f30x_usart.o
                                                  Libraries\STM32F30x_StdPeriph_Driver\src\inciouart.o
USART_DECmd                                       Libraries\STM32F30x_StdPeriph_Driver\src\stm32f30x_usart.o
USART_DEPolarityConfig                            Libraries\STM32F30x_StdPeriph_Driver\src\stm32f30x_usart.o
USART_DMACmd                                      Libraries\STM32F30x_StdPeriph_Driver\src\stm32f30x_usart.o
USART_DMAReceptionErrorConfig                     Libraries\STM32F30x_StdPeriph_Driver\src\stm32f30x_usart.o
USART_DataInvCmd                                  Libraries\STM32F30x_StdPeriph_Driver\src\stm32f30x_usart.o
USART_DeInit                                      Libraries\STM32F30x_StdPeriph_Driver\src\stm32f30x_usart.o
USART_DirectionModeCmd                            Libraries\STM32F30x_StdPeriph_Driver\src\stm32f30x_usart.o
USART_GetFlagStatus                               Libraries\STM32F30x_StdPeriph_Driver\src\stm32f30x_usart.o
                                                  Libraries\STM32F30x_StdPeriph_Driver\src\inciouart.o
USART_GetITStatus                                 Libraries\STM32F30x_StdPeriph_Driver\src\stm32f30x_usart.o
USART_HalfDuplexCmd                               Libraries\STM32F30x_StdPeriph_Driver\src\stm32f30x_usart.o
USART_ITConfig                                    Libraries\STM32F30x_StdPeriph_Driver\src\stm32f30x_usart.o
                                                  Libraries\STM32F30x_StdPeriph_Driver\src\inciouart.o
USART_Init                                        Libraries\STM32F30x_StdPeriph_Driver\src\stm32f30x_usart.o
                                                  Libraries\STM32F30x_StdPeriph_Driver\src\inciouart.o
USART_InitStructure                               Libraries\STM32F30x_StdPeriph_Driver\src\inciobdc.o
                                                  Libraries\STM32F30x_StdPeriph_Driver\src\incioenc.o
                                                  Libraries\STM32F30x_StdPeriph_Driver\src\inciogpio.o
                                                  Libraries\STM32F30x_StdPeriph_Driver\src\inciopwm.o
                                                  Libraries\STM32F30x_StdPeriph_Driver\src\inciotim.o
                                                  Libraries\STM32F30x_StdPeriph_Driver\src\inciouart.o
                                                  src\common.o
                                                  src\main.o
USART_InvPinCmd                                   Libraries\STM32F30x_StdPeriph_Driver\src\stm32f30x_usart.o
USART_IrDACmd                                     Libraries\STM32F30x_StdPeriph_Driver\src\stm32f30x_usart.o
USART_IrDAConfig                                  Libraries\STM32F30x_StdPeriph_Driver\src\stm32f30x_usart.o
USART_LINBreakDetectLengthConfig                  Libraries\STM32F30x_StdPeriph_Driver\src\stm32f30x_usart.o
USART_LINCmd                                      Libraries\STM32F30x_StdPeriph_Driver\src\stm32f30x_usart.o
USART_MSBFirstCmd                                 Libraries\STM32F30x_StdPeriph_Driver\src\stm32f30x_usart.o
USART_MuteModeCmd                                 Libraries\STM32F30x_StdPeriph_Driver\src\stm32f30x_usart.o
USART_MuteModeWakeUpConfig                        Libraries\STM32F30x_StdPeriph_Driver\src\stm32f30x_usart.o
USART_OneBitMethodCmd                             Libraries\STM32F30x_StdPeriph_Driver\src\stm32f30x_usart.o
USART_OverSampling8Cmd                            Libraries\STM32F30x_StdPeriph_Driver\src\stm32f30x_usart.o
USART_OverrunDetectionConfig                      Libraries\STM32F30x_StdPeriph_Driver\src\stm32f30x_usart.o
USART_ReceiveData                                 Libraries\STM32F30x_StdPeriph_Driver\src\stm32f30x_usart.o
                                                  Libraries\STM32F30x_StdPeriph_Driver\src\inciouart.o
USART_ReceiverTimeOutCmd                          Libraries\STM32F30x_StdPeriph_Driver\src\stm32f30x_usart.o
USART_RequestCmd                                  Libraries\STM32F30x_StdPeriph_Driver\src\stm32f30x_usart.o
USART_STOPModeCmd                                 Libraries\STM32F30x_StdPeriph_Driver\src\stm32f30x_usart.o
USART_SWAPPinCmd                                  Libraries\STM32F30x_StdPeriph_Driver\src\stm32f30x_usart.o
USART_SendData                                    Libraries\STM32F30x_StdPeriph_Driver\src\stm32f30x_usart.o
                                                  Libraries\STM32F30x_StdPeriph_Driver\src\inciouart.o
USART_SetAddress                                  Libraries\STM32F30x_StdPeriph_Driver\src\stm32f30x_usart.o
USART_SetAutoRetryCount                           Libraries\STM32F30x_StdPeriph_Driver\src\stm32f30x_usart.o
USART_SetBlockLength                              Libraries\STM32F30x_StdPeriph_Driver\src\stm32f30x_usart.o
USART_SetDEAssertionTime                          Libraries\STM32F30x_StdPeriph_Driver\src\stm32f30x_usart.o
USART_SetDEDeassertionTime                        Libraries\STM32F30x_StdPeriph_Driver\src\stm32f30x_usart.o
USART_SetGuardTime                                Libraries\STM32F30x_StdPeriph_Driver\src\stm32f30x_usart.o
USART_SetPrescaler                                Libraries\STM32F30x_StdPeriph_Driver\src\stm32f30x_usart.o
USART_SetReceiverTimeOut                          Libraries\STM32F30x_StdPeriph_Driver\src\stm32f30x_usart.o
USART_SmartCardCmd                                Libraries\STM32F30x_StdPeriph_Driver\src\stm32f30x_usart.o
USART_SmartCardNACKCmd                            Libraries\STM32F30x_StdPeriph_Driver\src\stm32f30x_usart.o
USART_StopModeWakeUpSourceConfig                  Libraries\STM32F30x_StdPeriph_Driver\src\stm32f30x_usart.o
USART_StructInit                                  Libraries\STM32F30x_StdPeriph_Driver\src\stm32f30x_usart.o
USBWakeUp_IRQHandler                              src\startup_stm32f30x.o
USBWakeUp_RMP_IRQHandler                          src\startup_stm32f30x.o
USB_HP_CAN1_TX_IRQHandler                         src\startup_stm32f30x.o
USB_HP_IRQHandler                                 src\startup_stm32f30x.o
USB_LP_CAN1_RX0_IRQHandler                        src\startup_stm32f30x.o
USB_LP_IRQHandler                                 src\startup_stm32f30x.o
Uart4Data                                         Libraries\STM32F30x_StdPeriph_Driver\src\inciouart.o
Uart5Data                                         Libraries\STM32F30x_StdPeriph_Driver\src\inciouart.o
UsageFault_Handler                                src\stm32f30x_it.o
UserButtonPressed                                 Libraries\STM32F30x_StdPeriph_Driver\src\inciogpio.o
WWDG_ClearFlag                                    Libraries\STM32F30x_StdPeriph_Driver\src\stm32f30x_wwdg.o
WWDG_DeInit                                       Libraries\STM32F30x_StdPeriph_Driver\src\stm32f30x_wwdg.o
WWDG_Enable                                       Libraries\STM32F30x_StdPeriph_Driver\src\stm32f30x_wwdg.o
WWDG_EnableIT                                     Libraries\STM32F30x_StdPeriph_Driver\src\stm32f30x_wwdg.o
WWDG_GetFlagStatus                                Libraries\STM32F30x_StdPeriph_Driver\src\stm32f30x_wwdg.o
WWDG_IRQHandler                                   src\startup_stm32f30x.o
WWDG_SetCounter                                   Libraries\STM32F30x_StdPeriph_Driver\src\stm32f30x_wwdg.o
WWDG_SetPrescaler                                 Libraries\STM32F30x_StdPeriph_Driver\src\stm32f30x_wwdg.o
WWDG_SetWindowValue                               Libraries\STM32F30x_StdPeriph_Driver\src\stm32f30x_wwdg.o
WriteBDC                                          src\main.o
                                                  src\common.o
WriteQei                                          Libraries\STM32F30x_StdPeriph_Driver\src\incioenc.o
_Jv_RegisterClasses                               c:/program files (x86)/atollic/truestudio for arm lite 4.3.1/armtools/bin/../lib/gcc/arm-atollic-eabi/4.7.3/armv7e-m/fpu/crtbegin.o
__adddf3                                          c:/program files (x86)/atollic/truestudio for arm lite 4.3.1/armtools/bin/../lib/gcc/arm-atollic-eabi/4.7.3/armv7e-m/fpu\libgcc.a(_arm_addsubdf3.o)
__aeabi_d2f                                       c:/program files (x86)/atollic/truestudio for arm lite 4.3.1/armtools/bin/../lib/gcc/arm-atollic-eabi/4.7.3/armv7e-m/fpu\libgcc.a(_arm_truncdfsf2.o)
                                                  src\main.o
                                                  src\tiny_printf.o
__aeabi_dadd                                      c:/program files (x86)/atollic/truestudio for arm lite 4.3.1/armtools/bin/../lib/gcc/arm-atollic-eabi/4.7.3/armv7e-m/fpu\libgcc.a(_arm_addsubdf3.o)
__aeabi_ddiv                                      c:/program files (x86)/atollic/truestudio for arm lite 4.3.1/armtools/bin/../lib/gcc/arm-atollic-eabi/4.7.3/armv7e-m/fpu\libgcc.a(_arm_muldivdf3.o)
__aeabi_dmul                                      c:/program files (x86)/atollic/truestudio for arm lite 4.3.1/armtools/bin/../lib/gcc/arm-atollic-eabi/4.7.3/armv7e-m/fpu\libgcc.a(_arm_muldivdf3.o)
                                                  src\main.o
__aeabi_drsub                                     c:/program files (x86)/atollic/truestudio for arm lite 4.3.1/armtools/bin/../lib/gcc/arm-atollic-eabi/4.7.3/armv7e-m/fpu\libgcc.a(_arm_addsubdf3.o)
__aeabi_dsub                                      c:/program files (x86)/atollic/truestudio for arm lite 4.3.1/armtools/bin/../lib/gcc/arm-atollic-eabi/4.7.3/armv7e-m/fpu\libgcc.a(_arm_addsubdf3.o)
__aeabi_f2d                                       c:/program files (x86)/atollic/truestudio for arm lite 4.3.1/armtools/bin/../lib/gcc/arm-atollic-eabi/4.7.3/armv7e-m/fpu\libgcc.a(_arm_addsubdf3.o)
__aeabi_i2d                                       c:/program files (x86)/atollic/truestudio for arm lite 4.3.1/armtools/bin/../lib/gcc/arm-atollic-eabi/4.7.3/armv7e-m/fpu\libgcc.a(_arm_addsubdf3.o)
                                                  src\main.o
__aeabi_l2d                                       c:/program files (x86)/atollic/truestudio for arm lite 4.3.1/armtools/bin/../lib/gcc/arm-atollic-eabi/4.7.3/armv7e-m/fpu\libgcc.a(_arm_addsubdf3.o)
__aeabi_ui2d                                      c:/program files (x86)/atollic/truestudio for arm lite 4.3.1/armtools/bin/../lib/gcc/arm-atollic-eabi/4.7.3/armv7e-m/fpu\libgcc.a(_arm_addsubdf3.o)
__aeabi_ul2d                                      c:/program files (x86)/atollic/truestudio for arm lite 4.3.1/armtools/bin/../lib/gcc/arm-atollic-eabi/4.7.3/armv7e-m/fpu\libgcc.a(_arm_addsubdf3.o)
__assert                                          src\main.o
__assert_func                                     src\main.o
__deregister_frame_info                           c:/program files (x86)/atollic/truestudio for arm lite 4.3.1/armtools/bin/../lib/gcc/arm-atollic-eabi/4.7.3/armv7e-m/fpu/crtbegin.o
__divdf3                                          c:/program files (x86)/atollic/truestudio for arm lite 4.3.1/armtools/bin/../lib/gcc/arm-atollic-eabi/4.7.3/armv7e-m/fpu\libgcc.a(_arm_muldivdf3.o)
__dso_handle                                      c:/program files (x86)/atollic/truestudio for arm lite 4.3.1/armtools/bin/../lib/gcc/arm-atollic-eabi/4.7.3/armv7e-m/fpu/crtbegin.o
__env                                             c:/program files (x86)/atollic/truestudio for arm lite 4.3.1/armtools/bin/../lib/gcc/arm-atollic-eabi/4.7.3/../../../../arm-atollic-eabi/lib/armv7e-m/fpu\libc.a(lib_a-syscalls.o)
__extendsfdf2                                     c:/program files (x86)/atollic/truestudio for arm lite 4.3.1/armtools/bin/../lib/gcc/arm-atollic-eabi/4.7.3/armv7e-m/fpu\libgcc.a(_arm_addsubdf3.o)
__floatdidf                                       c:/program files (x86)/atollic/truestudio for arm lite 4.3.1/armtools/bin/../lib/gcc/arm-atollic-eabi/4.7.3/armv7e-m/fpu\libgcc.a(_arm_addsubdf3.o)
__floatsidf                                       c:/program files (x86)/atollic/truestudio for arm lite 4.3.1/armtools/bin/../lib/gcc/arm-atollic-eabi/4.7.3/armv7e-m/fpu\libgcc.a(_arm_addsubdf3.o)
__floatundidf                                     c:/program files (x86)/atollic/truestudio for arm lite 4.3.1/armtools/bin/../lib/gcc/arm-atollic-eabi/4.7.3/armv7e-m/fpu\libgcc.a(_arm_addsubdf3.o)
__floatunsidf                                     c:/program files (x86)/atollic/truestudio for arm lite 4.3.1/armtools/bin/../lib/gcc/arm-atollic-eabi/4.7.3/armv7e-m/fpu\libgcc.a(_arm_addsubdf3.o)
__init_array_end                                  c:/program files (x86)/atollic/truestudio for arm lite 4.3.1/armtools/bin/../lib/gcc/arm-atollic-eabi/4.7.3/../../../../arm-atollic-eabi/lib/armv7e-m/fpu\libc.a(lib_a-init.o)
__init_array_start                                c:/program files (x86)/atollic/truestudio for arm lite 4.3.1/armtools/bin/../lib/gcc/arm-atollic-eabi/4.7.3/../../../../arm-atollic-eabi/lib/armv7e-m/fpu\libc.a(lib_a-init.o)
__libc_init_array                                 c:/program files (x86)/atollic/truestudio for arm lite 4.3.1/armtools/bin/../lib/gcc/arm-atollic-eabi/4.7.3/../../../../arm-atollic-eabi/lib/armv7e-m/fpu\libc.a(lib_a-init.o)
                                                  src\startup_stm32f30x.o
__malloc_av_                                      c:/program files (x86)/atollic/truestudio for arm lite 4.3.1/armtools/bin/../lib/gcc/arm-atollic-eabi/4.7.3/../../../../arm-atollic-eabi/lib/armv7e-m/fpu\libc.a(lib_a-mallocr.o)
                                                  c:/program files (x86)/atollic/truestudio for arm lite 4.3.1/armtools/bin/../lib/gcc/arm-atollic-eabi/4.7.3/../../../../arm-atollic-eabi/lib/armv7e-m/fpu\libc.a(lib_a-freer.o)
__malloc_current_mallinfo                         c:/program files (x86)/atollic/truestudio for arm lite 4.3.1/armtools/bin/../lib/gcc/arm-atollic-eabi/4.7.3/../../../../arm-atollic-eabi/lib/armv7e-m/fpu\libc.a(lib_a-mallocr.o)
                                                  c:/program files (x86)/atollic/truestudio for arm lite 4.3.1/armtools/bin/../lib/gcc/arm-atollic-eabi/4.7.3/../../../../arm-atollic-eabi/lib/armv7e-m/fpu\libc.a(lib_a-freer.o)
__malloc_lock                                     c:/program files (x86)/atollic/truestudio for arm lite 4.3.1/armtools/bin/../lib/gcc/arm-atollic-eabi/4.7.3/../../../../arm-atollic-eabi/lib/armv7e-m/fpu\libc.a(lib_a-mlock.o)
                                                  c:/program files (x86)/atollic/truestudio for arm lite 4.3.1/armtools/bin/../lib/gcc/arm-atollic-eabi/4.7.3/../../../../arm-atollic-eabi/lib/armv7e-m/fpu\libc.a(lib_a-mallocr.o)
                                                  c:/program files (x86)/atollic/truestudio for arm lite 4.3.1/armtools/bin/../lib/gcc/arm-atollic-eabi/4.7.3/../../../../arm-atollic-eabi/lib/armv7e-m/fpu\libc.a(lib_a-freer.o)
__malloc_max_sbrked_mem                           c:/program files (x86)/atollic/truestudio for arm lite 4.3.1/armtools/bin/../lib/gcc/arm-atollic-eabi/4.7.3/../../../../arm-atollic-eabi/lib/armv7e-m/fpu\libc.a(lib_a-mallocr.o)
__malloc_max_total_mem                            c:/program files (x86)/atollic/truestudio for arm lite 4.3.1/armtools/bin/../lib/gcc/arm-atollic-eabi/4.7.3/../../../../arm-atollic-eabi/lib/armv7e-m/fpu\libc.a(lib_a-mallocr.o)
__malloc_sbrk_base                                c:/program files (x86)/atollic/truestudio for arm lite 4.3.1/armtools/bin/../lib/gcc/arm-atollic-eabi/4.7.3/../../../../arm-atollic-eabi/lib/armv7e-m/fpu\libc.a(lib_a-mallocr.o)
                                                  c:/program files (x86)/atollic/truestudio for arm lite 4.3.1/armtools/bin/../lib/gcc/arm-atollic-eabi/4.7.3/../../../../arm-atollic-eabi/lib/armv7e-m/fpu\libc.a(lib_a-freer.o)
__malloc_top_pad                                  c:/program files (x86)/atollic/truestudio for arm lite 4.3.1/armtools/bin/../lib/gcc/arm-atollic-eabi/4.7.3/../../../../arm-atollic-eabi/lib/armv7e-m/fpu\libc.a(lib_a-mallocr.o)
                                                  c:/program files (x86)/atollic/truestudio for arm lite 4.3.1/armtools/bin/../lib/gcc/arm-atollic-eabi/4.7.3/../../../../arm-atollic-eabi/lib/armv7e-m/fpu\libc.a(lib_a-freer.o)
__malloc_trim_threshold                           c:/program files (x86)/atollic/truestudio for arm lite 4.3.1/armtools/bin/../lib/gcc/arm-atollic-eabi/4.7.3/../../../../arm-atollic-eabi/lib/armv7e-m/fpu\libc.a(lib_a-mallocr.o)
                                                  c:/program files (x86)/atollic/truestudio for arm lite 4.3.1/armtools/bin/../lib/gcc/arm-atollic-eabi/4.7.3/../../../../arm-atollic-eabi/lib/armv7e-m/fpu\libc.a(lib_a-freer.o)
__malloc_unlock                                   c:/program files (x86)/atollic/truestudio for arm lite 4.3.1/armtools/bin/../lib/gcc/arm-atollic-eabi/4.7.3/../../../../arm-atollic-eabi/lib/armv7e-m/fpu\libc.a(lib_a-mlock.o)
                                                  c:/program files (x86)/atollic/truestudio for arm lite 4.3.1/armtools/bin/../lib/gcc/arm-atollic-eabi/4.7.3/../../../../arm-atollic-eabi/lib/armv7e-m/fpu\libc.a(lib_a-mallocr.o)
                                                  c:/program files (x86)/atollic/truestudio for arm lite 4.3.1/armtools/bin/../lib/gcc/arm-atollic-eabi/4.7.3/../../../../arm-atollic-eabi/lib/armv7e-m/fpu\libc.a(lib_a-freer.o)
__muldf3                                          c:/program files (x86)/atollic/truestudio for arm lite 4.3.1/armtools/bin/../lib/gcc/arm-atollic-eabi/4.7.3/armv7e-m/fpu\libgcc.a(_arm_muldivdf3.o)
__preinit_array_end                               c:/program files (x86)/atollic/truestudio for arm lite 4.3.1/armtools/bin/../lib/gcc/arm-atollic-eabi/4.7.3/../../../../arm-atollic-eabi/lib/armv7e-m/fpu\libc.a(lib_a-init.o)
__preinit_array_start                             c:/program files (x86)/atollic/truestudio for arm lite 4.3.1/armtools/bin/../lib/gcc/arm-atollic-eabi/4.7.3/../../../../arm-atollic-eabi/lib/armv7e-m/fpu\libc.a(lib_a-init.o)
__register_frame_info                             c:/program files (x86)/atollic/truestudio for arm lite 4.3.1/armtools/bin/../lib/gcc/arm-atollic-eabi/4.7.3/armv7e-m/fpu/crtbegin.o
__sf_fake_stderr                                  c:/program files (x86)/atollic/truestudio for arm lite 4.3.1/armtools/bin/../lib/gcc/arm-atollic-eabi/4.7.3/../../../../arm-atollic-eabi/lib/armv7e-m/fpu\libc.a(lib_a-impure.o)
__sf_fake_stdin                                   c:/program files (x86)/atollic/truestudio for arm lite 4.3.1/armtools/bin/../lib/gcc/arm-atollic-eabi/4.7.3/../../../../arm-atollic-eabi/lib/armv7e-m/fpu\libc.a(lib_a-impure.o)
__sf_fake_stdout                                  c:/program files (x86)/atollic/truestudio for arm lite 4.3.1/armtools/bin/../lib/gcc/arm-atollic-eabi/4.7.3/../../../../arm-atollic-eabi/lib/armv7e-m/fpu\libc.a(lib_a-impure.o)
__subdf3                                          c:/program files (x86)/atollic/truestudio for arm lite 4.3.1/armtools/bin/../lib/gcc/arm-atollic-eabi/4.7.3/armv7e-m/fpu\libgcc.a(_arm_addsubdf3.o)
__truncdfsf2                                      c:/program files (x86)/atollic/truestudio for arm lite 4.3.1/armtools/bin/../lib/gcc/arm-atollic-eabi/4.7.3/armv7e-m/fpu\libgcc.a(_arm_truncdfsf2.o)
_close                                            c:/program files (x86)/atollic/truestudio for arm lite 4.3.1/armtools/bin/../lib/gcc/arm-atollic-eabi/4.7.3/../../../../arm-atollic-eabi/lib/armv7e-m/fpu\libc.a(lib_a-syscalls.o)
_ebss                                             src\startup_stm32f30x.o
_edata                                            src\startup_stm32f30x.o
_estack                                           src\startup_stm32f30x.o
_execve                                           c:/program files (x86)/atollic/truestudio for arm lite 4.3.1/armtools/bin/../lib/gcc/arm-atollic-eabi/4.7.3/../../../../arm-atollic-eabi/lib/armv7e-m/fpu\libc.a(lib_a-syscalls.o)
_exit                                             c:/program files (x86)/atollic/truestudio for arm lite 4.3.1/armtools/bin/../lib/gcc/arm-atollic-eabi/4.7.3/../../../../arm-atollic-eabi/lib/armv7e-m/fpu\libc.a(lib_a-syscalls.o)
_fini                                             c:/program files (x86)/atollic/truestudio for arm lite 4.3.1/armtools/bin/../lib/gcc/arm-atollic-eabi/4.7.3/armv7e-m/fpu/crti.o
_fork                                             c:/program files (x86)/atollic/truestudio for arm lite 4.3.1/armtools/bin/../lib/gcc/arm-atollic-eabi/4.7.3/../../../../arm-atollic-eabi/lib/armv7e-m/fpu\libc.a(lib_a-syscalls.o)
_free_r                                           c:/program files (x86)/atollic/truestudio for arm lite 4.3.1/armtools/bin/../lib/gcc/arm-atollic-eabi/4.7.3/../../../../arm-atollic-eabi/lib/armv7e-m/fpu\libc.a(lib_a-freer.o)
                                                  c:/program files (x86)/atollic/truestudio for arm lite 4.3.1/armtools/bin/../lib/gcc/arm-atollic-eabi/4.7.3/../../../../arm-atollic-eabi/lib/armv7e-m/fpu\libc.a(lib_a-mallocr.o)
                                                  c:/program files (x86)/atollic/truestudio for arm lite 4.3.1/armtools/bin/../lib/gcc/arm-atollic-eabi/4.7.3/../../../../arm-atollic-eabi/lib/armv7e-m/fpu\libc.a(lib_a-reent.o)
_fstat                                            c:/program files (x86)/atollic/truestudio for arm lite 4.3.1/armtools/bin/../lib/gcc/arm-atollic-eabi/4.7.3/../../../../arm-atollic-eabi/lib/armv7e-m/fpu\libc.a(lib_a-syscalls.o)
_getpid                                           c:/program files (x86)/atollic/truestudio for arm lite 4.3.1/armtools/bin/../lib/gcc/arm-atollic-eabi/4.7.3/../../../../arm-atollic-eabi/lib/armv7e-m/fpu\libc.a(lib_a-syscalls.o)
_global_impure_ptr                                c:/program files (x86)/atollic/truestudio for arm lite 4.3.1/armtools/bin/../lib/gcc/arm-atollic-eabi/4.7.3/../../../../arm-atollic-eabi/lib/armv7e-m/fpu\libc.a(lib_a-impure.o)
_impure_ptr                                       c:/program files (x86)/atollic/truestudio for arm lite 4.3.1/armtools/bin/../lib/gcc/arm-atollic-eabi/4.7.3/../../../../arm-atollic-eabi/lib/armv7e-m/fpu\libc.a(lib_a-impure.o)
                                                  c:/program files (x86)/atollic/truestudio for arm lite 4.3.1/armtools/bin/../lib/gcc/arm-atollic-eabi/4.7.3/../../../../arm-atollic-eabi/lib/armv7e-m/fpu\libc.a(lib_a-reent.o)
_init                                             c:/program files (x86)/atollic/truestudio for arm lite 4.3.1/armtools/bin/../lib/gcc/arm-atollic-eabi/4.7.3/armv7e-m/fpu/crti.o
                                                  c:/program files (x86)/atollic/truestudio for arm lite 4.3.1/armtools/bin/../lib/gcc/arm-atollic-eabi/4.7.3/../../../../arm-atollic-eabi/lib/armv7e-m/fpu\libc.a(lib_a-init.o)
_isatty                                           c:/program files (x86)/atollic/truestudio for arm lite 4.3.1/armtools/bin/../lib/gcc/arm-atollic-eabi/4.7.3/../../../../arm-atollic-eabi/lib/armv7e-m/fpu\libc.a(lib_a-syscalls.o)
_kill                                             c:/program files (x86)/atollic/truestudio for arm lite 4.3.1/armtools/bin/../lib/gcc/arm-atollic-eabi/4.7.3/../../../../arm-atollic-eabi/lib/armv7e-m/fpu\libc.a(lib_a-syscalls.o)
_link                                             c:/program files (x86)/atollic/truestudio for arm lite 4.3.1/armtools/bin/../lib/gcc/arm-atollic-eabi/4.7.3/../../../../arm-atollic-eabi/lib/armv7e-m/fpu\libc.a(lib_a-syscalls.o)
_lseek                                            c:/program files (x86)/atollic/truestudio for arm lite 4.3.1/armtools/bin/../lib/gcc/arm-atollic-eabi/4.7.3/../../../../arm-atollic-eabi/lib/armv7e-m/fpu\libc.a(lib_a-syscalls.o)
_malloc_r                                         c:/program files (x86)/atollic/truestudio for arm lite 4.3.1/armtools/bin/../lib/gcc/arm-atollic-eabi/4.7.3/../../../../arm-atollic-eabi/lib/armv7e-m/fpu\libc.a(lib_a-mallocr.o)
_malloc_trim_r                                    c:/program files (x86)/atollic/truestudio for arm lite 4.3.1/armtools/bin/../lib/gcc/arm-atollic-eabi/4.7.3/../../../../arm-atollic-eabi/lib/armv7e-m/fpu\libc.a(lib_a-freer.o)
_open                                             c:/program files (x86)/atollic/truestudio for arm lite 4.3.1/armtools/bin/../lib/gcc/arm-atollic-eabi/4.7.3/../../../../arm-atollic-eabi/lib/armv7e-m/fpu\libc.a(lib_a-syscalls.o)
_read                                             c:/program files (x86)/atollic/truestudio for arm lite 4.3.1/armtools/bin/../lib/gcc/arm-atollic-eabi/4.7.3/../../../../arm-atollic-eabi/lib/armv7e-m/fpu\libc.a(lib_a-syscalls.o)
_reclaim_reent                                    c:/program files (x86)/atollic/truestudio for arm lite 4.3.1/armtools/bin/../lib/gcc/arm-atollic-eabi/4.7.3/../../../../arm-atollic-eabi/lib/armv7e-m/fpu\libc.a(lib_a-reent.o)
_sbrk                                             c:/program files (x86)/atollic/truestudio for arm lite 4.3.1/armtools/bin/../lib/gcc/arm-atollic-eabi/4.7.3/../../../../arm-atollic-eabi/lib/armv7e-m/fpu\libc.a(lib_a-syscalls.o)
                                                  c:/program files (x86)/atollic/truestudio for arm lite 4.3.1/armtools/bin/../lib/gcc/arm-atollic-eabi/4.7.3/../../../../arm-atollic-eabi/lib/armv7e-m/fpu\libc.a(lib_a-sbrkr.o)
_sbrk_r                                           c:/program files (x86)/atollic/truestudio for arm lite 4.3.1/armtools/bin/../lib/gcc/arm-atollic-eabi/4.7.3/../../../../arm-atollic-eabi/lib/armv7e-m/fpu\libc.a(lib_a-sbrkr.o)
                                                  c:/program files (x86)/atollic/truestudio for arm lite 4.3.1/armtools/bin/../lib/gcc/arm-atollic-eabi/4.7.3/../../../../arm-atollic-eabi/lib/armv7e-m/fpu\libc.a(lib_a-mallocr.o)
                                                  c:/program files (x86)/atollic/truestudio for arm lite 4.3.1/armtools/bin/../lib/gcc/arm-atollic-eabi/4.7.3/../../../../arm-atollic-eabi/lib/armv7e-m/fpu\libc.a(lib_a-freer.o)
_sbss                                             src\startup_stm32f30x.o
_sdata                                            src\startup_stm32f30x.o
_sidata                                           src\startup_stm32f30x.o
_stat                                             c:/program files (x86)/atollic/truestudio for arm lite 4.3.1/armtools/bin/../lib/gcc/arm-atollic-eabi/4.7.3/../../../../arm-atollic-eabi/lib/armv7e-m/fpu\libc.a(lib_a-syscalls.o)
_times                                            c:/program files (x86)/atollic/truestudio for arm lite 4.3.1/armtools/bin/../lib/gcc/arm-atollic-eabi/4.7.3/../../../../arm-atollic-eabi/lib/armv7e-m/fpu\libc.a(lib_a-syscalls.o)
_unlink                                           c:/program files (x86)/atollic/truestudio for arm lite 4.3.1/armtools/bin/../lib/gcc/arm-atollic-eabi/4.7.3/../../../../arm-atollic-eabi/lib/armv7e-m/fpu\libc.a(lib_a-syscalls.o)
_wait                                             c:/program files (x86)/atollic/truestudio for arm lite 4.3.1/armtools/bin/../lib/gcc/arm-atollic-eabi/4.7.3/../../../../arm-atollic-eabi/lib/armv7e-m/fpu\libc.a(lib_a-syscalls.o)
_wrapup_reent                                     c:/program files (x86)/atollic/truestudio for arm lite 4.3.1/armtools/bin/../lib/gcc/arm-atollic-eabi/4.7.3/../../../../arm-atollic-eabi/lib/armv7e-m/fpu\libc.a(lib_a-reent.o)
_write                                            c:/program files (x86)/atollic/truestudio for arm lite 4.3.1/armtools/bin/../lib/gcc/arm-atollic-eabi/4.7.3/../../../../arm-atollic-eabi/lib/armv7e-m/fpu\libc.a(lib_a-syscalls.o)
                                                  src\tiny_printf.o
ang                                               src\common.o
                                                  src\main.o
b                                                 Libraries\STM32F30x_StdPeriph_Driver\src\inciouart.o
buf                                               src\main.o
char4data                                         Libraries\STM32F30x_StdPeriph_Driver\src\inciouart.o
char5data                                         Libraries\STM32F30x_StdPeriph_Driver\src\inciouart.o
cleanup_glue                                      c:/program files (x86)/atollic/truestudio for arm lite 4.3.1/armtools/bin/../lib/gcc/arm-atollic-eabi/4.7.3/../../../../arm-atollic-eabi/lib/armv7e-m/fpu\libc.a(lib_a-reent.o)
currentvalue                                      src\main.o
dataregis                                         Libraries\STM32F30x_StdPeriph_Driver\src\inciobdc.o
delta                                             src\common.o
                                                  src\main.o
dir0                                              src\main.o
dir1                                              src\main.o
end                                               c:/program files (x86)/atollic/truestudio for arm lite 4.3.1/armtools/bin/../lib/gcc/arm-atollic-eabi/4.7.3/../../../../arm-atollic-eabi/lib/armv7e-m/fpu\libc.a(lib_a-syscalls.o)
environ                                           c:/program files (x86)/atollic/truestudio for arm lite 4.3.1/armtools/bin/../lib/gcc/arm-atollic-eabi/4.7.3/../../../../arm-atollic-eabi/lib/armv7e-m/fpu\libc.a(lib_a-syscalls.o)
errno                                             c:/program files (x86)/atollic/truestudio for arm lite 4.3.1/armtools/bin/../lib/gcc/arm-atollic-eabi/4.7.3/../../../../arm-atollic-eabi/lib/armv7e-m/fpu\libc.a(lib_a-sbrkr.o)
                                                  c:/program files (x86)/atollic/truestudio for arm lite 4.3.1/armtools/bin/../lib/gcc/arm-atollic-eabi/4.7.3/../../../../arm-atollic-eabi/lib/armv7e-m/fpu\libc.a(lib_a-reent.o)
                                                  c:/program files (x86)/atollic/truestudio for arm lite 4.3.1/armtools/bin/../lib/gcc/arm-atollic-eabi/4.7.3/../../../../arm-atollic-eabi/lib/armv7e-m/fpu\libc.a(lib_a-syscalls.o)
fiprintf                                          src\tiny_printf.o
fprintf                                           src\tiny_printf.o
fputs                                             src\tiny_printf.o
g_pfnVectors                                      src\startup_stm32f30x.o
i                                                 Libraries\STM32F30x_StdPeriph_Driver\src\inciouart.o
initialise_monitor_handles                        c:/program files (x86)/atollic/truestudio for arm lite 4.3.1/armtools/bin/../lib/gcc/arm-atollic-eabi/4.7.3/../../../../arm-atollic-eabi/lib/armv7e-m/fpu\libc.a(lib_a-syscalls.o)
iprintf                                           src\tiny_printf.o
jiffies                                           src\common.o
                                                  src\main.o
list                                              Libraries\STM32F30x_StdPeriph_Driver\src\inciogpio.o
main                                              src\main.o
                                                  src\startup_stm32f30x.o
malloc_getpagesize_P                              c:/program files (x86)/atollic/truestudio for arm lite 4.3.1/armtools/bin/../lib/gcc/arm-atollic-eabi/4.7.3/../../../../arm-atollic-eabi/lib/armv7e-m/fpu\libc.a(lib_a-mallocr.o)
                                                  c:/program files (x86)/atollic/truestudio for arm lite 4.3.1/armtools/bin/../lib/gcc/arm-atollic-eabi/4.7.3/../../../../arm-atollic-eabi/lib/armv7e-m/fpu\libc.a(lib_a-freer.o)
metre                                             src\common.o
                                                  src\main.o
mod                                               Libraries\STM32F30x_StdPeriph_Driver\src\inciogpio.o
modd                                              src\common.o
                                                  src\main.o
mode                                              Libraries\STM32F30x_StdPeriph_Driver\src\inciogpio.o
printf                                            src\tiny_printf.o
puts                                              src\tiny_printf.o
sfbits                                            Libraries\STM32F30x_StdPeriph_Driver\src\inciobdc.o
                                                  src\common.o
shiftregis                                        Libraries\STM32F30x_StdPeriph_Driver\src\inciobdc.o
                                                  src\common.o
side                                              src\common.o
                                                  src\main.o
siprintf                                          src\tiny_printf.o
sprintf                                           src\tiny_printf.o
                                                  src\main.o
strlen                                            c:/program files (x86)/atollic/truestudio for arm lite 4.3.1/armtools/bin/../lib/gcc/arm-atollic-eabi/4.7.3/../../../../arm-atollic-eabi/lib/armv7e-m/fpu\libc.a(lib_a-strlen.o)
                                                  Libraries\STM32F30x_StdPeriph_Driver\src\inciouart.o
                                                  src\tiny_printf.o
switches                                          src\common.o
tim                                               src\main.o
timerFlag                                         src\main.o
ts_formatlength                                   src\tiny_printf.o
ts_formatstring                                   src\tiny_printf.o
ts_itoa                                           src\tiny_printf.o
