Archive member included because of file (symbol)

c:/program files (x86)/atollic/truestudio for arm lite 4.3.1/armtools/bin/../lib/gcc/arm-atollic-eabi/4.7.3/../../../../arm-atollic-eabi/lib/armv7e-m/fpu\libc.a(lib_a-init.o)
                              src\startup_stm32f30x.o (__libc_init_array)
c:/program files (x86)/atollic/truestudio for arm lite 4.3.1/armtools/bin/../lib/gcc/arm-atollic-eabi/4.7.3/../../../../arm-atollic-eabi/lib/armv7e-m/fpu\libc.a(lib_a-strlen.o)
                              src\tiny_printf.o (strlen)
c:/program files (x86)/atollic/truestudio for arm lite 4.3.1/armtools/bin/../lib/gcc/arm-atollic-eabi/4.7.3/../../../../arm-atollic-eabi/lib/armv7e-m/fpu\libc.a(lib_a-syscalls.o)
                              src\tiny_printf.o (_write)
c:/program files (x86)/atollic/truestudio for arm lite 4.3.1/armtools/bin/../lib/gcc/arm-atollic-eabi/4.7.3/../../../../arm-atollic-eabi/lib/armv7e-m/fpu\libc.a(lib_a-reent.o)
                              c:/program files (x86)/atollic/truestudio for arm lite 4.3.1/armtools/bin/../lib/gcc/arm-atollic-eabi/4.7.3/../../../../arm-atollic-eabi/lib/armv7e-m/fpu\libc.a(lib_a-syscalls.o) (errno)
c:/program files (x86)/atollic/truestudio for arm lite 4.3.1/armtools/bin/../lib/gcc/arm-atollic-eabi/4.7.3/../../../../arm-atollic-eabi/lib/armv7e-m/fpu\libc.a(lib_a-freer.o)
                              c:/program files (x86)/atollic/truestudio for arm lite 4.3.1/armtools/bin/../lib/gcc/arm-atollic-eabi/4.7.3/../../../../arm-atollic-eabi/lib/armv7e-m/fpu\libc.a(lib_a-reent.o) (_free_r)
c:/program files (x86)/atollic/truestudio for arm lite 4.3.1/armtools/bin/../lib/gcc/arm-atollic-eabi/4.7.3/../../../../arm-atollic-eabi/lib/armv7e-m/fpu\libc.a(lib_a-impure.o)
                              c:/program files (x86)/atollic/truestudio for arm lite 4.3.1/armtools/bin/../lib/gcc/arm-atollic-eabi/4.7.3/../../../../arm-atollic-eabi/lib/armv7e-m/fpu\libc.a(lib_a-reent.o) (_impure_ptr)
c:/program files (x86)/atollic/truestudio for arm lite 4.3.1/armtools/bin/../lib/gcc/arm-atollic-eabi/4.7.3/../../../../arm-atollic-eabi/lib/armv7e-m/fpu\libc.a(lib_a-mallocr.o)
                              c:/program files (x86)/atollic/truestudio for arm lite 4.3.1/armtools/bin/../lib/gcc/arm-atollic-eabi/4.7.3/../../../../arm-atollic-eabi/lib/armv7e-m/fpu\libc.a(lib_a-freer.o) (__malloc_current_mallinfo)
c:/program files (x86)/atollic/truestudio for arm lite 4.3.1/armtools/bin/../lib/gcc/arm-atollic-eabi/4.7.3/../../../../arm-atollic-eabi/lib/armv7e-m/fpu\libc.a(lib_a-mlock.o)
                              c:/program files (x86)/atollic/truestudio for arm lite 4.3.1/armtools/bin/../lib/gcc/arm-atollic-eabi/4.7.3/../../../../arm-atollic-eabi/lib/armv7e-m/fpu\libc.a(lib_a-freer.o) (__malloc_lock)
c:/program files (x86)/atollic/truestudio for arm lite 4.3.1/armtools/bin/../lib/gcc/arm-atollic-eabi/4.7.3/../../../../arm-atollic-eabi/lib/armv7e-m/fpu\libc.a(lib_a-sbrkr.o)
                              c:/program files (x86)/atollic/truestudio for arm lite 4.3.1/armtools/bin/../lib/gcc/arm-atollic-eabi/4.7.3/../../../../arm-atollic-eabi/lib/armv7e-m/fpu\libc.a(lib_a-freer.o) (_sbrk_r)
c:/program files (x86)/atollic/truestudio for arm lite 4.3.1/armtools/bin/../lib/gcc/arm-atollic-eabi/4.7.3/armv7e-m/fpu\libgcc.a(_arm_truncdfsf2.o)
                              src\tiny_printf.o (__aeabi_d2f)

Allocating common symbols
Common symbol       size              file

tim                 0x4               src\main.o
Qei3                0x14              Libraries\STM32F30x_StdPeriph_Driver\src\incioenc.o
b                   0x4               Libraries\STM32F30x_StdPeriph_Driver\src\inciouart.o
side                0x4               src\main.o
char5data           0x1               Libraries\STM32F30x_StdPeriph_Driver\src\inciouart.o
TIM_TimeBaseStructure
                    0xc               src\main.o
list                0x4               Libraries\STM32F30x_StdPeriph_Driver\src\inciogpio.o
modd                0x4               src\common.o
errno               0x4               c:/program files (x86)/atollic/truestudio for arm lite 4.3.1/armtools/bin/../lib/gcc/arm-atollic-eabi/4.7.3/../../../../arm-atollic-eabi/lib/armv7e-m/fpu\libc.a(lib_a-reent.o)
BYTE                0x4               Libraries\STM32F30x_StdPeriph_Driver\src\inciogpio.o
char4data           0x1               Libraries\STM32F30x_StdPeriph_Driver\src\inciouart.o
BYTES               0x4               src\common.o
ang                 0x4               src\main.o
dir1                0x4               src\main.o
mod                 0x4               Libraries\STM32F30x_StdPeriph_Driver\src\inciogpio.o
Qei2                0x14              Libraries\STM32F30x_StdPeriph_Driver\src\incioenc.o
i                   0x4               Libraries\STM32F30x_StdPeriph_Driver\src\inciouart.o
switches            0x4               src\common.o
metre               0x4               src\common.o
QEIflag             0x4               Libraries\STM32F30x_StdPeriph_Driver\src\incioenc.o
dir0                0x4               src\main.o
dataregis           0x2               Libraries\STM32F30x_StdPeriph_Driver\src\inciobdc.o
TIM_OCInitStructure
                    0x14              src\main.o
delta               0x4               src\main.o
currentvalue        0x4               src\main.o
Qei4                0x14              Libraries\STM32F30x_StdPeriph_Driver\src\incioenc.o
GPIO_InitStructure  0x8               src\main.o
jiffies             0x4               src\common.o
USART_InitStructure
                    0x18              src\main.o
buf                 0x64              src\main.o
Qei1                0x14              Libraries\STM32F30x_StdPeriph_Driver\src\incioenc.o
NVIC_InitStructure  0x4               src\main.o
RCC_Clocks          0x3c              src\main.o
sfbits              0x4               Libraries\STM32F30x_StdPeriph_Driver\src\inciobdc.o

Discarded input sections

 .text          0x00000000        0x0 c:/program files (x86)/atollic/truestudio for arm lite 4.3.1/armtools/bin/../lib/gcc/arm-atollic-eabi/4.7.3/armv7e-m/fpu/crti.o
 .data          0x00000000        0x0 c:/program files (x86)/atollic/truestudio for arm lite 4.3.1/armtools/bin/../lib/gcc/arm-atollic-eabi/4.7.3/armv7e-m/fpu/crti.o
 .bss           0x00000000        0x0 c:/program files (x86)/atollic/truestudio for arm lite 4.3.1/armtools/bin/../lib/gcc/arm-atollic-eabi/4.7.3/armv7e-m/fpu/crti.o
 .data          0x00000000        0x4 c:/program files (x86)/atollic/truestudio for arm lite 4.3.1/armtools/bin/../lib/gcc/arm-atollic-eabi/4.7.3/armv7e-m/fpu/crtbegin.o
 .text          0x00000000        0x0 src\tiny_printf.o
 .data          0x00000000        0x0 src\tiny_printf.o
 .bss           0x00000000        0x0 src\tiny_printf.o
 .text.ts_formatlength
                0x00000000       0x6e src\tiny_printf.o
 .text.fiprintf
                0x00000000       0x4c src\tiny_printf.o
 .text.iprintf  0x00000000       0x48 src\tiny_printf.o
 .text.fputs    0x00000000       0x3c src\tiny_printf.o
 .text.puts     0x00000000       0x34 src\tiny_printf.o
 .rodata.str1.1
                0x00000000        0x2 src\tiny_printf.o
 .text          0x00000000        0x0 src\system_stm32f30x.o
 .data          0x00000000        0x0 src\system_stm32f30x.o
Memory Configuration

Name             Origin             Length             Attributes
FLASH            0x08000000         0x00040000         xr
RAM              0x20000000         0x0000a000         xrw
MEMORY_B1        0x60000000         0x00000000         xr
CCMRAM           0x10000000         0x00002000         rw
*default*        0x00000000         0xffffffff

Linker script and memory map

LOAD c:/program files (x86)/atollic/truestudio for arm lite 4.3.1/armtools/bin/../lib/gcc/arm-atollic-eabi/4.7.3/armv7e-m/fpu/crti.o
LOAD c:/program files (x86)/atollic/truestudio for arm lite 4.3.1/armtools/bin/../lib/gcc/arm-atollic-eabi/4.7.3/armv7e-m/fpu/crtbegin.o
LOAD src\tiny_printf.o
LOAD src\system_stm32f30x.o
LOAD src\stm32f30x_it.o
LOAD src\startup_stm32f30x.o
LOAD src\main.o
LOAD src\common.o
LOAD Utilities\STM32F3_Discovery\stm32f3_discovery_lsm303dlhc.o
LOAD Utilities\STM32F3_Discovery\stm32f3_discovery_l3gd20.o
LOAD Utilities\STM32F3_Discovery\stm32f3_discovery.o
LOAD Libraries\STM32F30x_StdPeriph_Driver\src\stm32f30x_wwdg.o
LOAD Libraries\STM32F30x_StdPeriph_Driver\src\stm32f30x_usart.o
LOAD Libraries\STM32F30x_StdPeriph_Driver\src\stm32f30x_tim.o
LOAD Libraries\STM32F30x_StdPeriph_Driver\src\stm32f30x_syscfg.o
LOAD Libraries\STM32F30x_StdPeriph_Driver\src\stm32f30x_spi.o
LOAD Libraries\STM32F30x_StdPeriph_Driver\src\stm32f30x_rtc.o
LOAD Libraries\STM32F30x_StdPeriph_Driver\src\stm32f30x_rcc.o
LOAD Libraries\STM32F30x_StdPeriph_Driver\src\stm32f30x_pwr.o
LOAD Libraries\STM32F30x_StdPeriph_Driver\src\stm32f30x_opamp.o
LOAD Libraries\STM32F30x_StdPeriph_Driver\src\stm32f30x_misc.o
LOAD Libraries\STM32F30x_StdPeriph_Driver\src\stm32f30x_iwdg.o
LOAD Libraries\STM32F30x_StdPeriph_Driver\src\stm32f30x_i2c.o
LOAD Libraries\STM32F30x_StdPeriph_Driver\src\stm32f30x_gpio.o
LOAD Libraries\STM32F30x_StdPeriph_Driver\src\stm32f30x_flash.o
LOAD Libraries\STM32F30x_StdPeriph_Driver\src\stm32f30x_exti.o
LOAD Libraries\STM32F30x_StdPeriph_Driver\src\stm32f30x_dma.o
LOAD Libraries\STM32F30x_StdPeriph_Driver\src\stm32f30x_dbgmcu.o
LOAD Libraries\STM32F30x_StdPeriph_Driver\src\stm32f30x_dac.o
LOAD Libraries\STM32F30x_StdPeriph_Driver\src\stm32f30x_crc.o
LOAD Libraries\STM32F30x_StdPeriph_Driver\src\stm32f30x_comp.o
LOAD Libraries\STM32F30x_StdPeriph_Driver\src\stm32f30x_can.o
LOAD Libraries\STM32F30x_StdPeriph_Driver\src\stm32f30x_adc.o
LOAD Libraries\STM32F30x_StdPeriph_Driver\src\inciouart.o
LOAD Libraries\STM32F30x_StdPeriph_Driver\src\inciotim.o
LOAD Libraries\STM32F30x_StdPeriph_Driver\src\inciopwm.o
LOAD Libraries\STM32F30x_StdPeriph_Driver\src\inciogpio.o
LOAD Libraries\STM32F30x_StdPeriph_Driver\src\incioenc.o
LOAD Libraries\STM32F30x_StdPeriph_Driver\src\inciobdc.o
START GROUP
LOAD c:/program files (x86)/atollic/truestudio for arm lite 4.3.1/armtools/bin/../lib/gcc/arm-atollic-eabi/4.7.3/../../../../arm-atollic-eabi/lib/armv7e-m/fpu\libc.a
LOAD c:/program files (x86)/atollic/truestudio for arm lite 4.3.1/armtools/bin/../lib/gcc/arm-atollic-eabi/4.7.3/../../../../arm-atollic-eabi/lib/armv7e-m/fpu\libm.a
END GROUP
                0x00001000                malloc_getpagesize_P = 0x1000
START GROUP
LOAD c:/program files (x86)/atollic/truestudio for arm lite 4.3.1/armtools/bin/../lib/gcc/arm-atollic-eabi/4.7.3/armv7e-m/fpu\libgcc.a
LOAD c:/program files (x86)/atollic/truestudio for arm lite 4.3.1/armtools/bin/../lib/gcc/arm-atollic-eabi/4.7.3/../../../../arm-atollic-eabi/lib/armv7e-m/fpu\libc.a
END GROUP
LOAD c:/program files (x86)/atollic/truestudio for arm lite 4.3.1/armtools/bin/../lib/gcc/arm-atollic-eabi/4.7.3/armv7e-m/fpu/crtend.o
LOAD c:/program files (x86)/atollic/truestudio for arm lite 4.3.1/armtools/bin/../lib/gcc/arm-atollic-eabi/4.7.3/armv7e-m/fpu/crtn.o
                0x2000a000                _estack = 0x2000a000
                0x00000000                _Min_Heap_Size = 0x0
                0x00000200                _Min_Stack_Size = 0x200

.isr_vector     0x08000000      0x188
                0x08000000                . = ALIGN (0x4)
 *(.isr_vector)
 .isr_vector    0x08000000      0x188 src\startup_stm32f30x.o
                0x08000000                g_pfnVectors
                0x08000188                . = ALIGN (0x4)

.text           0x08000188     0x2928
                0x08000188                . = ALIGN (0x4)
 *(.text)
 .text          0x08000188       0x54 c:/program files (x86)/atollic/truestudio for arm lite 4.3.1/armtools/bin/../lib/gcc/arm-atollic-eabi/4.7.3/armv7e-m/fpu/crtbegin.o
 .text          0x080001dc       0xa0 c:/program files (x86)/atollic/truestudio for arm lite 4.3.1/armtools/bin/../lib/gcc/arm-atollic-eabi/4.7.3/armv7e-m/fpu\libgcc.a(_arm_truncdfsf2.o)
                0x080001dc                __truncdfsf2
                0x080001dc                __aeabi_d2f
 *(.text*)
 .text.ts_itoa  0x0800027c       0x36 src\tiny_printf.o
                0x0800027c                ts_itoa
 *fill*         0x080002b2        0x2 00
 .text.ts_formatstring
                0x080002b4      0x180 src\tiny_printf.o
                0x080002b4                ts_formatstring
 .text.siprintf
                0x08000434       0x18 src\tiny_printf.o
                0x08000434                siprintf
                0x08000434                sprintf
 .text.SystemInit
                0x0800044c      0x104 src\system_stm32f30x.o
                0x0800044c                SystemInit
 .text.NMI_Handler
                0x08000550        0x2 src\stm32f30x_it.o
                0x08000550                NMI_Handler
 .text.HardFault_Handler
                0x08000552        0x2 src\stm32f30x_it.o
                0x08000552                HardFault_Handler
 .text.MemManage_Handler
                0x08000554        0x2 src\stm32f30x_it.o
                0x08000554                MemManage_Handler
 .text.BusFault_Handler
                0x08000556        0x2 src\stm32f30x_it.o
                0x08000556                BusFault_Handler
 .text.UsageFault_Handler
                0x08000558        0x2 src\stm32f30x_it.o
                0x08000558                UsageFault_Handler
 .text.SVC_Handler
                0x0800055a        0x2 src\stm32f30x_it.o
                0x0800055a                SVC_Handler
 .text.DebugMon_Handler
                0x0800055c        0x2 src\stm32f30x_it.o
                0x0800055c                DebugMon_Handler
 .text.PendSV_Handler
                0x0800055e        0x2 src\stm32f30x_it.o
                0x0800055e                PendSV_Handler
 .text.Reset_Handler
                0x08000560       0x5c src\startup_stm32f30x.o
                0x08000560                Reset_Handler
 .text.Default_Handler
                0x080005bc        0x4 src\startup_stm32f30x.o
                0x080005bc                RTC_Alarm_IRQHandler
                0x080005bc                TIM8_TRG_COM_IRQHandler
                0x080005bc                TIM8_CC_IRQHandler
                0x080005bc                TIM1_CC_IRQHandler
                0x080005bc                USB_HP_IRQHandler
                0x080005bc                PVD_IRQHandler
                0x080005bc                EXTI3_IRQHandler
                0x080005bc                EXTI0_IRQHandler
                0x080005bc                I2C2_EV_IRQHandler
                0x080005bc                FPU_IRQHandler
                0x080005bc                EXTI2_TS_IRQHandler
                0x080005bc                ADC1_2_IRQHandler
                0x080005bc                SPI1_IRQHandler
                0x080005bc                DMA2_Channel2_IRQHandler
                0x080005bc                DMA1_Channel4_IRQHandler
                0x080005bc                USART3_IRQHandler
                0x080005bc                DMA1_Channel7_IRQHandler
                0x080005bc                CAN1_RX1_IRQHandler
                0x080005bc                ADC3_IRQHandler
                0x080005bc                DMA2_Channel1_IRQHandler
                0x080005bc                I2C1_EV_IRQHandler
                0x080005bc                DMA1_Channel6_IRQHandler
                0x080005bc                DMA2_Channel4_IRQHandler
                0x080005bc                TIM3_IRQHandler
                0x080005bc                RCC_IRQHandler
                0x080005bc                DMA1_Channel1_IRQHandler
                0x080005bc                Default_Handler
                0x080005bc                USBWakeUp_RMP_IRQHandler
                0x080005bc                EXTI15_10_IRQHandler
                0x080005bc                EXTI9_5_IRQHandler
                0x080005bc                TAMPER_STAMP_IRQHandler
                0x080005bc                RTC_WKUP_IRQHandler
                0x080005bc                SPI2_IRQHandler
                0x080005bc                DMA2_Channel5_IRQHandler
                0x080005bc                DMA1_Channel5_IRQHandler
                0x080005bc                USB_LP_IRQHandler
                0x080005bc                EXTI4_IRQHandler
                0x080005bc                USB_LP_CAN1_RX0_IRQHandler
                0x080005bc                TIM1_TRG_COM_TIM17_IRQHandler
                0x080005bc                USB_HP_CAN1_TX_IRQHandler
                0x080005bc                DMA1_Channel3_IRQHandler
                0x080005bc                ADC4_IRQHandler
                0x080005bc                WWDG_IRQHandler
                0x080005bc                TIM2_IRQHandler
                0x080005bc                COMP7_IRQHandler
                0x080005bc                COMP1_2_3_IRQHandler
                0x080005bc                EXTI1_IRQHandler
                0x080005bc                USART2_IRQHandler
                0x080005bc                COMP4_5_6_IRQHandler
                0x080005bc                I2C2_ER_IRQHandler
                0x080005bc                DMA1_Channel2_IRQHandler
                0x080005bc                TIM8_BRK_IRQHandler
                0x080005bc                CAN1_SCE_IRQHandler
                0x080005bc                FLASH_IRQHandler
                0x080005bc                USART1_IRQHandler
                0x080005bc                SPI3_IRQHandler
                0x080005bc                I2C1_ER_IRQHandler
                0x080005bc                USBWakeUp_IRQHandler
                0x080005bc                DMA2_Channel3_IRQHandler
                0x080005bc                TIM1_BRK_TIM15_IRQHandler
 .text.startup.main
                0x080005c0       0x54 src\main.o
                0x080005c0                main
 .text.TIM6_DAC_IRQHandler
                0x08000614       0x38 src\main.o
                0x08000614                TIM6_DAC_IRQHandler
 .text.TIM7_IRQHandler
                0x0800064c       0x38 src\main.o
                0x0800064c                TIM7_IRQHandler
 .text.Delayms  0x08000684       0x3c src\main.o
                0x08000684                Delayms
 .text.SysTick_Handler
                0x080006c0       0x40 src\main.o
                0x080006c0                SysTick_Handler
 .text.SwapBDC  0x08000700       0x18 src\main.o
                0x08000700                SwapBDC
 .text.WriteBDC
                0x08000718       0x7c src\main.o
                0x08000718                WriteBDC
 .text.StopBDC  0x08000794       0x14 src\main.o
                0x08000794                StopBDC
 .text.ServoInit
                0x080007a8       0x60 src\common.o
                0x080007a8                ServoInit
 .text.Led_Mode_Indicator
                0x08000808       0x70 src\common.o
                0x08000808                Led_Mode_Indicator
 .text.ModBits  0x08000878       0x94 src\common.o
                0x08000878                ModBits
 .text.MotorTesting
                0x0800090c      0x240 src\common.o
                0x0800090c                MotorTesting
 .text.InitGPIO
                0x08000b4c       0x5c src\common.o
                0x08000b4c                InitGPIO
 .text.Init     0x08000ba8       0x6c src\common.o
                0x08000ba8                Init
 .text.MotorInit
                0x08000c14       0x58 src\common.o
                0x08000c14                MotorInit
 .text.sig_chk  0x08000c6c       0x60 src\common.o
                0x08000c6c                sig_chk
 .text.Junglegym
                0x08000ccc      0x190 src\common.o
                0x08000ccc                Junglegym
 .text.Swing    0x08000e5c      0x124 src\common.o
                0x08000e5c                Swing
 .text.Polewalk
                0x08000f80      0x310 src\common.o
                0x08000f80                Polewalk
 .text.SeeSaw   0x08001290      0x158 src\common.o
                0x08001290                SeeSaw
 .text.Execute  0x080013e8      0x280 src\common.o
                0x080013e8                Execute
 .text.USART_SendData
                0x08001668        0x8 Libraries\STM32F30x_StdPeriph_Driver\src\stm32f30x_usart.o
                0x08001668                USART_SendData
 .text.USART_ReceiveData
                0x08001670        0x8 Libraries\STM32F30x_StdPeriph_Driver\src\stm32f30x_usart.o
                0x08001670                USART_ReceiveData
 .text.USART_GetFlagStatus
                0x08001678        0xc Libraries\STM32F30x_StdPeriph_Driver\src\stm32f30x_usart.o
                0x08001678                USART_GetFlagStatus
 .text.TIM_TimeBaseInit
                0x08001684       0x8c Libraries\STM32F30x_StdPeriph_Driver\src\stm32f30x_tim.o
                0x08001684                TIM_TimeBaseInit
 .text.TIM_ARRPreloadConfig
                0x08001710       0x18 Libraries\STM32F30x_StdPeriph_Driver\src\stm32f30x_tim.o
                0x08001710                TIM_ARRPreloadConfig
 .text.TIM_Cmd  0x08001728       0x18 Libraries\STM32F30x_StdPeriph_Driver\src\stm32f30x_tim.o
                0x08001728                TIM_Cmd
 .text.TIM_OC1Init
                0x08001740       0x7c Libraries\STM32F30x_StdPeriph_Driver\src\stm32f30x_tim.o
                0x08001740                TIM_OC1Init
 .text.TIM_OC2Init
                0x080017bc       0x6c Libraries\STM32F30x_StdPeriph_Driver\src\stm32f30x_tim.o
                0x080017bc                TIM_OC2Init
 .text.TIM_OC3Init
                0x08001828       0x68 Libraries\STM32F30x_StdPeriph_Driver\src\stm32f30x_tim.o
                0x08001828                TIM_OC3Init
 .text.TIM_OC4Init
                0x08001890       0x50 Libraries\STM32F30x_StdPeriph_Driver\src\stm32f30x_tim.o
                0x08001890                TIM_OC4Init
 .text.TIM_OCStructInit
                0x080018e0       0x14 Libraries\STM32F30x_StdPeriph_Driver\src\stm32f30x_tim.o
                0x080018e0                TIM_OCStructInit
 .text.TIM_CtrlPWMOutputs
                0x080018f4       0x12 Libraries\STM32F30x_StdPeriph_Driver\src\stm32f30x_tim.o
                0x080018f4                TIM_CtrlPWMOutputs
 .text.TIM_ITConfig
                0x08001906       0x12 Libraries\STM32F30x_StdPeriph_Driver\src\stm32f30x_tim.o
                0x08001906                TIM_ITConfig
 .text.TIM_ClearITPendingBit
                0x08001918        0x8 Libraries\STM32F30x_StdPeriph_Driver\src\stm32f30x_tim.o
                0x08001918                TIM_ClearITPendingBit
 .text.TIM_EncoderInterfaceConfig
                0x08001920       0x34 Libraries\STM32F30x_StdPeriph_Driver\src\stm32f30x_tim.o
                0x08001920                TIM_EncoderInterfaceConfig
 .text.RCC_GetClocksFreq
                0x08001954      0x278 Libraries\STM32F30x_StdPeriph_Driver\src\stm32f30x_rcc.o
                0x08001954                RCC_GetClocksFreq
 .text.RCC_AHBPeriphClockCmd
                0x08001bcc       0x18 Libraries\STM32F30x_StdPeriph_Driver\src\stm32f30x_rcc.o
                0x08001bcc                RCC_AHBPeriphClockCmd
 .text.RCC_APB2PeriphClockCmd
                0x08001be4       0x18 Libraries\STM32F30x_StdPeriph_Driver\src\stm32f30x_rcc.o
                0x08001be4                RCC_APB2PeriphClockCmd
 .text.RCC_APB1PeriphClockCmd
                0x08001bfc       0x18 Libraries\STM32F30x_StdPeriph_Driver\src\stm32f30x_rcc.o
                0x08001bfc                RCC_APB1PeriphClockCmd
 .text.RCC_APB2PeriphResetCmd
                0x08001c14       0x18 Libraries\STM32F30x_StdPeriph_Driver\src\stm32f30x_rcc.o
                0x08001c14                RCC_APB2PeriphResetCmd
 .text.RCC_APB1PeriphResetCmd
                0x08001c2c       0x18 Libraries\STM32F30x_StdPeriph_Driver\src\stm32f30x_rcc.o
                0x08001c2c                RCC_APB1PeriphResetCmd
 .text.NVIC_Init
                0x08001c44       0x68 Libraries\STM32F30x_StdPeriph_Driver\src\stm32f30x_misc.o
                0x08001c44                NVIC_Init
 .text.GPIO_Init
                0x08001cac       0x8a Libraries\STM32F30x_StdPeriph_Driver\src\stm32f30x_gpio.o
                0x08001cac                GPIO_Init
 .text.GPIO_ReadInputDataBit
                0x08001d36        0xc Libraries\STM32F30x_StdPeriph_Driver\src\stm32f30x_gpio.o
                0x08001d36                GPIO_ReadInputDataBit
 .text.GPIO_WriteBit
                0x08001d42        0xa Libraries\STM32F30x_StdPeriph_Driver\src\stm32f30x_gpio.o
                0x08001d42                GPIO_WriteBit
 .text.GPIO_PinAFConfig
                0x08001d4c       0x2e Libraries\STM32F30x_StdPeriph_Driver\src\stm32f30x_gpio.o
                0x08001d4c                GPIO_PinAFConfig
 *fill*         0x08001d7a        0x2 00
 .text.UART4_directputc
                0x08001d7c       0x20 Libraries\STM32F30x_StdPeriph_Driver\src\inciouart.o
                0x08001d7c                UART4_directputc
 .text.UART4_directprint
                0x08001d9c       0x1c Libraries\STM32F30x_StdPeriph_Driver\src\inciouart.o
                0x08001d9c                UART4_directprint
 .text.UART4_IRQHandler
                0x08001db8       0x24 Libraries\STM32F30x_StdPeriph_Driver\src\inciouart.o
                0x08001db8                UART4_IRQHandler
 .text.UART5_directputc
                0x08001ddc       0x20 Libraries\STM32F30x_StdPeriph_Driver\src\inciouart.o
                0x08001ddc                UART5_directputc
 .text.UART5_directprint
                0x08001dfc       0x1c Libraries\STM32F30x_StdPeriph_Driver\src\inciouart.o
                0x08001dfc                UART5_directprint
 .text.UART5_IRQHandler
                0x08001e18       0x24 Libraries\STM32F30x_StdPeriph_Driver\src\inciouart.o
                0x08001e18                UART5_IRQHandler
 .text.TimerInit
                0x08001e3c       0x64 Libraries\STM32F30x_StdPeriph_Driver\src\inciotim.o
                0x08001e3c                TimerInit
 .text.PWMTiInit
                0x08001ea0       0x9c Libraries\STM32F30x_StdPeriph_Driver\src\inciopwm.o
                0x08001ea0                PWMTiInit
 .text.PWMInit  0x08001f3c       0xc8 Libraries\STM32F30x_StdPeriph_Driver\src\inciopwm.o
                0x08001f3c                PWMInit
 .text.GPIOSET  0x08002004       0xfc Libraries\STM32F30x_StdPeriph_Driver\src\inciogpio.o
                0x08002004                GPIOSET
 .text.GPIOInit
                0x08002100      0x124 Libraries\STM32F30x_StdPeriph_Driver\src\inciogpio.o
                0x08002100                GPIOInit
 .text.SYSInit  0x08002224      0x150 Libraries\STM32F30x_StdPeriph_Driver\src\inciogpio.o
                0x08002224                SYSInit
 .text.IOTest2  0x08002374      0x2d4 Libraries\STM32F30x_StdPeriph_Driver\src\inciogpio.o
                0x08002374                IOTest2
 .text.QEI1Init
                0x08002648       0xac Libraries\STM32F30x_StdPeriph_Driver\src\incioenc.o
                0x08002648                QEI1Init
 .text.QEI2Init
                0x080026f4       0x78 Libraries\STM32F30x_StdPeriph_Driver\src\incioenc.o
                0x080026f4                QEI2Init
 .text.QEI3Init
                0x0800276c       0x9c Libraries\STM32F30x_StdPeriph_Driver\src\incioenc.o
                0x0800276c                QEI3Init
 .text.QEI4Init
                0x08002808       0xa4 Libraries\STM32F30x_StdPeriph_Driver\src\incioenc.o
                0x08002808                QEI4Init
 .text.QEIInit  0x080028ac       0x48 Libraries\STM32F30x_StdPeriph_Driver\src\incioenc.o
                0x080028ac                QEIInit
 .text.SwapQei  0x080028f4        0xe Libraries\STM32F30x_StdPeriph_Driver\src\incioenc.o
                0x080028f4                SwapQei
 *fill*         0x08002902        0x2 00
 .text.TIM4_IRQHandler
                0x08002904       0x34 Libraries\STM32F30x_StdPeriph_Driver\src\incioenc.o
                0x08002904                TIM4_IRQHandler
 .text.TIM1_UP_TIM16_IRQHandler
                0x08002938       0x34 Libraries\STM32F30x_StdPeriph_Driver\src\incioenc.o
                0x08002938                TIM1_UP_TIM16_IRQHandler
 .text.TIM8_UP_IRQHandler
                0x0800296c       0x34 Libraries\STM32F30x_StdPeriph_Driver\src\incioenc.o
                0x0800296c                TIM8_UP_IRQHandler
 .text.BDCInit  0x080029a0       0x1c Libraries\STM32F30x_StdPeriph_Driver\src\inciobdc.o
                0x080029a0                BDCInit
 .text.shiftregis
                0x080029bc       0x80 Libraries\STM32F30x_StdPeriph_Driver\src\inciobdc.o
                0x080029bc                shiftregis
 .text.__libc_init_array
                0x08002a3c       0x4c c:/program files (x86)/atollic/truestudio for arm lite 4.3.1/armtools/bin/../lib/gcc/arm-atollic-eabi/4.7.3/../../../../arm-atollic-eabi/lib/armv7e-m/fpu\libc.a(lib_a-init.o)
                0x08002a3c                __libc_init_array
 .text.strlen   0x08002a88       0x10 c:/program files (x86)/atollic/truestudio for arm lite 4.3.1/armtools/bin/../lib/gcc/arm-atollic-eabi/4.7.3/../../../../arm-atollic-eabi/lib/armv7e-m/fpu\libc.a(lib_a-strlen.o)
                0x08002a88                strlen
 *(.glue_7)
 .glue_7        0x00000000        0x0 linker stubs
 *(.glue_7t)
 .glue_7t       0x00000000        0x0 linker stubs
 *(.eh_frame)
 .eh_frame      0x08002a98        0x0 c:/program files (x86)/atollic/truestudio for arm lite 4.3.1/armtools/bin/../lib/gcc/arm-atollic-eabi/4.7.3/armv7e-m/fpu/crtbegin.o
 *(.init)
 .init          0x08002a98        0x4 c:/program files (x86)/atollic/truestudio for arm lite 4.3.1/armtools/bin/../lib/gcc/arm-atollic-eabi/4.7.3/armv7e-m/fpu/crti.o
                0x08002a98                _init
 .init          0x08002a9c        0x8 c:/program files (x86)/atollic/truestudio for arm lite 4.3.1/armtools/bin/../lib/gcc/arm-atollic-eabi/4.7.3/armv7e-m/fpu/crtn.o
 *(.fini)
 .fini          0x08002aa4        0x4 c:/program files (x86)/atollic/truestudio for arm lite 4.3.1/armtools/bin/../lib/gcc/arm-atollic-eabi/4.7.3/armv7e-m/fpu/crti.o
                0x08002aa4                _fini
 .fini          0x08002aa8        0x8 c:/program files (x86)/atollic/truestudio for arm lite 4.3.1/armtools/bin/../lib/gcc/arm-atollic-eabi/4.7.3/armv7e-m/fpu/crtn.o
                0x08002ab0                . = ALIGN (0x4)
                0x08002ab0                _etext = .

.vfp11_veneer   0x08002ab0        0x0
 .vfp11_veneer  0x00000000        0x0 linker stubs

.v4_bx          0x08002ab0        0x0
 .v4_bx         0x00000000        0x0 linker stubs

.iplt           0x08002ab0        0x0
 .iplt          0x00000000        0x0 c:/program files (x86)/atollic/truestudio for arm lite 4.3.1/armtools/bin/../lib/gcc/arm-atollic-eabi/4.7.3/armv7e-m/fpu/crtbegin.o

.rodata         0x08002ab0      0x188
                0x08002ab0                . = ALIGN (0x4)
 *(.rodata)
 .rodata        0x08002ab0       0x1c src\tiny_printf.o
 *(.rodata*)
 .rodata.str1.1
                0x08002acc       0x12 src\main.o
 .rodata.str1.1
                0x08002ade      0x158 Libraries\STM32F30x_StdPeriph_Driver\src\inciogpio.o
                                0x15b (size before relaxing)
                0x08002c38                . = ALIGN (0x4)
 *fill*         0x08002c36        0x2 00

.rel.dyn        0x08002c38        0x0
 .rel.iplt      0x00000000        0x0 c:/program files (x86)/atollic/truestudio for arm lite 4.3.1/armtools/bin/../lib/gcc/arm-atollic-eabi/4.7.3/armv7e-m/fpu/crtbegin.o

.ARM.extab
 *(.ARM.extab* .gnu.linkonce.armextab.*)

.ARM            0x08002c38        0x0
                0x08002c38                __exidx_start = .
 *(.ARM.exidx*)
                0x08002c38                __exidx_end = .

.preinit_array  0x08002c38        0x0
                0x08002c38                PROVIDE (__preinit_array_start, .)
 *(.preinit_array*)
                0x08002c38                PROVIDE (__preinit_array_end, .)

.init_array     0x08002c38        0x4
                0x08002c38                PROVIDE (__init_array_start, .)
 *(SORT(.init_array.*))
 *(.init_array*)
 .init_array    0x08002c38        0x4 c:/program files (x86)/atollic/truestudio for arm lite 4.3.1/armtools/bin/../lib/gcc/arm-atollic-eabi/4.7.3/armv7e-m/fpu/crtbegin.o
                0x08002c3c                PROVIDE (__init_array_end, .)

.fini_array     0x08002c3c        0x4
                0x08002c3c                PROVIDE (__fini_array_start, .)
 *(SORT(.fini_array.*))
 *(.fini_array*)
 .fini_array    0x08002c3c        0x4 c:/program files (x86)/atollic/truestudio for arm lite 4.3.1/armtools/bin/../lib/gcc/arm-atollic-eabi/4.7.3/armv7e-m/fpu/crtbegin.o
                0x08002c40                PROVIDE (__fini_array_end, .)
                0x08002c40                _sidata = LOADADDR (.data)

.data           0x20000000       0x30 load address 0x08002c40
                0x20000000                . = ALIGN (0x4)
                0x20000000                _sdata = .
 *(.data)
 *(.data*)
 .data.uicount.8380
                0x20000000        0x4 src\main.o
 .data.ADCPrescTable
                0x20000004       0x1a Libraries\STM32F30x_StdPeriph_Driver\src\stm32f30x_rcc.o
 .data.APBAHBPrescTable
                0x2000001e       0x10 Libraries\STM32F30x_StdPeriph_Driver\src\stm32f30x_rcc.o
                0x20000030                . = ALIGN (0x4)
 *fill*         0x2000002e        0x2 00
                0x20000030                _edata = .
                0x08002c70                _siccmram = LOADADDR (.ccmram)

.jcr            0x20000030        0x0 load address 0x08002c70
 .jcr           0x20000030        0x0 c:/program files (x86)/atollic/truestudio for arm lite 4.3.1/armtools/bin/../lib/gcc/arm-atollic-eabi/4.7.3/armv7e-m/fpu/crtbegin.o

.igot.plt       0x20000030        0x0 load address 0x08002c70
 .igot.plt      0x00000000        0x0 c:/program files (x86)/atollic/truestudio for arm lite 4.3.1/armtools/bin/../lib/gcc/arm-atollic-eabi/4.7.3/armv7e-m/fpu/crtbegin.o

.ccmram         0x10000000        0x0 load address 0x08002c70
                0x10000000                . = ALIGN (0x4)
                0x10000000                _sccmram = .
 *(.ccmram)
 *(.ccmram*)
                0x10000000                . = ALIGN (0x4)
                0x10000000                _eccmram = .
                0x10000000                . = ALIGN (0x4)

.bss            0x20000030      0x1ac
                0x20000030                _sbss = .
                0x20000030                __bss_start__ = _sbss
 *(.bss)
 .bss           0x20000030       0x1c c:/program files (x86)/atollic/truestudio for arm lite 4.3.1/armtools/bin/../lib/gcc/arm-atollic-eabi/4.7.3/armv7e-m/fpu/crtbegin.o
 *(.bss*)
 .bss.test_pw   0x2000004c        0x4 src\common.o
                0x2000004c                test_pw
 .bss.Uart4Data
                0x20000050        0x2 Libraries\STM32F30x_StdPeriph_Driver\src\inciouart.o
                0x20000050                Uart4Data
 .bss.Uart5Data
                0x20000052        0x2 Libraries\STM32F30x_StdPeriph_Driver\src\inciouart.o
                0x20000052                Uart5Data
 *(COMMON)
 COMMON         0x20000054      0x100 src\main.o
                0x20000054                tim
                0x20000058                side
                0x2000005c                TIM_TimeBaseStructure
                0x20000068                ang
                0x2000006c                dir1
                0x20000070                dir0
                0x20000074                TIM_OCInitStructure
                0x20000088                delta
                0x2000008c                currentvalue
                0x20000090                GPIO_InitStructure
                0x20000098                USART_InitStructure
                0x200000b0                buf
                0x20000114                NVIC_InitStructure
                0x20000118                RCC_Clocks
 COMMON         0x20000154       0x14 src\common.o
                0x20000154                modd
                0x20000158                BYTES
                0x2000015c                switches
                0x20000160                metre
                0x20000164                jiffies
 COMMON         0x20000168        0xc Libraries\STM32F30x_StdPeriph_Driver\src\inciouart.o
                0x20000168                b
                0x2000016c                char5data
                0x2000016d                char4data
                0x20000170                i
 COMMON         0x20000174        0xc Libraries\STM32F30x_StdPeriph_Driver\src\inciogpio.o
                0x20000174                list
                0x20000178                BYTE
                0x2000017c                mod
 COMMON         0x20000180       0x54 Libraries\STM32F30x_StdPeriph_Driver\src\incioenc.o
                0x20000180                Qei3
                0x20000194                Qei2
                0x200001a8                QEIflag
                0x200001ac                Qei4
                0x200001c0                Qei1
 COMMON         0x200001d4        0x8 Libraries\STM32F30x_StdPeriph_Driver\src\inciobdc.o
                0x200001d4                dataregis
                0x200001d8                sfbits
                0x200001dc                . = ALIGN (0x4)
                0x200001dc                _ebss = .
                0x200001dc                __bss_end__ = _ebss

._user_heap_stack
                0x200001dc      0x200
                0x200001dc                . = ALIGN (0x4)
                0x200001dc                PROVIDE (end, .)
                0x200001dc                PROVIDE (_end, .)
                0x200001dc                . = (. + _Min_Heap_Size)
                0x200003dc                . = (. + _Min_Stack_Size)
 *fill*         0x200001dc      0x200 00
                0x200003dc                . = ALIGN (0x4)

.memory_b1_text
 *(.mb1text)
 *(.mb1text*)
 *(.mb1rodata)
 *(.mb1rodata*)

/DISCARD/
 libc.a(*)
 libm.a(*)
 libgcc.a(*)

.ARM.attributes
                0x00000000       0x32
 *(.ARM.attributes)
 .ARM.attributes
                0x00000000       0x24 c:/program files (x86)/atollic/truestudio for arm lite 4.3.1/armtools/bin/../lib/gcc/arm-atollic-eabi/4.7.3/armv7e-m/fpu/crti.o
 .ARM.attributes
                0x00000024       0x36 c:/program files (x86)/atollic/truestudio for arm lite 4.3.1/armtools/bin/../lib/gcc/arm-atollic-eabi/4.7.3/armv7e-m/fpu/crtbegin.o
 .ARM.attributes
                0x0000005a       0x3b src\tiny_printf.o
 .ARM.attributes
                0x00000095       0x3b src\system_stm32f30x.o
 .ARM.attributes
                0x000000d0       0x3b src\stm32f30x_it.o
 .ARM.attributes
                0x0000010b       0x21 src\startup_stm32f30x.o
 .ARM.attributes
                0x0000012c       0x3b src\main.o
 .ARM.attributes
                0x00000167       0x3b src\common.o
 .ARM.attributes
                0x000001a2       0x3b Libraries\STM32F30x_StdPeriph_Driver\src\stm32f30x_usart.o
 .ARM.attributes
                0x000001dd       0x3b Libraries\STM32F30x_StdPeriph_Driver\src\stm32f30x_tim.o
 .ARM.attributes
                0x00000218       0x3b Libraries\STM32F30x_StdPeriph_Driver\src\stm32f30x_rcc.o
 .ARM.attributes
                0x00000253       0x3b Libraries\STM32F30x_StdPeriph_Driver\src\stm32f30x_misc.o
 .ARM.attributes
                0x0000028e       0x3b Libraries\STM32F30x_StdPeriph_Driver\src\stm32f30x_gpio.o
 .ARM.attributes
                0x000002c9       0x3b Libraries\STM32F30x_StdPeriph_Driver\src\inciouart.o
 .ARM.attributes
                0x00000304       0x3b Libraries\STM32F30x_StdPeriph_Driver\src\inciotim.o
 .ARM.attributes
                0x0000033f       0x3b Libraries\STM32F30x_StdPeriph_Driver\src\inciopwm.o
 .ARM.attributes
                0x0000037a       0x3b Libraries\STM32F30x_StdPeriph_Driver\src\inciogpio.o
 .ARM.attributes
                0x000003b5       0x3b Libraries\STM32F30x_StdPeriph_Driver\src\incioenc.o
 .ARM.attributes
                0x000003f0       0x3b Libraries\STM32F30x_StdPeriph_Driver\src\inciobdc.o
 .ARM.attributes
                0x0000042b       0x36 c:/program files (x86)/atollic/truestudio for arm lite 4.3.1/armtools/bin/../lib/gcc/arm-atollic-eabi/4.7.3/../../../../arm-atollic-eabi/lib/armv7e-m/fpu\libc.a(lib_a-init.o)
 .ARM.attributes
                0x00000461       0x36 c:/program files (x86)/atollic/truestudio for arm lite 4.3.1/armtools/bin/../lib/gcc/arm-atollic-eabi/4.7.3/../../../../arm-atollic-eabi/lib/armv7e-m/fpu\libc.a(lib_a-strlen.o)
 .ARM.attributes
                0x00000497       0x24 c:/program files (x86)/atollic/truestudio for arm lite 4.3.1/armtools/bin/../lib/gcc/arm-atollic-eabi/4.7.3/armv7e-m/fpu\libgcc.a(_arm_truncdfsf2.o)
 .ARM.attributes
                0x000004bb       0x24 c:/program files (x86)/atollic/truestudio for arm lite 4.3.1/armtools/bin/../lib/gcc/arm-atollic-eabi/4.7.3/armv7e-m/fpu/crtn.o
OUTPUT(RBC2014_CHILD_INDIA_GA_ARM_V4.elf elf32-littlearm)

.comment        0x00000000       0x83
 .comment       0x00000000       0x83 src\tiny_printf.o
                                 0x84 (size before relaxing)
 .comment       0x00000000       0x84 src\system_stm32f30x.o
 .comment       0x00000000       0x84 src\stm32f30x_it.o
 .comment       0x00000000       0x84 src\main.o
 .comment       0x00000000       0x84 src\common.o
 .comment       0x00000000       0x84 Libraries\STM32F30x_StdPeriph_Driver\src\stm32f30x_usart.o
 .comment       0x00000000       0x84 Libraries\STM32F30x_StdPeriph_Driver\src\stm32f30x_tim.o
 .comment       0x00000000       0x84 Libraries\STM32F30x_StdPeriph_Driver\src\stm32f30x_rcc.o
 .comment       0x00000000       0x84 Libraries\STM32F30x_StdPeriph_Driver\src\stm32f30x_misc.o
 .comment       0x00000000       0x84 Libraries\STM32F30x_StdPeriph_Driver\src\stm32f30x_gpio.o
 .comment       0x00000000       0x84 Libraries\STM32F30x_StdPeriph_Driver\src\inciouart.o
 .comment       0x00000000       0x84 Libraries\STM32F30x_StdPeriph_Driver\src\inciotim.o
 .comment       0x00000000       0x84 Libraries\STM32F30x_StdPeriph_Driver\src\inciopwm.o
 .comment       0x00000000       0x84 Libraries\STM32F30x_StdPeriph_Driver\src\inciogpio.o
 .comment       0x00000000       0x84 Libraries\STM32F30x_StdPeriph_Driver\src\incioenc.o
 .comment       0x00000000       0x84 Libraries\STM32F30x_StdPeriph_Driver\src\inciobdc.o

.debug_frame    0x00000000       0x4c
 .debug_frame   0x00000000       0x2c c:/program files (x86)/atollic/truestudio for arm lite 4.3.1/armtools/bin/../lib/gcc/arm-atollic-eabi/4.7.3/../../../../arm-atollic-eabi/lib/armv7e-m/fpu\libc.a(lib_a-init.o)
 .debug_frame   0x0000002c       0x20 c:/program files (x86)/atollic/truestudio for arm lite 4.3.1/armtools/bin/../lib/gcc/arm-atollic-eabi/4.7.3/../../../../arm-atollic-eabi/lib/armv7e-m/fpu\libc.a(lib_a-strlen.o)

Cross Reference Table

Symbol                                            File
ADC1_2_IRQHandler                                 src\startup_stm32f30x.o
ADC3_IRQHandler                                   src\startup_stm32f30x.o
ADC4_IRQHandler                                   src\startup_stm32f30x.o
ADC_AnalogWatchdog1SingleChannelConfig            Libraries\STM32F30x_StdPeriph_Driver\src\stm32f30x_adc.o
ADC_AnalogWatchdog1ThresholdsConfig               Libraries\STM32F30x_StdPeriph_Driver\src\stm32f30x_adc.o
ADC_AnalogWatchdog2SingleChannelConfig            Libraries\STM32F30x_StdPeriph_Driver\src\stm32f30x_adc.o
ADC_AnalogWatchdog2ThresholdsConfig               Libraries\STM32F30x_StdPeriph_Driver\src\stm32f30x_adc.o
ADC_AnalogWatchdog3SingleChannelConfig            Libraries\STM32F30x_StdPeriph_Driver\src\stm32f30x_adc.o
ADC_AnalogWatchdog3ThresholdsConfig               Libraries\STM32F30x_StdPeriph_Driver\src\stm32f30x_adc.o
ADC_AnalogWatchdogCmd                             Libraries\STM32F30x_StdPeriph_Driver\src\stm32f30x_adc.o
ADC_AutoDelayCmd                                  Libraries\STM32F30x_StdPeriph_Driver\src\stm32f30x_adc.o
ADC_AutoInjectedConvCmd                           Libraries\STM32F30x_StdPeriph_Driver\src\stm32f30x_adc.o
ADC_ChannelOffset1Cmd                             Libraries\STM32F30x_StdPeriph_Driver\src\stm32f30x_adc.o
ADC_ChannelOffset2Cmd                             Libraries\STM32F30x_StdPeriph_Driver\src\stm32f30x_adc.o
ADC_ChannelOffset3Cmd                             Libraries\STM32F30x_StdPeriph_Driver\src\stm32f30x_adc.o
ADC_ChannelOffset4Cmd                             Libraries\STM32F30x_StdPeriph_Driver\src\stm32f30x_adc.o
ADC_ClearCommonFlag                               Libraries\STM32F30x_StdPeriph_Driver\src\stm32f30x_adc.o
ADC_ClearFlag                                     Libraries\STM32F30x_StdPeriph_Driver\src\stm32f30x_adc.o
ADC_ClearITPendingBit                             Libraries\STM32F30x_StdPeriph_Driver\src\stm32f30x_adc.o
ADC_Cmd                                           Libraries\STM32F30x_StdPeriph_Driver\src\stm32f30x_adc.o
ADC_CommonInit                                    Libraries\STM32F30x_StdPeriph_Driver\src\stm32f30x_adc.o
ADC_CommonStructInit                              Libraries\STM32F30x_StdPeriph_Driver\src\stm32f30x_adc.o
ADC_DMACmd                                        Libraries\STM32F30x_StdPeriph_Driver\src\stm32f30x_adc.o
ADC_DMAConfig                                     Libraries\STM32F30x_StdPeriph_Driver\src\stm32f30x_adc.o
ADC_DeInit                                        Libraries\STM32F30x_StdPeriph_Driver\src\stm32f30x_adc.o
ADC_DisableCmd                                    Libraries\STM32F30x_StdPeriph_Driver\src\stm32f30x_adc.o
ADC_DiscModeChannelCountConfig                    Libraries\STM32F30x_StdPeriph_Driver\src\stm32f30x_adc.o
ADC_DiscModeCmd                                   Libraries\STM32F30x_StdPeriph_Driver\src\stm32f30x_adc.o
ADC_ExternalTriggerConfig                         Libraries\STM32F30x_StdPeriph_Driver\src\stm32f30x_adc.o
ADC_GetCalibrationStatus                          Libraries\STM32F30x_StdPeriph_Driver\src\stm32f30x_adc.o
ADC_GetCalibrationValue                           Libraries\STM32F30x_StdPeriph_Driver\src\stm32f30x_adc.o
ADC_GetCommonFlagStatus                           Libraries\STM32F30x_StdPeriph_Driver\src\stm32f30x_adc.o
ADC_GetConversionValue                            Libraries\STM32F30x_StdPeriph_Driver\src\stm32f30x_adc.o
ADC_GetDisableCmdStatus                           Libraries\STM32F30x_StdPeriph_Driver\src\stm32f30x_adc.o
ADC_GetDualModeConversionValue                    Libraries\STM32F30x_StdPeriph_Driver\src\stm32f30x_adc.o
ADC_GetFlagStatus                                 Libraries\STM32F30x_StdPeriph_Driver\src\stm32f30x_adc.o
ADC_GetITStatus                                   Libraries\STM32F30x_StdPeriph_Driver\src\stm32f30x_adc.o
ADC_GetInjectedConversionValue                    Libraries\STM32F30x_StdPeriph_Driver\src\stm32f30x_adc.o
ADC_GetStartConversionStatus                      Libraries\STM32F30x_StdPeriph_Driver\src\stm32f30x_adc.o
ADC_GetStartInjectedConversionStatus              Libraries\STM32F30x_StdPeriph_Driver\src\stm32f30x_adc.o
ADC_ITConfig                                      Libraries\STM32F30x_StdPeriph_Driver\src\stm32f30x_adc.o
ADC_Init                                          Libraries\STM32F30x_StdPeriph_Driver\src\stm32f30x_adc.o
ADC_InjectedChannelSampleTimeConfig               Libraries\STM32F30x_StdPeriph_Driver\src\stm32f30x_adc.o
ADC_InjectedDiscModeCmd                           Libraries\STM32F30x_StdPeriph_Driver\src\stm32f30x_adc.o
ADC_InjectedInit                                  Libraries\STM32F30x_StdPeriph_Driver\src\stm32f30x_adc.o
ADC_InjectedStructInit                            Libraries\STM32F30x_StdPeriph_Driver\src\stm32f30x_adc.o
ADC_RegularChannelConfig                          Libraries\STM32F30x_StdPeriph_Driver\src\stm32f30x_adc.o
ADC_RegularChannelSequencerLengthConfig           Libraries\STM32F30x_StdPeriph_Driver\src\stm32f30x_adc.o
ADC_SelectCalibrationMode                         Libraries\STM32F30x_StdPeriph_Driver\src\stm32f30x_adc.o
ADC_SelectDifferentialMode                        Libraries\STM32F30x_StdPeriph_Driver\src\stm32f30x_adc.o
ADC_SelectQueueOfContextMode                      Libraries\STM32F30x_StdPeriph_Driver\src\stm32f30x_adc.o
ADC_SetCalibrationValue                           Libraries\STM32F30x_StdPeriph_Driver\src\stm32f30x_adc.o
ADC_SetChannelOffset1                             Libraries\STM32F30x_StdPeriph_Driver\src\stm32f30x_adc.o
ADC_SetChannelOffset2                             Libraries\STM32F30x_StdPeriph_Driver\src\stm32f30x_adc.o
ADC_SetChannelOffset3                             Libraries\STM32F30x_StdPeriph_Driver\src\stm32f30x_adc.o
ADC_SetChannelOffset4                             Libraries\STM32F30x_StdPeriph_Driver\src\stm32f30x_adc.o
ADC_StartCalibration                              Libraries\STM32F30x_StdPeriph_Driver\src\stm32f30x_adc.o
ADC_StartConversion                               Libraries\STM32F30x_StdPeriph_Driver\src\stm32f30x_adc.o
ADC_StartInjectedConversion                       Libraries\STM32F30x_StdPeriph_Driver\src\stm32f30x_adc.o
ADC_StopConversion                                Libraries\STM32F30x_StdPeriph_Driver\src\stm32f30x_adc.o
ADC_StopInjectedConversion                        Libraries\STM32F30x_StdPeriph_Driver\src\stm32f30x_adc.o
ADC_StructInit                                    Libraries\STM32F30x_StdPeriph_Driver\src\stm32f30x_adc.o
ADC_TempSensorCmd                                 Libraries\STM32F30x_StdPeriph_Driver\src\stm32f30x_adc.o
ADC_VbatCmd                                       Libraries\STM32F30x_StdPeriph_Driver\src\stm32f30x_adc.o
ADC_VoltageRegulatorCmd                           Libraries\STM32F30x_StdPeriph_Driver\src\stm32f30x_adc.o
ADC_VrefintCmd                                    Libraries\STM32F30x_StdPeriph_Driver\src\stm32f30x_adc.o
AHBPrescTable                                     src\system_stm32f30x.o
BDCInit                                           Libraries\STM32F30x_StdPeriph_Driver\src\inciobdc.o
                                                  Libraries\STM32F30x_StdPeriph_Driver\src\inciogpio.o
BUTTON_CLK                                        Utilities\STM32F3_Discovery\stm32f3_discovery.o
BUTTON_EXTI_LINE                                  Utilities\STM32F3_Discovery\stm32f3_discovery.o
BUTTON_IRQn                                       Utilities\STM32F3_Discovery\stm32f3_discovery.o
BUTTON_PIN                                        Utilities\STM32F3_Discovery\stm32f3_discovery.o
BUTTON_PIN_SOURCE                                 Utilities\STM32F3_Discovery\stm32f3_discovery.o
BUTTON_PORT                                       Utilities\STM32F3_Discovery\stm32f3_discovery.o
BUTTON_PORT_SOURCE                                Utilities\STM32F3_Discovery\stm32f3_discovery.o
BYTE                                              Libraries\STM32F30x_StdPeriph_Driver\src\inciogpio.o
BYTES                                             src\common.o
                                                  src\main.o
BusFault_Handler                                  src\stm32f30x_it.o
CAN1_RX1_IRQHandler                               src\startup_stm32f30x.o
CAN1_SCE_IRQHandler                               src\startup_stm32f30x.o
CAN_CancelTransmit                                Libraries\STM32F30x_StdPeriph_Driver\src\stm32f30x_can.o
CAN_ClearFlag                                     Libraries\STM32F30x_StdPeriph_Driver\src\stm32f30x_can.o
CAN_ClearITPendingBit                             Libraries\STM32F30x_StdPeriph_Driver\src\stm32f30x_can.o
CAN_DBGFreeze                                     Libraries\STM32F30x_StdPeriph_Driver\src\stm32f30x_can.o
CAN_DeInit                                        Libraries\STM32F30x_StdPeriph_Driver\src\stm32f30x_can.o
CAN_FIFORelease                                   Libraries\STM32F30x_StdPeriph_Driver\src\stm32f30x_can.o
CAN_FilterInit                                    Libraries\STM32F30x_StdPeriph_Driver\src\stm32f30x_can.o
CAN_GetFlagStatus                                 Libraries\STM32F30x_StdPeriph_Driver\src\stm32f30x_can.o
CAN_GetITStatus                                   Libraries\STM32F30x_StdPeriph_Driver\src\stm32f30x_can.o
CAN_GetLSBTransmitErrorCounter                    Libraries\STM32F30x_StdPeriph_Driver\src\stm32f30x_can.o
CAN_GetLastErrorCode                              Libraries\STM32F30x_StdPeriph_Driver\src\stm32f30x_can.o
CAN_GetReceiveErrorCounter                        Libraries\STM32F30x_StdPeriph_Driver\src\stm32f30x_can.o
CAN_ITConfig                                      Libraries\STM32F30x_StdPeriph_Driver\src\stm32f30x_can.o
CAN_Init                                          Libraries\STM32F30x_StdPeriph_Driver\src\stm32f30x_can.o
CAN_MessagePending                                Libraries\STM32F30x_StdPeriph_Driver\src\stm32f30x_can.o
CAN_OperatingModeRequest                          Libraries\STM32F30x_StdPeriph_Driver\src\stm32f30x_can.o
CAN_Receive                                       Libraries\STM32F30x_StdPeriph_Driver\src\stm32f30x_can.o
CAN_SlaveStartBank                                Libraries\STM32F30x_StdPeriph_Driver\src\stm32f30x_can.o
CAN_Sleep                                         Libraries\STM32F30x_StdPeriph_Driver\src\stm32f30x_can.o
CAN_StructInit                                    Libraries\STM32F30x_StdPeriph_Driver\src\stm32f30x_can.o
CAN_TTComModeCmd                                  Libraries\STM32F30x_StdPeriph_Driver\src\stm32f30x_can.o
CAN_Transmit                                      Libraries\STM32F30x_StdPeriph_Driver\src\stm32f30x_can.o
CAN_TransmitStatus                                Libraries\STM32F30x_StdPeriph_Driver\src\stm32f30x_can.o
CAN_WakeUp                                        Libraries\STM32F30x_StdPeriph_Driver\src\stm32f30x_can.o
COMP1_2_3_IRQHandler                              src\startup_stm32f30x.o
COMP4_5_6_IRQHandler                              src\startup_stm32f30x.o
COMP7_IRQHandler                                  src\startup_stm32f30x.o
COMP_Cmd                                          Libraries\STM32F30x_StdPeriph_Driver\src\stm32f30x_comp.o
COMP_DeInit                                       Libraries\STM32F30x_StdPeriph_Driver\src\stm32f30x_comp.o
COMP_GetOutputLevel                               Libraries\STM32F30x_StdPeriph_Driver\src\stm32f30x_comp.o
COMP_Init                                         Libraries\STM32F30x_StdPeriph_Driver\src\stm32f30x_comp.o
COMP_LockConfig                                   Libraries\STM32F30x_StdPeriph_Driver\src\stm32f30x_comp.o
COMP_StructInit                                   Libraries\STM32F30x_StdPeriph_Driver\src\stm32f30x_comp.o
COMP_SwitchCmd                                    Libraries\STM32F30x_StdPeriph_Driver\src\stm32f30x_comp.o
COMP_WindowCmd                                    Libraries\STM32F30x_StdPeriph_Driver\src\stm32f30x_comp.o
CRC_CalcBlockCRC                                  Libraries\STM32F30x_StdPeriph_Driver\src\stm32f30x_crc.o
CRC_CalcCRC                                       Libraries\STM32F30x_StdPeriph_Driver\src\stm32f30x_crc.o
CRC_CalcCRC16bits                                 Libraries\STM32F30x_StdPeriph_Driver\src\stm32f30x_crc.o
CRC_CalcCRC8bits                                  Libraries\STM32F30x_StdPeriph_Driver\src\stm32f30x_crc.o
CRC_DeInit                                        Libraries\STM32F30x_StdPeriph_Driver\src\stm32f30x_crc.o
CRC_GetCRC                                        Libraries\STM32F30x_StdPeriph_Driver\src\stm32f30x_crc.o
CRC_GetIDRegister                                 Libraries\STM32F30x_StdPeriph_Driver\src\stm32f30x_crc.o
CRC_PolynomialSizeSelect                          Libraries\STM32F30x_StdPeriph_Driver\src\stm32f30x_crc.o
CRC_ResetDR                                       Libraries\STM32F30x_StdPeriph_Driver\src\stm32f30x_crc.o
CRC_ReverseInputDataSelect                        Libraries\STM32F30x_StdPeriph_Driver\src\stm32f30x_crc.o
CRC_ReverseOutputDataCmd                          Libraries\STM32F30x_StdPeriph_Driver\src\stm32f30x_crc.o
CRC_SetIDRegister                                 Libraries\STM32F30x_StdPeriph_Driver\src\stm32f30x_crc.o
CRC_SetInitRegister                               Libraries\STM32F30x_StdPeriph_Driver\src\stm32f30x_crc.o
CRC_SetPolynomial                                 Libraries\STM32F30x_StdPeriph_Driver\src\stm32f30x_crc.o
DAC_ClearFlag                                     Libraries\STM32F30x_StdPeriph_Driver\src\stm32f30x_dac.o
DAC_ClearITPendingBit                             Libraries\STM32F30x_StdPeriph_Driver\src\stm32f30x_dac.o
DAC_Cmd                                           Libraries\STM32F30x_StdPeriph_Driver\src\stm32f30x_dac.o
DAC_DMACmd                                        Libraries\STM32F30x_StdPeriph_Driver\src\stm32f30x_dac.o
DAC_DeInit                                        Libraries\STM32F30x_StdPeriph_Driver\src\stm32f30x_dac.o
DAC_DualSoftwareTriggerCmd                        Libraries\STM32F30x_StdPeriph_Driver\src\stm32f30x_dac.o
DAC_GetDataOutputValue                            Libraries\STM32F30x_StdPeriph_Driver\src\stm32f30x_dac.o
DAC_GetFlagStatus                                 Libraries\STM32F30x_StdPeriph_Driver\src\stm32f30x_dac.o
DAC_GetITStatus                                   Libraries\STM32F30x_StdPeriph_Driver\src\stm32f30x_dac.o
DAC_ITConfig                                      Libraries\STM32F30x_StdPeriph_Driver\src\stm32f30x_dac.o
DAC_Init                                          Libraries\STM32F30x_StdPeriph_Driver\src\stm32f30x_dac.o
DAC_SetChannel1Data                               Libraries\STM32F30x_StdPeriph_Driver\src\stm32f30x_dac.o
DAC_SetChannel2Data                               Libraries\STM32F30x_StdPeriph_Driver\src\stm32f30x_dac.o
DAC_SetDualChannelData                            Libraries\STM32F30x_StdPeriph_Driver\src\stm32f30x_dac.o
DAC_SoftwareTriggerCmd                            Libraries\STM32F30x_StdPeriph_Driver\src\stm32f30x_dac.o
DAC_StructInit                                    Libraries\STM32F30x_StdPeriph_Driver\src\stm32f30x_dac.o
DAC_WaveGenerationCmd                             Libraries\STM32F30x_StdPeriph_Driver\src\stm32f30x_dac.o
DBGMCU_APB1PeriphConfig                           Libraries\STM32F30x_StdPeriph_Driver\src\stm32f30x_dbgmcu.o
DBGMCU_APB2PeriphConfig                           Libraries\STM32F30x_StdPeriph_Driver\src\stm32f30x_dbgmcu.o
DBGMCU_Config                                     Libraries\STM32F30x_StdPeriph_Driver\src\stm32f30x_dbgmcu.o
DBGMCU_GetDEVID                                   Libraries\STM32F30x_StdPeriph_Driver\src\stm32f30x_dbgmcu.o
DBGMCU_GetREVID                                   Libraries\STM32F30x_StdPeriph_Driver\src\stm32f30x_dbgmcu.o
DMA1_Channel1_IRQHandler                          src\startup_stm32f30x.o
DMA1_Channel2_IRQHandler                          src\startup_stm32f30x.o
DMA1_Channel3_IRQHandler                          src\startup_stm32f30x.o
DMA1_Channel4_IRQHandler                          src\startup_stm32f30x.o
DMA1_Channel5_IRQHandler                          src\startup_stm32f30x.o
DMA1_Channel6_IRQHandler                          src\startup_stm32f30x.o
DMA1_Channel7_IRQHandler                          src\startup_stm32f30x.o
DMA2_Channel1_IRQHandler                          src\startup_stm32f30x.o
DMA2_Channel2_IRQHandler                          src\startup_stm32f30x.o
DMA2_Channel3_IRQHandler                          src\startup_stm32f30x.o
DMA2_Channel4_IRQHandler                          src\startup_stm32f30x.o
DMA2_Channel5_IRQHandler                          src\startup_stm32f30x.o
DMA_ClearFlag                                     Libraries\STM32F30x_StdPeriph_Driver\src\stm32f30x_dma.o
DMA_ClearITPendingBit                             Libraries\STM32F30x_StdPeriph_Driver\src\stm32f30x_dma.o
DMA_Cmd                                           Libraries\STM32F30x_StdPeriph_Driver\src\stm32f30x_dma.o
DMA_DeInit                                        Libraries\STM32F30x_StdPeriph_Driver\src\stm32f30x_dma.o
DMA_GetCurrDataCounter                            Libraries\STM32F30x_StdPeriph_Driver\src\stm32f30x_dma.o
DMA_GetFlagStatus                                 Libraries\STM32F30x_StdPeriph_Driver\src\stm32f30x_dma.o
DMA_GetITStatus                                   Libraries\STM32F30x_StdPeriph_Driver\src\stm32f30x_dma.o
DMA_ITConfig                                      Libraries\STM32F30x_StdPeriph_Driver\src\stm32f30x_dma.o
DMA_Init                                          Libraries\STM32F30x_StdPeriph_Driver\src\stm32f30x_dma.o
DMA_SetCurrDataCounter                            Libraries\STM32F30x_StdPeriph_Driver\src\stm32f30x_dma.o
DMA_StructInit                                    Libraries\STM32F30x_StdPeriph_Driver\src\stm32f30x_dma.o
DebugMon_Handler                                  src\stm32f30x_it.o
Default_Handler                                   src\startup_stm32f30x.o
Delayms                                           src\main.o
                                                  Libraries\STM32F30x_StdPeriph_Driver\src\incioenc.o
                                                  src\common.o
EVAL_AUDIO_TransferComplete_CallBack              src\main.o
EXTI0_IRQHandler                                  src\startup_stm32f30x.o
EXTI15_10_IRQHandler                              src\startup_stm32f30x.o
EXTI1_IRQHandler                                  src\startup_stm32f30x.o
EXTI2_TS_IRQHandler                               src\startup_stm32f30x.o
EXTI3_IRQHandler                                  src\startup_stm32f30x.o
EXTI4_IRQHandler                                  src\startup_stm32f30x.o
EXTI9_5_IRQHandler                                src\startup_stm32f30x.o
EXTI_ClearFlag                                    Libraries\STM32F30x_StdPeriph_Driver\src\stm32f30x_exti.o
EXTI_ClearITPendingBit                            Libraries\STM32F30x_StdPeriph_Driver\src\stm32f30x_exti.o
EXTI_DeInit                                       Libraries\STM32F30x_StdPeriph_Driver\src\stm32f30x_exti.o
EXTI_GenerateSWInterrupt                          Libraries\STM32F30x_StdPeriph_Driver\src\stm32f30x_exti.o
EXTI_GetFlagStatus                                Libraries\STM32F30x_StdPeriph_Driver\src\stm32f30x_exti.o
EXTI_GetITStatus                                  Libraries\STM32F30x_StdPeriph_Driver\src\stm32f30x_exti.o
EXTI_Init                                         Libraries\STM32F30x_StdPeriph_Driver\src\stm32f30x_exti.o
                                                  Utilities\STM32F3_Discovery\stm32f3_discovery.o
                                                  Utilities\STM32F3_Discovery\stm32f3_discovery_lsm303dlhc.o
EXTI_StructInit                                   Libraries\STM32F30x_StdPeriph_Driver\src\stm32f30x_exti.o
Execute                                           src\common.o
                                                  src\main.o
FLASH_ClearFlag                                   Libraries\STM32F30x_StdPeriph_Driver\src\stm32f30x_flash.o
FLASH_EraseAllPages                               Libraries\STM32F30x_StdPeriph_Driver\src\stm32f30x_flash.o
FLASH_ErasePage                                   Libraries\STM32F30x_StdPeriph_Driver\src\stm32f30x_flash.o
FLASH_GetFlagStatus                               Libraries\STM32F30x_StdPeriph_Driver\src\stm32f30x_flash.o
FLASH_GetStatus                                   Libraries\STM32F30x_StdPeriph_Driver\src\stm32f30x_flash.o
FLASH_HalfCycleAccessCmd                          Libraries\STM32F30x_StdPeriph_Driver\src\stm32f30x_flash.o
FLASH_IRQHandler                                  src\startup_stm32f30x.o
FLASH_ITConfig                                    Libraries\STM32F30x_StdPeriph_Driver\src\stm32f30x_flash.o
FLASH_Lock                                        Libraries\STM32F30x_StdPeriph_Driver\src\stm32f30x_flash.o
FLASH_OB_BOOTConfig                               Libraries\STM32F30x_StdPeriph_Driver\src\stm32f30x_flash.o
FLASH_OB_EnableWRP                                Libraries\STM32F30x_StdPeriph_Driver\src\stm32f30x_flash.o
FLASH_OB_Erase                                    Libraries\STM32F30x_StdPeriph_Driver\src\stm32f30x_flash.o
FLASH_OB_GetRDP                                   Libraries\STM32F30x_StdPeriph_Driver\src\stm32f30x_flash.o
FLASH_OB_GetUser                                  Libraries\STM32F30x_StdPeriph_Driver\src\stm32f30x_flash.o
FLASH_OB_GetWRP                                   Libraries\STM32F30x_StdPeriph_Driver\src\stm32f30x_flash.o
FLASH_OB_Launch                                   Libraries\STM32F30x_StdPeriph_Driver\src\stm32f30x_flash.o
FLASH_OB_Lock                                     Libraries\STM32F30x_StdPeriph_Driver\src\stm32f30x_flash.o
FLASH_OB_RDPConfig                                Libraries\STM32F30x_StdPeriph_Driver\src\stm32f30x_flash.o
FLASH_OB_SRAMParityConfig                         Libraries\STM32F30x_StdPeriph_Driver\src\stm32f30x_flash.o
FLASH_OB_Unlock                                   Libraries\STM32F30x_StdPeriph_Driver\src\stm32f30x_flash.o
FLASH_OB_UserConfig                               Libraries\STM32F30x_StdPeriph_Driver\src\stm32f30x_flash.o
FLASH_OB_VDDAConfig                               Libraries\STM32F30x_StdPeriph_Driver\src\stm32f30x_flash.o
FLASH_OB_WriteUser                                Libraries\STM32F30x_StdPeriph_Driver\src\stm32f30x_flash.o
FLASH_PrefetchBufferCmd                           Libraries\STM32F30x_StdPeriph_Driver\src\stm32f30x_flash.o
FLASH_ProgramHalfWord                             Libraries\STM32F30x_StdPeriph_Driver\src\stm32f30x_flash.o
FLASH_ProgramOptionByteData                       Libraries\STM32F30x_StdPeriph_Driver\src\stm32f30x_flash.o
FLASH_ProgramWord                                 Libraries\STM32F30x_StdPeriph_Driver\src\stm32f30x_flash.o
FLASH_SetLatency                                  Libraries\STM32F30x_StdPeriph_Driver\src\stm32f30x_flash.o
FLASH_Unlock                                      Libraries\STM32F30x_StdPeriph_Driver\src\stm32f30x_flash.o
FLASH_WaitForLastOperation                        Libraries\STM32F30x_StdPeriph_Driver\src\stm32f30x_flash.o
FPU_IRQHandler                                    src\startup_stm32f30x.o
GPIOInit                                          Libraries\STM32F30x_StdPeriph_Driver\src\inciogpio.o
GPIOSET                                           Libraries\STM32F30x_StdPeriph_Driver\src\inciogpio.o
                                                  Libraries\STM32F30x_StdPeriph_Driver\src\inciobdc.o
                                                  Libraries\STM32F30x_StdPeriph_Driver\src\inciopwm.o
                                                  Libraries\STM32F30x_StdPeriph_Driver\src\inciouart.o
                                                  src\common.o
GPIO_CLK                                          Utilities\STM32F3_Discovery\stm32f3_discovery.o
GPIO_DeInit                                       Libraries\STM32F30x_StdPeriph_Driver\src\stm32f30x_gpio.o
GPIO_Init                                         Libraries\STM32F30x_StdPeriph_Driver\src\stm32f30x_gpio.o
                                                  Libraries\STM32F30x_StdPeriph_Driver\src\incioenc.o
                                                  Libraries\STM32F30x_StdPeriph_Driver\src\inciogpio.o
                                                  Utilities\STM32F3_Discovery\stm32f3_discovery.o
                                                  Utilities\STM32F3_Discovery\stm32f3_discovery_l3gd20.o
                                                  Utilities\STM32F3_Discovery\stm32f3_discovery_lsm303dlhc.o
GPIO_InitStructure                                Libraries\STM32F30x_StdPeriph_Driver\src\inciobdc.o
                                                  Libraries\STM32F30x_StdPeriph_Driver\src\incioenc.o
                                                  Libraries\STM32F30x_StdPeriph_Driver\src\inciogpio.o
                                                  Libraries\STM32F30x_StdPeriph_Driver\src\inciopwm.o
                                                  Libraries\STM32F30x_StdPeriph_Driver\src\inciotim.o
                                                  Libraries\STM32F30x_StdPeriph_Driver\src\inciouart.o
                                                  src\common.o
                                                  src\main.o
GPIO_PIN                                          Utilities\STM32F3_Discovery\stm32f3_discovery.o
GPIO_PORT                                         Utilities\STM32F3_Discovery\stm32f3_discovery.o
GPIO_PinAFConfig                                  Libraries\STM32F30x_StdPeriph_Driver\src\stm32f30x_gpio.o
                                                  Libraries\STM32F30x_StdPeriph_Driver\src\incioenc.o
                                                  Libraries\STM32F30x_StdPeriph_Driver\src\inciopwm.o
                                                  Libraries\STM32F30x_StdPeriph_Driver\src\inciouart.o
                                                  Utilities\STM32F3_Discovery\stm32f3_discovery_l3gd20.o
                                                  Utilities\STM32F3_Discovery\stm32f3_discovery_lsm303dlhc.o
                                                  src\common.o
GPIO_PinLockConfig                                Libraries\STM32F30x_StdPeriph_Driver\src\stm32f30x_gpio.o
GPIO_ReadInputData                                Libraries\STM32F30x_StdPeriph_Driver\src\stm32f30x_gpio.o
GPIO_ReadInputDataBit                             Libraries\STM32F30x_StdPeriph_Driver\src\stm32f30x_gpio.o
                                                  Libraries\STM32F30x_StdPeriph_Driver\src\inciogpio.o
                                                  Utilities\STM32F3_Discovery\stm32f3_discovery.o
                                                  src\common.o
                                                  src\main.o
GPIO_ReadOutputData                               Libraries\STM32F30x_StdPeriph_Driver\src\stm32f30x_gpio.o
GPIO_ReadOutputDataBit                            Libraries\STM32F30x_StdPeriph_Driver\src\stm32f30x_gpio.o
GPIO_ResetBits                                    Libraries\STM32F30x_StdPeriph_Driver\src\stm32f30x_gpio.o
                                                  Utilities\STM32F3_Discovery\stm32f3_discovery_l3gd20.o
GPIO_SetBits                                      Libraries\STM32F30x_StdPeriph_Driver\src\stm32f30x_gpio.o
                                                  Utilities\STM32F3_Discovery\stm32f3_discovery_l3gd20.o
GPIO_StructInit                                   Libraries\STM32F30x_StdPeriph_Driver\src\stm32f30x_gpio.o
GPIO_Write                                        Libraries\STM32F30x_StdPeriph_Driver\src\stm32f30x_gpio.o
GPIO_WriteBit                                     Libraries\STM32F30x_StdPeriph_Driver\src\stm32f30x_gpio.o
                                                  Libraries\STM32F30x_StdPeriph_Driver\src\inciobdc.o
                                                  Libraries\STM32F30x_StdPeriph_Driver\src\inciogpio.o
                                                  src\common.o
                                                  src\main.o
HardFault_Handler                                 src\stm32f30x_it.o
I2C1_ER_IRQHandler                                src\startup_stm32f30x.o
I2C1_EV_IRQHandler                                src\startup_stm32f30x.o
I2C2_ER_IRQHandler                                src\startup_stm32f30x.o
I2C2_EV_IRQHandler                                src\startup_stm32f30x.o
I2C_10BitAddressHeaderCmd                         Libraries\STM32F30x_StdPeriph_Driver\src\stm32f30x_i2c.o
I2C_10BitAddressingModeCmd                        Libraries\STM32F30x_StdPeriph_Driver\src\stm32f30x_i2c.o
I2C_AcknowledgeConfig                             Libraries\STM32F30x_StdPeriph_Driver\src\stm32f30x_i2c.o
I2C_AutoEndCmd                                    Libraries\STM32F30x_StdPeriph_Driver\src\stm32f30x_i2c.o
I2C_CalculatePEC                                  Libraries\STM32F30x_StdPeriph_Driver\src\stm32f30x_i2c.o
I2C_ClearFlag                                     Libraries\STM32F30x_StdPeriph_Driver\src\stm32f30x_i2c.o
                                                  Utilities\STM32F3_Discovery\stm32f3_discovery_lsm303dlhc.o
I2C_ClearITPendingBit                             Libraries\STM32F30x_StdPeriph_Driver\src\stm32f30x_i2c.o
I2C_ClockTimeoutCmd                               Libraries\STM32F30x_StdPeriph_Driver\src\stm32f30x_i2c.o
I2C_Cmd                                           Libraries\STM32F30x_StdPeriph_Driver\src\stm32f30x_i2c.o
                                                  Utilities\STM32F3_Discovery\stm32f3_discovery_lsm303dlhc.o
I2C_DMACmd                                        Libraries\STM32F30x_StdPeriph_Driver\src\stm32f30x_i2c.o
I2C_DeInit                                        Libraries\STM32F30x_StdPeriph_Driver\src\stm32f30x_i2c.o
I2C_DualAddressCmd                                Libraries\STM32F30x_StdPeriph_Driver\src\stm32f30x_i2c.o
I2C_ExtendedClockTimeoutCmd                       Libraries\STM32F30x_StdPeriph_Driver\src\stm32f30x_i2c.o
I2C_GeneralCallCmd                                Libraries\STM32F30x_StdPeriph_Driver\src\stm32f30x_i2c.o
I2C_GenerateSTART                                 Libraries\STM32F30x_StdPeriph_Driver\src\stm32f30x_i2c.o
I2C_GenerateSTOP                                  Libraries\STM32F30x_StdPeriph_Driver\src\stm32f30x_i2c.o
I2C_GetAddressMatched                             Libraries\STM32F30x_StdPeriph_Driver\src\stm32f30x_i2c.o
I2C_GetFlagStatus                                 Libraries\STM32F30x_StdPeriph_Driver\src\stm32f30x_i2c.o
                                                  Utilities\STM32F3_Discovery\stm32f3_discovery_lsm303dlhc.o
I2C_GetITStatus                                   Libraries\STM32F30x_StdPeriph_Driver\src\stm32f30x_i2c.o
I2C_GetPEC                                        Libraries\STM32F30x_StdPeriph_Driver\src\stm32f30x_i2c.o
I2C_GetTransferDirection                          Libraries\STM32F30x_StdPeriph_Driver\src\stm32f30x_i2c.o
I2C_ITConfig                                      Libraries\STM32F30x_StdPeriph_Driver\src\stm32f30x_i2c.o
I2C_IdleClockTimeoutCmd                           Libraries\STM32F30x_StdPeriph_Driver\src\stm32f30x_i2c.o
I2C_Init                                          Libraries\STM32F30x_StdPeriph_Driver\src\stm32f30x_i2c.o
                                                  Utilities\STM32F3_Discovery\stm32f3_discovery_lsm303dlhc.o
I2C_MasterRequestConfig                           Libraries\STM32F30x_StdPeriph_Driver\src\stm32f30x_i2c.o
I2C_NumberOfBytesConfig                           Libraries\STM32F30x_StdPeriph_Driver\src\stm32f30x_i2c.o
I2C_OwnAddress2Config                             Libraries\STM32F30x_StdPeriph_Driver\src\stm32f30x_i2c.o
I2C_PECRequestCmd                                 Libraries\STM32F30x_StdPeriph_Driver\src\stm32f30x_i2c.o
I2C_ReadRegister                                  Libraries\STM32F30x_StdPeriph_Driver\src\stm32f30x_i2c.o
I2C_ReceiveData                                   Libraries\STM32F30x_StdPeriph_Driver\src\stm32f30x_i2c.o
                                                  Utilities\STM32F3_Discovery\stm32f3_discovery_lsm303dlhc.o
I2C_ReloadCmd                                     Libraries\STM32F30x_StdPeriph_Driver\src\stm32f30x_i2c.o
I2C_SMBusAlertCmd                                 Libraries\STM32F30x_StdPeriph_Driver\src\stm32f30x_i2c.o
I2C_SendData                                      Libraries\STM32F30x_StdPeriph_Driver\src\stm32f30x_i2c.o
                                                  Utilities\STM32F3_Discovery\stm32f3_discovery_lsm303dlhc.o
I2C_SlaveAddressConfig                            Libraries\STM32F30x_StdPeriph_Driver\src\stm32f30x_i2c.o
I2C_SlaveByteControlCmd                           Libraries\STM32F30x_StdPeriph_Driver\src\stm32f30x_i2c.o
I2C_SoftwareResetCmd                              Libraries\STM32F30x_StdPeriph_Driver\src\stm32f30x_i2c.o
I2C_StopModeCmd                                   Libraries\STM32F30x_StdPeriph_Driver\src\stm32f30x_i2c.o
I2C_StretchClockCmd                               Libraries\STM32F30x_StdPeriph_Driver\src\stm32f30x_i2c.o
I2C_StructInit                                    Libraries\STM32F30x_StdPeriph_Driver\src\stm32f30x_i2c.o
I2C_TimeoutAConfig                                Libraries\STM32F30x_StdPeriph_Driver\src\stm32f30x_i2c.o
I2C_TimeoutBConfig                                Libraries\STM32F30x_StdPeriph_Driver\src\stm32f30x_i2c.o
I2C_TransferHandling                              Libraries\STM32F30x_StdPeriph_Driver\src\stm32f30x_i2c.o
                                                  Utilities\STM32F3_Discovery\stm32f3_discovery_lsm303dlhc.o
I2S_Cmd                                           Libraries\STM32F30x_StdPeriph_Driver\src\stm32f30x_spi.o
I2S_FullDuplexConfig                              Libraries\STM32F30x_StdPeriph_Driver\src\stm32f30x_spi.o
I2S_Init                                          Libraries\STM32F30x_StdPeriph_Driver\src\stm32f30x_spi.o
I2S_StructInit                                    Libraries\STM32F30x_StdPeriph_Driver\src\stm32f30x_spi.o
IOTest                                            Libraries\STM32F30x_StdPeriph_Driver\src\inciogpio.o
IOTest2                                           Libraries\STM32F30x_StdPeriph_Driver\src\inciogpio.o
                                                  src\main.o
IWDG_Enable                                       Libraries\STM32F30x_StdPeriph_Driver\src\stm32f30x_iwdg.o
IWDG_GetFlagStatus                                Libraries\STM32F30x_StdPeriph_Driver\src\stm32f30x_iwdg.o
IWDG_ReloadCounter                                Libraries\STM32F30x_StdPeriph_Driver\src\stm32f30x_iwdg.o
IWDG_SetPrescaler                                 Libraries\STM32F30x_StdPeriph_Driver\src\stm32f30x_iwdg.o
IWDG_SetReload                                    Libraries\STM32F30x_StdPeriph_Driver\src\stm32f30x_iwdg.o
IWDG_SetWindowValue                               Libraries\STM32F30x_StdPeriph_Driver\src\stm32f30x_iwdg.o
IWDG_WriteAccessCmd                               Libraries\STM32F30x_StdPeriph_Driver\src\stm32f30x_iwdg.o
Init                                              src\common.o
                                                  src\main.o
InitGPIO                                          src\common.o
Junglegym                                         src\common.o
L3GD20Timeout                                     Utilities\STM32F3_Discovery\stm32f3_discovery_l3gd20.o
L3GD20_FilterCmd                                  Utilities\STM32F3_Discovery\stm32f3_discovery_l3gd20.o
L3GD20_FilterConfig                               Utilities\STM32F3_Discovery\stm32f3_discovery_l3gd20.o
L3GD20_GetDataStatus                              Utilities\STM32F3_Discovery\stm32f3_discovery_l3gd20.o
L3GD20_INT1InterruptCmd                           Utilities\STM32F3_Discovery\stm32f3_discovery_l3gd20.o
L3GD20_INT1InterruptConfig                        Utilities\STM32F3_Discovery\stm32f3_discovery_l3gd20.o
L3GD20_INT2InterruptCmd                           Utilities\STM32F3_Discovery\stm32f3_discovery_l3gd20.o
L3GD20_Init                                       Utilities\STM32F3_Discovery\stm32f3_discovery_l3gd20.o
L3GD20_Read                                       Utilities\STM32F3_Discovery\stm32f3_discovery_l3gd20.o
L3GD20_RebootCmd                                  Utilities\STM32F3_Discovery\stm32f3_discovery_l3gd20.o
L3GD20_TIMEOUT_UserCallback                       Utilities\STM32F3_Discovery\stm32f3_discovery_l3gd20.o
L3GD20_Write                                      Utilities\STM32F3_Discovery\stm32f3_discovery_l3gd20.o
LSM303DLHC_AccClickITConfig                       Utilities\STM32F3_Discovery\stm32f3_discovery_lsm303dlhc.o
LSM303DLHC_AccFilterClickCmd                      Utilities\STM32F3_Discovery\stm32f3_discovery_lsm303dlhc.o
LSM303DLHC_AccFilterCmd                           Utilities\STM32F3_Discovery\stm32f3_discovery_lsm303dlhc.o
LSM303DLHC_AccFilterConfig                        Utilities\STM32F3_Discovery\stm32f3_discovery_lsm303dlhc.o
LSM303DLHC_AccGetDataStatus                       Utilities\STM32F3_Discovery\stm32f3_discovery_lsm303dlhc.o
LSM303DLHC_AccINT1InterruptConfig                 Utilities\STM32F3_Discovery\stm32f3_discovery_lsm303dlhc.o
LSM303DLHC_AccINT2InterruptConfig                 Utilities\STM32F3_Discovery\stm32f3_discovery_lsm303dlhc.o
LSM303DLHC_AccIT1Config                           Utilities\STM32F3_Discovery\stm32f3_discovery_lsm303dlhc.o
LSM303DLHC_AccIT2Config                           Utilities\STM32F3_Discovery\stm32f3_discovery_lsm303dlhc.o
LSM303DLHC_AccInit                                Utilities\STM32F3_Discovery\stm32f3_discovery_lsm303dlhc.o
LSM303DLHC_AccRebootCmd                           Utilities\STM32F3_Discovery\stm32f3_discovery_lsm303dlhc.o
LSM303DLHC_MagGetDataStatus                       Utilities\STM32F3_Discovery\stm32f3_discovery_lsm303dlhc.o
LSM303DLHC_MagInit                                Utilities\STM32F3_Discovery\stm32f3_discovery_lsm303dlhc.o
LSM303DLHC_Read                                   Utilities\STM32F3_Discovery\stm32f3_discovery_lsm303dlhc.o
LSM303DLHC_TIMEOUT_UserCallback                   Utilities\STM32F3_Discovery\stm32f3_discovery_lsm303dlhc.o
LSM303DLHC_Timeout                                Utilities\STM32F3_Discovery\stm32f3_discovery_lsm303dlhc.o
LSM303DLHC_Write                                  Utilities\STM32F3_Discovery\stm32f3_discovery_lsm303dlhc.o
Led_Mode_Indicator                                src\common.o
MemManage_Handler                                 src\stm32f30x_it.o
ModBits                                           src\common.o
                                                  src\main.o
MotorInit                                         src\common.o
                                                  src\main.o
MotorTesting                                      src\common.o
NMI_Handler                                       src\stm32f30x_it.o
NVIC_Init                                         Libraries\STM32F30x_StdPeriph_Driver\src\stm32f30x_misc.o
                                                  Libraries\STM32F30x_StdPeriph_Driver\src\incioenc.o
                                                  Libraries\STM32F30x_StdPeriph_Driver\src\inciotim.o
                                                  Libraries\STM32F30x_StdPeriph_Driver\src\inciouart.o
                                                  Utilities\STM32F3_Discovery\stm32f3_discovery.o
NVIC_InitStructure                                Libraries\STM32F30x_StdPeriph_Driver\src\inciobdc.o
                                                  Libraries\STM32F30x_StdPeriph_Driver\src\incioenc.o
                                                  Libraries\STM32F30x_StdPeriph_Driver\src\inciogpio.o
                                                  Libraries\STM32F30x_StdPeriph_Driver\src\inciopwm.o
                                                  Libraries\STM32F30x_StdPeriph_Driver\src\inciotim.o
                                                  Libraries\STM32F30x_StdPeriph_Driver\src\inciouart.o
                                                  src\common.o
                                                  src\main.o
NVIC_PriorityGroupConfig                          Libraries\STM32F30x_StdPeriph_Driver\src\stm32f30x_misc.o
NVIC_SetVectorTable                               Libraries\STM32F30x_StdPeriph_Driver\src\stm32f30x_misc.o
NVIC_SystemLPConfig                               Libraries\STM32F30x_StdPeriph_Driver\src\stm32f30x_misc.o
OFFTimer                                          Libraries\STM32F30x_StdPeriph_Driver\src\inciotim.o
ONTimer                                           Libraries\STM32F30x_StdPeriph_Driver\src\inciotim.o
OPAMP_Cmd                                         Libraries\STM32F30x_StdPeriph_Driver\src\stm32f30x_opamp.o
OPAMP_DeInit                                      Libraries\STM32F30x_StdPeriph_Driver\src\stm32f30x_opamp.o
OPAMP_GetOutputLevel                              Libraries\STM32F30x_StdPeriph_Driver\src\stm32f30x_opamp.o
OPAMP_Init                                        Libraries\STM32F30x_StdPeriph_Driver\src\stm32f30x_opamp.o
OPAMP_LockConfig                                  Libraries\STM32F30x_StdPeriph_Driver\src\stm32f30x_opamp.o
OPAMP_OffsetTrimConfig                            Libraries\STM32F30x_StdPeriph_Driver\src\stm32f30x_opamp.o
OPAMP_OffsetTrimModeSelect                        Libraries\STM32F30x_StdPeriph_Driver\src\stm32f30x_opamp.o
OPAMP_PGAConfig                                   Libraries\STM32F30x_StdPeriph_Driver\src\stm32f30x_opamp.o
OPAMP_StartCalibration                            Libraries\STM32F30x_StdPeriph_Driver\src\stm32f30x_opamp.o
OPAMP_StructInit                                  Libraries\STM32F30x_StdPeriph_Driver\src\stm32f30x_opamp.o
OPAMP_TimerControlledMuxCmd                       Libraries\STM32F30x_StdPeriph_Driver\src\stm32f30x_opamp.o
OPAMP_TimerControlledMuxConfig                    Libraries\STM32F30x_StdPeriph_Driver\src\stm32f30x_opamp.o
OPAMP_VrefConfig                                  Libraries\STM32F30x_StdPeriph_Driver\src\stm32f30x_opamp.o
OPAMP_VrefConnectADCCmd                           Libraries\STM32F30x_StdPeriph_Driver\src\stm32f30x_opamp.o
OPAMP_VrefConnectNonInvertingInput                Libraries\STM32F30x_StdPeriph_Driver\src\stm32f30x_opamp.o
PVD_IRQHandler                                    src\startup_stm32f30x.o
PWMInit                                           Libraries\STM32F30x_StdPeriph_Driver\src\inciopwm.o
                                                  Libraries\STM32F30x_StdPeriph_Driver\src\inciogpio.o
PWMTiInit                                         Libraries\STM32F30x_StdPeriph_Driver\src\inciopwm.o
PWR_BackupAccessCmd                               Libraries\STM32F30x_StdPeriph_Driver\src\stm32f30x_pwr.o
PWR_ClearFlag                                     Libraries\STM32F30x_StdPeriph_Driver\src\stm32f30x_pwr.o
PWR_DeInit                                        Libraries\STM32F30x_StdPeriph_Driver\src\stm32f30x_pwr.o
PWR_EnterSTANDBYMode                              Libraries\STM32F30x_StdPeriph_Driver\src\stm32f30x_pwr.o
PWR_EnterSTOPMode                                 Libraries\STM32F30x_StdPeriph_Driver\src\stm32f30x_pwr.o
PWR_EnterSleepMode                                Libraries\STM32F30x_StdPeriph_Driver\src\stm32f30x_pwr.o
PWR_GetFlagStatus                                 Libraries\STM32F30x_StdPeriph_Driver\src\stm32f30x_pwr.o
PWR_PVDCmd                                        Libraries\STM32F30x_StdPeriph_Driver\src\stm32f30x_pwr.o
PWR_PVDLevelConfig                                Libraries\STM32F30x_StdPeriph_Driver\src\stm32f30x_pwr.o
PWR_WakeUpPinCmd                                  Libraries\STM32F30x_StdPeriph_Driver\src\stm32f30x_pwr.o
PendSV_Handler                                    src\stm32f30x_it.o
Polewalk                                          src\common.o
QEI1Init                                          Libraries\STM32F30x_StdPeriph_Driver\src\incioenc.o
QEI2Init                                          Libraries\STM32F30x_StdPeriph_Driver\src\incioenc.o
QEI3Init                                          Libraries\STM32F30x_StdPeriph_Driver\src\incioenc.o
QEI4Init                                          Libraries\STM32F30x_StdPeriph_Driver\src\incioenc.o
QEIInit                                           Libraries\STM32F30x_StdPeriph_Driver\src\incioenc.o
                                                  Libraries\STM32F30x_StdPeriph_Driver\src\inciogpio.o
QEIflag                                           Libraries\STM32F30x_StdPeriph_Driver\src\incioenc.o
Qei1                                              Libraries\STM32F30x_StdPeriph_Driver\src\incioenc.o
Qei2                                              Libraries\STM32F30x_StdPeriph_Driver\src\incioenc.o
                                                  src\common.o
Qei3                                              Libraries\STM32F30x_StdPeriph_Driver\src\incioenc.o
Qei4                                              Libraries\STM32F30x_StdPeriph_Driver\src\incioenc.o
RCC_ADCCLKConfig                                  Libraries\STM32F30x_StdPeriph_Driver\src\stm32f30x_rcc.o
RCC_AHBPeriphClockCmd                             Libraries\STM32F30x_StdPeriph_Driver\src\stm32f30x_rcc.o
                                                  Libraries\STM32F30x_StdPeriph_Driver\src\inciogpio.o
                                                  Utilities\STM32F3_Discovery\stm32f3_discovery.o
                                                  Utilities\STM32F3_Discovery\stm32f3_discovery_l3gd20.o
                                                  Utilities\STM32F3_Discovery\stm32f3_discovery_lsm303dlhc.o
RCC_AHBPeriphResetCmd                             Libraries\STM32F30x_StdPeriph_Driver\src\stm32f30x_rcc.o
                                                  Libraries\STM32F30x_StdPeriph_Driver\src\stm32f30x_adc.o
                                                  Libraries\STM32F30x_StdPeriph_Driver\src\stm32f30x_gpio.o
RCC_APB1PeriphClockCmd                            Libraries\STM32F30x_StdPeriph_Driver\src\stm32f30x_rcc.o
                                                  Libraries\STM32F30x_StdPeriph_Driver\src\inciogpio.o
                                                  Utilities\STM32F3_Discovery\stm32f3_discovery_lsm303dlhc.o
RCC_APB1PeriphResetCmd                            Libraries\STM32F30x_StdPeriph_Driver\src\stm32f30x_rcc.o
                                                  Libraries\STM32F30x_StdPeriph_Driver\src\inciogpio.o
                                                  Libraries\STM32F30x_StdPeriph_Driver\src\stm32f30x_can.o
                                                  Libraries\STM32F30x_StdPeriph_Driver\src\stm32f30x_dac.o
                                                  Libraries\STM32F30x_StdPeriph_Driver\src\stm32f30x_i2c.o
                                                  Libraries\STM32F30x_StdPeriph_Driver\src\stm32f30x_pwr.o
                                                  Libraries\STM32F30x_StdPeriph_Driver\src\stm32f30x_spi.o
                                                  Libraries\STM32F30x_StdPeriph_Driver\src\stm32f30x_tim.o
                                                  Libraries\STM32F30x_StdPeriph_Driver\src\stm32f30x_usart.o
                                                  Libraries\STM32F30x_StdPeriph_Driver\src\stm32f30x_wwdg.o
RCC_APB2PeriphClockCmd                            Libraries\STM32F30x_StdPeriph_Driver\src\stm32f30x_rcc.o
                                                  Libraries\STM32F30x_StdPeriph_Driver\src\inciogpio.o
                                                  Utilities\STM32F3_Discovery\stm32f3_discovery.o
                                                  Utilities\STM32F3_Discovery\stm32f3_discovery_l3gd20.o
RCC_APB2PeriphResetCmd                            Libraries\STM32F30x_StdPeriph_Driver\src\stm32f30x_rcc.o
                                                  Libraries\STM32F30x_StdPeriph_Driver\src\inciogpio.o
                                                  Libraries\STM32F30x_StdPeriph_Driver\src\stm32f30x_spi.o
                                                  Libraries\STM32F30x_StdPeriph_Driver\src\stm32f30x_tim.o
                                                  Libraries\STM32F30x_StdPeriph_Driver\src\stm32f30x_usart.o
RCC_AdjustHSICalibrationValue                     Libraries\STM32F30x_StdPeriph_Driver\src\stm32f30x_rcc.o
RCC_BackupResetCmd                                Libraries\STM32F30x_StdPeriph_Driver\src\stm32f30x_rcc.o
RCC_ClearFlag                                     Libraries\STM32F30x_StdPeriph_Driver\src\stm32f30x_rcc.o
RCC_ClearITPendingBit                             Libraries\STM32F30x_StdPeriph_Driver\src\stm32f30x_rcc.o
RCC_ClockSecuritySystemCmd                        Libraries\STM32F30x_StdPeriph_Driver\src\stm32f30x_rcc.o
RCC_Clocks                                        Libraries\STM32F30x_StdPeriph_Driver\src\inciobdc.o
                                                  Libraries\STM32F30x_StdPeriph_Driver\src\incioenc.o
                                                  Libraries\STM32F30x_StdPeriph_Driver\src\inciogpio.o
                                                  Libraries\STM32F30x_StdPeriph_Driver\src\inciopwm.o
                                                  Libraries\STM32F30x_StdPeriph_Driver\src\inciotim.o
                                                  Libraries\STM32F30x_StdPeriph_Driver\src\inciouart.o
                                                  src\common.o
                                                  src\main.o
RCC_DeInit                                        Libraries\STM32F30x_StdPeriph_Driver\src\stm32f30x_rcc.o
RCC_GetClocksFreq                                 Libraries\STM32F30x_StdPeriph_Driver\src\stm32f30x_rcc.o
                                                  Libraries\STM32F30x_StdPeriph_Driver\src\inciogpio.o
                                                  Libraries\STM32F30x_StdPeriph_Driver\src\stm32f30x_spi.o
                                                  Libraries\STM32F30x_StdPeriph_Driver\src\stm32f30x_usart.o
RCC_GetFlagStatus                                 Libraries\STM32F30x_StdPeriph_Driver\src\stm32f30x_rcc.o
RCC_GetITStatus                                   Libraries\STM32F30x_StdPeriph_Driver\src\stm32f30x_rcc.o
RCC_GetSYSCLKSource                               Libraries\STM32F30x_StdPeriph_Driver\src\stm32f30x_rcc.o
RCC_HCLKConfig                                    Libraries\STM32F30x_StdPeriph_Driver\src\stm32f30x_rcc.o
RCC_HSEConfig                                     Libraries\STM32F30x_StdPeriph_Driver\src\stm32f30x_rcc.o
RCC_HSICmd                                        Libraries\STM32F30x_StdPeriph_Driver\src\stm32f30x_rcc.o
RCC_I2CCLKConfig                                  Libraries\STM32F30x_StdPeriph_Driver\src\stm32f30x_rcc.o
RCC_I2SCLKConfig                                  Libraries\STM32F30x_StdPeriph_Driver\src\stm32f30x_rcc.o
RCC_IRQHandler                                    src\startup_stm32f30x.o
RCC_ITConfig                                      Libraries\STM32F30x_StdPeriph_Driver\src\stm32f30x_rcc.o
RCC_LSEConfig                                     Libraries\STM32F30x_StdPeriph_Driver\src\stm32f30x_rcc.o
RCC_LSEDriveConfig                                Libraries\STM32F30x_StdPeriph_Driver\src\stm32f30x_rcc.o
RCC_LSICmd                                        Libraries\STM32F30x_StdPeriph_Driver\src\stm32f30x_rcc.o
RCC_MCOConfig                                     Libraries\STM32F30x_StdPeriph_Driver\src\stm32f30x_rcc.o
RCC_PCLK1Config                                   Libraries\STM32F30x_StdPeriph_Driver\src\stm32f30x_rcc.o
RCC_PCLK2Config                                   Libraries\STM32F30x_StdPeriph_Driver\src\stm32f30x_rcc.o
RCC_PLLCmd                                        Libraries\STM32F30x_StdPeriph_Driver\src\stm32f30x_rcc.o
RCC_PLLConfig                                     Libraries\STM32F30x_StdPeriph_Driver\src\stm32f30x_rcc.o
RCC_PREDIV1Config                                 Libraries\STM32F30x_StdPeriph_Driver\src\stm32f30x_rcc.o
RCC_RTCCLKCmd                                     Libraries\STM32F30x_StdPeriph_Driver\src\stm32f30x_rcc.o
RCC_RTCCLKConfig                                  Libraries\STM32F30x_StdPeriph_Driver\src\stm32f30x_rcc.o
RCC_SYSCLKConfig                                  Libraries\STM32F30x_StdPeriph_Driver\src\stm32f30x_rcc.o
RCC_TIMCLKConfig                                  Libraries\STM32F30x_StdPeriph_Driver\src\stm32f30x_rcc.o
RCC_USARTCLKConfig                                Libraries\STM32F30x_StdPeriph_Driver\src\stm32f30x_rcc.o
RCC_USBCLKConfig                                  Libraries\STM32F30x_StdPeriph_Driver\src\stm32f30x_rcc.o
RCC_WaitForHSEStartUp                             Libraries\STM32F30x_StdPeriph_Driver\src\stm32f30x_rcc.o
RTC_AlarmCmd                                      Libraries\STM32F30x_StdPeriph_Driver\src\stm32f30x_rtc.o
RTC_AlarmStructInit                               Libraries\STM32F30x_StdPeriph_Driver\src\stm32f30x_rtc.o
RTC_AlarmSubSecondConfig                          Libraries\STM32F30x_StdPeriph_Driver\src\stm32f30x_rtc.o
RTC_Alarm_IRQHandler                              src\startup_stm32f30x.o
RTC_BypassShadowCmd                               Libraries\STM32F30x_StdPeriph_Driver\src\stm32f30x_rtc.o
RTC_CalibOutputCmd                                Libraries\STM32F30x_StdPeriph_Driver\src\stm32f30x_rtc.o
RTC_CalibOutputConfig                             Libraries\STM32F30x_StdPeriph_Driver\src\stm32f30x_rtc.o
RTC_ClearFlag                                     Libraries\STM32F30x_StdPeriph_Driver\src\stm32f30x_rtc.o
RTC_ClearITPendingBit                             Libraries\STM32F30x_StdPeriph_Driver\src\stm32f30x_rtc.o
RTC_DateStructInit                                Libraries\STM32F30x_StdPeriph_Driver\src\stm32f30x_rtc.o
RTC_DayLightSavingConfig                          Libraries\STM32F30x_StdPeriph_Driver\src\stm32f30x_rtc.o
RTC_DeInit                                        Libraries\STM32F30x_StdPeriph_Driver\src\stm32f30x_rtc.o
RTC_EnterInitMode                                 Libraries\STM32F30x_StdPeriph_Driver\src\stm32f30x_rtc.o
RTC_ExitInitMode                                  Libraries\STM32F30x_StdPeriph_Driver\src\stm32f30x_rtc.o
RTC_GetAlarm                                      Libraries\STM32F30x_StdPeriph_Driver\src\stm32f30x_rtc.o
RTC_GetAlarmSubSecond                             Libraries\STM32F30x_StdPeriph_Driver\src\stm32f30x_rtc.o
RTC_GetDate                                       Libraries\STM32F30x_StdPeriph_Driver\src\stm32f30x_rtc.o
RTC_GetFlagStatus                                 Libraries\STM32F30x_StdPeriph_Driver\src\stm32f30x_rtc.o
RTC_GetITStatus                                   Libraries\STM32F30x_StdPeriph_Driver\src\stm32f30x_rtc.o
RTC_GetStoreOperation                             Libraries\STM32F30x_StdPeriph_Driver\src\stm32f30x_rtc.o
RTC_GetSubSecond                                  Libraries\STM32F30x_StdPeriph_Driver\src\stm32f30x_rtc.o
RTC_GetTime                                       Libraries\STM32F30x_StdPeriph_Driver\src\stm32f30x_rtc.o
RTC_GetTimeStamp                                  Libraries\STM32F30x_StdPeriph_Driver\src\stm32f30x_rtc.o
RTC_GetTimeStampSubSecond                         Libraries\STM32F30x_StdPeriph_Driver\src\stm32f30x_rtc.o
RTC_GetWakeUpCounter                              Libraries\STM32F30x_StdPeriph_Driver\src\stm32f30x_rtc.o
RTC_ITConfig                                      Libraries\STM32F30x_StdPeriph_Driver\src\stm32f30x_rtc.o
RTC_Init                                          Libraries\STM32F30x_StdPeriph_Driver\src\stm32f30x_rtc.o
RTC_OutputConfig                                  Libraries\STM32F30x_StdPeriph_Driver\src\stm32f30x_rtc.o
RTC_OutputTypeConfig                              Libraries\STM32F30x_StdPeriph_Driver\src\stm32f30x_rtc.o
RTC_ReadBackupRegister                            Libraries\STM32F30x_StdPeriph_Driver\src\stm32f30x_rtc.o
RTC_RefClockCmd                                   Libraries\STM32F30x_StdPeriph_Driver\src\stm32f30x_rtc.o
RTC_SetAlarm                                      Libraries\STM32F30x_StdPeriph_Driver\src\stm32f30x_rtc.o
RTC_SetDate                                       Libraries\STM32F30x_StdPeriph_Driver\src\stm32f30x_rtc.o
RTC_SetTime                                       Libraries\STM32F30x_StdPeriph_Driver\src\stm32f30x_rtc.o
RTC_SetWakeUpCounter                              Libraries\STM32F30x_StdPeriph_Driver\src\stm32f30x_rtc.o
RTC_SmoothCalibConfig                             Libraries\STM32F30x_StdPeriph_Driver\src\stm32f30x_rtc.o
RTC_StructInit                                    Libraries\STM32F30x_StdPeriph_Driver\src\stm32f30x_rtc.o
RTC_SynchroShiftConfig                            Libraries\STM32F30x_StdPeriph_Driver\src\stm32f30x_rtc.o
RTC_TamperCmd                                     Libraries\STM32F30x_StdPeriph_Driver\src\stm32f30x_rtc.o
RTC_TamperFilterConfig                            Libraries\STM32F30x_StdPeriph_Driver\src\stm32f30x_rtc.o
RTC_TamperPinsPrechargeDuration                   Libraries\STM32F30x_StdPeriph_Driver\src\stm32f30x_rtc.o
RTC_TamperPullUpCmd                               Libraries\STM32F30x_StdPeriph_Driver\src\stm32f30x_rtc.o
RTC_TamperSamplingFreqConfig                      Libraries\STM32F30x_StdPeriph_Driver\src\stm32f30x_rtc.o
RTC_TamperTriggerConfig                           Libraries\STM32F30x_StdPeriph_Driver\src\stm32f30x_rtc.o
RTC_TimeStampCmd                                  Libraries\STM32F30x_StdPeriph_Driver\src\stm32f30x_rtc.o
RTC_TimeStampOnTamperDetectionCmd                 Libraries\STM32F30x_StdPeriph_Driver\src\stm32f30x_rtc.o
RTC_TimeStructInit                                Libraries\STM32F30x_StdPeriph_Driver\src\stm32f30x_rtc.o
RTC_WKUP_IRQHandler                               src\startup_stm32f30x.o
RTC_WaitForSynchro                                Libraries\STM32F30x_StdPeriph_Driver\src\stm32f30x_rtc.o
RTC_WakeUpClockConfig                             Libraries\STM32F30x_StdPeriph_Driver\src\stm32f30x_rtc.o
RTC_WakeUpCmd                                     Libraries\STM32F30x_StdPeriph_Driver\src\stm32f30x_rtc.o
RTC_WriteBackupRegister                           Libraries\STM32F30x_StdPeriph_Driver\src\stm32f30x_rtc.o
RTC_WriteProtectionCmd                            Libraries\STM32F30x_StdPeriph_Driver\src\stm32f30x_rtc.o
ResetQei                                          Libraries\STM32F30x_StdPeriph_Driver\src\incioenc.o
Reset_Handler                                     src\startup_stm32f30x.o
SPI1_IRQHandler                                   src\startup_stm32f30x.o
SPI2_IRQHandler                                   src\startup_stm32f30x.o
SPI3_IRQHandler                                   src\startup_stm32f30x.o
SPI_BiDirectionalLineConfig                       Libraries\STM32F30x_StdPeriph_Driver\src\stm32f30x_spi.o
SPI_CRCLengthConfig                               Libraries\STM32F30x_StdPeriph_Driver\src\stm32f30x_spi.o
SPI_CalculateCRC                                  Libraries\STM32F30x_StdPeriph_Driver\src\stm32f30x_spi.o
SPI_Cmd                                           Libraries\STM32F30x_StdPeriph_Driver\src\stm32f30x_spi.o
                                                  Utilities\STM32F3_Discovery\stm32f3_discovery_l3gd20.o
SPI_DataSizeConfig                                Libraries\STM32F30x_StdPeriph_Driver\src\stm32f30x_spi.o
SPI_GetCRC                                        Libraries\STM32F30x_StdPeriph_Driver\src\stm32f30x_spi.o
SPI_GetCRCPolynomial                              Libraries\STM32F30x_StdPeriph_Driver\src\stm32f30x_spi.o
SPI_GetReceptionFIFOStatus                        Libraries\STM32F30x_StdPeriph_Driver\src\stm32f30x_spi.o
SPI_GetTransmissionFIFOStatus                     Libraries\STM32F30x_StdPeriph_Driver\src\stm32f30x_spi.o
SPI_I2S_ClearFlag                                 Libraries\STM32F30x_StdPeriph_Driver\src\stm32f30x_spi.o
SPI_I2S_DMACmd                                    Libraries\STM32F30x_StdPeriph_Driver\src\stm32f30x_spi.o
SPI_I2S_DeInit                                    Libraries\STM32F30x_StdPeriph_Driver\src\stm32f30x_spi.o
                                                  Utilities\STM32F3_Discovery\stm32f3_discovery_l3gd20.o
SPI_I2S_GetFlagStatus                             Libraries\STM32F30x_StdPeriph_Driver\src\stm32f30x_spi.o
                                                  Utilities\STM32F3_Discovery\stm32f3_discovery_l3gd20.o
SPI_I2S_GetITStatus                               Libraries\STM32F30x_StdPeriph_Driver\src\stm32f30x_spi.o
SPI_I2S_ITConfig                                  Libraries\STM32F30x_StdPeriph_Driver\src\stm32f30x_spi.o
SPI_I2S_ReceiveData16                             Libraries\STM32F30x_StdPeriph_Driver\src\stm32f30x_spi.o
SPI_I2S_SendData16                                Libraries\STM32F30x_StdPeriph_Driver\src\stm32f30x_spi.o
SPI_Init                                          Libraries\STM32F30x_StdPeriph_Driver\src\stm32f30x_spi.o
                                                  Utilities\STM32F3_Discovery\stm32f3_discovery_l3gd20.o
SPI_LastDMATransferCmd                            Libraries\STM32F30x_StdPeriph_Driver\src\stm32f30x_spi.o
SPI_NSSInternalSoftwareConfig                     Libraries\STM32F30x_StdPeriph_Driver\src\stm32f30x_spi.o
SPI_NSSPulseModeCmd                               Libraries\STM32F30x_StdPeriph_Driver\src\stm32f30x_spi.o
SPI_ReceiveData8                                  Libraries\STM32F30x_StdPeriph_Driver\src\stm32f30x_spi.o
                                                  Utilities\STM32F3_Discovery\stm32f3_discovery_l3gd20.o
SPI_RxFIFOThresholdConfig                         Libraries\STM32F30x_StdPeriph_Driver\src\stm32f30x_spi.o
                                                  Utilities\STM32F3_Discovery\stm32f3_discovery_l3gd20.o
SPI_SSOutputCmd                                   Libraries\STM32F30x_StdPeriph_Driver\src\stm32f30x_spi.o
SPI_SendData8                                     Libraries\STM32F30x_StdPeriph_Driver\src\stm32f30x_spi.o
                                                  Utilities\STM32F3_Discovery\stm32f3_discovery_l3gd20.o
SPI_StructInit                                    Libraries\STM32F30x_StdPeriph_Driver\src\stm32f30x_spi.o
SPI_TIModeCmd                                     Libraries\STM32F30x_StdPeriph_Driver\src\stm32f30x_spi.o
SPI_TransmitCRC                                   Libraries\STM32F30x_StdPeriph_Driver\src\stm32f30x_spi.o
STM_EVAL_LEDInit                                  Utilities\STM32F3_Discovery\stm32f3_discovery.o
STM_EVAL_LEDOff                                   Utilities\STM32F3_Discovery\stm32f3_discovery.o
STM_EVAL_LEDOn                                    Utilities\STM32F3_Discovery\stm32f3_discovery.o
STM_EVAL_LEDToggle                                Utilities\STM32F3_Discovery\stm32f3_discovery.o
STM_EVAL_PBGetState                               Utilities\STM32F3_Discovery\stm32f3_discovery.o
STM_EVAL_PBInit                                   Utilities\STM32F3_Discovery\stm32f3_discovery.o
SVC_Handler                                       src\stm32f30x_it.o
SYSCFG_BreakConfig                                Libraries\STM32F30x_StdPeriph_Driver\src\stm32f30x_syscfg.o
SYSCFG_BypassParityCheckDisable                   Libraries\STM32F30x_StdPeriph_Driver\src\stm32f30x_syscfg.o
SYSCFG_ClearFlag                                  Libraries\STM32F30x_StdPeriph_Driver\src\stm32f30x_syscfg.o
SYSCFG_DMAChannelRemapConfig                      Libraries\STM32F30x_StdPeriph_Driver\src\stm32f30x_syscfg.o
SYSCFG_DeInit                                     Libraries\STM32F30x_StdPeriph_Driver\src\stm32f30x_syscfg.o
SYSCFG_EXTILineConfig                             Libraries\STM32F30x_StdPeriph_Driver\src\stm32f30x_syscfg.o
                                                  Utilities\STM32F3_Discovery\stm32f3_discovery.o
                                                  Utilities\STM32F3_Discovery\stm32f3_discovery_lsm303dlhc.o
SYSCFG_EncoderRemapConfig                         Libraries\STM32F30x_StdPeriph_Driver\src\stm32f30x_syscfg.o
SYSCFG_GetFlagStatus                              Libraries\STM32F30x_StdPeriph_Driver\src\stm32f30x_syscfg.o
SYSCFG_I2CFastModePlusConfig                      Libraries\STM32F30x_StdPeriph_Driver\src\stm32f30x_syscfg.o
SYSCFG_ITConfig                                   Libraries\STM32F30x_StdPeriph_Driver\src\stm32f30x_syscfg.o
SYSCFG_MemoryRemapConfig                          Libraries\STM32F30x_StdPeriph_Driver\src\stm32f30x_syscfg.o
SYSCFG_SRAMWRPEnable                              Libraries\STM32F30x_StdPeriph_Driver\src\stm32f30x_syscfg.o
SYSCFG_TriggerRemapConfig                         Libraries\STM32F30x_StdPeriph_Driver\src\stm32f30x_syscfg.o
SYSCFG_USBInterruptLineRemapCmd                   Libraries\STM32F30x_StdPeriph_Driver\src\stm32f30x_syscfg.o
SYSInit                                           Libraries\STM32F30x_StdPeriph_Driver\src\inciogpio.o
                                                  src\main.o
SeeSaw                                            src\common.o
ServoInit                                         src\common.o
StopBDC                                           src\main.o
                                                  src\common.o
SwapBDC                                           src\main.o
                                                  src\common.o
SwapQei                                           Libraries\STM32F30x_StdPeriph_Driver\src\incioenc.o
                                                  src\common.o
Swing                                             src\common.o
SwitchTest                                        src\common.o
SysTick_CLKSourceConfig                           Libraries\STM32F30x_StdPeriph_Driver\src\stm32f30x_misc.o
SysTick_Handler                                   src\main.o
                                                  src\startup_stm32f30x.o
SystemCoreClock                                   src\system_stm32f30x.o
SystemCoreClockUpdate                             src\system_stm32f30x.o
SystemInit                                        src\system_stm32f30x.o
                                                  src\startup_stm32f30x.o
TAMPER_STAMP_IRQHandler                           src\startup_stm32f30x.o
TIM1_BRK_TIM15_IRQHandler                         src\startup_stm32f30x.o
TIM1_CC_IRQHandler                                src\startup_stm32f30x.o
TIM1_TRG_COM_TIM17_IRQHandler                     src\startup_stm32f30x.o
TIM1_UP_TIM16_IRQHandler                          Libraries\STM32F30x_StdPeriph_Driver\src\incioenc.o
                                                  src\startup_stm32f30x.o
TIM2_IRQHandler                                   src\startup_stm32f30x.o
TIM3_IRQHandler                                   src\startup_stm32f30x.o
TIM4_IRQHandler                                   Libraries\STM32F30x_StdPeriph_Driver\src\incioenc.o
                                                  src\startup_stm32f30x.o
TIM6_DAC_IRQHandler                               src\main.o
                                                  src\startup_stm32f30x.o
TIM7_IRQHandler                                   src\main.o
                                                  src\startup_stm32f30x.o
TIM8_BRK_IRQHandler                               src\startup_stm32f30x.o
TIM8_CC_IRQHandler                                src\startup_stm32f30x.o
TIM8_TRG_COM_IRQHandler                           src\startup_stm32f30x.o
TIM8_UP_IRQHandler                                Libraries\STM32F30x_StdPeriph_Driver\src\incioenc.o
                                                  src\startup_stm32f30x.o
TIM_ARRPreloadConfig                              Libraries\STM32F30x_StdPeriph_Driver\src\stm32f30x_tim.o
                                                  Libraries\STM32F30x_StdPeriph_Driver\src\incioenc.o
TIM_BDTRConfig                                    Libraries\STM32F30x_StdPeriph_Driver\src\stm32f30x_tim.o
TIM_BDTRStructInit                                Libraries\STM32F30x_StdPeriph_Driver\src\stm32f30x_tim.o
TIM_Break1Cmd                                     Libraries\STM32F30x_StdPeriph_Driver\src\stm32f30x_tim.o
TIM_Break1Config                                  Libraries\STM32F30x_StdPeriph_Driver\src\stm32f30x_tim.o
TIM_Break2Cmd                                     Libraries\STM32F30x_StdPeriph_Driver\src\stm32f30x_tim.o
TIM_Break2Config                                  Libraries\STM32F30x_StdPeriph_Driver\src\stm32f30x_tim.o
TIM_CCPreloadControl                              Libraries\STM32F30x_StdPeriph_Driver\src\stm32f30x_tim.o
TIM_CCxCmd                                        Libraries\STM32F30x_StdPeriph_Driver\src\stm32f30x_tim.o
TIM_CCxNCmd                                       Libraries\STM32F30x_StdPeriph_Driver\src\stm32f30x_tim.o
TIM_ClearFlag                                     Libraries\STM32F30x_StdPeriph_Driver\src\stm32f30x_tim.o
TIM_ClearITPendingBit                             Libraries\STM32F30x_StdPeriph_Driver\src\stm32f30x_tim.o
                                                  Libraries\STM32F30x_StdPeriph_Driver\src\incioenc.o
                                                  Libraries\STM32F30x_StdPeriph_Driver\src\inciotim.o
TIM_ClearOC1Ref                                   Libraries\STM32F30x_StdPeriph_Driver\src\stm32f30x_tim.o
TIM_ClearOC2Ref                                   Libraries\STM32F30x_StdPeriph_Driver\src\stm32f30x_tim.o
TIM_ClearOC3Ref                                   Libraries\STM32F30x_StdPeriph_Driver\src\stm32f30x_tim.o
TIM_ClearOC4Ref                                   Libraries\STM32F30x_StdPeriph_Driver\src\stm32f30x_tim.o
TIM_ClearOC5Ref                                   Libraries\STM32F30x_StdPeriph_Driver\src\stm32f30x_tim.o
TIM_ClearOC6Ref                                   Libraries\STM32F30x_StdPeriph_Driver\src\stm32f30x_tim.o
TIM_Cmd                                           Libraries\STM32F30x_StdPeriph_Driver\src\stm32f30x_tim.o
                                                  Libraries\STM32F30x_StdPeriph_Driver\src\incioenc.o
                                                  Libraries\STM32F30x_StdPeriph_Driver\src\inciopwm.o
                                                  Libraries\STM32F30x_StdPeriph_Driver\src\inciotim.o
                                                  src\common.o
TIM_CounterModeConfig                             Libraries\STM32F30x_StdPeriph_Driver\src\stm32f30x_tim.o
TIM_CtrlPWMOutputs                                Libraries\STM32F30x_StdPeriph_Driver\src\stm32f30x_tim.o
                                                  Libraries\STM32F30x_StdPeriph_Driver\src\inciopwm.o
                                                  src\common.o
TIM_DMACmd                                        Libraries\STM32F30x_StdPeriph_Driver\src\stm32f30x_tim.o
TIM_DMAConfig                                     Libraries\STM32F30x_StdPeriph_Driver\src\stm32f30x_tim.o
TIM_DeInit                                        Libraries\STM32F30x_StdPeriph_Driver\src\stm32f30x_tim.o
TIM_ETRClockMode1Config                           Libraries\STM32F30x_StdPeriph_Driver\src\stm32f30x_tim.o
TIM_ETRClockMode2Config                           Libraries\STM32F30x_StdPeriph_Driver\src\stm32f30x_tim.o
TIM_ETRConfig                                     Libraries\STM32F30x_StdPeriph_Driver\src\stm32f30x_tim.o
TIM_EncoderInterfaceConfig                        Libraries\STM32F30x_StdPeriph_Driver\src\stm32f30x_tim.o
                                                  Libraries\STM32F30x_StdPeriph_Driver\src\incioenc.o
TIM_ForcedOC1Config                               Libraries\STM32F30x_StdPeriph_Driver\src\stm32f30x_tim.o
TIM_ForcedOC2Config                               Libraries\STM32F30x_StdPeriph_Driver\src\stm32f30x_tim.o
TIM_ForcedOC3Config                               Libraries\STM32F30x_StdPeriph_Driver\src\stm32f30x_tim.o
TIM_ForcedOC4Config                               Libraries\STM32F30x_StdPeriph_Driver\src\stm32f30x_tim.o
TIM_ForcedOC5Config                               Libraries\STM32F30x_StdPeriph_Driver\src\stm32f30x_tim.o
TIM_ForcedOC6Config                               Libraries\STM32F30x_StdPeriph_Driver\src\stm32f30x_tim.o
TIM_GenerateEvent                                 Libraries\STM32F30x_StdPeriph_Driver\src\stm32f30x_tim.o
TIM_GetCapture1                                   Libraries\STM32F30x_StdPeriph_Driver\src\stm32f30x_tim.o
TIM_GetCapture2                                   Libraries\STM32F30x_StdPeriph_Driver\src\stm32f30x_tim.o
TIM_GetCapture3                                   Libraries\STM32F30x_StdPeriph_Driver\src\stm32f30x_tim.o
TIM_GetCapture4                                   Libraries\STM32F30x_StdPeriph_Driver\src\stm32f30x_tim.o
TIM_GetCounter                                    Libraries\STM32F30x_StdPeriph_Driver\src\stm32f30x_tim.o
TIM_GetFlagStatus                                 Libraries\STM32F30x_StdPeriph_Driver\src\stm32f30x_tim.o
TIM_GetITStatus                                   Libraries\STM32F30x_StdPeriph_Driver\src\stm32f30x_tim.o
TIM_GetPrescaler                                  Libraries\STM32F30x_StdPeriph_Driver\src\stm32f30x_tim.o
TIM_ICInit                                        Libraries\STM32F30x_StdPeriph_Driver\src\stm32f30x_tim.o
TIM_ICStructInit                                  Libraries\STM32F30x_StdPeriph_Driver\src\stm32f30x_tim.o
TIM_ITConfig                                      Libraries\STM32F30x_StdPeriph_Driver\src\stm32f30x_tim.o
                                                  Libraries\STM32F30x_StdPeriph_Driver\src\incioenc.o
                                                  Libraries\STM32F30x_StdPeriph_Driver\src\inciotim.o
TIM_ITRxExternalClockConfig                       Libraries\STM32F30x_StdPeriph_Driver\src\stm32f30x_tim.o
TIM_InternalClockConfig                           Libraries\STM32F30x_StdPeriph_Driver\src\stm32f30x_tim.o
TIM_OC1FastConfig                                 Libraries\STM32F30x_StdPeriph_Driver\src\stm32f30x_tim.o
TIM_OC1Init                                       Libraries\STM32F30x_StdPeriph_Driver\src\stm32f30x_tim.o
                                                  Libraries\STM32F30x_StdPeriph_Driver\src\inciopwm.o
                                                  src\common.o
TIM_OC1NPolarityConfig                            Libraries\STM32F30x_StdPeriph_Driver\src\stm32f30x_tim.o
TIM_OC1PolarityConfig                             Libraries\STM32F30x_StdPeriph_Driver\src\stm32f30x_tim.o
TIM_OC1PreloadConfig                              Libraries\STM32F30x_StdPeriph_Driver\src\stm32f30x_tim.o
TIM_OC2FastConfig                                 Libraries\STM32F30x_StdPeriph_Driver\src\stm32f30x_tim.o
TIM_OC2Init                                       Libraries\STM32F30x_StdPeriph_Driver\src\stm32f30x_tim.o
                                                  Libraries\STM32F30x_StdPeriph_Driver\src\inciopwm.o
TIM_OC2NPolarityConfig                            Libraries\STM32F30x_StdPeriph_Driver\src\stm32f30x_tim.o
TIM_OC2PolarityConfig                             Libraries\STM32F30x_StdPeriph_Driver\src\stm32f30x_tim.o
TIM_OC2PreloadConfig                              Libraries\STM32F30x_StdPeriph_Driver\src\stm32f30x_tim.o
TIM_OC3FastConfig                                 Libraries\STM32F30x_StdPeriph_Driver\src\stm32f30x_tim.o
TIM_OC3Init                                       Libraries\STM32F30x_StdPeriph_Driver\src\stm32f30x_tim.o
                                                  Libraries\STM32F30x_StdPeriph_Driver\src\inciopwm.o
TIM_OC3NPolarityConfig                            Libraries\STM32F30x_StdPeriph_Driver\src\stm32f30x_tim.o
TIM_OC3PolarityConfig                             Libraries\STM32F30x_StdPeriph_Driver\src\stm32f30x_tim.o
TIM_OC3PreloadConfig                              Libraries\STM32F30x_StdPeriph_Driver\src\stm32f30x_tim.o
TIM_OC4FastConfig                                 Libraries\STM32F30x_StdPeriph_Driver\src\stm32f30x_tim.o
TIM_OC4Init                                       Libraries\STM32F30x_StdPeriph_Driver\src\stm32f30x_tim.o
                                                  Libraries\STM32F30x_StdPeriph_Driver\src\inciopwm.o
TIM_OC4PolarityConfig                             Libraries\STM32F30x_StdPeriph_Driver\src\stm32f30x_tim.o
TIM_OC4PreloadConfig                              Libraries\STM32F30x_StdPeriph_Driver\src\stm32f30x_tim.o
TIM_OC5Init                                       Libraries\STM32F30x_StdPeriph_Driver\src\stm32f30x_tim.o
TIM_OC5PolarityConfig                             Libraries\STM32F30x_StdPeriph_Driver\src\stm32f30x_tim.o
TIM_OC5PreloadConfig                              Libraries\STM32F30x_StdPeriph_Driver\src\stm32f30x_tim.o
TIM_OC6Init                                       Libraries\STM32F30x_StdPeriph_Driver\src\stm32f30x_tim.o
TIM_OC6PolarityConfig                             Libraries\STM32F30x_StdPeriph_Driver\src\stm32f30x_tim.o
TIM_OC6PreloadConfig                              Libraries\STM32F30x_StdPeriph_Driver\src\stm32f30x_tim.o
TIM_OCInitStructure                               Libraries\STM32F30x_StdPeriph_Driver\src\inciobdc.o
                                                  Libraries\STM32F30x_StdPeriph_Driver\src\incioenc.o
                                                  Libraries\STM32F30x_StdPeriph_Driver\src\inciogpio.o
                                                  Libraries\STM32F30x_StdPeriph_Driver\src\inciopwm.o
                                                  Libraries\STM32F30x_StdPeriph_Driver\src\inciotim.o
                                                  Libraries\STM32F30x_StdPeriph_Driver\src\inciouart.o
                                                  src\common.o
                                                  src\main.o
TIM_OCStructInit                                  Libraries\STM32F30x_StdPeriph_Driver\src\stm32f30x_tim.o
                                                  Libraries\STM32F30x_StdPeriph_Driver\src\inciopwm.o
TIM_PWMIConfig                                    Libraries\STM32F30x_StdPeriph_Driver\src\stm32f30x_tim.o
TIM_PrescalerConfig                               Libraries\STM32F30x_StdPeriph_Driver\src\stm32f30x_tim.o
TIM_RemapConfig                                   Libraries\STM32F30x_StdPeriph_Driver\src\stm32f30x_tim.o
TIM_SelectCCDMA                                   Libraries\STM32F30x_StdPeriph_Driver\src\stm32f30x_tim.o
TIM_SelectCOM                                     Libraries\STM32F30x_StdPeriph_Driver\src\stm32f30x_tim.o
TIM_SelectGC5C1                                   Libraries\STM32F30x_StdPeriph_Driver\src\stm32f30x_tim.o
TIM_SelectGC5C2                                   Libraries\STM32F30x_StdPeriph_Driver\src\stm32f30x_tim.o
TIM_SelectGC5C3                                   Libraries\STM32F30x_StdPeriph_Driver\src\stm32f30x_tim.o
TIM_SelectHallSensor                              Libraries\STM32F30x_StdPeriph_Driver\src\stm32f30x_tim.o
TIM_SelectInputTrigger                            Libraries\STM32F30x_StdPeriph_Driver\src\stm32f30x_tim.o
TIM_SelectMasterSlaveMode                         Libraries\STM32F30x_StdPeriph_Driver\src\stm32f30x_tim.o
TIM_SelectOCREFClear                              Libraries\STM32F30x_StdPeriph_Driver\src\stm32f30x_tim.o
TIM_SelectOCxM                                    Libraries\STM32F30x_StdPeriph_Driver\src\stm32f30x_tim.o
TIM_SelectOnePulseMode                            Libraries\STM32F30x_StdPeriph_Driver\src\stm32f30x_tim.o
TIM_SelectOutputTrigger                           Libraries\STM32F30x_StdPeriph_Driver\src\stm32f30x_tim.o
TIM_SelectOutputTrigger2                          Libraries\STM32F30x_StdPeriph_Driver\src\stm32f30x_tim.o
TIM_SelectSlaveMode                               Libraries\STM32F30x_StdPeriph_Driver\src\stm32f30x_tim.o
TIM_SetAutoreload                                 Libraries\STM32F30x_StdPeriph_Driver\src\stm32f30x_tim.o
TIM_SetClockDivision                              Libraries\STM32F30x_StdPeriph_Driver\src\stm32f30x_tim.o
TIM_SetCompare1                                   Libraries\STM32F30x_StdPeriph_Driver\src\stm32f30x_tim.o
TIM_SetCompare2                                   Libraries\STM32F30x_StdPeriph_Driver\src\stm32f30x_tim.o
TIM_SetCompare3                                   Libraries\STM32F30x_StdPeriph_Driver\src\stm32f30x_tim.o
TIM_SetCompare4                                   Libraries\STM32F30x_StdPeriph_Driver\src\stm32f30x_tim.o
TIM_SetCompare5                                   Libraries\STM32F30x_StdPeriph_Driver\src\stm32f30x_tim.o
TIM_SetCompare6                                   Libraries\STM32F30x_StdPeriph_Driver\src\stm32f30x_tim.o
TIM_SetCounter                                    Libraries\STM32F30x_StdPeriph_Driver\src\stm32f30x_tim.o
TIM_SetIC1Prescaler                               Libraries\STM32F30x_StdPeriph_Driver\src\stm32f30x_tim.o
TIM_SetIC2Prescaler                               Libraries\STM32F30x_StdPeriph_Driver\src\stm32f30x_tim.o
TIM_SetIC3Prescaler                               Libraries\STM32F30x_StdPeriph_Driver\src\stm32f30x_tim.o
TIM_SetIC4Prescaler                               Libraries\STM32F30x_StdPeriph_Driver\src\stm32f30x_tim.o
TIM_TIxExternalClockConfig                        Libraries\STM32F30x_StdPeriph_Driver\src\stm32f30x_tim.o
TIM_TimeBaseInit                                  Libraries\STM32F30x_StdPeriph_Driver\src\stm32f30x_tim.o
                                                  Libraries\STM32F30x_StdPeriph_Driver\src\incioenc.o
                                                  Libraries\STM32F30x_StdPeriph_Driver\src\inciopwm.o
                                                  Libraries\STM32F30x_StdPeriph_Driver\src\inciotim.o
TIM_TimeBaseStructInit                            Libraries\STM32F30x_StdPeriph_Driver\src\stm32f30x_tim.o
TIM_TimeBaseStructure                             Libraries\STM32F30x_StdPeriph_Driver\src\inciobdc.o
                                                  Libraries\STM32F30x_StdPeriph_Driver\src\incioenc.o
                                                  Libraries\STM32F30x_StdPeriph_Driver\src\inciogpio.o
                                                  Libraries\STM32F30x_StdPeriph_Driver\src\inciopwm.o
                                                  Libraries\STM32F30x_StdPeriph_Driver\src\inciotim.o
                                                  Libraries\STM32F30x_StdPeriph_Driver\src\inciouart.o
                                                  src\common.o
                                                  src\main.o
TIM_UIFRemap                                      Libraries\STM32F30x_StdPeriph_Driver\src\stm32f30x_tim.o
TIM_UpdateDisableConfig                           Libraries\STM32F30x_StdPeriph_Driver\src\stm32f30x_tim.o
TIM_UpdateRequestConfig                           Libraries\STM32F30x_StdPeriph_Driver\src\stm32f30x_tim.o
TimerInit                                         Libraries\STM32F30x_StdPeriph_Driver\src\inciotim.o
                                                  src\common.o
TimingDelay                                       Libraries\STM32F30x_StdPeriph_Driver\src\inciogpio.o
UART4_IRQHandler                                  Libraries\STM32F30x_StdPeriph_Driver\src\inciouart.o
                                                  src\startup_stm32f30x.o
UART4_directprint                                 Libraries\STM32F30x_StdPeriph_Driver\src\inciouart.o
                                                  Libraries\STM32F30x_StdPeriph_Driver\src\inciogpio.o
                                                  src\main.o
UART4_directputc                                  Libraries\STM32F30x_StdPeriph_Driver\src\inciouart.o
UART5_IRQHandler                                  Libraries\STM32F30x_StdPeriph_Driver\src\inciouart.o
                                                  src\startup_stm32f30x.o
UART5_directprint                                 Libraries\STM32F30x_StdPeriph_Driver\src\inciouart.o
                                                  Libraries\STM32F30x_StdPeriph_Driver\src\inciogpio.o
UART5_directputc                                  Libraries\STM32F30x_StdPeriph_Driver\src\inciouart.o
UARTInit                                          Libraries\STM32F30x_StdPeriph_Driver\src\inciouart.o
USART1_IRQHandler                                 src\startup_stm32f30x.o
USART2_IRQHandler                                 src\startup_stm32f30x.o
USART3_IRQHandler                                 src\startup_stm32f30x.o
USART_AddressDetectionConfig                      Libraries\STM32F30x_StdPeriph_Driver\src\stm32f30x_usart.o
USART_AutoBaudRateCmd                             Libraries\STM32F30x_StdPeriph_Driver\src\stm32f30x_usart.o
USART_AutoBaudRateConfig                          Libraries\STM32F30x_StdPeriph_Driver\src\stm32f30x_usart.o
USART_ClearFlag                                   Libraries\STM32F30x_StdPeriph_Driver\src\stm32f30x_usart.o
USART_ClearITPendingBit                           Libraries\STM32F30x_StdPeriph_Driver\src\stm32f30x_usart.o
USART_ClockInit                                   Libraries\STM32F30x_StdPeriph_Driver\src\stm32f30x_usart.o
USART_ClockStructInit                             Libraries\STM32F30x_StdPeriph_Driver\src\stm32f30x_usart.o
USART_Cmd                                         Libraries\STM32F30x_StdPeriph_Driver\src\stm32f30x_usart.o
                                                  Libraries\STM32F30x_StdPeriph_Driver\src\inciouart.o
USART_DECmd                                       Libraries\STM32F30x_StdPeriph_Driver\src\stm32f30x_usart.o
USART_DEPolarityConfig                            Libraries\STM32F30x_StdPeriph_Driver\src\stm32f30x_usart.o
USART_DMACmd                                      Libraries\STM32F30x_StdPeriph_Driver\src\stm32f30x_usart.o
USART_DMAReceptionErrorConfig                     Libraries\STM32F30x_StdPeriph_Driver\src\stm32f30x_usart.o
USART_DataInvCmd                                  Libraries\STM32F30x_StdPeriph_Driver\src\stm32f30x_usart.o
USART_DeInit                                      Libraries\STM32F30x_StdPeriph_Driver\src\stm32f30x_usart.o
USART_DirectionModeCmd                            Libraries\STM32F30x_StdPeriph_Driver\src\stm32f30x_usart.o
USART_GetFlagStatus                               Libraries\STM32F30x_StdPeriph_Driver\src\stm32f30x_usart.o
                                                  Libraries\STM32F30x_StdPeriph_Driver\src\inciouart.o
USART_GetITStatus                                 Libraries\STM32F30x_StdPeriph_Driver\src\stm32f30x_usart.o
USART_HalfDuplexCmd                               Libraries\STM32F30x_StdPeriph_Driver\src\stm32f30x_usart.o
USART_ITConfig                                    Libraries\STM32F30x_StdPeriph_Driver\src\stm32f30x_usart.o
                                                  Libraries\STM32F30x_StdPeriph_Driver\src\inciouart.o
USART_Init                                        Libraries\STM32F30x_StdPeriph_Driver\src\stm32f30x_usart.o
                                                  Libraries\STM32F30x_StdPeriph_Driver\src\inciouart.o
USART_InitStructure                               Libraries\STM32F30x_StdPeriph_Driver\src\inciobdc.o
                                                  Libraries\STM32F30x_StdPeriph_Driver\src\incioenc.o
                                                  Libraries\STM32F30x_StdPeriph_Driver\src\inciogpio.o
                                                  Libraries\STM32F30x_StdPeriph_Driver\src\inciopwm.o
                                                  Libraries\STM32F30x_StdPeriph_Driver\src\inciotim.o
                                                  Libraries\STM32F30x_StdPeriph_Driver\src\inciouart.o
                                                  src\common.o
                                                  src\main.o
USART_InvPinCmd                                   Libraries\STM32F30x_StdPeriph_Driver\src\stm32f30x_usart.o
USART_IrDACmd                                     Libraries\STM32F30x_StdPeriph_Driver\src\stm32f30x_usart.o
USART_IrDAConfig                                  Libraries\STM32F30x_StdPeriph_Driver\src\stm32f30x_usart.o
USART_LINBreakDetectLengthConfig                  Libraries\STM32F30x_StdPeriph_Driver\src\stm32f30x_usart.o
USART_LINCmd                                      Libraries\STM32F30x_StdPeriph_Driver\src\stm32f30x_usart.o
USART_MSBFirstCmd                                 Libraries\STM32F30x_StdPeriph_Driver\src\stm32f30x_usart.o
USART_MuteModeCmd                                 Libraries\STM32F30x_StdPeriph_Driver\src\stm32f30x_usart.o
USART_MuteModeWakeUpConfig                        Libraries\STM32F30x_StdPeriph_Driver\src\stm32f30x_usart.o
USART_OneBitMethodCmd                             Libraries\STM32F30x_StdPeriph_Driver\src\stm32f30x_usart.o
USART_OverSampling8Cmd                            Libraries\STM32F30x_StdPeriph_Driver\src\stm32f30x_usart.o
USART_OverrunDetectionConfig                      Libraries\STM32F30x_StdPeriph_Driver\src\stm32f30x_usart.o
USART_ReceiveData                                 Libraries\STM32F30x_StdPeriph_Driver\src\stm32f30x_usart.o
                                                  Libraries\STM32F30x_StdPeriph_Driver\src\inciouart.o
USART_ReceiverTimeOutCmd                          Libraries\STM32F30x_StdPeriph_Driver\src\stm32f30x_usart.o
USART_RequestCmd                                  Libraries\STM32F30x_StdPeriph_Driver\src\stm32f30x_usart.o
USART_STOPModeCmd                                 Libraries\STM32F30x_StdPeriph_Driver\src\stm32f30x_usart.o
USART_SWAPPinCmd                                  Libraries\STM32F30x_StdPeriph_Driver\src\stm32f30x_usart.o
USART_SendData                                    Libraries\STM32F30x_StdPeriph_Driver\src\stm32f30x_usart.o
                                                  Libraries\STM32F30x_StdPeriph_Driver\src\inciouart.o
USART_SetAddress                                  Libraries\STM32F30x_StdPeriph_Driver\src\stm32f30x_usart.o
USART_SetAutoRetryCount                           Libraries\STM32F30x_StdPeriph_Driver\src\stm32f30x_usart.o
USART_SetBlockLength                              Libraries\STM32F30x_StdPeriph_Driver\src\stm32f30x_usart.o
USART_SetDEAssertionTime                          Libraries\STM32F30x_StdPeriph_Driver\src\stm32f30x_usart.o
USART_SetDEDeassertionTime                        Libraries\STM32F30x_StdPeriph_Driver\src\stm32f30x_usart.o
USART_SetGuardTime                                Libraries\STM32F30x_StdPeriph_Driver\src\stm32f30x_usart.o
USART_SetPrescaler                                Libraries\STM32F30x_StdPeriph_Driver\src\stm32f30x_usart.o
USART_SetReceiverTimeOut                          Libraries\STM32F30x_StdPeriph_Driver\src\stm32f30x_usart.o
USART_SmartCardCmd                                Libraries\STM32F30x_StdPeriph_Driver\src\stm32f30x_usart.o
USART_SmartCardNACKCmd                            Libraries\STM32F30x_StdPeriph_Driver\src\stm32f30x_usart.o
USART_StopModeWakeUpSourceConfig                  Libraries\STM32F30x_StdPeriph_Driver\src\stm32f30x_usart.o
USART_StructInit                                  Libraries\STM32F30x_StdPeriph_Driver\src\stm32f30x_usart.o
USBWakeUp_IRQHandler                              src\startup_stm32f30x.o
USBWakeUp_RMP_IRQHandler                          src\startup_stm32f30x.o
USB_HP_CAN1_TX_IRQHandler                         src\startup_stm32f30x.o
USB_HP_IRQHandler                                 src\startup_stm32f30x.o
USB_LP_CAN1_RX0_IRQHandler                        src\startup_stm32f30x.o
USB_LP_IRQHandler                                 src\startup_stm32f30x.o
Uart4Data                                         Libraries\STM32F30x_StdPeriph_Driver\src\inciouart.o
Uart5Data                                         Libraries\STM32F30x_StdPeriph_Driver\src\inciouart.o
UsageFault_Handler                                src\stm32f30x_it.o
UserButtonPressed                                 Libraries\STM32F30x_StdPeriph_Driver\src\inciogpio.o
WWDG_ClearFlag                                    Libraries\STM32F30x_StdPeriph_Driver\src\stm32f30x_wwdg.o
WWDG_DeInit                                       Libraries\STM32F30x_StdPeriph_Driver\src\stm32f30x_wwdg.o
WWDG_Enable                                       Libraries\STM32F30x_StdPeriph_Driver\src\stm32f30x_wwdg.o
WWDG_EnableIT                                     Libraries\STM32F30x_StdPeriph_Driver\src\stm32f30x_wwdg.o
WWDG_GetFlagStatus                                Libraries\STM32F30x_StdPeriph_Driver\src\stm32f30x_wwdg.o
WWDG_IRQHandler                                   src\startup_stm32f30x.o
WWDG_SetCounter                                   Libraries\STM32F30x_StdPeriph_Driver\src\stm32f30x_wwdg.o
WWDG_SetPrescaler                                 Libraries\STM32F30x_StdPeriph_Driver\src\stm32f30x_wwdg.o
WWDG_SetWindowValue                               Libraries\STM32F30x_StdPeriph_Driver\src\stm32f30x_wwdg.o
WriteBDC                                          src\main.o
                                                  src\common.o
WriteQei                                          Libraries\STM32F30x_StdPeriph_Driver\src\incioenc.o
_Jv_RegisterClasses                               c:/program files (x86)/atollic/truestudio for arm lite 4.3.1/armtools/bin/../lib/gcc/arm-atollic-eabi/4.7.3/armv7e-m/fpu/crtbegin.o
__aeabi_d2f                                       c:/program files (x86)/atollic/truestudio for arm lite 4.3.1/armtools/bin/../lib/gcc/arm-atollic-eabi/4.7.3/armv7e-m/fpu\libgcc.a(_arm_truncdfsf2.o)
                                                  src\tiny_printf.o
__assert                                          src\main.o
__assert_func                                     src\main.o
__deregister_frame_info                           c:/program files (x86)/atollic/truestudio for arm lite 4.3.1/armtools/bin/../lib/gcc/arm-atollic-eabi/4.7.3/armv7e-m/fpu/crtbegin.o
__dso_handle                                      c:/program files (x86)/atollic/truestudio for arm lite 4.3.1/armtools/bin/../lib/gcc/arm-atollic-eabi/4.7.3/armv7e-m/fpu/crtbegin.o
__env                                             c:/program files (x86)/atollic/truestudio for arm lite 4.3.1/armtools/bin/../lib/gcc/arm-atollic-eabi/4.7.3/../../../../arm-atollic-eabi/lib/armv7e-m/fpu\libc.a(lib_a-syscalls.o)
__init_array_end                                  c:/program files (x86)/atollic/truestudio for arm lite 4.3.1/armtools/bin/../lib/gcc/arm-atollic-eabi/4.7.3/../../../../arm-atollic-eabi/lib/armv7e-m/fpu\libc.a(lib_a-init.o)
__init_array_start                                c:/program files (x86)/atollic/truestudio for arm lite 4.3.1/armtools/bin/../lib/gcc/arm-atollic-eabi/4.7.3/../../../../arm-atollic-eabi/lib/armv7e-m/fpu\libc.a(lib_a-init.o)
__libc_init_array                                 c:/program files (x86)/atollic/truestudio for arm lite 4.3.1/armtools/bin/../lib/gcc/arm-atollic-eabi/4.7.3/../../../../arm-atollic-eabi/lib/armv7e-m/fpu\libc.a(lib_a-init.o)
                                                  src\startup_stm32f30x.o
__malloc_av_                                      c:/program files (x86)/atollic/truestudio for arm lite 4.3.1/armtools/bin/../lib/gcc/arm-atollic-eabi/4.7.3/../../../../arm-atollic-eabi/lib/armv7e-m/fpu\libc.a(lib_a-mallocr.o)
                                                  c:/program files (x86)/atollic/truestudio for arm lite 4.3.1/armtools/bin/../lib/gcc/arm-atollic-eabi/4.7.3/../../../../arm-atollic-eabi/lib/armv7e-m/fpu\libc.a(lib_a-freer.o)
__malloc_current_mallinfo                         c:/program files (x86)/atollic/truestudio for arm lite 4.3.1/armtools/bin/../lib/gcc/arm-atollic-eabi/4.7.3/../../../../arm-atollic-eabi/lib/armv7e-m/fpu\libc.a(lib_a-mallocr.o)
                                                  c:/program files (x86)/atollic/truestudio for arm lite 4.3.1/armtools/bin/../lib/gcc/arm-atollic-eabi/4.7.3/../../../../arm-atollic-eabi/lib/armv7e-m/fpu\libc.a(lib_a-freer.o)
__malloc_lock                                     c:/program files (x86)/atollic/truestudio for arm lite 4.3.1/armtools/bin/../lib/gcc/arm-atollic-eabi/4.7.3/../../../../arm-atollic-eabi/lib/armv7e-m/fpu\libc.a(lib_a-mlock.o)
                                                  c:/program files (x86)/atollic/truestudio for arm lite 4.3.1/armtools/bin/../lib/gcc/arm-atollic-eabi/4.7.3/../../../../arm-atollic-eabi/lib/armv7e-m/fpu\libc.a(lib_a-mallocr.o)
                                                  c:/program files (x86)/atollic/truestudio for arm lite 4.3.1/armtools/bin/../lib/gcc/arm-atollic-eabi/4.7.3/../../../../arm-atollic-eabi/lib/armv7e-m/fpu\libc.a(lib_a-freer.o)
__malloc_max_sbrked_mem                           c:/program files (x86)/atollic/truestudio for arm lite 4.3.1/armtools/bin/../lib/gcc/arm-atollic-eabi/4.7.3/../../../../arm-atollic-eabi/lib/armv7e-m/fpu\libc.a(lib_a-mallocr.o)
__malloc_max_total_mem                            c:/program files (x86)/atollic/truestudio for arm lite 4.3.1/armtools/bin/../lib/gcc/arm-atollic-eabi/4.7.3/../../../../arm-atollic-eabi/lib/armv7e-m/fpu\libc.a(lib_a-mallocr.o)
__malloc_sbrk_base                                c:/program files (x86)/atollic/truestudio for arm lite 4.3.1/armtools/bin/../lib/gcc/arm-atollic-eabi/4.7.3/../../../../arm-atollic-eabi/lib/armv7e-m/fpu\libc.a(lib_a-mallocr.o)
                                                  c:/program files (x86)/atollic/truestudio for arm lite 4.3.1/armtools/bin/../lib/gcc/arm-atollic-eabi/4.7.3/../../../../arm-atollic-eabi/lib/armv7e-m/fpu\libc.a(lib_a-freer.o)
__malloc_top_pad                                  c:/program files (x86)/atollic/truestudio for arm lite 4.3.1/armtools/bin/../lib/gcc/arm-atollic-eabi/4.7.3/../../../../arm-atollic-eabi/lib/armv7e-m/fpu\libc.a(lib_a-mallocr.o)
                                                  c:/program files (x86)/atollic/truestudio for arm lite 4.3.1/armtools/bin/../lib/gcc/arm-atollic-eabi/4.7.3/../../../../arm-atollic-eabi/lib/armv7e-m/fpu\libc.a(lib_a-freer.o)
__malloc_trim_threshold                           c:/program files (x86)/atollic/truestudio for arm lite 4.3.1/armtools/bin/../lib/gcc/arm-atollic-eabi/4.7.3/../../../../arm-atollic-eabi/lib/armv7e-m/fpu\libc.a(lib_a-mallocr.o)
                                                  c:/program files (x86)/atollic/truestudio for arm lite 4.3.1/armtools/bin/../lib/gcc/arm-atollic-eabi/4.7.3/../../../../arm-atollic-eabi/lib/armv7e-m/fpu\libc.a(lib_a-freer.o)
__malloc_unlock                                   c:/program files (x86)/atollic/truestudio for arm lite 4.3.1/armtools/bin/../lib/gcc/arm-atollic-eabi/4.7.3/../../../../arm-atollic-eabi/lib/armv7e-m/fpu\libc.a(lib_a-mlock.o)
                                                  c:/program files (x86)/atollic/truestudio for arm lite 4.3.1/armtools/bin/../lib/gcc/arm-atollic-eabi/4.7.3/../../../../arm-atollic-eabi/lib/armv7e-m/fpu\libc.a(lib_a-mallocr.o)
                                                  c:/program files (x86)/atollic/truestudio for arm lite 4.3.1/armtools/bin/../lib/gcc/arm-atollic-eabi/4.7.3/../../../../arm-atollic-eabi/lib/armv7e-m/fpu\libc.a(lib_a-freer.o)
__preinit_array_end                               c:/program files (x86)/atollic/truestudio for arm lite 4.3.1/armtools/bin/../lib/gcc/arm-atollic-eabi/4.7.3/../../../../arm-atollic-eabi/lib/armv7e-m/fpu\libc.a(lib_a-init.o)
__preinit_array_start                             c:/program files (x86)/atollic/truestudio for arm lite 4.3.1/armtools/bin/../lib/gcc/arm-atollic-eabi/4.7.3/../../../../arm-atollic-eabi/lib/armv7e-m/fpu\libc.a(lib_a-init.o)
__register_frame_info                             c:/program files (x86)/atollic/truestudio for arm lite 4.3.1/armtools/bin/../lib/gcc/arm-atollic-eabi/4.7.3/armv7e-m/fpu/crtbegin.o
__sf_fake_stderr                                  c:/program files (x86)/atollic/truestudio for arm lite 4.3.1/armtools/bin/../lib/gcc/arm-atollic-eabi/4.7.3/../../../../arm-atollic-eabi/lib/armv7e-m/fpu\libc.a(lib_a-impure.o)
__sf_fake_stdin                                   c:/program files (x86)/atollic/truestudio for arm lite 4.3.1/armtools/bin/../lib/gcc/arm-atollic-eabi/4.7.3/../../../../arm-atollic-eabi/lib/armv7e-m/fpu\libc.a(lib_a-impure.o)
__sf_fake_stdout                                  c:/program files (x86)/atollic/truestudio for arm lite 4.3.1/armtools/bin/../lib/gcc/arm-atollic-eabi/4.7.3/../../../../arm-atollic-eabi/lib/armv7e-m/fpu\libc.a(lib_a-impure.o)
__truncdfsf2                                      c:/program files (x86)/atollic/truestudio for arm lite 4.3.1/armtools/bin/../lib/gcc/arm-atollic-eabi/4.7.3/armv7e-m/fpu\libgcc.a(_arm_truncdfsf2.o)
_close                                            c:/program files (x86)/atollic/truestudio for arm lite 4.3.1/armtools/bin/../lib/gcc/arm-atollic-eabi/4.7.3/../../../../arm-atollic-eabi/lib/armv7e-m/fpu\libc.a(lib_a-syscalls.o)
_ebss                                             src\startup_stm32f30x.o
_edata                                            src\startup_stm32f30x.o
_estack                                           src\startup_stm32f30x.o
_execve                                           c:/program files (x86)/atollic/truestudio for arm lite 4.3.1/armtools/bin/../lib/gcc/arm-atollic-eabi/4.7.3/../../../../arm-atollic-eabi/lib/armv7e-m/fpu\libc.a(lib_a-syscalls.o)
_exit                                             c:/program files (x86)/atollic/truestudio for arm lite 4.3.1/armtools/bin/../lib/gcc/arm-atollic-eabi/4.7.3/../../../../arm-atollic-eabi/lib/armv7e-m/fpu\libc.a(lib_a-syscalls.o)
_fini                                             c:/program files (x86)/atollic/truestudio for arm lite 4.3.1/armtools/bin/../lib/gcc/arm-atollic-eabi/4.7.3/armv7e-m/fpu/crti.o
_fork                                             c:/program files (x86)/atollic/truestudio for arm lite 4.3.1/armtools/bin/../lib/gcc/arm-atollic-eabi/4.7.3/../../../../arm-atollic-eabi/lib/armv7e-m/fpu\libc.a(lib_a-syscalls.o)
_free_r                                           c:/program files (x86)/atollic/truestudio for arm lite 4.3.1/armtools/bin/../lib/gcc/arm-atollic-eabi/4.7.3/../../../../arm-atollic-eabi/lib/armv7e-m/fpu\libc.a(lib_a-freer.o)
                                                  c:/program files (x86)/atollic/truestudio for arm lite 4.3.1/armtools/bin/../lib/gcc/arm-atollic-eabi/4.7.3/../../../../arm-atollic-eabi/lib/armv7e-m/fpu\libc.a(lib_a-mallocr.o)
                                                  c:/program files (x86)/atollic/truestudio for arm lite 4.3.1/armtools/bin/../lib/gcc/arm-atollic-eabi/4.7.3/../../../../arm-atollic-eabi/lib/armv7e-m/fpu\libc.a(lib_a-reent.o)
_fstat                                            c:/program files (x86)/atollic/truestudio for arm lite 4.3.1/armtools/bin/../lib/gcc/arm-atollic-eabi/4.7.3/../../../../arm-atollic-eabi/lib/armv7e-m/fpu\libc.a(lib_a-syscalls.o)
_getpid                                           c:/program files (x86)/atollic/truestudio for arm lite 4.3.1/armtools/bin/../lib/gcc/arm-atollic-eabi/4.7.3/../../../../arm-atollic-eabi/lib/armv7e-m/fpu\libc.a(lib_a-syscalls.o)
_global_impure_ptr                                c:/program files (x86)/atollic/truestudio for arm lite 4.3.1/armtools/bin/../lib/gcc/arm-atollic-eabi/4.7.3/../../../../arm-atollic-eabi/lib/armv7e-m/fpu\libc.a(lib_a-impure.o)
_impure_ptr                                       c:/program files (x86)/atollic/truestudio for arm lite 4.3.1/armtools/bin/../lib/gcc/arm-atollic-eabi/4.7.3/../../../../arm-atollic-eabi/lib/armv7e-m/fpu\libc.a(lib_a-impure.o)
                                                  c:/program files (x86)/atollic/truestudio for arm lite 4.3.1/armtools/bin/../lib/gcc/arm-atollic-eabi/4.7.3/../../../../arm-atollic-eabi/lib/armv7e-m/fpu\libc.a(lib_a-reent.o)
_init                                             c:/program files (x86)/atollic/truestudio for arm lite 4.3.1/armtools/bin/../lib/gcc/arm-atollic-eabi/4.7.3/armv7e-m/fpu/crti.o
                                                  c:/program files (x86)/atollic/truestudio for arm lite 4.3.1/armtools/bin/../lib/gcc/arm-atollic-eabi/4.7.3/../../../../arm-atollic-eabi/lib/armv7e-m/fpu\libc.a(lib_a-init.o)
_isatty                                           c:/program files (x86)/atollic/truestudio for arm lite 4.3.1/armtools/bin/../lib/gcc/arm-atollic-eabi/4.7.3/../../../../arm-atollic-eabi/lib/armv7e-m/fpu\libc.a(lib_a-syscalls.o)
_kill                                             c:/program files (x86)/atollic/truestudio for arm lite 4.3.1/armtools/bin/../lib/gcc/arm-atollic-eabi/4.7.3/../../../../arm-atollic-eabi/lib/armv7e-m/fpu\libc.a(lib_a-syscalls.o)
_link                                             c:/program files (x86)/atollic/truestudio for arm lite 4.3.1/armtools/bin/../lib/gcc/arm-atollic-eabi/4.7.3/../../../../arm-atollic-eabi/lib/armv7e-m/fpu\libc.a(lib_a-syscalls.o)
_lseek                                            c:/program files (x86)/atollic/truestudio for arm lite 4.3.1/armtools/bin/../lib/gcc/arm-atollic-eabi/4.7.3/../../../../arm-atollic-eabi/lib/armv7e-m/fpu\libc.a(lib_a-syscalls.o)
_malloc_r                                         c:/program files (x86)/atollic/truestudio for arm lite 4.3.1/armtools/bin/../lib/gcc/arm-atollic-eabi/4.7.3/../../../../arm-atollic-eabi/lib/armv7e-m/fpu\libc.a(lib_a-mallocr.o)
_malloc_trim_r                                    c:/program files (x86)/atollic/truestudio for arm lite 4.3.1/armtools/bin/../lib/gcc/arm-atollic-eabi/4.7.3/../../../../arm-atollic-eabi/lib/armv7e-m/fpu\libc.a(lib_a-freer.o)
_open                                             c:/program files (x86)/atollic/truestudio for arm lite 4.3.1/armtools/bin/../lib/gcc/arm-atollic-eabi/4.7.3/../../../../arm-atollic-eabi/lib/armv7e-m/fpu\libc.a(lib_a-syscalls.o)
_read                                             c:/program files (x86)/atollic/truestudio for arm lite 4.3.1/armtools/bin/../lib/gcc/arm-atollic-eabi/4.7.3/../../../../arm-atollic-eabi/lib/armv7e-m/fpu\libc.a(lib_a-syscalls.o)
_reclaim_reent                                    c:/program files (x86)/atollic/truestudio for arm lite 4.3.1/armtools/bin/../lib/gcc/arm-atollic-eabi/4.7.3/../../../../arm-atollic-eabi/lib/armv7e-m/fpu\libc.a(lib_a-reent.o)
_sbrk                                             c:/program files (x86)/atollic/truestudio for arm lite 4.3.1/armtools/bin/../lib/gcc/arm-atollic-eabi/4.7.3/../../../../arm-atollic-eabi/lib/armv7e-m/fpu\libc.a(lib_a-syscalls.o)
                                                  c:/program files (x86)/atollic/truestudio for arm lite 4.3.1/armtools/bin/../lib/gcc/arm-atollic-eabi/4.7.3/../../../../arm-atollic-eabi/lib/armv7e-m/fpu\libc.a(lib_a-sbrkr.o)
_sbrk_r                                           c:/program files (x86)/atollic/truestudio for arm lite 4.3.1/armtools/bin/../lib/gcc/arm-atollic-eabi/4.7.3/../../../../arm-atollic-eabi/lib/armv7e-m/fpu\libc.a(lib_a-sbrkr.o)
                                                  c:/program files (x86)/atollic/truestudio for arm lite 4.3.1/armtools/bin/../lib/gcc/arm-atollic-eabi/4.7.3/../../../../arm-atollic-eabi/lib/armv7e-m/fpu\libc.a(lib_a-mallocr.o)
                                                  c:/program files (x86)/atollic/truestudio for arm lite 4.3.1/armtools/bin/../lib/gcc/arm-atollic-eabi/4.7.3/../../../../arm-atollic-eabi/lib/armv7e-m/fpu\libc.a(lib_a-freer.o)
_sbss                                             src\startup_stm32f30x.o
_sdata                                            src\startup_stm32f30x.o
_sidata                                           src\startup_stm32f30x.o
_stat                                             c:/program files (x86)/atollic/truestudio for arm lite 4.3.1/armtools/bin/../lib/gcc/arm-atollic-eabi/4.7.3/../../../../arm-atollic-eabi/lib/armv7e-m/fpu\libc.a(lib_a-syscalls.o)
_times                                            c:/program files (x86)/atollic/truestudio for arm lite 4.3.1/armtools/bin/../lib/gcc/arm-atollic-eabi/4.7.3/../../../../arm-atollic-eabi/lib/armv7e-m/fpu\libc.a(lib_a-syscalls.o)
_unlink                                           c:/program files (x86)/atollic/truestudio for arm lite 4.3.1/armtools/bin/../lib/gcc/arm-atollic-eabi/4.7.3/../../../../arm-atollic-eabi/lib/armv7e-m/fpu\libc.a(lib_a-syscalls.o)
_wait                                             c:/program files (x86)/atollic/truestudio for arm lite 4.3.1/armtools/bin/../lib/gcc/arm-atollic-eabi/4.7.3/../../../../arm-atollic-eabi/lib/armv7e-m/fpu\libc.a(lib_a-syscalls.o)
_wrapup_reent                                     c:/program files (x86)/atollic/truestudio for arm lite 4.3.1/armtools/bin/../lib/gcc/arm-atollic-eabi/4.7.3/../../../../arm-atollic-eabi/lib/armv7e-m/fpu\libc.a(lib_a-reent.o)
_write                                            c:/program files (x86)/atollic/truestudio for arm lite 4.3.1/armtools/bin/../lib/gcc/arm-atollic-eabi/4.7.3/../../../../arm-atollic-eabi/lib/armv7e-m/fpu\libc.a(lib_a-syscalls.o)
                                                  src\tiny_printf.o
ang                                               src\common.o
                                                  src\main.o
b                                                 Libraries\STM32F30x_StdPeriph_Driver\src\inciouart.o
buf                                               src\main.o
char4data                                         Libraries\STM32F30x_StdPeriph_Driver\src\inciouart.o
char5data                                         Libraries\STM32F30x_StdPeriph_Driver\src\inciouart.o
cleanup_glue                                      c:/program files (x86)/atollic/truestudio for arm lite 4.3.1/armtools/bin/../lib/gcc/arm-atollic-eabi/4.7.3/../../../../arm-atollic-eabi/lib/armv7e-m/fpu\libc.a(lib_a-reent.o)
currentvalue                                      src\main.o
dataregis                                         Libraries\STM32F30x_StdPeriph_Driver\src\inciobdc.o
delta                                             src\common.o
                                                  src\main.o
dir0                                              src\main.o
dir1                                              src\main.o
end                                               c:/program files (x86)/atollic/truestudio for arm lite 4.3.1/armtools/bin/../lib/gcc/arm-atollic-eabi/4.7.3/../../../../arm-atollic-eabi/lib/armv7e-m/fpu\libc.a(lib_a-syscalls.o)
environ                                           c:/program files (x86)/atollic/truestudio for arm lite 4.3.1/armtools/bin/../lib/gcc/arm-atollic-eabi/4.7.3/../../../../arm-atollic-eabi/lib/armv7e-m/fpu\libc.a(lib_a-syscalls.o)
errno                                             c:/program files (x86)/atollic/truestudio for arm lite 4.3.1/armtools/bin/../lib/gcc/arm-atollic-eabi/4.7.3/../../../../arm-atollic-eabi/lib/armv7e-m/fpu\libc.a(lib_a-sbrkr.o)
                                                  c:/program files (x86)/atollic/truestudio for arm lite 4.3.1/armtools/bin/../lib/gcc/arm-atollic-eabi/4.7.3/../../../../arm-atollic-eabi/lib/armv7e-m/fpu\libc.a(lib_a-reent.o)
                                                  c:/program files (x86)/atollic/truestudio for arm lite 4.3.1/armtools/bin/../lib/gcc/arm-atollic-eabi/4.7.3/../../../../arm-atollic-eabi/lib/armv7e-m/fpu\libc.a(lib_a-syscalls.o)
fiprintf                                          src\tiny_printf.o
fprintf                                           src\tiny_printf.o
fputs                                             src\tiny_printf.o
g_pfnVectors                                      src\startup_stm32f30x.o
i                                                 Libraries\STM32F30x_StdPeriph_Driver\src\inciouart.o
initialise_monitor_handles                        c:/program files (x86)/atollic/truestudio for arm lite 4.3.1/armtools/bin/../lib/gcc/arm-atollic-eabi/4.7.3/../../../../arm-atollic-eabi/lib/armv7e-m/fpu\libc.a(lib_a-syscalls.o)
iprintf                                           src\tiny_printf.o
jiffies                                           src\common.o
                                                  src\main.o
list                                              Libraries\STM32F30x_StdPeriph_Driver\src\inciogpio.o
main                                              src\main.o
                                                  src\startup_stm32f30x.o
malloc_getpagesize_P                              c:/program files (x86)/atollic/truestudio for arm lite 4.3.1/armtools/bin/../lib/gcc/arm-atollic-eabi/4.7.3/../../../../arm-atollic-eabi/lib/armv7e-m/fpu\libc.a(lib_a-mallocr.o)
                                                  c:/program files (x86)/atollic/truestudio for arm lite 4.3.1/armtools/bin/../lib/gcc/arm-atollic-eabi/4.7.3/../../../../arm-atollic-eabi/lib/armv7e-m/fpu\libc.a(lib_a-freer.o)
metre                                             src\common.o
mod                                               Libraries\STM32F30x_StdPeriph_Driver\src\inciogpio.o
modd                                              src\common.o
                                                  src\main.o
mode                                              Libraries\STM32F30x_StdPeriph_Driver\src\inciogpio.o
printf                                            src\tiny_printf.o
puts                                              src\tiny_printf.o
sfbits                                            Libraries\STM32F30x_StdPeriph_Driver\src\inciobdc.o
                                                  src\common.o
shiftregis                                        Libraries\STM32F30x_StdPeriph_Driver\src\inciobdc.o
                                                  src\common.o
side                                              src\common.o
                                                  src\main.o
sig_chk                                           src\common.o
siprintf                                          src\tiny_printf.o
sprintf                                           src\tiny_printf.o
                                                  src\main.o
strlen                                            c:/program files (x86)/atollic/truestudio for arm lite 4.3.1/armtools/bin/../lib/gcc/arm-atollic-eabi/4.7.3/../../../../arm-atollic-eabi/lib/armv7e-m/fpu\libc.a(lib_a-strlen.o)
                                                  Libraries\STM32F30x_StdPeriph_Driver\src\inciouart.o
                                                  src\tiny_printf.o
switches                                          src\common.o
test_pw                                           src\common.o
tim                                               src\main.o
timerFlag                                         src\main.o
ts_formatlength                                   src\tiny_printf.o
ts_formatstring                                   src\tiny_printf.o
ts_itoa                                           src\tiny_printf.o
