:020000040800F2
:1000000000A0002061050008510500085305000804
:1000100055050008570500085905000800000000B4
:100020000000000000000000000000005B05000868
:100030005D050008000000005F050008C10600081B
:10004000BD050008BD050008BD050008BD05000888
:10005000BD050008BD050008BD050008BD05000878
:10006000BD050008BD050008BD050008BD05000868
:10007000BD050008BD050008BD050008BD05000858
:10008000BD050008BD050008BD050008BD05000848
:10009000BD050008BD050008BD050008BD05000838
:1000A000BD05000839290008BD050008BD05000888
:1000B000BD050008BD05000805290008BD050008AC
:1000C000BD050008BD050008BD050008BD05000808
:1000D000BD050008BD050008BD050008BD050008F8
:1000E000BD050008BD050008BD050008BD050008E8
:1000F0006D290008BD050008BD050008BD05000804
:10010000000000000000000000000000BD05000825
:10011000B91D0008191E0008150600084D06000844
:10012000BD050008BD050008BD050008BD050008A7
:10013000BD050008BD05000800000000000000002B
:10014000BD050008BD050008BD0500080000000051
:10015000000000000000000000000000000000009F
:100160000000000000000000BD050008BD050008FB
:10017000BD050008000000000000000000000000B5
:0801800000000000BD050008AD
:1001880010B5054C237833B9044810B10448AFF3CF
:1001980000800121217010BD300000200000000007
:1001A800982A000808B5064B1BB106480649AFF364
:1001B80000800648016811B1054A02B1904708BDA0
:1001C80000000000982A00083400002030000020B9
:1001D800000000004FEA4102B2F1E04324BFB3F54A
:1001E800001CDCF1FE5C0DD901F0004C4FEAC002A6
:1001F8004CEA5070B2F1004F40EB830008BF20F08A
:100208000100704711F0804F21D113F13872BCBF43
:1002180001F00040704741F480114FEA5252C2F198
:100228001802C2F1200C10FA0CF320FA02F018BFE1
:1002380040F001004FEAC1234FEAD32303FA0CFC34
:1002480040EA0C0023FA02F34FEA4303CCE77FEAC3
:10025800625307D150EA01331EBF4FF0FE4040F40D
:100268004000704701F0004040F0FE4040F40000BC
:10027800704700BF30B5012391FBF3F494420EDBC5
:100288005343F9E791FBF3F4092C03FB14110568B8
:1002980093FBF2F306DD373405F8014B0560002BBC
:1002A800F0D101E03034F7E730BD00002DE9F0412E
:1002B8002DED028B5C4F8AB00D46019014468046A6
:1002C8000FCF03AE0FC697E8070086E807002B7824
:1002D800002B00F09F80252B40F096806B786E1CD9
:1002E800662B50D014D8582B48D00CD8252B00F0AA
:1002F80085802E2B40F08680AF78303F062F28BFB0
:100308000627EE1C40E0632B10D0642B7AD125E041
:10031800732B12D005D8692B20D06C2B72D1AE1C50
:100328001CE0752B16D0782B6CD127E02268019839
:1003380000F8012B0434019064E02168201D4C1E54
:1003480014F8012F22B1019B03F8012B0193F7E761
:10035800044657E0251D01A821680AE02168251DEB
:10036800002905DA019C2D2304F8013B4942019438
:1003780001A80A22FFF77EFF2C4643E0251D01A8AD
:1003880021681022F6E70627E51D25F0070101F18F
:100398000804D1E90001FFF71DFF08EE100AB5EEC9
:1003A800C08AF1EE10FA06D501982D2200F8012B2B
:1003B800B1EE488A0190FDEEC88A01A818EE901A9D
:1003C8000A22FFF757FF0AA901EB8707F8EEE88A28
:1003D80057ED077A38EE680AF8EEE70A019B20EE37
:1003E800201A2E25BDEEC18A03F8015B01A818EE7C
:1003F800101A0A220193FFF73DFF03E0019D05F85B
:10040800013B0195751C62E7019901F8013B013533
:1004180001915CE7019A13700198C8EB00000AB0DB
:10042800BDEC028BBDE8F081B02A00080EB403B51C
:1004380003AA52F8041B0192FFF738FFBDE80C40ED
:1004480003B070473B4BD3F8882042F47000C3F8E0
:100458008800394B196841F001021A605868374919
:10046800014059601A6822F0847020F480311960C4
:100478001A6822F480201860596821F4FE025A6034
:10048800D86A2F4A20F00F01D962186B82B0024057
:1004980000211A63996000910191186840F4803234
:1004A8001A60254B196801F400300190009A511C1C
:1004B8000091019818B9009AB2F5A06FF1D11B68A4
:1004C80013F4003118BF012101910198012805D0CA
:1004D800184A4FF00060906002B07047194B122222
:1004E800A3F580501A6041684160426842604368E1
:1004F80043F480614160426822F47C1343604168A0
:1005080041F4E8124260036843F0807101600368B7
:10051800094A9901FBD5506820F0030151605368DE
:1005280043F002005060044A516801F00C03082BA4
:10053800F9D1CDE700ED00E0001002400CC07FF8D3
:10054800CCFC00FF002002407047FEE7FEE7FEE714
:10055800FEE7704770477047DFF840D0002100F091
:1005680004B80F4B5B58435004310E480E4B4218E9
:100578009A42FFF4F6AF0D4A00F003B8002342F8A0
:10058800043B0B4B9A42FFF4F9AFFFF75BFF02F015
:1005980051FA00F011F8FFF7FEBF000000A000209C
:1005A800402C00080000002030000020300000200F
:1005B800DC010020FFF7FEBF08B501F02FFE00F0B8
:1005C800EFFA0F4801F0E6FB0E4B40F698025A632B
:1005D80000F01CFB00F04CF94FF09040012101F0B5
:1005E800A6FB0028F6D14FF09040012101F09FFBB7
:1005F8000028F8D00448006800F0F2FEEAE700BFDF
:10060800CC2A0008004001405800002010B5084BD3
:10061800084C1A68084B09491B682046FFF706FF73
:10062800204601F0B7FB06480022026110BD00BF5A
:1006380054010020B000002058000020D42A0008EF
:100648000010004008B501F091FE094B09481978DF
:1006580001F0010282F0010262F3000119704FF407
:10066800007101F06AFB044B0020186108BD00BF4F
:1006780058010020001000480014004008B50C4A3A
:100688000A2390FBF3F0106009490B68002B0CDD7E
:10069800002208484FF4007101F04FFB05484FF461
:1006A8000071002201F049FBEEE70020086008BD58
:1006B8008C000020001000480B4B1A680AB1501E2D
:1006C80018600A490A480B7803F00202D3B20BB14A
:1006D80001684B1C0360074802680AB1511E00E01C
:1006E8000A210160704700BF8C00002058010020DB
:1006F8006401002000000020012901D1024B01E023
:1007080009B9024B186070476C0000207000002087
:1007180010B5041E11DB012906D1184B18481A78A8
:10072800082101F00AFB15E031BB164A4FF0904052
:100738000221127801F001FB1CE001290DD10F48BC
:1007480003680F480821D3F1010238BF002201F0E5
:10075800F4FA64420C48446310BD69B9094B1A683D
:100768000221D2F1010238BF00224FF0904001F07F
:10077800E4FA644204498C6310BD00BF6C00002099
:10078800000800487000002000040040034B0128C6
:100798004FF000020CBF5A639A6370470004004090
:1007A80038B5144C144D102320461421092201F0A9
:1007B80025FC2046114C0921032201F0C3FA4722E7
:1007C8000123204644F61F6101F034FB20462946E8
:1007D80000F0B2FF002040F2DC53A881012120463E
:1007E800AB6000F09DFF20460121BDE8384001F0D4
:1007F8007DB800BF0014004874000020004001408C
:1008080008B5194B19481968A1B94FF400710122AC
:1008180001F093FA15484FF48061012201F08DFA36
:1008280012484FF40061012201F087FA0F484FF493
:10083800805113E04FF48071012201F07EFA0B48D9
:100848004FF40041012201F078FA08484FF4804142
:10085800012201F072FA05484FF400510122BDE867
:10086800084001F06ABA00BF580000200010004894
:1008780010B520214FF0904001F059FA1D4B1E4C45
:10088800003018BF012018604FF480611B4801F048
:100898004EFA2278D0F1010138BF002161F300023D
:1008A800174822704FF4804101F041FA2378D0F1C3
:1008B800010038BF002060F3041310214FF090406E
:1008C800237001F034FA6278D0F1010138BF0021B9
:1008D80061F300024FF090404021627001F027FA66
:1008E8006378D0F1010038BF002060F3041363700F
:1008F80010BD00BF5800002054010020000400482B
:10090800000C0048864B10B51C68012C47D185485F
:10091800012101F00CFA044638B983484FF480618C
:1009280001F005FA08B1814812E07F484FF4806170
:1009380001F0FDF9044668B97A48012101F0F7F998
:1009480040B17B48402101F0F2F918B142F2107031
:1009580021461AE07648402101F0E9F940B94FF004
:100968009040802101F0E3F910B142F210700BE0E1
:100978004FF09040802101F0DAF948B96C484021E5
:1009880001F0D5F920B169480121FFF7C1FEBEE7A2
:100998000120FFF7FBFE0020FFF7F8FEB7E7002C69
:1009A80040F0BD8061482146FFF7B2FE61488021D2
:1009B800224601F0C2F95E480221012201F0BDF988
:1009C80059481021012201F0B8F959484FF4006143
:1009D800012201F0B2F95848008801F0EBFF5248B3
:1009E8004FF4806101F0A3F904460028F7D1FFF71E
:1009F800CDFE52480121FFF78BFE4E48802101228F
:100A080001F09BF94A480221224601F096F946482E
:100A18001021012201F091F945484FF400610122AB
:100A280001F08BF94449088801F0C4FF404840218F
:100A380001F07DF904460028F8D10120FFF7A6FE51
:100A480042F210700121FFF763FE3A48802101222B
:100A580001F073F936480221012201F06EF932489B
:100A68001021224601F069F9314801224FF4006152
:100A780001F063F9304A108801F09CFF4FF0904074
:100A8800802101F054F904460028F7D10120FFF72E
:100A98007DFE42F210702146FFF73AFE254880217C
:100AA800012201F04AF922480221012201F045F908
:100AB8001D481021012201F040F91D484FF4006142
:100AC800224601F03AF91C4B188801F073FF1548CB
:100AD800012101F02CF960B11248022101F027F937
:100AE8000028F4D112484FF40061012201F025F9E1
:100AF800EDE7FFF74BFE12494FF4617048634FF47E
:100B0800FA600F4CFFF7BAFD4FF4966264206263F7
:100B1800FFF7B4FD4FF4617363636420F1E710BD20
:100B2800580000200008004800140048F0D8FFFFD3
:100B38000004004800100048D8010020C0E0FFFF72
:100B48000040014013B5042210241321102310483B
:100B580001F054FA132101220B2300940D4801F0EF
:100B68004DFA1321072223460B4801F047FA1321B7
:100B7800012223464FF0904001F040FA0748132124
:100B88000322234602B0BDE8104001F037BA00BF87
:100B980000140048000400480010004800080048FD
:100BA80010B5FFF7CFFFFFF7FBFD134B134C1448AD
:100BB80000221A608021012201F0BFF8204602219C
:100BC800012201F0BAF8102101220E4801F0B5F80F
:100BD800012220464FF4006101F0AFF80120002106
:100BE800FFF78AFD01200146FFF786FD0649002030
:100BF800BDE8104001F07ABE600100200004004802
:100C080000100048001400489401002010B542F27A
:100C180010700121FFF77CFD4FF09040802101F01A
:100C280086F804460028F7D10120FFF7AFFD42F20D
:100C380010702146FFF76CFD0848012101F077F894
:100C480020B90020BDE81040FFF7A0BD04484021AE
:100C580001F06DF80028EFD1F3E700BF0008004865
:100C68000004004808B51448012101F060F840B9B3
:100C7800124B1868012804D8114B187840F002006C
:100C880018E00D48012101F052F848B90B490A68EB
:100C9800022A05D90A490A7860F341020A7008BD98
:100CA8000548012101F043F80028DCD0044B1878EE
:100CB8006FF341001870D6E7000400486401002073
:100CC8005801002010B55C480221002201F035F8D7
:100CD80000221021594801F030F84FF4FA70FFF75C
:100CE800CDFC00215648FFF713FD40F2E240FFF724
:100CF800C5FC0020FFF74AFD52480021FFF708FD18
:100D0800FFF7B0FF50480021FFF702FD4B484FF4B2
:100D1800806101F00CF804460028F7D1FFF736FD92
:100D280044F620602146FFF7F3FC4848012100F013
:100D3800FEFF04460028F8D1FFF728FD4248214667
:100D4800FFF7E6FC3D484FF4806100F0F0FF0446F1
:100D58000028F7D1FFF71AFD44F620602146FFF777
:100D6800D7FC3A48012100F0E2FFC8B90020FFF79C
:100D78000DFD00224FF400612F4800F0DEFF002037
:100D8800FFF704FDC820FFF779FC00212E48FFF784
:100D9800BFFC29484FF40061012200F0CEFF06E0B5
:100DA8002A48202100F0C3FF0028DAD1DEE72348D3
:100DB8004FF4806100F0BBFF04460028F7D14FF4E0
:100DC800006122461C4800F0B8FF2046FFF7DEFC11
:100DD8004FF4E170FFF752FC012217484FF400610D
:100DE80000F0ABFF214644F62060FFF791FC4FF47A
:100DF800C870FFF743FC164B40F214525A634FF485
:100E0800C870FFF73BFC2046FFF7C0FC0A484FF4C8
:100E18000061224600F091FF4FF4FA600C4CFFF796
:100E28002DFC4FF4AF6060636420FFF727FC40F2AD
:100E38004C4161636420F1E7000400480014004855
:100E4800F0D8FFFF04F7FFFFE0B1FFFF00080048FC
:100E58000040014010B541480221002200F06DFF1A
:100E6800102100223E4800F068FF4FF4FA70FFF7A7
:100E780005FC3A484FF40061002200F05EFF44F69A
:100E880020600121FFF744FC4FF09040802100F0E2
:100E98004EFF04460028F7D10120FFF777FC44F6FF
:100EA80020602146FFF734FC2E48012100F03FFF67
:100EB80088B90020FFF76AFCFFF7D4FEC820FFF7C7
:100EC800DDFB29480021FFF723FC284B1A7842F064
:100ED8000200187006E02148402100F028FF002891
:100EE800E2D1E6E71E484FF4806100F020FF28B108
:100EF8001F490B681E2BF5D900220A601B48017890
:100F08006FF3410101700020FFF740FC00211948F0
:100F1800FFF7FEFB4FF4FA60FFF7B0FBFFF7A2FE06
:100F2800002143F69820FFF7F3FB4FF4FA70FFF720
:100F3800A5FB0A484FF40061012200F0FEFE0948B3
:100F4800012100F0F4FE0028F9D1FFF71FFC4FF44F
:100F5800FA60BDE81040FFF791BB00BF00040048ED
:100F6800001400480008004868C5FFFF5801002029
:100F78006401002048F4FFFFBA4B10B51C6824BB7D
:100F88002146B948FFF7C4FB4FF4C870FFF776FB5A
:100F98002046FFF7FBFBB5480121FFF7B9FBB44832
:100FA800402100F0C4FE0028F9D10120FFF7EEFB34
:100FB800AF480221012200F0C0FEAE4801221021F4
:100FC80000F0BBFEA74801220260AB490C68012C67
:100FD80040F09F80FFF746FE80210022A74800F0DE
:100FE800ACFE4FF44870FFF749FBFFF73BFE224683
:100FF800A348082100F0A1FEA24B44F620625A63E0
:101008004FF09040802100F092FE04460028F7D16E
:101018000120FFF7BBFB44F620602146FFF778FB71
:101028009748012100F083FEA8B90020FFF7AEFB26
:10103800022100228E4800F080FE4FF49670FFF7E0
:101048001DFB80218D48012200F077FE8648002193
:10105800FFF75EFB06E08648402100F068FE0028A6
:10106800DED1E2E783484FF4806100F060FE044679
:101078000028F7D1FFF78AFB102122467D4800F0AF
:101088005CFE4FF49670FFF7F9FA794802210122C5
:1010980000F053FE74480121FFF73AFB74484021E1
:1010A80000F045FE04460028F8D10120FFF76EFB4A
:1010B80080212246714800F040FE4FF49670FFF7F9
:1010C800DDFA6C481021012200F037FE44F620605A
:1010D8000121FFF71DFB4FF09040802100F027FE13
:1010E80004460028F7D10120FFF750FB44F62060A2
:1010F8002146FFF70DFB6248012100F018FE08B9F0
:1011080000209FE05A48402100F011FE0028F2D14B
:10111800F6E7002C40F0A580FFF7A4FD80212246C9
:10112800564800F00AFE40F2DC50FFF7A7FAFFF736
:1011380099FD4D482146FFF7EBFA4E484FF4806180
:1011480000F0F5FD0028F8D1FFF720FB4648012103
:10115800FFF7DEFA4648402100F0E9FD0446002882
:10116800F8D10120FFF712FB10212246414800F078
:10117800E4FD4FF49670FFF781FA80213F48012281
:1011880000F0DBFD4FF49670FFF778FA44F6206024
:101198000121FFF7BDFA4FF09040802100F0C7FD14
:1011A80004460028F7D10120FFF7F0FA0221224671
:1011B8002F4800F0C2FD4FF49670FFF75FFA2D48F4
:1011C8001021012200F0B9FD44F620602146FFF706
:1011D8009FFA2B48012100F0AAFDC0B90020FFF7B3
:1011E800D5FA80210022254800F0A7FD4FF496701B
:1011F800FFF744FA022101221D4800F09EFD6420F9
:10120800FFF73CFA18480021FFF782FA06E0184871
:10121800402100F08CFD0028DBD1DFE715484FF4B2
:10122800806100F084FD0028F8D1FFF7AFFA0E487E
:101238000121FFF76DFA0E48402100F078FD0028E3
:10124800F9D10120FFF7A2FAFFF70CFD0B48802126
:10125800012200F072FD4FF4FA60BDE81040FFF77C
:101268000DBA10BD4C000020E0B1FFFF98BDFFFF94
:1012780000040048001400485800002000100048EE
:10128800000800480004004010B54B480221002225
:1012980000F053FD49481021002200F04EFD464859
:1012A8004FF40061012200F048FDFFF7DBFC00224B
:1012B8004FF40061404800F040FD4FF4FA70FFF72A
:1012C800DDF93F480021FFF723FA3E4B1A7842F038
:1012D8000200187039484FF4806100F028FD28B1E9
:1012E80039490B68412BF5D900220A603548017845
:1012F8006FF34101017000213448FFF709FA4FF4F8
:10130800FA60FFF7BBF9FFF7ADFC002142F210705D
:10131800FFF7FEF94FF4C870FFF7B0F90020FFF7A8
:1013280035FA012224484FF4006100F006FD40F22E
:10133800DC50FFF7A3F9264B1A6840F201108242ED
:1013480039D024480021FFF7E3F91C484FF48061A5
:1013580000F0EDFC04460028F7D1FFF717FA214604
:1013680044F62060FFF7D4F94FF4FA70FFF786F9D6
:101378002046FFF70BFA18480121FFF7C9F90E4874
:10138800402100F0D4FC0028F9D10124134920465B
:101398000C60FFF7FBF902212246074800F0CDFC5C
:1013A80006481021224600F0C8FC4FF4FA60BDE858
:1013B8001040FFF763B910BD00040048001400484E
:1013C80068C5FFFF580100206401002048F4FFFFB2
:1013D80054010020E0B1FFFF98BDFFFF4C00002042
:1013E80010B59D4B1C6840F21110844200F0FA8041
:1013F8004EDC112C00F0D78022DC012C00F08A8012
:10140800102C40F02881FFF7FBF9002293484FF495
:10141800804100F092FC002290484FF4005100F007
:101428008CFC00228D484FF4807100F086FCFFF799
:10143800A3FD8A484FF40041002200F07EFC86E0BC
:10144800B4F5807F00F0848040F201118C4240F0B6
:101458000281FFF7D5F9002280484FF4004100F0DF
:101468006CFC00227D484FF4005100F066FCFFF749
:101478000BFF002279484FF4807100F05EFCFFF703
:10148800E9FC76484FF48041002200F056FCCAE09F
:1014980041F21002944200F0C78008DCB4F5805F86
:1014A80072D041F201039C4240F0D580D0E041F275
:1014B8001010844214D0411C8C420CD0B4F5885FC3
:1014C80040F0C980FFF79CF964484FF4807100220E
:1014D80000F033FC0EE0FFF793F9FFF7D5FE01E0CB
:1014E800FFF78EF95D484FF48071002200F025FC6B
:1014F800FFF742FD59484FF40041002200F01DFC5F
:10150800FFF7A8FC55484FF48041002200F015FC75
:10151800FFF7D8FBFFF774F950484FF40041002259
:1015280000F00BFC4D484FF40051002200F005FC80
:101538004A484FF48041002200F0FFFBFFF7A4FE69
:1015480046484FF48071002200F0F7FBFEE7FEE703
:10155800FFF756F941482146002200F0EEFB3F48CC
:101568004FF40051002200F0E8FB3C484FF40041E2
:10157800002200F0E2FBFFF76DFC38484FF4804191
:10158800002200F0DAFBFEE7FFF73AF900223348C1
:101598004FF4807100F0D1FB30484FF480410022B5
:1015A80000F0CBFB50E0FFF72BF92C484FF400512B
:1015B800002200F0C2FB29484FF48041002200F0CD
:1015C800BCFBFFF761FE25484FF48071002200F054
:1015D800B4FBFFF7D1FC21484FF40041002200F092
:1015E800ACFBFEE7FFF70CF91C484FF40051002252
:1015F80000F0A3FBFFF748FE18484FF48071002263
:1016080000F09BFBFFF7B8FC14484FF400410022A0
:1016180000F093FBFFF71EFC10484FF480410022B6
:1016280000F08BFBFEE7FEE7FFF7EAF80B484FF404
:101638008071002200F081FB08484FF480410022AD
:1016480000F07BFBFFF798FC04484FF400415CE78F
:10165800FFF758F9FCE710BD5401002000100048BE
:10166800C905CA0D02857047808CC105C80D704731
:10167800C36919420CBF002001207047204A038823
:1016880090429BB20ED002F5006290420AD0B0F1AF
:10169800804F07D0A2F59832904203D002F58062BD
:1016A800904203D14A8823F070031343154A9042AD
:1016B80008D002F58062904204D023F440730A896E
:1016C8009BB2134303804B680A88C3620C4B0285A4
:1016D80098420FD003F5006290420BD002F54063A8
:1016E800984207D003F58062904203D002F58063E8
:1016F800984201D1897A018601224261704700BF70
:10170800002C014000100040038819B199B241F043
:10171800800303E023F080010A04130C0380704760
:10172800038819B199B241F0010303E023F00101E4
:101738000A04130C03807047036A23F00102026253
:10174800036A426830B5856925F4803424F073054E
:101758000C682C438D8923F002032B438D882B437F
:10176800134DA8420FD005F50065A8420BD005F52A
:101778004065A84207D005F58065A84203D005F565
:101788008065A8420DD1CD8923F008032B43CD886D
:1017980023F004032B430D8A22F440722A434D8A16
:1017A8002A438968426084614163036230BD00BF97
:1017B800002C0140036A23F01002026270B5056A2A
:1017C8004268846924F080760C6826F4E64343EA8C
:1017D80004248E898B8825F02005334345EA0313BA
:1017E8000E4DA84203D005F50065A84210D123F09C
:1017F8008006CB8946EA0315CB8825F0400646EAE1
:1018080003134D8A0E8A22F44062354342EA850268
:101818008968426084618163036270BD002C014065
:10182800036A23F48072026270B5056A4268C4696B
:101838000B6824F0730646EA03048E898B8825F426
:101848000075334345EA03230E4DA84203D005F53E
:101858000065A84210D123F40066CB8946EA032527
:10186800CB8825F4806646EA03234D8A0E8A22F443
:101878004052354342EA051289684260C461C16337
:10188800036270BD002C0140036A23F48052026297
:1018980070B5056A4368C4690A6824F4E64646EAEE
:1018A80002228C888E8925F40055344345EA043495
:1018B800084DA84203D005F50065A84204D10D8A59
:1018C80023F4804343EA851389684360C261016455
:1018D800046270BD002C0140002303608380C38034
:1018E80083608381C381038243827047436C11B153
:1018F80043F4004201E059044A0C42647047C3684B
:101908000AB1194302E0C94389B21940C16070475E
:10191800C9438AB202617047F0B585688669076A6B
:101928004FF6F8742C404FF6FC45354045F4807668
:101938004FF6DD753D402A4342EA031346F001069F
:1019480021439DB2816086610562F0BD984B5A685B
:1019580002F00C02042A2DE9F04305D0082A06D02B
:1019680094490160B2B916E0924C046012E05D68D7
:101978005C68C5F38346B71CE50301D48E4A06E0CC
:10198800DB6A8C4D03F00F02511CB5FBF1F27A4370
:10199800026000E00022864C884F6668C6F3031395
:1019A800FE5C036823FA06F545606168C1F302210D
:1019B800795C25FA01F18160D4F804C0CCF3C2281F
:1019C80017F80870DFF8F88125FA07F5C560D4F82C
:1019D8002C90C9F3041C38F81C901FFA89FC0CF0F1
:1019E80010091FFA89F9B9F1000F04D0B2FBFCFC09
:1019F800C0F810C000E00361E46AC4F3442438F876
:101A08001440A4B204F0100C1FFA8CFCBCF1000FB7
:101A180003D0B2FBF4F4446100E04361644CD4F8B1
:101A280030C01CF0100F0ABFDFF888C18361C0F80E
:101A380018C0246BA40656BF5E4CC361C4615C4CDD
:101A4800D4F830C01CF4807F08D0934206D1B74246
:101A580004D14FEA430CC0F820C000E00562246BB3
:101A6800A40506D5934204D1B74202D15A00426276
:101A780000E045624E4A146BA40701D1856215E067
:101A8800146B04F00304012C01D183620EE0146B83
:101A980004F00304022C02D14FF4004405E0146B57
:101AA80004F00304032C01D1424C8462126B404CB5
:101AB80012F4403F01D1C16218E0226B02F44032B7
:101AC800B2F5803F01D1C36210E0226B02F44032CC
:101AD800B2F5003F02D14FF4004406E0246B04F451
:101AE8004032B2F5403F01D1324CC462304A146BE7
:101AF80014F4402F01D1016318E0146B04F440245E
:101B0800B4F5802F01D1036310E0146B04F4402472
:101B1800B4F5002F02D14FF4004406E0146B04F42E
:101B28004024B4F5402F01D1224C0463126B204CA1
:101B380012F4401F01D1416318E0226B02F44012F5
:101B4800B2F5801F01D1436310E0226B02F440120A
:101B5800B2F5001F02D14FF4004406E0246B04F4F0
:101B68004012B2F5401F01D1124C4463104A146B65
:101B780014F4400F02D18163BDE8F083116B01F4C6
:101B88004001B1F5800F0FD0136B03F44001B1F59C
:101B9800000F02D14FF4004306E0126B02F4400339
:101BA800B3F5400F01D1034B8363BDE8F08300BF59
:101BB8000010024000127A0000093D001E000020BB
:101BC80004000020044B5A6909B1104301E022EADD
:101BD80000005861704700BF00100240044B9A692A
:101BE80009B1104301E022EA00009861704700BF84
:101BF80000100240044BDA6909B1104301E022EAFF
:101C08000000D861704700BF00100240044BDA683A
:101C180009B1104301E022EA0000D860704700BF14
:101C280000100240044B1A6909B1104301E022EA8E
:101C380000001861704700BF00100240C37810B55B
:101C480003B3164CE168CB43C3F30224417803780D
:101C5800C4F1040201FA02F10F2222FA04F2847894
:101C680022400A43110103F16043CAB203F56141FE
:101C780081F800230078012200F01F03410902FACD
:101C880003F007E000780122410900F01F0302FA7F
:101C980003F02031024B43F8210010BD00ED00E0B5
:101CA80000E100E0F0B500230E681A46012505FAA8
:101CB80002F505EA0604AC4234D10D796F1E012FF6
:101CC8001BD887684FF0030C0CFA03FC27EA0C07B3
:101CD800876091F805C087680CFA03FC4CEA07078F
:101CE80087608788BFB227EA040484808C79878854
:101CF80004FA02F43C43A7B287800324076804FA75
:101D080003F4E44327400760076805FA03F53D43F9
:101D18000560C5682C40C460CC79C56804FA03F432
:101D28002C43C46001320233102ABFD1F0BD038AAC
:101D380019420CBF0020012070470AB18161704729
:101D48000185704701F00703C908083130B59B00C9
:101D580050F821500F2404FA03F425EA040440F84B
:101D6800214050F8214002FA03F2144340F8214080
:101D780030BD000010B5044605488021FFF778FC07
:101D88000028F9D002482146BDE81040FFF768BC9A
:101D9800004C004070B5054600F072FE002406466F
:101DA800B44204D0285D0134FFF7E4FFF8E770BDC2
:101DB80010B5054C2046FFF757FC044B0449188022
:101DC80008700020206210BD004C00405000002028
:101DD8006D01002010B5044605488021FFF748FC36
:101DE8000028F9D002482146BDE81040FFF738BC6A
:101DF8000050004070B5054600F042FE002406463B
:101E0800B44204D0285D0134FFF7E4FFF8E770BD61
:101E180010B5054C2046FFF727FC044B04491880F1
:101E280008700020206210BD0050004052000020C1
:101E38006C01002070B5154C0546228061600022B7
:101E480021461E4662802281A272FFF717FC0121FB
:101E58002846FFF75DFD012128460A46FFF74FFD9A
:101E68000B480C49854201D1372200E03622012077
:101E78000023C87007480A704B708B70FFF7DEFEAE
:101E88002846F1B2BDE87040FFF74ABC5C0000206C
:101E9800001400401401002070B52249224D00268C
:101EA80044F6206204460E804E804A600E818E728F
:101EB800FFF7E4FB2846FFF70FFD1C4BAE6001203F
:101EC80060219C42A880296003D003F58062944277
:101ED80004D120461449FFF72FFC19E0144B9C420B
:101EE8002046294606D1FFF727FC20462946FFF75A
:101EF80061FC0DE0FFF720FC20462946FFF75AFC5D
:101F080020462946FFF78CFC20462946FFF7BCFCF3
:101F180020460121FFF704FC20460121BDE870405E
:101F2800FFF7E4BC5C00002074000020004401407E
:101F380000400140F0B52C4C85B009251026082733
:101F4800072320461421062200970195029600F0E7
:101F580055F8204606210222FFF7F4FE2046072105
:101F68000222FFF7EFFE204639460222FFF7EAFE7B
:101F7800204629460222FFF7E5FE03231421022208
:101F880000964FF0904000F039F802212A464FF0B1
:101F98009040FFF7D7FEA4F5806403212A464FF04E
:101FA8009040FFF7CFFE0523204614210422009617
:101FB80000F024F8204604210122FFF7C3FE052182
:101FC80020460A22FFF7BEFE0848FFF765FF0848CB
:101FD800FFF762FF0748FFF75FFF074805B0BDE856
:101FE800F040FFF759BF00BF00080048004001401B
:101FF8000044014000480140000400400EB417B5F9
:10200800059A3B4B132A02D101241C7108E0122ABD
:102018004FF0000402D11C71012401E00221197162
:10202800DC71002203249A715C7106A91B68019176
:1020380051F8042B2F4C102A22604ED012B943F0CD
:102048000103F5E7012A02D143F00203F0E7022A6F
:1020580002D143F00403EBE7032A02D143F008035B
:10206800E6E7042A02D143F01003E1E7052A02D18A
:1020780043F02003DCE7062A02D143F04003D7E708
:10208800072A02D143F08003D2E7082A02D143F499
:102098008073CDE7092A02D143F40073C8E70A2AFE
:1020A80002D143F48063C3E70B2A02D143F40063EF
:1020B800BEE70C2A02D143F48053B9E70D2A02D1B6
:1020C80043F40053B4E70E2A02D143F48043AFE748
:1020D8000F2A08BF43F40043AAE7054C21462360B2
:1020E800FFF7E0FD00202060BDE81E4003B0704708
:1020F80090000020740100202DE9F04F8DB01024CD
:10210800042507274FF005094FF006080D2304930F
:102118001221002201238DE82002CDF808800397C0
:1021280005944FF09040FFF769FF02264FF0030B2C
:102138000A200B21049005910022122101238DE829
:102148004008CDF80880039706942F48FFF756FFFC
:102158004FF0090A0D220E230F20059206930790CF
:102168001221002201238DE840080295CDF80C9039
:10217800CDF810A008942548FFF740FF0B210E2248
:102188000F23039104920593122100220123CDF815
:102198000090CDF80480029706941D48FFF72EFFA3
:1021A800DFF874C0029560461221002201238DE8F1
:1021B8004008CDF80C90CDF8108005970694CDF81E
:1021C8002CC0FFF71BFF0A200190122132462B4634
:1021D800CDF800A002940F48FFF710FF0A200B214A
:1021E8000C220D23DDF82CC006948DE80F000E217B
:1021F8000F22049105926046132108225346FFF7E7
:10220800FDFE0DB0BDE8F08F00040048000800484E
:10221800000C0048001400480010004810B50121C7
:102228004FF40030FFF7CEFC01214FF48020FFF778
:10223800C9FC01214FF40020FFF7C4FC01214FF431
:102248008010FFF7BFFC01214FF40010FFF7BAFC24
:1022580001214FF48000FFF7B5FC01200146FFF78C
:10226800BDFC01214FF40020FFF7C4FC01214FF40D
:102278008010FFF7BFFC01214FF40060FFF7AEFCB0
:1022880000214FF40060FFF7C1FC02200121FFF795
:10229800B1FC04200121FFF7ADFC04200021FFF769
:1022A800C1FC10200121FFF7A5FC10200021FFF739
:1022B800B9FC20200121FFF79DFC20200021FFF719
:1022C800B1FC01214FF40050FFF788FC00214FF4C6
:1022D8000050FFF79BFC01214FF40030FFF77EFC14
:1022E80000214FF40030FFF791FC01214FF48030BA
:1022F800FFF774FC00214FF48030FFF787FC0121C1
:102308004FF48020FFF76AFC00214FF48020FFF78C
:102318007DFC01200146124CFFF76CFC00210120D6
:10232800FFF780FCFFF7E8FE00F0BCFA00F034FB92
:10233800FFF700FE2046FFF709FB62686423B2FB43
:10234800F3F0B0F1807F0AD2064B074A411EF02015
:10235800596082F82300002107209960186010BD99
:102368001801002010E000E000ED00E008B58D48FD
:102378000421FFF7DCFC10B98B48FFF70BFD4FF089
:1023880090400121FFF7D3FC10B98848FFF702FD00
:1023980087480221FFF7CBFC10B98648FFF7FAFC03
:1023A8004FF090402021FFF7C2FC10B98248FFF798
:1023B800F1FC4FF090408021FFF7B9FC10B97F483D
:1023C800FFF7E8FC7A482021FFF7B1FC10B97C48F8
:1023D800FFF7E0FC7B484FF40061FFF7A8FC10B959
:1023E8007948FFF7D7FC77484FF40041FFF79FFC87
:1023F80010B97648FFF7CEFC72484FF48041FFF7DA
:1024080096FC10B97248FFF7C5FC72484FF480611A
:10241800FFF78DFC10B97048FFF7BCFC6D4804212C
:10242800FFF785FC10B96D48FFF7B4FC6948012136
:10243800FFF77DFC10B96A48FFF7ACFC5C48102137
:10244800FFF775FC10B96748FFF7A4FC4FF0904000
:102458004021FFF76CFC10B96348FFF79BFC4FF075
:1024680090401021FFF763FC10B96048FFF792FC19
:102478004F480421FFF75BFC10B95D48FFF78AFC61
:102488004B480121FFF753FC10B95A48FFF782FC6B
:1024980047484FF48041FFF74AFC10B95648FFF708
:1024A80079FC56484021FFF742FC10B95448FFF721
:1024B80071FC52480421FFF73AFC10B95148FFF764
:1024C80069FC44484021FFF732FC10B94E48FFF739
:1024D80061FC3C488021FFF72AFC10B94B48FFF704
:1024E80059FC38482021FFF722FC10B94848FFF76B
:1024F80051FC34480221FFF71AFC10B94548FFF790
:1025080049FC4FF090404FF40051FFF710FC10B910
:102518004148FFF73FFC2B480121FFF708FC10B9A1
:102528003E48FFF737FC27484021FFF700FC10B969
:102538003B48FFF72FFC27480821FFF7F8FB10B9A5
:102548003848FFF727FC23488021FFF7F0FB10B934
:102558003548FFF74FFC29480821FFF7E8FB10B979
:102568003248FFF717FC12484FF40051FFF7DFFB22
:1025780010B92F48FFF70EFC0D484FF40041FFF744
:10258800D6FB10B92B48FFF705FC06484FF48061CD
:10259800FFF7CDFB10B92848FFF7FCFB2748FFF7EA
:1025A800F9FBE4E600140048DE2A0008E42A0008E3
:1025B80000080048EA2A0008022B0008082B000837
:1025C800D52B0008000C0048262B00082D2B0008EE
:1025D800342B000800040048DB2B0008E22B00081D
:1025E800E92B0008F02B0008F72B0008FE2B000849
:1025F800052C0008652B00086C2B0008001000480B
:10260800732B00080C2C0008132C00081A2C000847
:102618008C2B0008932B00089A2B0008A12B00088C
:10262800212C0008AE2B0008B52B0008BB2B000896
:10263800C22B0008282C00082F2C0008DB2A0008D1
:10264800264902202DE9F0414FF44072002601246A
:1026580008714FF003084FF090400A6081F8058038
:102668008E71CC71FFF71EFB082106224FF09040B7
:102678001B4DFFF767FB062209214FF09040FFF73B
:1026880061FB18494FF6FF7328460E804B604E8059
:102698000E81FEF7F3FF3346324628464146FFF7E0
:1026A8003BF928462146FFF72FF828462146FFF731
:1026B8002FF9284621462246FFF721F90A48192111
:1026C800017046708670C470FFF7B8FA374628461E
:1026D8002146BDE8F041FFF723B800BF9000002075
:1026E800002C01405C000020140100202DE9F0417D
:1026F800194E1A4900241822022701254FF0030811
:1027080030460A600F7181F805808C71CD71FFF732
:10271800C9FA304641463A46FFF714FB3A46304676
:102728000421FFF70FFB0E494FF0FF3048604FF0D0
:1027380080400C804C800C81FEF7A0FF29464FF0AA
:10274800804022462346FFF7E7F84FF080402946AD
:10275800BDE8F041FEF7E4BF000C004890000020FF
:102768005C000020F8B52149214E032000250124F2
:102778004FF440530227487130460B600F718D713A
:10278800CC71FFF78FFA30460C213A46FFF7DAFA98
:1027980030460D21174E3A46FFF7D4FA16494FF640
:1027A800FF7230460D804A604D800D81FEF766FF4E
:1027B8002B462A4630462146FFF7AEF830462146DA
:1027C800FFF7A6F8304621462246FFF798F80B484F
:1027D8001E21017045708570C470FFF72FFA2F46CF
:1027E80030462146BDE8F840FEF79ABF9000002029
:1027F800000C0048000800405C0000201401002084
:1028080024490320F8B5002601244FF4404302254B
:1028180048714FF090400B600D718E71CC71FFF7CD
:1028280041FA0E2105224FF09040FFF78BFA0F2155
:102838002A464FF09040184DFFF784FA17494FF693
:10284800FF7228460E804A604E800E81FEF716FF02
:102858003346324628462146FFF75EF82846214689
:10286800FEF752FF28462146FFF752F82846214630
:102878002246FFF744F80A482C21017046708670FA
:10288800C470FFF7DBF9374628462146BDE8F84013
:10289800FEF746BF90000020003401405C00002095
:1028A8001401002008B5FFF75DFFFFF7A9FFFFF748
:1028B8001DFFFFF7C5FE084A084B09499A60A2F5B3
:1028C8009630886000F50062064B07499A6002F569
:1028D8009630886008BD00BF242C0140C00100204C
:1028E8009401002080010020AC01002010B14FF0BD
:1028F800FF3300E00123CB60704700000A4B1A88C1
:1029080090B2012803D1094841884A1C06E0198879
:102918008AB2112A03D1054841884A1E4280002004
:1029280018616420FDF7AABE00080040800100205D
:102938000A4B1A8890B2812803D1094841884A1C59
:1029480006E019888AB2912A03D1054841884A1EAF
:102958004280002018616420FDF790BE002C0140E1
:10296800C00100200A4B1A8890B2812803D1094877
:1029780041884A1C06E019888AB2912A03D1054881
:1029880041884A1E4280002018616420FDF776BE07
:1029980000340140AC01002007B510230A228DE85D
:1029A8000C000348132108220923FFF727FB0EBD5B
:1029B800000C004838B51D4B4FF480611880002288
:1029C80005461B48FFF7B9F919484FF480710022F2
:1029D800FFF7B3F900244FF4004040FA04F028420E
:1029E8000CBF0022012212484FF40071FFF7A5F92D
:1029F80001220F484FF48061FFF79FF9013400224C
:102A08000B484FF48061FFF798F9102CE3D10122AD
:102A180007484FF48071FFF790F905484FF480712B
:102A28000022BDE83840FFF788B900BFD401002074
:102A3800000C004838B50E4D0E4BE81A85100024DE
:102A4800AC4205D00B4951F8242090470134F7E7F0
:102A580000F01EF80849094A541AA5100024AC428F
:102A680005D0054B53F8240080470134F7E738BDFB
:102A7800382C0008382C0008382C00083C2C00089A
:102A8800034613F8012B002AFBD1181A01387047A6
:102A9800F8B500BFF8BC08BC9E467047F8B500BF43
:082AA800F8BC08BC9E46704713
:102AB000000000000A00000064000000E8030000BD
:102AC00010270000A086010040420F0055415254DB
:102AD000204F4B00202578202025640D0A007062CD
:102AE0006631200070626632200069706631200015
:102AF0006970663220006970663320006970663440
:102B000020006970663520006970663620006970A3
:102B10006637006970663820006970663920006980
:102B2000706631302000697066313120006970664E
:102B300031322000697066313320006970663134AB
:102B400000697066313500697066313600697066FB
:102B50003137006970663138006970663139006953
:102B600070663230006970663231200069706632FA
:102B70003320006970663234200069706632360096
:102B80006970663238006970663239006970663380
:102B9000302000697066333120006970663333205D
:102BA0000069706633342000697033352000697025
:102BB00066333620006970663337006970663339D2
:102BC0002000697066343120006970663432006913
:102BD000706634330069706637200069706631347E
:102BE000200069706631352000697066313620003A
:102BF000697066313720006970663138200069706D
:102C000066313920006970663230200069706632A2
:102C100036200069706632382000697066323920CB
:102C200000697066333520006970663432200069AF
:082C300070663433200000003F
:042C3800AD010008E2
:042C3C008901000802
:102C40000A00000000000100020004000600080065
:102C50000A000C001000200040008000000100006D
:102C60000000010203040102030406070809000032
:040000050800056189
:00000001FF
